{
  "address": "0x4B264551eD876a822430CB99A9A7a2da723a3078",
  "abi": [
    {
      "inputs": [
        {
          "internalType": "address",
          "name": "forwarder_",
          "type": "address"
        }
      ],
      "stateMutability": "nonpayable",
      "type": "constructor"
    },
    {
      "inputs": [],
      "name": "CannotSendEther",
      "type": "error"
    },
    {
      "inputs": [],
      "name": "ZeroAddress",
      "type": "error"
    },
    {
      "inputs": [],
      "name": "ZeroValue",
      "type": "error"
    },
    {
      "anonymous": false,
      "inputs": [
        {
          "indexed": true,
          "internalType": "address",
          "name": "owner",
          "type": "address"
        },
        {
          "indexed": true,
          "internalType": "address",
          "name": "spender",
          "type": "address"
        },
        {
          "indexed": false,
          "internalType": "uint256",
          "name": "value",
          "type": "uint256"
        }
      ],
      "name": "Approval",
      "type": "event"
    },
    {
      "anonymous": false,
      "inputs": [
        {
          "indexed": false,
          "internalType": "address",
          "name": "",
          "type": "address"
        },
        {
          "indexed": false,
          "internalType": "address",
          "name": "",
          "type": "address"
        }
      ],
      "name": "ForwarderSet",
      "type": "event"
    },
    {
      "anonymous": false,
      "inputs": [
        {
          "indexed": true,
          "internalType": "address",
          "name": "previousOwner",
          "type": "address"
        },
        {
          "indexed": true,
          "internalType": "address",
          "name": "newOwner",
          "type": "address"
        }
      ],
      "name": "OwnershipTransferred",
      "type": "event"
    },
    {
      "anonymous": false,
      "inputs": [
        {
          "indexed": true,
          "internalType": "address",
          "name": "from",
          "type": "address"
        },
        {
          "indexed": true,
          "internalType": "address",
          "name": "to",
          "type": "address"
        },
        {
          "indexed": false,
          "internalType": "uint256",
          "name": "value",
          "type": "uint256"
        }
      ],
      "name": "Transfer",
      "type": "event"
    },
    {
      "inputs": [
        {
          "internalType": "address",
          "name": "owner",
          "type": "address"
        },
        {
          "internalType": "address",
          "name": "spender",
          "type": "address"
        }
      ],
      "name": "allowance",
      "outputs": [
        {
          "internalType": "uint256",
          "name": "",
          "type": "uint256"
        }
      ],
      "stateMutability": "view",
      "type": "function"
    },
    {
      "inputs": [
        {
          "internalType": "address",
          "name": "spender",
          "type": "address"
        },
        {
          "internalType": "uint256",
          "name": "amount",
          "type": "uint256"
        }
      ],
      "name": "approve",
      "outputs": [
        {
          "internalType": "bool",
          "name": "",
          "type": "bool"
        }
      ],
      "stateMutability": "nonpayable",
      "type": "function"
    },
    {
      "inputs": [
        {
          "internalType": "address",
          "name": "account",
          "type": "address"
        }
      ],
      "name": "balanceOf",
      "outputs": [
        {
          "internalType": "uint256",
          "name": "",
          "type": "uint256"
        }
      ],
      "stateMutability": "view",
      "type": "function"
    },
    {
      "inputs": [],
      "name": "decimals",
      "outputs": [
        {
          "internalType": "uint8",
          "name": "",
          "type": "uint8"
        }
      ],
      "stateMutability": "view",
      "type": "function"
    },
    {
      "inputs": [
        {
          "internalType": "address",
          "name": "spender",
          "type": "address"
        },
        {
          "internalType": "uint256",
          "name": "subtractedValue",
          "type": "uint256"
        }
      ],
      "name": "decreaseAllowance",
      "outputs": [
        {
          "internalType": "bool",
          "name": "",
          "type": "bool"
        }
      ],
      "stateMutability": "nonpayable",
      "type": "function"
    },
    {
      "inputs": [
        {
          "internalType": "address",
          "name": "spender",
          "type": "address"
        },
        {
          "internalType": "uint256",
          "name": "addedValue",
          "type": "uint256"
        }
      ],
      "name": "increaseAllowance",
      "outputs": [
        {
          "internalType": "bool",
          "name": "",
          "type": "bool"
        }
      ],
      "stateMutability": "nonpayable",
      "type": "function"
    },
    {
      "inputs": [
        {
          "internalType": "address",
          "name": "forwarder_",
          "type": "address"
        }
      ],
      "name": "isTrustedForwarder",
      "outputs": [
        {
          "internalType": "bool",
          "name": "",
          "type": "bool"
        }
      ],
      "stateMutability": "view",
      "type": "function"
    },
    {
      "inputs": [],
      "name": "name",
      "outputs": [
        {
          "internalType": "string",
          "name": "",
          "type": "string"
        }
      ],
      "stateMutability": "view",
      "type": "function"
    },
    {
      "inputs": [],
      "name": "owner",
      "outputs": [
        {
          "internalType": "address",
          "name": "",
          "type": "address"
        }
      ],
      "stateMutability": "view",
      "type": "function"
    },
    {
      "inputs": [],
      "name": "renounceOwnership",
      "outputs": [],
      "stateMutability": "nonpayable",
      "type": "function"
    },
    {
      "inputs": [
        {
          "internalType": "address",
          "name": "forwarder_",
          "type": "address"
        }
      ],
      "name": "setTrustedForwarder",
      "outputs": [],
      "stateMutability": "nonpayable",
      "type": "function"
    },
    {
      "inputs": [],
      "name": "symbol",
      "outputs": [
        {
          "internalType": "string",
          "name": "",
          "type": "string"
        }
      ],
      "stateMutability": "view",
      "type": "function"
    },
    {
      "inputs": [],
      "name": "totalSupply",
      "outputs": [
        {
          "internalType": "uint256",
          "name": "",
          "type": "uint256"
        }
      ],
      "stateMutability": "view",
      "type": "function"
    },
    {
      "inputs": [
        {
          "internalType": "address",
          "name": "recipient",
          "type": "address"
        },
        {
          "internalType": "uint256",
          "name": "amount",
          "type": "uint256"
        }
      ],
      "name": "transfer",
      "outputs": [
        {
          "internalType": "bool",
          "name": "",
          "type": "bool"
        }
      ],
      "stateMutability": "nonpayable",
      "type": "function"
    },
    {
      "inputs": [
        {
          "internalType": "address",
          "name": "sender",
          "type": "address"
        },
        {
          "internalType": "address",
          "name": "recipient",
          "type": "address"
        },
        {
          "internalType": "uint256",
          "name": "amount",
          "type": "uint256"
        }
      ],
      "name": "transferFrom",
      "outputs": [
        {
          "internalType": "bool",
          "name": "",
          "type": "bool"
        }
      ],
      "stateMutability": "nonpayable",
      "type": "function"
    },
    {
      "inputs": [
        {
          "internalType": "address",
          "name": "newOwner",
          "type": "address"
        }
      ],
      "name": "transferOwnership",
      "outputs": [],
      "stateMutability": "nonpayable",
      "type": "function"
    },
    {
      "stateMutability": "payable",
      "type": "receive"
    }
  ],
  "transactionHash": "0xf6632399a29cf4df943e68f44f954cbe1aca41f4a7bde3efbfd9b3cd9330a53d",
  "args": [
    "0x1D957EB520b5136CC44bcd9e1e29A3f9EFbE80f8"
  ],
  "numDeployments": 1,
  "solcInputHash": "a756ccfd98369b1eb342b772099f4d49",
  "bytecode": "0x6080346200049c57601f620011e838819003828101601f19908116850194909290916001600160401b03919082871184881017620004a157808492604098895283396020938491810103126200049c57516001600160a01b0380821694909290918590036200049c5762000072620004b7565b94600b86526a22283630ba102a37b5b2b760a91b8587015262000094620004b7565b600580825264111413105560da1b87830152620000b062000507565b600080546001600160a01b0319808216938a1693841783558d51929b939092918a167f8be0079c531659141344cd1fd0a4f28419497f9722a3daafe3b4186f6b6457e08d80a385156200048d57508b7f94aed472e01353526c04ec91cee149d41e78d848ec851c72be532bf7b120bd30916001968088549283161788558a8351921682528b820152a1805190858211620004795782548581811c911680156200046e575b8a8210146200045a5790818c84931162000409575b5089908c8311600114620003a8578b926200039c575b5050600019600383901b1c191690841b1781555b81519384116200038857600654908382811c921680156200037d575b88831014620003695789821162000322575b50508590888411600114620002be57839450908392918894620002b2575b50501b916000199060031b1c1916176006555b620001fc62000507565b169283156200027057507fddf252ad1be2c89b69c2b068fc378daa952ba7f163c4a11628f55a4df523b3ef9062000235600454620004d7565b600455838352600281528483206200024e8154620004d7565b905584516b1363156bbee3016d700000008152a351610cbb90816200052d8239f35b6064925084519162461bcd60e51b8352600483015260248201527f45524332303a206d696e7420746f20746865207a65726f2061646472657373006044820152fd5b015192503880620001df565b60068852868820929484908116895b89888383106200030a5750505010620002f0575b505050811b01600655620001f2565b015160001960f88460031b161c19169055388080620002e1565b868601518855909601959485019487935001620002cd565b60068952878920908a808701821c8301938a88106200035f575b01901c019083905b828110620003535750620001c1565b89815501839062000344565b935082936200033c565b634e487b7160e01b89526022600452602489fd5b91607f1691620001af565b634e487b7160e01b88526041600452602488fd5b0151905038806200017f565b908887941691858d528b8d20928d5b8d828210620003f25750508411620003d8575b505050811b01815562000193565b015160001960f88460031b161c19169055388080620003ca565b8385015186558a97909501949384019301620003b7565b909150838b52898b208c808501861c8201928c861062000450575b9188918695949301871c01915b8281106200044157505062000169565b8d815585945088910162000431565b9250819262000424565b634e487b7160e01b8b52602260045260248bfd5b90607f169062000154565b634e487b7160e01b8a52604160045260248afd5b63d92e233d60e01b8152600490fd5b600080fd5b634e487b7160e01b600052604160045260246000fd5b60408051919082016001600160401b03811183821017620004a157604052565b906b1363156bbee3016d700000008201809211620004f157565b634e487b7160e01b600052601160045260246000fd5b600154336001600160a01b0390911603620005285736601319013560601c90565b339056fe608060408181526004918236101561002b575b50361561001e57600080fd5b5163bf06461960e01b8152fd5b600090813560e01c90816306fdde031461080657508063095ea7b3146107d557806318160ddd146107b757806323b872dd146106e8578063313ce567146106cc578063395093511461066c578063572b6c051461063857806370a0823114610600578063715018a6146105975780638da5cb5b1461056f57806395d89b4114610455578063a457c2d71461039b578063a9059cbb146102a7578063da74222814610204578063dd62ed3e146101b75763f2fde38b036100125791346101b35760203660031901126101b3576100fe610911565b83546001600160a01b038082169391926101228261011a610c61565b168614610942565b169384156101615750506001600160a01b031916821783557f8be0079c531659141344cd1fd0a4f28419497f9722a3daafe3b4186f6b6457e08380a380f35b906020608492519162461bcd60e51b8352820152602660248201527f4f776e61626c653a206e6577206f776e657220697320746865207a65726f206160448201526564647265737360d01b6064820152fd5b8280fd5b509034610200578060031936011261020057806020926101d5610911565b6101dd61092c565b6001600160a01b0391821683526003865283832091168252845220549051908152f35b5080fd5b5090346102005760203660031901126102005761021f610911565b82546001600160a01b039182916102429083168361023b610c61565b1614610942565b168015610297577f94aed472e01353526c04ec91cee149d41e78d848ec851c72be532bf7b120bd3093945060015491816bffffffffffffffffffffffff60a01b8416176001558351921682526020820152a180f35b825163d92e233d60e01b81528590fd5b50346103985781600319360112610398576102c0610911565b90602435936102cd610c61565b8451918583019083821067ffffffffffffffff83111761038557509261037e9492819260209895885260088252673a3930b739b332b960c11b89830152610360885180926103338c830195638ef3f39960e01b87526080602485015260a48401906108d1565b6001600160a01b03918216604484015290881660648301526084820189905203601f19810183528261098d565b51906a636f6e736f6c652e6c6f675afa50610379610c61565b6109e8565b5160018152f35b634e487b7160e01b855260419052602484fd5b80fd5b508290346103985782600319360112610398576103b6610911565b906024359084906001600160a01b03806103ce610c61565b168252600360205282822090851682526020522054928184106104045760208561037e8686866103fc610c61565b920391610b5f565b608490602086519162461bcd60e51b8352820152602560248201527f45524332303a2064656372656173656420616c6c6f77616e63652062656c6f77604482015264207a65726f60d81b6064820152fd5b50346103985780600319360112610398578151918160065492600184811c91818616958615610565575b6020968785108114610552578899509688969785829a52918260001461052b5750506001146104cf575b5050506104cb92916104bc91038561098d565b519282849384528301906108d1565b0390f35b9190869350600683527ff652222313e28459528d920b65115c16c04f3efc82aaedc97be59f3f377c0d3f5b82841061051357505050820101816104bc6104cb6104a9565b8054848a0186015288955087949093019281016104fa565b60ff19168782015293151560051b860190930193508492506104bc91506104cb90506104a9565b634e487b7160e01b835260228a52602483fd5b92607f169261047f565b509034610200578160031936011261020057905490516001600160a01b039091168152602090f35b5034610398578060031936011261039857805481906001600160a01b0380821691906105cd906105c5610c61565b168314610942565b6001600160a01b03191682557f8be0079c531659141344cd1fd0a4f28419497f9722a3daafe3b4186f6b6457e08280a380f35b5090346102005760203660031901126102005760209181906001600160a01b03610628610911565b1681526002845220549051908152f35b50903461020057602036600319011261020057602090610656610911565b60018060a01b0380600154169116149051908152f35b50903461020057806003193601126102005761037e60209261068c610911565b6106c6610697610c61565b926001600160a01b03806106a9610c61565b1682526003885286822090841682528752856024359120546109c5565b91610b5f565b5090346102005781600319360112610200576020905160128152f35b50823461020057606036600319011261020057610703610911565b918361070d61092c565b9161071c6044358094876109e8565b6001600160a01b03858116825260036020528282209061073a610c61565b1682526020522054918183106107635760208561037e86868661075b610c61565b910391610b5f565b608490602086519162461bcd60e51b8352820152602860248201527f45524332303a207472616e7366657220616d6f756e74206578636565647320616044820152676c6c6f77616e636560c01b6064820152fd5b5091346101b357826003193601126101b35760209250549051908152f35b50903461020057806003193601126102005760209061037e6107f5610911565b60243590610801610c61565b610b5f565b929050346102005781600319360112610200578160055492600184811c918186169586156108c7575b6020968785108114610552578899509688969785829a52918260001461052b57505060011461086b575050506104cb92916104bc91038561098d565b9190869350600583527f036b6384b5eca791c62761152d0c79bb0604c104a5fb6f4eb0703f3154bb3db05b8284106108af57505050820101816104bc6104cb6104a9565b8054848a018601528895508794909301928101610896565b92607f169261082f565b919082519283825260005b8481106108fd575050826000602080949584010152601f8019910116010190565b6020818301810151848301820152016108dc565b600435906001600160a01b038216820361092757565b600080fd5b602435906001600160a01b038216820361092757565b1561094957565b606460405162461bcd60e51b815260206004820152602060248201527f4f776e61626c653a2063616c6c6572206973206e6f7420746865206f776e65726044820152fd5b90601f8019910116810190811067ffffffffffffffff8211176109af57604052565b634e487b7160e01b600052604160045260246000fd5b919082018092116109d257565b634e487b7160e01b600052601160045260246000fd5b6001600160a01b03908116918215610b0c5716918215610abb5760008281526002602052604081205491808310610a6757604082827fddf252ad1be2c89b69c2b068fc378daa952ba7f163c4a11628f55a4df523b3ef95876020965260028652038282205586815220610a5c8282546109c5565b9055604051908152a3565b60405162461bcd60e51b815260206004820152602660248201527f45524332303a207472616e7366657220616d6f756e7420657863656564732062604482015265616c616e636560d01b6064820152608490fd5b60405162461bcd60e51b815260206004820152602360248201527f45524332303a207472616e7366657220746f20746865207a65726f206164647260448201526265737360e81b6064820152608490fd5b60405162461bcd60e51b815260206004820152602560248201527f45524332303a207472616e736665722066726f6d20746865207a65726f206164604482015264647265737360d81b6064820152608490fd5b6001600160a01b03908116918215610c105716918215610bc05760207f8c5be1e5ebec7d5bd14f71427d1e84f3dd0314c0f7b2291e5b200ac8c7c3b925918360005260038252604060002085600052825280604060002055604051908152a3565b60405162461bcd60e51b815260206004820152602260248201527f45524332303a20617070726f766520746f20746865207a65726f206164647265604482015261737360f01b6064820152608490fd5b60405162461bcd60e51b8152602060048201526024808201527f45524332303a20617070726f76652066726f6d20746865207a65726f206164646044820152637265737360e01b6064820152608490fd5b600154336001600160a01b0390911603610c815736601319013560601c90565b339056fea2646970667358221220ed4442f559cea424d3c7a4ab8fc6c8d7ad8c88b8269ed96f5d734733241937d764736f6c63430008110033",
  "devdoc": {
    "kind": "dev",
    "methods": {
      "allowance(address,address)": {
        "details": "See {IERC20-allowance}."
      },
      "approve(address,uint256)": {
        "details": "See {IERC20-approve}. Requirements: - `spender` cannot be the zero address."
      },
      "balanceOf(address)": {
        "details": "See {IERC20-balanceOf}."
      },
      "constructor": {
        "details": "mints 6 billion DPLAT tokens to msg.sender",
        "params": {
          "forwarder_": "Forwarder contact address"
        }
      },
      "decimals()": {
        "details": "Returns the number of decimals used to get its user representation. For example, if `decimals` equals `2`, a balance of `505` tokens should be displayed to a user as `5.05` (`505 / 10 ** 2`). Tokens usually opt for a value of 18, imitating the relationship between Ether and Wei. This is the value {ERC20} uses, unless this function is overridden; NOTE: This information is only used for _display_ purposes: it in no way affects any of the arithmetic of the contract, including {IERC20-balanceOf} and {IERC20-transfer}."
      },
      "decreaseAllowance(address,uint256)": {
        "details": "Atomically decreases the allowance granted to `spender` by the caller. This is an alternative to {approve} that can be used as a mitigation for problems described in {IERC20-approve}. Emits an {Approval} event indicating the updated allowance. Requirements: - `spender` cannot be the zero address. - `spender` must have allowance for the caller of at least `subtractedValue`."
      },
      "increaseAllowance(address,uint256)": {
        "details": "Atomically increases the allowance granted to `spender` by the caller. This is an alternative to {approve} that can be used as a mitigation for problems described in {IERC20-approve}. Emits an {Approval} event indicating the updated allowance. Requirements: - `spender` cannot be the zero address."
      },
      "isTrustedForwarder(address)": {
        "params": {
          "forwarder_": "Address to check"
        },
        "returns": {
          "_0": "true if forwarder_ is trusted forwarder"
        }
      },
      "name()": {
        "details": "Returns the name of the token."
      },
      "owner()": {
        "details": "Returns the address of the current owner."
      },
      "renounceOwnership()": {
        "details": "Leaves the contract without owner. It will not be possible to call `onlyOwner` functions anymore. Can only be called by the current owner. NOTE: Renouncing ownership will leave the contract without an owner, thereby removing any functionality that is only available to the owner."
      },
      "setTrustedForwarder(address)": {
        "details": "onlyOwner can call",
        "params": {
          "forwarder_": "Frwarder conract address"
        }
      },
      "symbol()": {
        "details": "Returns the symbol of the token, usually a shorter version of the name."
      },
      "totalSupply()": {
        "details": "See {IERC20-totalSupply}."
      },
      "transfer(address,uint256)": {
        "details": "See {IERC20-transfer}. Requirements: - `recipient` cannot be the zero address. - the caller must have a balance of at least `amount`."
      },
      "transferFrom(address,address,uint256)": {
        "details": "See {IERC20-transferFrom}. Emits an {Approval} event indicating the updated allowance. This is not required by the EIP. See the note at the beginning of {ERC20}. Requirements: - `sender` and `recipient` cannot be the zero address. - `sender` must have a balance of at least `amount`. - the caller must have allowance for ``sender``'s tokens of at least `amount`."
      },
      "transferOwnership(address)": {
        "details": "Transfers ownership of the contract to a new account (`newOwner`). Can only be called by the current owner."
      }
    },
    "title": "The DPLAT ERC20 contract",
    "version": 1
  },
  "userdoc": {
    "errors": {
      "CannotSendEther()": [
        {
          "notice": "error (0xbf064619): Contract cannot receive ether"
        }
      ],
      "ZeroAddress()": [
        {
          "notice": "error (0xd92e233d): Address is address(0)"
        }
      ],
      "ZeroValue()": [
        {
          "notice": "error(): Value sent is 0"
        }
      ]
    },
    "events": {
      "ForwarderSet(address,address)": {
        "notice": "event (0x94aed472): Forwarder address is changed"
      }
    },
    "kind": "user",
    "methods": {
      "constructor": {
        "notice": "DPLAT ERC20 constructor"
      },
      "isTrustedForwarder(address)": {
        "notice": "Check if the given address is the trusted forwarder"
      },
      "setTrustedForwarder(address)": {
        "notice": "Set the forwarder contract address"
      }
    },
    "version": 1
  },
  "storageLayout": {
    "storage": [
      {
        "astId": 7,
        "contract": "contracts/DPlatToken.sol:DPlatToken",
        "label": "_owner",
        "offset": 0,
        "slot": "0",
        "type": "t_address"
      },
      {
        "astId": 1540,
        "contract": "contracts/DPlatToken.sol:DPlatToken",
        "label": "trustedForwarder",
        "offset": 0,
        "slot": "1",
        "type": "t_address"
      },
      {
        "astId": 343,
        "contract": "contracts/DPlatToken.sol:DPlatToken",
        "label": "_balances",
        "offset": 0,
        "slot": "2",
        "type": "t_mapping(t_address,t_uint256)"
      },
      {
        "astId": 349,
        "contract": "contracts/DPlatToken.sol:DPlatToken",
        "label": "_allowances",
        "offset": 0,
        "slot": "3",
        "type": "t_mapping(t_address,t_mapping(t_address,t_uint256))"
      },
      {
        "astId": 351,
        "contract": "contracts/DPlatToken.sol:DPlatToken",
        "label": "_totalSupply",
        "offset": 0,
        "slot": "4",
        "type": "t_uint256"
      },
      {
        "astId": 353,
        "contract": "contracts/DPlatToken.sol:DPlatToken",
        "label": "_name",
        "offset": 0,
        "slot": "5",
        "type": "t_string_storage"
      },
      {
        "astId": 355,
        "contract": "contracts/DPlatToken.sol:DPlatToken",
        "label": "_symbol",
        "offset": 0,
        "slot": "6",
        "type": "t_string_storage"
      }
    ],
    "types": {
      "t_address": {
        "encoding": "inplace",
        "label": "address",
        "numberOfBytes": "20"
      },
      "t_mapping(t_address,t_mapping(t_address,t_uint256))": {
        "encoding": "mapping",
        "key": "t_address",
        "label": "mapping(address => mapping(address => uint256))",
        "numberOfBytes": "32",
        "value": "t_mapping(t_address,t_uint256)"
      },
      "t_mapping(t_address,t_uint256)": {
        "encoding": "mapping",
        "key": "t_address",
        "label": "mapping(address => uint256)",
        "numberOfBytes": "32",
        "value": "t_uint256"
      },
      "t_string_storage": {
        "encoding": "bytes",
        "label": "string",
        "numberOfBytes": "32"
      },
      "t_uint256": {
        "encoding": "inplace",
        "label": "uint256",
        "numberOfBytes": "32"
      }
    }
  }
}