{
  "address": "0xca510b6CE41EEec10D2688328896972778ABa5e8",
  "abi": [
    {
      "inputs": [
        {
          "internalType": "uint256",
          "name": "",
          "type": "uint256"
        },
        {
          "internalType": "uint256",
          "name": "",
          "type": "uint256"
        }
      ],
      "name": "ArraySizeMismatch",
      "type": "error"
    },
    {
      "inputs": [
        {
          "internalType": "address",
          "name": "",
          "type": "address"
        },
        {
          "internalType": "uint256",
          "name": "",
          "type": "uint256"
        },
        {
          "internalType": "bytes",
          "name": "",
          "type": "bytes"
        }
      ],
      "name": "FailedToSendEther",
      "type": "error"
    },
    {
      "inputs": [
        {
          "internalType": "address",
          "name": "",
          "type": "address"
        }
      ],
      "name": "NotAWorker",
      "type": "error"
    },
    {
      "inputs": [
        {
          "internalType": "uint256",
          "name": "",
          "type": "uint256"
        },
        {
          "internalType": "uint256",
          "name": "",
          "type": "uint256"
        }
      ],
      "name": "NotEnoughEtherSent",
      "type": "error"
    },
    {
      "inputs": [],
      "name": "ZeroAddress",
      "type": "error"
    },
    {
      "anonymous": false,
      "inputs": [
        {
          "indexed": false,
          "internalType": "uint256",
          "name": "",
          "type": "uint256"
        }
      ],
      "name": "ForwarderDplatMinimumProcessingGasSet",
      "type": "event"
    },
    {
      "anonymous": false,
      "inputs": [
        {
          "indexed": false,
          "internalType": "uint256",
          "name": "",
          "type": "uint256"
        }
      ],
      "name": "ForwarderDplatPostExecGasSet",
      "type": "event"
    },
    {
      "anonymous": false,
      "inputs": [
        {
          "indexed": false,
          "internalType": "address",
          "name": "",
          "type": "address"
        }
      ],
      "name": "ForwarderDplatSet",
      "type": "event"
    },
    {
      "anonymous": false,
      "inputs": [
        {
          "indexed": false,
          "internalType": "address",
          "name": "",
          "type": "address"
        },
        {
          "indexed": false,
          "internalType": "bool",
          "name": "",
          "type": "bool"
        }
      ],
      "name": "ForwarderDplatWorkerRegistered",
      "type": "event"
    },
    {
      "anonymous": false,
      "inputs": [
        {
          "indexed": true,
          "internalType": "address",
          "name": "previousOwner",
          "type": "address"
        },
        {
          "indexed": true,
          "internalType": "address",
          "name": "newOwner",
          "type": "address"
        }
      ],
      "name": "OwnershipTransferred",
      "type": "event"
    },
    {
      "anonymous": false,
      "inputs": [
        {
          "indexed": false,
          "internalType": "address",
          "name": "",
          "type": "address"
        },
        {
          "indexed": false,
          "internalType": "uint256",
          "name": "",
          "type": "uint256"
        }
      ],
      "name": "RefundEth",
      "type": "event"
    },
    {
      "anonymous": false,
      "inputs": [
        {
          "indexed": false,
          "internalType": "bool",
          "name": "",
          "type": "bool"
        },
        {
          "indexed": false,
          "internalType": "bytes",
          "name": "",
          "type": "bytes"
        }
      ],
      "name": "ZbyteForwarderDPlatExecute",
      "type": "event"
    },
    {
      "inputs": [
        {
          "components": [
            {
              "internalType": "address",
              "name": "from",
              "type": "address"
            },
            {
              "internalType": "address",
              "name": "to",
              "type": "address"
            },
            {
              "internalType": "uint256",
              "name": "value",
              "type": "uint256"
            },
            {
              "internalType": "uint256",
              "name": "gas",
              "type": "uint256"
            },
            {
              "internalType": "uint256",
              "name": "nonce",
              "type": "uint256"
            },
            {
              "internalType": "bytes",
              "name": "data",
              "type": "bytes"
            }
          ],
          "internalType": "struct MinimalForwarder.ForwardRequest",
          "name": "req",
          "type": "tuple"
        },
        {
          "internalType": "bytes",
          "name": "signature",
          "type": "bytes"
        }
      ],
      "name": "execute",
      "outputs": [
        {
          "internalType": "bool",
          "name": "",
          "type": "bool"
        },
        {
          "internalType": "bytes",
          "name": "",
          "type": "bytes"
        }
      ],
      "stateMutability": "payable",
      "type": "function"
    },
    {
      "inputs": [
        {
          "internalType": "address",
          "name": "from",
          "type": "address"
        }
      ],
      "name": "getNonce",
      "outputs": [
        {
          "internalType": "uint256",
          "name": "",
          "type": "uint256"
        }
      ],
      "stateMutability": "view",
      "type": "function"
    },
    {
      "inputs": [],
      "name": "minProcessingGas",
      "outputs": [
        {
          "internalType": "uint256",
          "name": "",
          "type": "uint256"
        }
      ],
      "stateMutability": "view",
      "type": "function"
    },
    {
      "inputs": [],
      "name": "owner",
      "outputs": [
        {
          "internalType": "address",
          "name": "",
          "type": "address"
        }
      ],
      "stateMutability": "view",
      "type": "function"
    },
    {
      "inputs": [],
      "name": "postExecGas",
      "outputs": [
        {
          "internalType": "uint256",
          "name": "",
          "type": "uint256"
        }
      ],
      "stateMutability": "view",
      "type": "function"
    },
    {
      "inputs": [
        {
          "internalType": "address[]",
          "name": "workers_",
          "type": "address[]"
        },
        {
          "internalType": "bool[]",
          "name": "register_",
          "type": "bool[]"
        }
      ],
      "name": "registerWorkers",
      "outputs": [],
      "stateMutability": "nonpayable",
      "type": "function"
    },
    {
      "inputs": [
        {
          "internalType": "address",
          "name": "",
          "type": "address"
        }
      ],
      "name": "registeredWorkers",
      "outputs": [
        {
          "internalType": "bool",
          "name": "",
          "type": "bool"
        }
      ],
      "stateMutability": "view",
      "type": "function"
    },
    {
      "inputs": [],
      "name": "renounceOwnership",
      "outputs": [],
      "stateMutability": "nonpayable",
      "type": "function"
    },
    {
      "inputs": [
        {
          "internalType": "uint256",
          "name": "minProcessingGas_",
          "type": "uint256"
        }
      ],
      "name": "setMinProcessingGas",
      "outputs": [],
      "stateMutability": "nonpayable",
      "type": "function"
    },
    {
      "inputs": [
        {
          "internalType": "uint256",
          "name": "postExecGas_",
          "type": "uint256"
        }
      ],
      "name": "setPostExecGas",
      "outputs": [],
      "stateMutability": "nonpayable",
      "type": "function"
    },
    {
      "inputs": [
        {
          "internalType": "address",
          "name": "zbyteDPlat_",
          "type": "address"
        }
      ],
      "name": "setZbyteDPlat",
      "outputs": [],
      "stateMutability": "nonpayable",
      "type": "function"
    },
    {
      "inputs": [
        {
          "internalType": "address",
          "name": "newOwner",
          "type": "address"
        }
      ],
      "name": "transferOwnership",
      "outputs": [],
      "stateMutability": "nonpayable",
      "type": "function"
    },
    {
      "inputs": [
        {
          "components": [
            {
              "internalType": "address",
              "name": "from",
              "type": "address"
            },
            {
              "internalType": "address",
              "name": "to",
              "type": "address"
            },
            {
              "internalType": "uint256",
              "name": "value",
              "type": "uint256"
            },
            {
              "internalType": "uint256",
              "name": "gas",
              "type": "uint256"
            },
            {
              "internalType": "uint256",
              "name": "nonce",
              "type": "uint256"
            },
            {
              "internalType": "bytes",
              "name": "data",
              "type": "bytes"
            }
          ],
          "internalType": "struct MinimalForwarder.ForwardRequest",
          "name": "req",
          "type": "tuple"
        },
        {
          "internalType": "bytes",
          "name": "signature",
          "type": "bytes"
        }
      ],
      "name": "verify",
      "outputs": [
        {
          "internalType": "bool",
          "name": "",
          "type": "bool"
        }
      ],
      "stateMutability": "view",
      "type": "function"
    },
    {
      "inputs": [
        {
          "internalType": "address",
          "name": "receiver_",
          "type": "address"
        }
      ],
      "name": "withdrawEth",
      "outputs": [],
      "stateMutability": "nonpayable",
      "type": "function"
    },
    {
      "inputs": [],
      "name": "zbyteDPlat",
      "outputs": [
        {
          "internalType": "address",
          "name": "",
          "type": "address"
        }
      ],
      "stateMutability": "view",
      "type": "function"
    },
    {
      "inputs": [
        {
          "components": [
            {
              "internalType": "address",
              "name": "from",
              "type": "address"
            },
            {
              "internalType": "address",
              "name": "to",
              "type": "address"
            },
            {
              "internalType": "uint256",
              "name": "value",
              "type": "uint256"
            },
            {
              "internalType": "uint256",
              "name": "gas",
              "type": "uint256"
            },
            {
              "internalType": "uint256",
              "name": "nonce",
              "type": "uint256"
            },
            {
              "internalType": "bytes",
              "name": "data",
              "type": "bytes"
            }
          ],
          "internalType": "struct MinimalForwarder.ForwardRequest",
          "name": "req_",
          "type": "tuple"
        },
        {
          "internalType": "bytes",
          "name": "signature_",
          "type": "bytes"
        }
      ],
      "name": "zbyteExecute",
      "outputs": [
        {
          "internalType": "bool",
          "name": "",
          "type": "bool"
        },
        {
          "internalType": "bytes",
          "name": "",
          "type": "bytes"
        }
      ],
      "stateMutability": "payable",
      "type": "function"
    }
  ],
  "transactionHash": "0xf3e5abff00719ba3dc8bd37856e2f18191bc346168867954ec47cc2ab9fb9721",
  "args": [],
  "numDeployments": 1,
  "solcInputHash": "7b843cd26962cacb91c14eabf2978b63",
  "bytecode": "0x610120806040523461016c5761001481610171565b60108152602081016f26b4b734b6b0b62337b93bb0b93232b960811b8152602060405161004081610171565b600580825264302e302e3160d81b9290910191825260008054336001600160a01b03198216811783556040519496929592916001600160a01b03167f8be0079c531659141344cd1fd0a4f28419497f9722a3daafe3b4186f6b6457e08780a35190209320908360c0528160e0524660a05260208101917f8b73c3c69bb8fe3d512ecc4cf759cc79239f7b179b0ffacaa9a75d522b39400f94858452604083015260608201524660808201523060a082015260a0815260c081019281841060018060401b03851117610158575082604052519020608052610100918252600160025561148791826101a38339608051826112ca015260a051826112a4015260c05182611319015260e0518261133f015251816112f60152f35b634e487b7160e01b81526041600452602490fd5b600080fd5b604081019081106001600160401b0382111761018c57604052565b634e487b7160e01b600052604160045260246000fdfe60806040526004361015610013575b600080fd5b60003560e01c8063024ccc0e1461015357806325e160631461014a578063262b923f146101415780632d0335ab14610138578063420569da1461012f57806347153f8214610126578063486678931461011d578063560fd05314610114578063715018a61461010b5780638da5cb5b14610102578063a7a5064b146100f9578063bb9ff10a146100f0578063bf5d3bdb146100e7578063cb238ec3146100de578063e582bdc7146100d55763f2fde38b146100cd57600080fd5b61000e610a6d565b5061000e610a19565b5061000e6109ef565b5061000e6109cb565b5061000e61084d565b5061000e610530565b5061000e610506565b5061000e6104a3565b5061000e610484565b5061000e610430565b5061000e6103f7565b5061000e6102f1565b5061000e6102b3565b5061000e61021c565b5061000e610197565b5061000e610167565b600091031261000e57565b503461000e57600036600319011261000e576020600354604051908152f35b6001600160a01b0381160361000e57565b503461000e57602036600319011261000e576004356101b581610186565b60018060a01b036000916101cd828454163314610b0a565b8280808047855af16101dd610e2a565b90156101e7578380f35b610218904760405194859463b7da4a5560e01b8652166004850152602484015260606044840152606483019061039b565b0390fd5b503461000e57602036600319011261000e5760043561023a81610186565b6000546001600160a01b0391906102549083163314610b0a565b1680156102a1576020817feae099e1050269219af48fdaaaddabd62a71f9c26f5d2b56421f2c5634c49e2d926bffffffffffffffffffffffff60a01b6004541617600455604051908152a1005b60405163d92e233d60e01b8152600490fd5b503461000e57602036600319011261000e576004356102d181610186565b60018060a01b031660005260016020526020604060002054604051908152f35b503461000e57602036600319011261000e5760043561030f81610186565b60018060a01b03166000526006602052602060ff604060002054166040519015158152f35b906003199060408284011261000e5760043567ffffffffffffffff9283821161000e5760c090828603011261000e57600401926024359083821161000e578060238301121561000e57816004013593841161000e576024848301011161000e576024019190565b919082519283825260005b8481106103c7575050826000602080949584010152601f8019910116010190565b6020818301810151848301820152016103a6565b6040906103f4939215158152816020820152019061039b565b90565b5061040a61040436610334565b91610e77565b9061041a604051928392836103db565b0390f35b602090600319011261000e5760043590565b503461000e577f1f32728a0854893ebabc9e4ca396948843c23754c3e713d6e29b34a06b22125c60206104623661041e565b61047760018060a01b03600054163314610b0a565b80600555604051908152a1005b503461000e57600036600319011261000e576020600554604051908152f35b503461000e5760008060031936011261050357805481906001600160a01b038116906104d0338314610b0a565b6001600160a01b03191682557f8be0079c531659141344cd1fd0a4f28419497f9722a3daafe3b4186f6b6457e08280a380f35b80fd5b503461000e57600036600319011261000e576000546040516001600160a01b039091168152602090f35b5061053a36610334565b60003381526020926006845260409160ff8382205416156108055760028054146107c157600280555a9383870135903482036107a357610586826105816003543a906113e2565b610dfa565b9384886105ac6105a06105a060045460018060a01b031690565b6001600160a01b031690565b6105b7828d01610b9c565b908c886105e36105dd6105d76105cc85610b9c565b9460a0810190610ba6565b906113f5565b90611403565b8c5163171cc2a560e31b81526001600160a01b0395861660048201529290941660248301526001600160e01b03199093166044820152606481019490945283916084918391905af1988915610796575b8599610757575b505061066a9161064e91610659999a610e77565b979096600554610dfa565b6106653a915a90611444565b6113e2565b600454909390610684906105a0906001600160a01b031681565b90813b156107535785516337d5ce0160e11b81526001600160a01b039990991660048a015286151560248a01526044890192909252606488019390935260848701529394929361041a9391829060a490829084905af18015610746575b61072d575b507f5c3206c687e636d8803f1e04675d3774fe8d87aafdc4d2ba7f9ec2b6cd5bd46d8151806107168787836103db565b0390a16107236001600255565b51928392836103db565b8061073a61074092610bf0565b8061015c565b386106e6565b61074e611188565b6106e1565b8380fd5b61065999509161078461066a94928461064e95903d1061078f575b61077c8183610c11565b81019061142f565b99509181935061063a565b503d610772565b61079e611188565b610633565b845163f9309a0960e01b815260048101839052346024820152604490fd5b825162461bcd60e51b815260048101869052601f60248201527f5265656e7472616e637947756172643a207265656e7472616e742063616c6c006044820152606490fd5b8251639059e05560e01b8152336004820152602490fd5b9181601f8401121561000e5782359167ffffffffffffffff831161000e576020808501948460051b01011161000e57565b503461000e5760408060031936011261000e57600480359167ffffffffffffffff9283811161000e57610883903690840161081c565b9360243590811161000e5761089b903690850161081c565b90916108b260018060a01b03600054163314610b0a565b8186036109a85760005b8681106108c557005b6108db6105a06108d6838a866113af565b610b9c565b1561099857806109366108fa6108f56109939487896113af565b6113d5565b61092561090b6108d6858d896113af565b6001600160a01b0316600090815260066020526040902090565b9060ff801983541691151516179055565b7fe1554bdacf83f01a59f99f5f1b39cde978a69658a23bc647bb80eac05982fe796109656108d6838b876113af565b6109736108f584888a6113af565b88516001600160a01b0392909216825215156020820152604090a1611393565b6108bc565b845163d92e233d60e01b81528690fd5b509151637d9eea2360e11b81529283019384525060208301529081906040010390fd5b503461000e5760206109e56109df36610334565b91610c95565b6040519015158152f35b503461000e57600036600319011261000e576004546040516001600160a01b039091168152602090f35b503461000e577f6342abcf92d1bbe9cd955214f1570a0381aba5f9a476d99c428f19b96363d7e16020610a4b3661041e565b610a6060018060a01b03600054163314610b0a565b80600355604051908152a1005b503461000e57602036600319011261000e57600435610a8b81610186565b6000546001600160a01b0390610aa49082163314610b0a565b811615610ab657610ab490610b55565b005b60405162461bcd60e51b815260206004820152602660248201527f4f776e61626c653a206e6577206f776e657220697320746865207a65726f206160448201526564647265737360d01b6064820152608490fd5b15610b1157565b606460405162461bcd60e51b815260206004820152602060248201527f4f776e61626c653a2063616c6c6572206973206e6f7420746865206f776e65726044820152fd5b600080546001600160a01b039283166001600160a01b03198216811783559216907f8be0079c531659141344cd1fd0a4f28419497f9722a3daafe3b4186f6b6457e09080a3565b356103f481610186565b903590601e198136030182121561000e570180359067ffffffffffffffff821161000e5760200191813603831361000e57565b50634e487b7160e01b600052604160045260246000fd5b67ffffffffffffffff8111610c0457604052565b610c0c610bd9565b604052565b90601f8019910116810190811067ffffffffffffffff821117610c0457604052565b60209067ffffffffffffffff8111610c51575b601f01601f19160190565b610c59610bd9565b610c46565b929192610c6a82610c33565b91610c786040519384610c11565b82948184528183011161000e578281602093846000960137010152565b91610d7990610d73843593610ca985610186565b610d6b610cb860208801610b9c565b87610d63608082013598610d55610cdc610cd560a0860186610ba6565b3691610c5e565b602081519101208b604051958694602086019860406060840135930135918a9260c09491979695929760e08501987fdd8f4b70b0f4393e889bd39128a30628a78b61816a9eb8199759e7a349657e48865260018060a01b0380921660208701521660408501526060840152608083015260a08201520152565b03601f198101835282610c11565b51902061124b565b923691610c5e565b90610f6c565b90610da0610d8684610b9c565b6001600160a01b0316600090815260016020526040902090565b54149182610dad57505090565b610dbc9192506105a090610b9c565b6001600160a01b039091161490565b50634e487b7160e01b600052601160045260246000fd5b9060018201809211610df057565b610df8610dcb565b565b91908201809211610df057565b826014949392823701906bffffffffffffffffffffffff199060601b1681520190565b3d15610e55573d90610e3b82610c33565b91610e496040519384610c11565b82523d6000602084013e565b606090565b15610e6157565b634e487b7160e01b600052600160045260246000fd5b9291610e839184610c95565b15610f0c57610e956080830135610de2565b610ea1610d8684610b9c565b55600080610eb160208501610b9c565b936040606082013595610ec760a0840184610ba6565b610eea610ed686959395610b9c565b91610d558451938492602084019889610e07565b519301359087f1610f08610efc610e2a565b93603f5a910410610e5a565b9190565b60405162461bcd60e51b815260206004820152603260248201527f4d696e696d616c466f727761726465723a207369676e617475726520646f6573604482015271081b9bdd081b585d18da081c995c5d595cdd60721b6064820152608490fd5b6103f491610f7991611122565b919091610fa1565b60051115610f8b57565b634e487b7160e01b600052602160045260246000fd5b610faa81610f81565b80610fb25750565b610fbb81610f81565b600181036110085760405162461bcd60e51b815260206004820152601860248201527f45434453413a20696e76616c6964207369676e617475726500000000000000006044820152606490fd5b61101181610f81565b6002810361105e5760405162461bcd60e51b815260206004820152601f60248201527f45434453413a20696e76616c6964207369676e6174757265206c656e677468006044820152606490fd5b61106781610f81565b600381036110bf5760405162461bcd60e51b815260206004820152602260248201527f45434453413a20696e76616c6964207369676e6174757265202773272076616c604482015261756560f01b6064820152608490fd5b806110cb600492610f81565b146110d257565b60405162461bcd60e51b815260206004820152602260248201527f45434453413a20696e76616c6964207369676e6174757265202776272076616c604482015261756560f01b6064820152608490fd5b81516041810361114f57509061114b916020820151906060604084015193015160001a90611195565b9091565b60400361117e57602082015160409092015161114b926001600160ff1b03821692909160ff1c601b0190611195565b5050600090600290565b506040513d6000823e3d90fd5b9291907f7fffffffffffffffffffffffffffffff5d576e7357a4501ddfe92f46681b20a0831161123f5760ff16601b81141580611234575b611228579160809493916020936040519384528484015260408301526060820152600093849182805260015afa1561121b575b81516001600160a01b03811615611215579190565b50600190565b611223611188565b611200565b50505050600090600490565b50601c8114156111cd565b50505050600090600390565b6112536112a1565b9060405190602082019261190160f01b845260228301526042820152604281526080810181811067ffffffffffffffff821117611294575b60405251902090565b61129c610bd9565b61128b565b467f0000000000000000000000000000000000000000000000000000000000000000036112ec577f000000000000000000000000000000000000000000000000000000000000000090565b60405160208101907f000000000000000000000000000000000000000000000000000000000000000082527f000000000000000000000000000000000000000000000000000000000000000060408201527f000000000000000000000000000000000000000000000000000000000000000060608201524660808201523060a082015260a0815260c0810181811067ffffffffffffffff8211176112945760405251902090565b60019060001981146113a3570190565b6113ab610dcb565b0190565b91908110156113bf5760051b0190565b634e487b7160e01b600052603260045260246000fd5b35801515810361000e5790565b81810292918115918404141715610df057565b9060041161000e5790600490565b6001600160e01b0319903581811693926004811061142057505050565b60040360031b82901b16169150565b9081602091031261000e57516103f481610186565b91908203918211610df05756fea264697066735822122018505fb525cb9503a5bdf2053b0aa8350273eec053300bd08b224baa3178139364736f6c63430008110033",
  "devdoc": {
    "kind": "dev",
    "methods": {
      "owner()": {
        "details": "Returns the address of the current owner."
      },
      "registerWorkers(address[],bool[])": {
        "params": {
          "register_": "An array of boolean values indicating registration status",
          "workers_": "An array of worker addresses"
        }
      },
      "renounceOwnership()": {
        "details": "Leaves the contract without owner. It will not be possible to call `onlyOwner` functions anymore. Can only be called by the current owner. NOTE: Renouncing ownership will leave the contract without an owner, thereby removing any functionality that is only available to the owner."
      },
      "setMinProcessingGas(uint256)": {
        "params": {
          "minProcessingGas_": "The new minimum processing gas value"
        }
      },
      "setPostExecGas(uint256)": {
        "params": {
          "postExecGas_": "The new minimum processing gas value"
        }
      },
      "setZbyteDPlat(address)": {
        "params": {
          "zbyteDPlat_": "The address of the Zbyte DPlat contract"
        }
      },
      "transferOwnership(address)": {
        "details": "Transfers ownership of the contract to a new account (`newOwner`). Can only be called by the current owner."
      },
      "withdrawEth(address)": {
        "params": {
          "receiver_": "The address to which the Ether balance will be sent."
        }
      },
      "zbyteExecute((address,address,uint256,uint256,uint256,bytes),bytes)": {
        "details": "This function facilitates call to a target contract while allowing the user to pay in DPLAT tokens\\  The user would have received vERC20 necessary for the call execution.  An equivalent amount is charged in vERC20 from the user\\  If the target contract accepts msg.value, equivalent of that is charged from the user during preExecute\\  If preExecute collects more vERC20 than that is needed for the call, an event is emitted with the refund amount\\  If the target contract sends any refund to the _msgSender(), the caller receives the refund directly  If the target contract call reverts, msg.value is not sent to the target and an event is emitted with the refund amount",
        "params": {
          "req_": "The forward request data containing the recipient, value, data, and other information.",
          "signature_": "The signature for the forward request (if required)."
        },
        "returns": {
          "_0": "success A boolean indicating whether the execution was successful.",
          "_1": "returndata The return data from the executed contract."
        }
      }
    },
    "title": "The ZBYT Dplat forwarder contract Todo: Integrate chargeAndBurnZbyteVToken and refundZbyteVToken with ZbyteDPlat",
    "version": 1
  },
  "userdoc": {
    "errors": {
      "ArraySizeMismatch(uint256,uint256)": [
        {
          "notice": "error (0xfb3dd446): Array sizes don't match."
        }
      ],
      "FailedToSendEther(address,uint256,bytes)": [
        {
          "notice": "error (0xb7da4a55): Failed to send ether."
        }
      ],
      "NotAWorker(address)": [
        {
          "notice": "error (0x9059e055): Not a worker."
        }
      ],
      "NotEnoughEtherSent(uint256,uint256)": [
        {
          "notice": "error (0xf9309a09): Not enough ether sent the function."
        }
      ],
      "ZeroAddress()": [
        {
          "notice": "errorserror (0xd92e233d): Address is zero. "
        }
      ]
    },
    "events": {
      "ForwarderDplatMinimumProcessingGasSet(uint256)": {
        "notice": "event (0x6342abcf): Forwarder minimum processing gas is set."
      },
      "ForwarderDplatPostExecGasSet(uint256)": {
        "notice": "event (0x1f32728a): Forwarder post exec gas is set."
      },
      "ForwarderDplatSet(address)": {
        "notice": "eventsevent (0xeae099e1): Forwarder address is set."
      },
      "ForwarderDplatWorkerRegistered(address,bool)": {
        "notice": "event (0xe1554bda): Forwarder worker is registered."
      },
      "RefundEth(address,uint256)": {
        "notice": "event (0xe5cac075): Refund Eth to payer."
      },
      "ZbyteForwarderDPlatExecute(bool,bytes)": {
        "notice": "event (0x5c3206c6): Execute result and return data"
      }
    },
    "kind": "user",
    "methods": {
      "minProcessingGas()": {
        "notice": "Minimum amount of gas needed for a call via the forwarder"
      },
      "postExecGas()": {
        "notice": "Amount of gas needed for a post execute to the DPlat"
      },
      "registerWorkers(address[],bool[])": {
        "notice": "Registers workers with the contract"
      },
      "registeredWorkers(address)": {
        "notice": "Mapping of registered workers"
      },
      "setMinProcessingGas(uint256)": {
        "notice": "Sets the minimum processing gas"
      },
      "setPostExecGas(uint256)": {
        "notice": "Sets the post execute processing gas"
      },
      "setZbyteDPlat(address)": {
        "notice": "Sets the address of the Zbyte DPlat contract"
      },
      "withdrawEth(address)": {
        "notice": "Allows the owner of the contract to withdraw the contract's Ether balance."
      },
      "zbyteDPlat()": {
        "notice": "Address of the Zbyte DPlat contract"
      },
      "zbyteExecute((address,address,uint256,uint256,uint256,bytes),bytes)": {
        "notice": "Executes a forward request, ensuring that it is called by a registered worker and handling gas fees."
      }
    },
    "version": 1
  },
  "storageLayout": {
    "storage": [
      {
        "astId": 7,
        "contract": "contracts/dplat/ZbyteForwarderDplat.sol:ZbyteForwarderDPlat",
        "label": "_owner",
        "offset": 0,
        "slot": "0",
        "type": "t_address"
      },
      {
        "astId": 135,
        "contract": "contracts/dplat/ZbyteForwarderDplat.sol:ZbyteForwarderDPlat",
        "label": "_nonces",
        "offset": 0,
        "slot": "1",
        "type": "t_mapping(t_address,t_uint256)"
      },
      {
        "astId": 377,
        "contract": "contracts/dplat/ZbyteForwarderDplat.sol:ZbyteForwarderDPlat",
        "label": "_status",
        "offset": 0,
        "slot": "2",
        "type": "t_uint256"
      },
      {
        "astId": 6315,
        "contract": "contracts/dplat/ZbyteForwarderDplat.sol:ZbyteForwarderDPlat",
        "label": "minProcessingGas",
        "offset": 0,
        "slot": "3",
        "type": "t_uint256"
      },
      {
        "astId": 6318,
        "contract": "contracts/dplat/ZbyteForwarderDplat.sol:ZbyteForwarderDPlat",
        "label": "zbyteDPlat",
        "offset": 0,
        "slot": "4",
        "type": "t_address"
      },
      {
        "astId": 6321,
        "contract": "contracts/dplat/ZbyteForwarderDplat.sol:ZbyteForwarderDPlat",
        "label": "postExecGas",
        "offset": 0,
        "slot": "5",
        "type": "t_uint256"
      },
      {
        "astId": 6326,
        "contract": "contracts/dplat/ZbyteForwarderDplat.sol:ZbyteForwarderDPlat",
        "label": "registeredWorkers",
        "offset": 0,
        "slot": "6",
        "type": "t_mapping(t_address,t_bool)"
      }
    ],
    "types": {
      "t_address": {
        "encoding": "inplace",
        "label": "address",
        "numberOfBytes": "20"
      },
      "t_bool": {
        "encoding": "inplace",
        "label": "bool",
        "numberOfBytes": "1"
      },
      "t_mapping(t_address,t_bool)": {
        "encoding": "mapping",
        "key": "t_address",
        "label": "mapping(address => bool)",
        "numberOfBytes": "32",
        "value": "t_bool"
      },
      "t_mapping(t_address,t_uint256)": {
        "encoding": "mapping",
        "key": "t_address",
        "label": "mapping(address => uint256)",
        "numberOfBytes": "32",
        "value": "t_uint256"
      },
      "t_uint256": {
        "encoding": "inplace",
        "label": "uint256",
        "numberOfBytes": "32"
      }
    }
  }
}