{
  "address": "0x1D957EB520b5136CC44bcd9e1e29A3f9EFbE80f8",
  "abi": [
    {
      "anonymous": false,
      "inputs": [
        {
          "indexed": true,
          "internalType": "address",
          "name": "previousOwner",
          "type": "address"
        },
        {
          "indexed": true,
          "internalType": "address",
          "name": "newOwner",
          "type": "address"
        }
      ],
      "name": "OwnershipTransferred",
      "type": "event"
    },
    {
      "inputs": [
        {
          "components": [
            {
              "internalType": "address",
              "name": "from",
              "type": "address"
            },
            {
              "internalType": "address",
              "name": "to",
              "type": "address"
            },
            {
              "internalType": "uint256",
              "name": "value",
              "type": "uint256"
            },
            {
              "internalType": "uint256",
              "name": "gas",
              "type": "uint256"
            },
            {
              "internalType": "uint256",
              "name": "nonce",
              "type": "uint256"
            },
            {
              "internalType": "bytes",
              "name": "data",
              "type": "bytes"
            }
          ],
          "internalType": "struct MinimalForwarder.ForwardRequest",
          "name": "req",
          "type": "tuple"
        },
        {
          "internalType": "bytes",
          "name": "signature",
          "type": "bytes"
        }
      ],
      "name": "execute",
      "outputs": [
        {
          "internalType": "bool",
          "name": "",
          "type": "bool"
        },
        {
          "internalType": "bytes",
          "name": "",
          "type": "bytes"
        }
      ],
      "stateMutability": "payable",
      "type": "function"
    },
    {
      "inputs": [
        {
          "internalType": "address",
          "name": "from",
          "type": "address"
        }
      ],
      "name": "getNonce",
      "outputs": [
        {
          "internalType": "uint256",
          "name": "",
          "type": "uint256"
        }
      ],
      "stateMutability": "view",
      "type": "function"
    },
    {
      "inputs": [],
      "name": "owner",
      "outputs": [
        {
          "internalType": "address",
          "name": "",
          "type": "address"
        }
      ],
      "stateMutability": "view",
      "type": "function"
    },
    {
      "inputs": [],
      "name": "renounceOwnership",
      "outputs": [],
      "stateMutability": "nonpayable",
      "type": "function"
    },
    {
      "inputs": [
        {
          "internalType": "address",
          "name": "newOwner",
          "type": "address"
        }
      ],
      "name": "transferOwnership",
      "outputs": [],
      "stateMutability": "nonpayable",
      "type": "function"
    },
    {
      "inputs": [
        {
          "components": [
            {
              "internalType": "address",
              "name": "from",
              "type": "address"
            },
            {
              "internalType": "address",
              "name": "to",
              "type": "address"
            },
            {
              "internalType": "uint256",
              "name": "value",
              "type": "uint256"
            },
            {
              "internalType": "uint256",
              "name": "gas",
              "type": "uint256"
            },
            {
              "internalType": "uint256",
              "name": "nonce",
              "type": "uint256"
            },
            {
              "internalType": "bytes",
              "name": "data",
              "type": "bytes"
            }
          ],
          "internalType": "struct MinimalForwarder.ForwardRequest",
          "name": "req",
          "type": "tuple"
        },
        {
          "internalType": "bytes",
          "name": "signature",
          "type": "bytes"
        }
      ],
      "name": "verify",
      "outputs": [
        {
          "internalType": "bool",
          "name": "",
          "type": "bool"
        }
      ],
      "stateMutability": "view",
      "type": "function"
    }
  ],
  "transactionHash": "0x4dd980756435a25513f53ddb32aa2500a874d465262d661a383e405056a767ee",
  "args": [],
  "numDeployments": 1,
  "solcInputHash": "a756ccfd98369b1eb342b772099f4d49",
  "bytecode": "0x6101208060405234610167576100148161016c565b60108152602081016f26b4b734b6b0b62337b93bb0b93232b960811b815260206040516100408161016c565b600580825264302e302e3160d81b9290910191825260008054336001600160a01b03198216811783556040519496929592916001600160a01b03167f8be0079c531659141344cd1fd0a4f28419497f9722a3daafe3b4186f6b6457e08780a35190209320908360c0528160e0524660a05260208101917f8b73c3c69bb8fe3d512ecc4cf759cc79239f7b179b0ffacaa9a75d522b39400f94858452604083015260608201524660808201523060a082015260a0815260c081019281841060018060401b03851117610153575082604052519020608052610100918252610e3e918261019e833960805182610bae015260a05182610b88015260c05182610bfd015260e05182610c2301525181610bda0152f35b634e487b7160e01b81526041600452602490fd5b600080fd5b604081019081106001600160401b0382111761018757604052565b634e487b7160e01b600052604160045260246000fdfe60806040526004361015610013575b600080fd5b6000803560e01c9081632d0335ab1461008e5750806347153f8214610085578063715018a61461007c5780638da5cb5b14610073578063bf5d3bdb1461006a5763f2fde38b1461006257600080fd5b61000e610382565b5061000e61035e565b5061000e610334565b5061000e6102d4565b5061000e61019f565b346100c85760203660031901126100c8576040906004356100ae816100cb565b60018060a01b031681526001602052205460805260206080f35b80fd5b6001600160a01b0381160361000e57565b906003199060408284011261000e5760043567ffffffffffffffff9283821161000e5760c090828603011261000e57600401926024359083821161000e578060238301121561000e57816004013593841161000e576024848301011161000e576024019190565b919082519283825260005b84811061016f575050826000602080949584010152601f8019910116010190565b60208183018101518483018201520161014e565b60409061019c9392151581528160208201520190610143565b90565b506101e460008061021d6101df6101b5366100dc565b602083989394929401936101d96101cb866104b1565b306101d46106cc565b610db3565b886105b2565b6106f0565b6101f16080860135610757565b6102176101fd876104b1565b6001600160a01b0316600090815260016020526040902090565b556104b1565b92604060608201359461023360a08401846104bb565b610264610242869593956104b1565b91610256845193849260208401988961077b565b03601f19810183528261052e565b519301359086f16102b061027661079e565b9261028983306102846107ce565b610d5e565b61029284610c77565b6102a9603f5a920480926102a46107ee565b610d15565b5a1161080e565b6102c1306102bc61082b565b610cc7565b6102d060405192839283610183565b0390f35b503461000e576000806003193601126100c857805481906001600160a01b0381169061030133831461041f565b6001600160a01b03191682557f8be0079c531659141344cd1fd0a4f28419497f9722a3daafe3b4186f6b6457e08280a380f35b503461000e57600036600319011261000e576000546040516001600160a01b039091168152602090f35b503461000e576020610378610372366100dc565b916105b2565b6040519015158152f35b503461000e57602036600319011261000e576004356103a0816100cb565b6000546001600160a01b03906103b9908216331461041f565b8116156103cb576103c99061046a565b005b60405162461bcd60e51b815260206004820152602660248201527f4f776e61626c653a206e6577206f776e657220697320746865207a65726f206160448201526564647265737360d01b6064820152608490fd5b1561042657565b606460405162461bcd60e51b815260206004820152602060248201527f4f776e61626c653a2063616c6c6572206973206e6f7420746865206f776e65726044820152fd5b600080546001600160a01b039283166001600160a01b03198216811783559216907f8be0079c531659141344cd1fd0a4f28419497f9722a3daafe3b4186f6b6457e09080a3565b3561019c816100cb565b903590601e198136030182121561000e570180359067ffffffffffffffff821161000e5760200191813603831361000e57565b50634e487b7160e01b600052604160045260246000fd5b6040810190811067ffffffffffffffff82111761052157604052565b6105296104ee565b604052565b90601f8019910116810190811067ffffffffffffffff82111761052157604052565b60209067ffffffffffffffff811161056e575b601f01601f19160190565b6105766104ee565b610563565b92919261058782610550565b91610595604051938461052e565b82948184528183011161000e578281602093846000960137010152565b91610688906106828435936105c6856100cb565b61067a6105d5602088016104b1565b876106726080820135986102566105f96105f260a08601866104bb565b369161057b565b602081519101208b604051958694602086019860406060840135930135918a9260c09491979695929760e08501987fdd8f4b70b0f4393e889bd39128a30628a78b61816a9eb8199759e7a349657e48865260018060a01b0380921660208701521660408501526060840152608083015260a08201520152565b519020610b2f565b92369161057b565b90610850565b906106956101fd846104b1565b541491826106a257505090565b6106bd9192506106b1906104b1565b6001600160a01b031690565b6001600160a01b039091161490565b604051906106d982610505565b600882526732bc32b1baba329d60c11b6020830152565b156106f757565b60405162461bcd60e51b815260206004820152603260248201527f4d696e696d616c466f727761726465723a207369676e617475726520646f6573604482015271081b9bdd081b585d18da081c995c5d595cdd60721b6064820152608490fd5b906001820180921161076557565b634e487b7160e01b600052601160045260246000fd5b826014949392823701906bffffffffffffffffffffffff199060601b1681520190565b3d156107c9573d906107af82610550565b916107bd604051938461052e565b82523d6000602084013e565b606090565b604051906107db82610505565b60048252633932ba1d60e11b6020830152565b604051906107fb82610505565b600482526319d85cdb60e21b6020830152565b1561081557565b634e487b7160e01b600052600160045260246000fd5b6040519061083882610505565b600982526818dbdb5c1b195d195960ba1b6020830152565b61019c9161085d91610a06565b919091610885565b6005111561086f57565b634e487b7160e01b600052602160045260246000fd5b61088e81610865565b806108965750565b61089f81610865565b600181036108ec5760405162461bcd60e51b815260206004820152601860248201527f45434453413a20696e76616c6964207369676e617475726500000000000000006044820152606490fd5b6108f581610865565b600281036109425760405162461bcd60e51b815260206004820152601f60248201527f45434453413a20696e76616c6964207369676e6174757265206c656e677468006044820152606490fd5b61094b81610865565b600381036109a35760405162461bcd60e51b815260206004820152602260248201527f45434453413a20696e76616c6964207369676e6174757265202773272076616c604482015261756560f01b6064820152608490fd5b806109af600492610865565b146109b657565b60405162461bcd60e51b815260206004820152602260248201527f45434453413a20696e76616c6964207369676e6174757265202776272076616c604482015261756560f01b6064820152608490fd5b815160418103610a33575090610a2f916020820151906060604084015193015160001a90610a79565b9091565b604003610a62576020820151604090920151610a2f926001600160ff1b03821692909160ff1c601b0190610a79565b5050600090600290565b506040513d6000823e3d90fd5b9291907f7fffffffffffffffffffffffffffffff5d576e7357a4501ddfe92f46681b20a08311610b235760ff16601b81141580610b18575b610b0c579160809493916020936040519384528484015260408301526060820152600093849182805260015afa15610aff575b81516001600160a01b03811615610af9579190565b50600190565b610b07610a6c565b610ae4565b50505050600090600490565b50601c811415610ab1565b50505050600090600390565b610b37610b85565b9060405190602082019261190160f01b845260228301526042820152604281526080810181811067ffffffffffffffff821117610b78575b60405251902090565b610b806104ee565b610b6f565b467f000000000000000000000000000000000000000000000000000000000000000003610bd0577f000000000000000000000000000000000000000000000000000000000000000090565b60405160208101907f000000000000000000000000000000000000000000000000000000000000000082527f000000000000000000000000000000000000000000000000000000000000000060408201527f000000000000000000000000000000000000000000000000000000000000000060608201524660808201523060a082015260a0815260c0810181811067ffffffffffffffff821117610b785760405251902090565b610256610ca5610caa926040519283916305f3bfab60e11b6020840152602060248401526044830190610143565b610cac565b565b600080916020815191016a636f6e736f6c652e6c6f675afa50565b610ca5610cf691610caa9360405193849263319af33360e01b6020850152604060248501526064840190610143565b6001600160a01b0391909116604483015203601f19810183528261052e565b610ca590610d4592610caa9460405194859363ca47c4eb60e01b6020860152606060248601526084850190610143565b916044840152606483015203601f19810183528261052e565b610ca590610d8e92610caa9460405194859363324757b560e21b6020860152606060248601526084850190610143565b6001600160a01b0390921660448401521515606483015203601f19810183528261052e565b610ca590610caa93610de3936040519485936307e763af60e51b6020860152606060248601526084850190610143565b6001600160a01b0391821660448501529116606483015203601f19810183528261052e56fea2646970667358221220d29677cfd2a889906cb15bc1cabf852000e42e03b647e681cb34a6f3a9f5a0d064736f6c63430008110033",
  "devdoc": {
    "kind": "dev",
    "methods": {
      "owner()": {
        "details": "Returns the address of the current owner."
      },
      "renounceOwnership()": {
        "details": "Leaves the contract without owner. It will not be possible to call `onlyOwner` functions anymore. Can only be called by the current owner. NOTE: Renouncing ownership will leave the contract without an owner, thereby removing any functionality that is only available to the owner."
      },
      "transferOwnership(address)": {
        "details": "Transfers ownership of the contract to a new account (`newOwner`). Can only be called by the current owner."
      }
    },
    "title": "The DPLAT core forwarder contract",
    "version": 1
  },
  "userdoc": {
    "kind": "user",
    "methods": {},
    "version": 1
  },
  "storageLayout": {
    "storage": [
      {
        "astId": 7,
        "contract": "contracts/DPlatForwarder.sol:DPlatForwarder",
        "label": "_owner",
        "offset": 0,
        "slot": "0",
        "type": "t_address"
      },
      {
        "astId": 136,
        "contract": "contracts/DPlatForwarder.sol:DPlatForwarder",
        "label": "_nonces",
        "offset": 0,
        "slot": "1",
        "type": "t_mapping(t_address,t_uint256)"
      }
    ],
    "types": {
      "t_address": {
        "encoding": "inplace",
        "label": "address",
        "numberOfBytes": "20"
      },
      "t_mapping(t_address,t_uint256)": {
        "encoding": "mapping",
        "key": "t_address",
        "label": "mapping(address => uint256)",
        "numberOfBytes": "32",
        "value": "t_uint256"
      },
      "t_uint256": {
        "encoding": "inplace",
        "label": "uint256",
        "numberOfBytes": "32"
      }
    }
  }
}