{
  "address": "0x716f96aa665fee22845c55c0059BBb3187d81b1b",
  "abi": [
    {
      "anonymous": false,
      "inputs": [
        {
          "indexed": true,
          "internalType": "address",
          "name": "previousOwner",
          "type": "address"
        },
        {
          "indexed": true,
          "internalType": "address",
          "name": "newOwner",
          "type": "address"
        }
      ],
      "name": "OwnershipTransferred",
      "type": "event"
    },
    {
      "inputs": [
        {
          "components": [
            {
              "internalType": "address",
              "name": "from",
              "type": "address"
            },
            {
              "internalType": "address",
              "name": "to",
              "type": "address"
            },
            {
              "internalType": "uint256",
              "name": "value",
              "type": "uint256"
            },
            {
              "internalType": "uint256",
              "name": "gas",
              "type": "uint256"
            },
            {
              "internalType": "uint256",
              "name": "nonce",
              "type": "uint256"
            },
            {
              "internalType": "bytes",
              "name": "data",
              "type": "bytes"
            }
          ],
          "internalType": "struct MinimalForwarder.ForwardRequest",
          "name": "req",
          "type": "tuple"
        },
        {
          "internalType": "bytes",
          "name": "signature",
          "type": "bytes"
        }
      ],
      "name": "execute",
      "outputs": [
        {
          "internalType": "bool",
          "name": "",
          "type": "bool"
        },
        {
          "internalType": "bytes",
          "name": "",
          "type": "bytes"
        }
      ],
      "stateMutability": "payable",
      "type": "function"
    },
    {
      "inputs": [
        {
          "internalType": "address",
          "name": "from",
          "type": "address"
        }
      ],
      "name": "getNonce",
      "outputs": [
        {
          "internalType": "uint256",
          "name": "",
          "type": "uint256"
        }
      ],
      "stateMutability": "view",
      "type": "function"
    },
    {
      "inputs": [],
      "name": "owner",
      "outputs": [
        {
          "internalType": "address",
          "name": "",
          "type": "address"
        }
      ],
      "stateMutability": "view",
      "type": "function"
    },
    {
      "inputs": [],
      "name": "renounceOwnership",
      "outputs": [],
      "stateMutability": "nonpayable",
      "type": "function"
    },
    {
      "inputs": [
        {
          "internalType": "address",
          "name": "newOwner",
          "type": "address"
        }
      ],
      "name": "transferOwnership",
      "outputs": [],
      "stateMutability": "nonpayable",
      "type": "function"
    },
    {
      "inputs": [
        {
          "components": [
            {
              "internalType": "address",
              "name": "from",
              "type": "address"
            },
            {
              "internalType": "address",
              "name": "to",
              "type": "address"
            },
            {
              "internalType": "uint256",
              "name": "value",
              "type": "uint256"
            },
            {
              "internalType": "uint256",
              "name": "gas",
              "type": "uint256"
            },
            {
              "internalType": "uint256",
              "name": "nonce",
              "type": "uint256"
            },
            {
              "internalType": "bytes",
              "name": "data",
              "type": "bytes"
            }
          ],
          "internalType": "struct MinimalForwarder.ForwardRequest",
          "name": "req",
          "type": "tuple"
        },
        {
          "internalType": "bytes",
          "name": "signature",
          "type": "bytes"
        }
      ],
      "name": "verify",
      "outputs": [
        {
          "internalType": "bool",
          "name": "",
          "type": "bool"
        }
      ],
      "stateMutability": "view",
      "type": "function"
    }
  ],
  "transactionHash": "0x02172798d9a792dfcc0710dd304f1783e860fed75d7e6d6eb707f74d8023f7bd",
  "args": [],
  "numDeployments": 1,
  "solcInputHash": "8c542f1d042c6d70766e1c13195df282",
  "bytecode": "0x6101208060405234610167576100148161016c565b60108152602081016f26b4b734b6b0b62337b93bb0b93232b960811b815260206040516100408161016c565b600580825264302e302e3160d81b9290910191825260008054336001600160a01b03198216811783556040519496929592916001600160a01b03167f8be0079c531659141344cd1fd0a4f28419497f9722a3daafe3b4186f6b6457e08780a35190209320908360c0528160e0524660a05260208101917f8b73c3c69bb8fe3d512ecc4cf759cc79239f7b179b0ffacaa9a75d522b39400f94858452604083015260608201524660808201523060a082015260a0815260c081019281841060018060401b03851117610153575082604052519020608052610100918252610b9c918261019e833960805182610a9d015260a05182610a77015260c05182610aec015260e05182610b1201525181610ac90152f35b634e487b7160e01b81526041600452602490fd5b600080fd5b604081019081106001600160401b0382111761018757604052565b634e487b7160e01b600052604160045260246000fdfe60806040526004361015610013575b600080fd5b6000803560e01c9081632d0335ab1461008e5750806347153f8214610085578063715018a61461007c5780638da5cb5b14610073578063bf5d3bdb1461006a5763f2fde38b1461006257600080fd5b61000e61037a565b5061000e610356565b5061000e61032c565b5061000e6102cc565b5061000e610196565b346100c85760203660031901126100c8576040906004356100ae816100cb565b60018060a01b031681526001602052205460805260206080f35b80fd5b6001600160a01b0381160361000e57565b906003199060408284011261000e5760043567ffffffffffffffff9283821161000e5760c090828603011261000e57600401926024359083821161000e578060238301121561000e57816004013593841161000e576024848301011161000e576024019190565b909291921515815260209260408483015280519081604084015260005b82811061018257505060609293506000838284010152601f8019910116010190565b818101860151848201606001528501610160565b506101ac6101a3366100dc565b90829392610591565b1561026c576101be60808201356106ab565b6101e46101ca836104a9565b6001600160a01b0316600090815260016020526040902090565b556000806101f4602084016104a9565b92604060608201359461020a60a08401846104b6565b61023b610219869593956104a9565b9161022d84519384926020840198896106cf565b03601f198101835282610500565b519301359086f161025961024d6106f2565b92603f5a910410610722565b61026860405192839283610143565b0390f35b60405162461bcd60e51b815260206004820152603260248201527f4d696e696d616c466f727761726465723a207369676e617475726520646f6573604482015271081b9bdd081b585d18da081c995c5d595cdd60721b6064820152608490fd5b503461000e576000806003193601126100c857805481906001600160a01b038116906102f9338314610417565b6001600160a01b03191682557f8be0079c531659141344cd1fd0a4f28419497f9722a3daafe3b4186f6b6457e08280a380f35b503461000e57600036600319011261000e576000546040516001600160a01b039091168152602090f35b503461000e57602061037061036a366100dc565b91610591565b6040519015158152f35b503461000e57602036600319011261000e57600435610398816100cb565b6000546001600160a01b03906103b19082163314610417565b8116156103c3576103c190610462565b005b60405162461bcd60e51b815260206004820152602660248201527f4f776e61626c653a206e6577206f776e657220697320746865207a65726f206160448201526564647265737360d01b6064820152608490fd5b1561041e57565b606460405162461bcd60e51b815260206004820152602060248201527f4f776e61626c653a2063616c6c6572206973206e6f7420746865206f776e65726044820152fd5b600080546001600160a01b039283166001600160a01b03198216811783559216907f8be0079c531659141344cd1fd0a4f28419497f9722a3daafe3b4186f6b6457e09080a3565b356104b3816100cb565b90565b903590601e198136030182121561000e570180359067ffffffffffffffff821161000e5760200191813603831361000e57565b50634e487b7160e01b600052604160045260246000fd5b90601f8019910116810190811067ffffffffffffffff82111761052257604052565b61052a6104e9565b604052565b60209067ffffffffffffffff811161054d575b601f01601f19160190565b6105556104e9565b610542565b9291926105668261052f565b916105746040519384610500565b82948184528183011161000e578281602093846000960137010152565b91610667906106618435936105a5856100cb565b6106596105b4602088016104a9565b8761065160808201359861022d6105d86105d160a08601866104b6565b369161055a565b602081519101208b604051958694602086019860406060840135930135918a9260c09491979695929760e08501987fdd8f4b70b0f4393e889bd39128a30628a78b61816a9eb8199759e7a349657e48865260018060a01b0380921660208701521660408501526060840152608083015260a08201520152565b519020610a1e565b92369161055a565b9061073f565b906106746101ca846104a9565b5414918261068157505090565b61069c919250610690906104a9565b6001600160a01b031690565b6001600160a01b039091161490565b90600182018092116106b957565b634e487b7160e01b600052601160045260246000fd5b826014949392823701906bffffffffffffffffffffffff199060601b1681520190565b3d1561071d573d906107038261052f565b916107116040519384610500565b82523d6000602084013e565b606090565b1561072957565b634e487b7160e01b600052600160045260246000fd5b6104b39161074c916108f5565b919091610774565b6005111561075e57565b634e487b7160e01b600052602160045260246000fd5b61077d81610754565b806107855750565b61078e81610754565b600181036107db5760405162461bcd60e51b815260206004820152601860248201527f45434453413a20696e76616c6964207369676e617475726500000000000000006044820152606490fd5b6107e481610754565b600281036108315760405162461bcd60e51b815260206004820152601f60248201527f45434453413a20696e76616c6964207369676e6174757265206c656e677468006044820152606490fd5b61083a81610754565b600381036108925760405162461bcd60e51b815260206004820152602260248201527f45434453413a20696e76616c6964207369676e6174757265202773272076616c604482015261756560f01b6064820152608490fd5b8061089e600492610754565b146108a557565b60405162461bcd60e51b815260206004820152602260248201527f45434453413a20696e76616c6964207369676e6174757265202776272076616c604482015261756560f01b6064820152608490fd5b81516041810361092257509061091e916020820151906060604084015193015160001a90610968565b9091565b60400361095157602082015160409092015161091e926001600160ff1b03821692909160ff1c601b0190610968565b5050600090600290565b506040513d6000823e3d90fd5b9291907f7fffffffffffffffffffffffffffffff5d576e7357a4501ddfe92f46681b20a08311610a125760ff16601b81141580610a07575b6109fb579160809493916020936040519384528484015260408301526060820152600093849182805260015afa156109ee575b81516001600160a01b038116156109e8579190565b50600190565b6109f661095b565b6109d3565b50505050600090600490565b50601c8114156109a0565b50505050600090600390565b610a26610a74565b9060405190602082019261190160f01b845260228301526042820152604281526080810181811067ffffffffffffffff821117610a67575b60405251902090565b610a6f6104e9565b610a5e565b467f000000000000000000000000000000000000000000000000000000000000000003610abf577f000000000000000000000000000000000000000000000000000000000000000090565b60405160208101907f000000000000000000000000000000000000000000000000000000000000000082527f000000000000000000000000000000000000000000000000000000000000000060408201527f000000000000000000000000000000000000000000000000000000000000000060608201524660808201523060a082015260a0815260c0810181811067ffffffffffffffff821117610a67576040525190209056fea26469706673582212207bf069d3f3bf73f3e4f35c84fad0ddae828341e0d3ac0370868411700386ecdf64736f6c63430008110033",
  "devdoc": {
    "kind": "dev",
    "methods": {
      "owner()": {
        "details": "Returns the address of the current owner."
      },
      "renounceOwnership()": {
        "details": "Leaves the contract without owner. It will not be possible to call `onlyOwner` functions anymore. Can only be called by the current owner. NOTE: Renouncing ownership will leave the contract without an owner, thereby removing any functionality that is only available to the owner."
      },
      "transferOwnership(address)": {
        "details": "Transfers ownership of the contract to a new account (`newOwner`). Can only be called by the current owner."
      }
    },
    "title": "The DPLAT core forwarder contract",
    "version": 1
  },
  "userdoc": {
    "kind": "user",
    "methods": {},
    "version": 1
  },
  "storageLayout": {
    "storage": [
      {
        "astId": 7,
        "contract": "contracts/DPlatForwarder.sol:DPlatForwarder",
        "label": "_owner",
        "offset": 0,
        "slot": "0",
        "type": "t_address"
      },
      {
        "astId": 135,
        "contract": "contracts/DPlatForwarder.sol:DPlatForwarder",
        "label": "_nonces",
        "offset": 0,
        "slot": "1",
        "type": "t_mapping(t_address,t_uint256)"
      }
    ],
    "types": {
      "t_address": {
        "encoding": "inplace",
        "label": "address",
        "numberOfBytes": "20"
      },
      "t_mapping(t_address,t_uint256)": {
        "encoding": "mapping",
        "key": "t_address",
        "label": "mapping(address => uint256)",
        "numberOfBytes": "32",
        "value": "t_uint256"
      },
      "t_uint256": {
        "encoding": "inplace",
        "label": "uint256",
        "numberOfBytes": "32"
      }
    }
  }
}