{
  "address": "0x751524ab493522D8Ee2CFb78a401dD6438c6A323",
  "abi": [
    {
      "inputs": [
        {
          "internalType": "address",
          "name": "_rewardsToken",
          "type": "address"
        },
        {
          "internalType": "address",
          "name": "_stakingToken",
          "type": "address"
        }
      ],
      "stateMutability": "nonpayable",
      "type": "constructor"
    },
    {
      "inputs": [],
      "name": "CannotSendEther",
      "type": "error"
    },
    {
      "inputs": [],
      "name": "ZeroAddress",
      "type": "error"
    },
    {
      "inputs": [],
      "name": "ZeroValue",
      "type": "error"
    },
    {
      "anonymous": false,
      "inputs": [
        {
          "indexed": false,
          "internalType": "address",
          "name": "",
          "type": "address"
        },
        {
          "indexed": false,
          "internalType": "address",
          "name": "",
          "type": "address"
        }
      ],
      "name": "ForwarderSet",
      "type": "event"
    },
    {
      "anonymous": false,
      "inputs": [
        {
          "indexed": true,
          "internalType": "address",
          "name": "previousOwner",
          "type": "address"
        },
        {
          "indexed": true,
          "internalType": "address",
          "name": "newOwner",
          "type": "address"
        }
      ],
      "name": "OwnershipTransferred",
      "type": "event"
    },
    {
      "anonymous": false,
      "inputs": [
        {
          "indexed": false,
          "internalType": "address",
          "name": "token",
          "type": "address"
        },
        {
          "indexed": false,
          "internalType": "uint256",
          "name": "amount",
          "type": "uint256"
        }
      ],
      "name": "Recovered",
      "type": "event"
    },
    {
      "anonymous": false,
      "inputs": [
        {
          "indexed": false,
          "internalType": "uint256",
          "name": "reward",
          "type": "uint256"
        }
      ],
      "name": "RewardAdded",
      "type": "event"
    },
    {
      "anonymous": false,
      "inputs": [
        {
          "indexed": true,
          "internalType": "address",
          "name": "user",
          "type": "address"
        },
        {
          "indexed": false,
          "internalType": "uint256",
          "name": "reward",
          "type": "uint256"
        }
      ],
      "name": "RewardPaid",
      "type": "event"
    },
    {
      "anonymous": false,
      "inputs": [
        {
          "indexed": false,
          "internalType": "uint256",
          "name": "newDuration",
          "type": "uint256"
        }
      ],
      "name": "RewardsDurationUpdated",
      "type": "event"
    },
    {
      "anonymous": false,
      "inputs": [
        {
          "indexed": true,
          "internalType": "address",
          "name": "user",
          "type": "address"
        },
        {
          "indexed": false,
          "internalType": "uint256",
          "name": "amount",
          "type": "uint256"
        }
      ],
      "name": "Staked",
      "type": "event"
    },
    {
      "anonymous": false,
      "inputs": [
        {
          "indexed": true,
          "internalType": "address",
          "name": "user",
          "type": "address"
        },
        {
          "indexed": false,
          "internalType": "uint256",
          "name": "amount",
          "type": "uint256"
        }
      ],
      "name": "Withdrawn",
      "type": "event"
    },
    {
      "inputs": [
        {
          "internalType": "address",
          "name": "account",
          "type": "address"
        }
      ],
      "name": "balanceOf",
      "outputs": [
        {
          "internalType": "uint256",
          "name": "",
          "type": "uint256"
        }
      ],
      "stateMutability": "view",
      "type": "function"
    },
    {
      "inputs": [
        {
          "internalType": "address",
          "name": "account",
          "type": "address"
        }
      ],
      "name": "earned",
      "outputs": [
        {
          "internalType": "uint256",
          "name": "",
          "type": "uint256"
        }
      ],
      "stateMutability": "view",
      "type": "function"
    },
    {
      "inputs": [],
      "name": "exit",
      "outputs": [],
      "stateMutability": "nonpayable",
      "type": "function"
    },
    {
      "inputs": [],
      "name": "getReward",
      "outputs": [],
      "stateMutability": "nonpayable",
      "type": "function"
    },
    {
      "inputs": [],
      "name": "getRewardForDuration",
      "outputs": [
        {
          "internalType": "uint256",
          "name": "",
          "type": "uint256"
        }
      ],
      "stateMutability": "view",
      "type": "function"
    },
    {
      "inputs": [
        {
          "internalType": "address",
          "name": "forwarder_",
          "type": "address"
        }
      ],
      "name": "isTrustedForwarder",
      "outputs": [
        {
          "internalType": "bool",
          "name": "",
          "type": "bool"
        }
      ],
      "stateMutability": "view",
      "type": "function"
    },
    {
      "inputs": [],
      "name": "lastTimeRewardApplicable",
      "outputs": [
        {
          "internalType": "uint256",
          "name": "",
          "type": "uint256"
        }
      ],
      "stateMutability": "view",
      "type": "function"
    },
    {
      "inputs": [],
      "name": "lastUpdateTime",
      "outputs": [
        {
          "internalType": "uint256",
          "name": "",
          "type": "uint256"
        }
      ],
      "stateMutability": "view",
      "type": "function"
    },
    {
      "inputs": [
        {
          "internalType": "uint256",
          "name": "reward",
          "type": "uint256"
        }
      ],
      "name": "notifyRewardAmount",
      "outputs": [],
      "stateMutability": "nonpayable",
      "type": "function"
    },
    {
      "inputs": [],
      "name": "owner",
      "outputs": [
        {
          "internalType": "address",
          "name": "",
          "type": "address"
        }
      ],
      "stateMutability": "view",
      "type": "function"
    },
    {
      "inputs": [],
      "name": "periodFinish",
      "outputs": [
        {
          "internalType": "uint256",
          "name": "",
          "type": "uint256"
        }
      ],
      "stateMutability": "view",
      "type": "function"
    },
    {
      "inputs": [
        {
          "internalType": "address",
          "name": "tokenAddress",
          "type": "address"
        },
        {
          "internalType": "uint256",
          "name": "tokenAmount",
          "type": "uint256"
        }
      ],
      "name": "recoverERC20",
      "outputs": [],
      "stateMutability": "nonpayable",
      "type": "function"
    },
    {
      "inputs": [],
      "name": "renounceOwnership",
      "outputs": [],
      "stateMutability": "nonpayable",
      "type": "function"
    },
    {
      "inputs": [],
      "name": "rewardPerToken",
      "outputs": [
        {
          "internalType": "uint256",
          "name": "",
          "type": "uint256"
        }
      ],
      "stateMutability": "view",
      "type": "function"
    },
    {
      "inputs": [],
      "name": "rewardPerTokenStored",
      "outputs": [
        {
          "internalType": "uint256",
          "name": "",
          "type": "uint256"
        }
      ],
      "stateMutability": "view",
      "type": "function"
    },
    {
      "inputs": [],
      "name": "rewardRate",
      "outputs": [
        {
          "internalType": "uint256",
          "name": "",
          "type": "uint256"
        }
      ],
      "stateMutability": "view",
      "type": "function"
    },
    {
      "inputs": [
        {
          "internalType": "address",
          "name": "",
          "type": "address"
        }
      ],
      "name": "rewards",
      "outputs": [
        {
          "internalType": "uint256",
          "name": "",
          "type": "uint256"
        }
      ],
      "stateMutability": "view",
      "type": "function"
    },
    {
      "inputs": [],
      "name": "rewardsDuration",
      "outputs": [
        {
          "internalType": "uint256",
          "name": "",
          "type": "uint256"
        }
      ],
      "stateMutability": "view",
      "type": "function"
    },
    {
      "inputs": [],
      "name": "rewardsToken",
      "outputs": [
        {
          "internalType": "contract IERC20",
          "name": "",
          "type": "address"
        }
      ],
      "stateMutability": "view",
      "type": "function"
    },
    {
      "inputs": [
        {
          "internalType": "uint256",
          "name": "_rewardsDuration",
          "type": "uint256"
        }
      ],
      "name": "setRewardsDuration",
      "outputs": [],
      "stateMutability": "nonpayable",
      "type": "function"
    },
    {
      "inputs": [
        {
          "internalType": "address",
          "name": "forwarder_",
          "type": "address"
        }
      ],
      "name": "setTrustedForwarder",
      "outputs": [],
      "stateMutability": "nonpayable",
      "type": "function"
    },
    {
      "inputs": [
        {
          "internalType": "uint256",
          "name": "amount",
          "type": "uint256"
        }
      ],
      "name": "stake",
      "outputs": [],
      "stateMutability": "nonpayable",
      "type": "function"
    },
    {
      "inputs": [],
      "name": "stakingToken",
      "outputs": [
        {
          "internalType": "contract IERC20",
          "name": "",
          "type": "address"
        }
      ],
      "stateMutability": "view",
      "type": "function"
    },
    {
      "inputs": [],
      "name": "totalSupply",
      "outputs": [
        {
          "internalType": "uint256",
          "name": "",
          "type": "uint256"
        }
      ],
      "stateMutability": "view",
      "type": "function"
    },
    {
      "inputs": [
        {
          "internalType": "address",
          "name": "newOwner",
          "type": "address"
        }
      ],
      "name": "transferOwnership",
      "outputs": [],
      "stateMutability": "nonpayable",
      "type": "function"
    },
    {
      "inputs": [
        {
          "internalType": "address",
          "name": "",
          "type": "address"
        }
      ],
      "name": "userRewardPerTokenPaid",
      "outputs": [
        {
          "internalType": "uint256",
          "name": "",
          "type": "uint256"
        }
      ],
      "stateMutability": "view",
      "type": "function"
    },
    {
      "inputs": [
        {
          "internalType": "uint256",
          "name": "amount",
          "type": "uint256"
        }
      ],
      "name": "withdraw",
      "outputs": [],
      "stateMutability": "nonpayable",
      "type": "function"
    }
  ],
  "transactionHash": "0xc5ae328413b7fbf6e26fc09f4c32dc4d77f69f97992bb5df95eb1aa99d60446c",
  "args": [
    "0x962CebE6B0aE5Fe8e4342Ab546106Bacc92eD46B",
    "0x4B264551eD876a822430CB99A9A7a2da723a3078"
  ],
  "numDeployments": 1,
  "solcInputHash": "075f255113b741a2dd8481a6a728acd3",
  "bytecode": "0x608034620000ea57601f62001a0838819003918201601f19168301916001600160401b03831184841017620000ef578084926040948552833981010312620000ea576200005a6020620000528362000105565b920162000105565b620000646200011a565b600080546001600160a01b03198082166001600160a01b03948516908117845560405196919593859390919084167f8be0079c531659141344cd1fd0a4f28419497f9722a3daafe3b4186f6b6457e08380a360016002558060055560065562093a8060075516836003541617600355169060045416176004556118c89081620001408239f35b600080fd5b634e487b7160e01b600052604160045260246000fd5b51906001600160a01b0382168203620000ea57565b600154336001600160a01b03909116036200013b5736601319013560601c90565b339056fe60806040526004361015610013575b600080fd5b60003560e01c80628cc2621461022e5780630700037d1461022557806318160ddd1461021c5780631c1f78eb146102135780632e1a7d4d1461020a578063386a9525146102015780633c6b16ab146101f85780633d18b912146101ef578063572b6c05146101e657806370a08231146101dd578063715018a6146101d457806372f702f3146101cb5780637b0a47ee146101c257806380faa57d146101b95780638980f11f146101b05780638b876347146101a75780638da5cb5b1461019e578063a694fc3a14610195578063c8f33c911461018c578063cc1a378f14610183578063cd3daf9d1461017a578063d1af0c7d14610171578063da74222814610168578063df136d651461015f578063e9fad8ee14610156578063ebe2b12b1461014d5763f2fde38b1461014557600080fd5b61000e610c87565b5061000e610c68565b5061000e610bb6565b5061000e610b97565b5061000e610af9565b5061000e610acf565b5061000e610ab3565b5061000e6109ab565b5061000e61098c565b5061000e6108f4565b5061000e6108ca565b5061000e61088f565b5061000e6107a3565b5061000e610787565b5061000e610768565b5061000e61073e565b5061000e6106d3565b5061000e610698565b5061000e610662565b5061000e6105be565b5061000e61040b565b5061000e6103ec565b5061000e6102f6565b5061000e6102d3565b5061000e6102b4565b5061000e610279565b5061000e61024d565b600435906001600160a01b038216820361000e57565b503461000e57602036600319011261000e57602061027161026c610237565b610f1b565b604051908152f35b503461000e57602036600319011261000e576001600160a01b0361029b610237565b16600052600b6020526020604060002054604051908152f35b503461000e57600036600319011261000e576020600c54604051908152f35b503461000e57600036600319011261000e57602061027160065460075490610e86565b503461000e57602036600319011261000e5761031660028054141561104f565b60028055610343610325610dc7565b80600955610331610db2565b908160085561033e61109b565b6117fb565b33610360575b610354600435611456565b61035e6001600255565b005b61036933610f1b565b33600052600b6020526040600020556103a86009548061039b3360018060a01b0316600052600a602052604060002090565b556008549061033e6110ba565b336000908152600a602052604090206103e7905b54336000908152600b6020908152604080832054600d90925290912054916103e26110d9565b611844565b610349565b503461000e57600036600319011261000e576020600754604051908152f35b503461000e57602036600319011261000e577fde88a922e0d3b88b24e9623efeb464919c6bf9f66857a65e2bfcf2ce87a9433d61053960043561046360018060a01b0380600054169061045c611724565b1614610d20565b61046e610325610dc7565b60055461047e814261033e611664565b428111610579575061049a61049560075483610e99565b600655565b6104fd6006546104f66007546104b48186856103e261169f565b6003546001600160a01b03166040516370a0823160e01b815230600482015290602090829060249082905afa90811561056c575b60009161053e575b50610e99565b10156116d8565b61050642600855565b61051a61051560075442610e62565b600555565b61052960085460055490611748565b6040519081529081906020820190565b0390a1005b61055f915060203d8111610565575b6105578183610ef9565b8101906116bc565b386104f0565b503d61054d565b6105746116cb565b6104e8565b61059361058a6105b9924290610e79565b60065490610e86565b6105ac6104956105a38386610e62565b60075490610e99565b6105b4611681565b6117b3565b61049a565b503461000e5760008060031936011261065f576105df60028054141561104f565b600280556105ee610325610dc7565b33610609575b6105fc611603565b6106066001600255565b80f35b61061233610f1b565b338252600b60205260408220556106426009548061039b3360018060a01b0316600052600a602052604060002090565b336000908152600a6020526040902061065a906103bc565b6105f4565b80fd5b503461000e57602036600319011261000e57602061067e610237565b6001546040516001600160a01b0392831691909216148152f35b503461000e57602036600319011261000e576001600160a01b036106ba610237565b16600052600d6020526020604060002054604051908152f35b503461000e5760008060031936011261065f57805481906001600160a01b03808216919061070b90610703611724565b168314610d20565b6001600160a01b03191682557f8be0079c531659141344cd1fd0a4f28419497f9722a3daafe3b4186f6b6457e08280a380f35b503461000e57600036600319011261000e576004546040516001600160a01b039091168152602090f35b503461000e57600036600319011261000e576020600654604051908152f35b503461000e57600036600319011261000e576020610271610db2565b503461000e57604036600319011261000e576107bd610237565b6000546001600160a01b03916024359183166107e3846107db611724565b168214610d20565b60045482851694168414610840578261081d917f8c1256b8896378cd5044f80c202f9772b9d77dc85c8a6eb51967210b09bfaa2895611538565b604080516001600160a01b03909216825260208201929092529081908101610539565b60405162461bcd60e51b815260206004820152602160248201527f43616e6e6f7420776974686472617720746865207374616b696e6720746f6b656044820152603760f91b6064820152608490fd5b503461000e57602036600319011261000e576001600160a01b036108b1610237565b16600052600a6020526020604060002054604051908152f35b503461000e57600036600319011261000e576000546040516001600160a01b039091168152602090f35b503461000e57602036600319011261000e5761091460028054141561104f565b60028055610923610325610dc7565b33610934575b6103546004356110f9565b61093d33610f1b565b33600052600b60205260406000205561096f6009548061039b3360018060a01b0316600052600a602052604060002090565b336000908152600a60205260409020610987906103bc565b610929565b503461000e57600036600319011261000e576020600854604051908152f35b503461000e57602036600319011261000e576000546109d8906001600160a01b039081169061045c611724565b600554421115610a22576109ed600435600755565b6007546040519081527ffb46ca5a5e06d4540d6387b930a7c978bce0db5f449ec6b3f5d07c6e1d44f2d3908060208101610539565b60405162461bcd60e51b815260206004820152605860248201527f50726576696f7573207265776172647320706572696f64206d7573742062652060448201527f636f6d706c657465206265666f7265206368616e67696e67207468652064757260648201527f6174696f6e20666f7220746865206e657720706572696f640000000000000000608482015260a490fd5b503461000e57600036600319011261000e576020610271610dc7565b503461000e57600036600319011261000e576003546040516001600160a01b039091168152602090f35b503461000e57602036600319011261000e57610b13610237565b6000546001600160a01b03918291610b309083168361045c611724565b168015610b85577f94aed472e01353526c04ec91cee149d41e78d848ec851c72be532bf7b120bd309160409160015491816bffffffffffffffffffffffff60a01b8416176001558351921682526020820152a1005b60405163d92e233d60e01b8152600490fd5b503461000e57600036600319011261000e576020600954604051908152f35b503461000e5760008060031936011261065f57338152600d602052610c006040822054610be760028054141561104f565b60028055610bf6610325610dc7565b33610c1257611456565b610c0a6001600255565b610606611579565b610c1b33610f1b565b338452600b6020526040842055610c4b6009548061039b3360018060a01b0316600052600a602052604060002090565b336000908152600a60205260409020610c63906103bc565b611456565b503461000e57600036600319011261000e576020600554604051908152f35b503461000e57602036600319011261000e57610ca1610237565b6000546001600160a01b0390610cbc9082168261045c611724565b811615610ccc5761035e90610d6b565b60405162461bcd60e51b815260206004820152602660248201527f4f776e61626c653a206e6577206f776e657220697320746865207a65726f206160448201526564647265737360d01b6064820152608490fd5b15610d2757565b606460405162461bcd60e51b815260206004820152602060248201527f4f776e61626c653a2063616c6c6572206973206e6f7420746865206f776e65726044820152fd5b600080546001600160a01b039283166001600160a01b03198216811783559216907f8be0079c531659141344cd1fd0a4f28419497f9722a3daafe3b4186f6b6457e09080a3565b600554804210600014610dc457504290565b90565b600c548015610e4457610e1660095491610df7610de2610db2565b6008548103908111610e375760065490610e86565b670de0b6b3a764000090818102918183041490151715610e2a57610e99565b8101809111610e225790565b610dc4610e4b565b610e32610e4b565b610e99565b610e3f610e4b565b61058a565b5060095490565b50634e487b7160e01b600052601160045260246000fd5b91908201809211610e6f57565b610e77610e4b565b565b91908203918211610e6f57565b81810292918115918404141715610e6f57565b8115610ea3570490565b634e487b7160e01b600052601260045260246000fd5b50634e487b7160e01b600052604160045260246000fd5b6040810190811067ffffffffffffffff821117610eec57604052565b610ef4610eb9565b604052565b90601f8019910116810190811067ffffffffffffffff821117610eec57604052565b610dc49060018060a01b03811680600052600d602052610f67604060002054610f42610dc7565b90604051610f4f81610ed0565b600681526519585c9b995960d21b60208201526117fb565b600052600a602052610fbb604060002054610f948360018060a01b0316600052600b602052604060002090565b5490604051610fa281610ed0565b60078152666561726e65643160c81b60208201526117fb565b61103b61101f611011610fe08460018060a01b0316600052600d602052604060002090565b54610fe9610dc7565b6001600160a01b0386166000908152600a602052604090205481039190821161104257610e86565b670de0b6b3a7640000900490565b6001600160a01b039092166000908152600b6020526040902090565b5490610e62565b61104a610e4b565b610e86565b1561105657565b60405162461bcd60e51b815260206004820152601f60248201527f5265656e7472616e637947756172643a207265656e7472616e742063616c6c006044820152606490fd5b604051906110a882610ed0565b600382526255523160e81b6020830152565b604051906110c782610ed0565b60038252622aa91960e91b6020830152565b604051906110e682610ed0565b60048252635552326160e01b6020830152565b801561119c57611114600c5482810180911161118f57600c55565b336000908152600d6020526040902061112f90829054610e62565b336000908152600d602052604090205560045461115a9082906001600160a01b0316309033906111d2565b60405190815233907f9e71bc8eea02a63969f509818f2dafb9254532904319f9dbda79b67bd34a5f3d9080602081015b0390a2565b611197610e4b565b600c55565b60405162461bcd60e51b815260206004820152600e60248201526d043616e6e6f74207374616b6520360941b6044820152606490fd5b6040516323b872dd60e01b60208201526001600160a01b039283166024820152929091166044830152606480830193909352918152610e779160a0820182811067ffffffffffffffff82111761122b575b6040526112af565b611233610eb9565b611223565b9081602091031261000e5751801515810361000e5790565b1561125757565b60405162461bcd60e51b815260206004820152602a60248201527f5361666545524332303a204552433230206f7065726174696f6e20646964206e6044820152691bdd081cdd58d8d9595960b21b6064820152608490fd5b6040516001600160a01b0391909116916112c882610ed0565b6020928383527f5361666545524332303a206c6f772d6c6576656c2063616c6c206661696c656484840152803b1561133f576000828192828761131a9796519301915af1611314611384565b90611412565b8051908161132757505050565b82610e779361133a938301019101611238565b611250565b60405162461bcd60e51b815260048101859052601d60248201527f416464726573733a2063616c6c20746f206e6f6e2d636f6e74726163740000006044820152606490fd5b3d156113cd573d9067ffffffffffffffff82116113c0575b604051916113b4601f8201601f191660200184610ef9565b82523d6000602084013e565b6113c8610eb9565b61139c565b606090565b919082519283825260005b8481106113fe575050826000602080949584010152601f8019910116010190565b6020818301810151848301820152016113dd565b9091901561141e575090565b81511561142e5750805190602001fd5b60405162461bcd60e51b8152602060048201529081906114529060248301906113d2565b0390fd5b80156114ff57600c548181039081116114f2575b600c55336000908152600d60205260409020548181039081116114e5575b336000908152600d60205260409020556004546114b190829033906001600160a01b0316611538565b60405190815233907f7084f5476618d8e60b11ef0d7d3f06914655adb8793e28ff7f018d4c76d505d590806020810161118a565b6114ed610e4b565b611488565b6114fa610e4b565b61146a565b60405162461bcd60e51b8152602060048201526011602482015270043616e6e6f74207769746864726177203607c1b6044820152606490fd5b60405163a9059cbb60e01b60208201526001600160a01b03929092166024830152604480830193909352918152610e7791611574606483610ef9565b6112af565b61158760028054141561104f565b60028055611596610325610dc7565b336115ab575b6115a4611603565b6001600255565b6115b433610f1b565b33600052600b6020526040600020556115e66009548061039b3360018060a01b0316600052600a602052604060002090565b336000908152600a602052604090206115fe906103bc565b61159c565b33600052600b6020526040600020548061161a5750565b60006040812055611636813360018060a01b0360035416611538565b6040519081527fe2403640ba68fed3a2f88b7557551d1993f84b99bb10ff833f0cf8db0c5e048660203392a2565b6040519061167182610ed0565b60018252604160f81b6020830152565b6040519061168e82610ed0565b6002825261423160f01b6020830152565b604051906116ac82610ed0565b60018252602160f91b6020830152565b9081602091031261000e575190565b506040513d6000823e3d90fd5b156116df57565b60405162461bcd60e51b815260206004820152601860248201527f50726f76696465642072657761726420746f6f206869676800000000000000006044820152606490fd5b600154336001600160a01b03909116036117445736601319013560601c90565b3390565b610e779160405191637b3338ad60e11b602084015260248301526044820152604481526080810181811067ffffffffffffffff82111761178b575b604052611798565b611793610eb9565b611783565b600080916020815191016a636f6e736f6c652e6c6f675afa50565b6117f66117e291610e7793604051938492632d839cb360e21b60208501526040602485015260648401906113d2565b90604483015203601f198101835282610ef9565b611798565b6117f69061182b92610e779460405194859363ca47c4eb60e01b60208601526060602486015260848501906113d2565b916044840152606483015203601f198101835282610ef9565b6117f691610e77946118749460405195869463a7a8785360e01b60208701526080602487015260a48601906113d2565b9260448501526064840152608483015203601f198101835282610ef956fea264697066735822122008bb02cb1f3f5c49fcee1545918c48c87b59bd1671d553c27e2d133a01dabb2964736f6c63430008110033",
  "devdoc": {
    "kind": "dev",
    "methods": {
      "isTrustedForwarder(address)": {
        "params": {
          "forwarder_": "Address to check"
        },
        "returns": {
          "_0": "true if forwarder_ is trusted forwarder"
        }
      },
      "owner()": {
        "details": "Returns the address of the current owner."
      },
      "renounceOwnership()": {
        "details": "Leaves the contract without owner. It will not be possible to call `onlyOwner` functions anymore. Can only be called by the current owner. NOTE: Renouncing ownership will leave the contract without an owner, thereby removing any functionality that is only available to the owner."
      },
      "setTrustedForwarder(address)": {
        "details": "onlyOwner can call",
        "params": {
          "forwarder_": "Frwarder conract address"
        }
      },
      "transferOwnership(address)": {
        "details": "Transfers ownership of the contract to a new account (`newOwner`). Can only be called by the current owner."
      }
    },
    "version": 1
  },
  "userdoc": {
    "errors": {
      "CannotSendEther()": [
        {
          "notice": "error (0xbf064619): Contract cannot receive ether"
        }
      ],
      "ZeroAddress()": [
        {
          "notice": "error (0xd92e233d): Address is address(0)"
        }
      ],
      "ZeroValue()": [
        {
          "notice": "error(): Value sent is 0"
        }
      ]
    },
    "events": {
      "ForwarderSet(address,address)": {
        "notice": "event (0x94aed472): Forwarder address is changed"
      }
    },
    "kind": "user",
    "methods": {
      "isTrustedForwarder(address)": {
        "notice": "Check if the given address is the trusted forwarder"
      },
      "setTrustedForwarder(address)": {
        "notice": "Set the forwarder contract address"
      }
    },
    "version": 1
  },
  "storageLayout": {
    "storage": [
      {
        "astId": 7,
        "contract": "contracts/samples/ZbyteStaking.sol:ZbyteStaking",
        "label": "_owner",
        "offset": 0,
        "slot": "0",
        "type": "t_address"
      },
      {
        "astId": 11713,
        "contract": "contracts/samples/ZbyteStaking.sol:ZbyteStaking",
        "label": "trustedForwarder",
        "offset": 0,
        "slot": "1",
        "type": "t_address"
      },
      {
        "astId": 377,
        "contract": "contracts/samples/ZbyteStaking.sol:ZbyteStaking",
        "label": "_status",
        "offset": 0,
        "slot": "2",
        "type": "t_uint256"
      },
      {
        "astId": 10569,
        "contract": "contracts/samples/ZbyteStaking.sol:ZbyteStaking",
        "label": "rewardsToken",
        "offset": 0,
        "slot": "3",
        "type": "t_contract(IERC20)1030"
      },
      {
        "astId": 10572,
        "contract": "contracts/samples/ZbyteStaking.sol:ZbyteStaking",
        "label": "stakingToken",
        "offset": 0,
        "slot": "4",
        "type": "t_contract(IERC20)1030"
      },
      {
        "astId": 10575,
        "contract": "contracts/samples/ZbyteStaking.sol:ZbyteStaking",
        "label": "periodFinish",
        "offset": 0,
        "slot": "5",
        "type": "t_uint256"
      },
      {
        "astId": 10578,
        "contract": "contracts/samples/ZbyteStaking.sol:ZbyteStaking",
        "label": "rewardRate",
        "offset": 0,
        "slot": "6",
        "type": "t_uint256"
      },
      {
        "astId": 10581,
        "contract": "contracts/samples/ZbyteStaking.sol:ZbyteStaking",
        "label": "rewardsDuration",
        "offset": 0,
        "slot": "7",
        "type": "t_uint256"
      },
      {
        "astId": 10583,
        "contract": "contracts/samples/ZbyteStaking.sol:ZbyteStaking",
        "label": "lastUpdateTime",
        "offset": 0,
        "slot": "8",
        "type": "t_uint256"
      },
      {
        "astId": 10585,
        "contract": "contracts/samples/ZbyteStaking.sol:ZbyteStaking",
        "label": "rewardPerTokenStored",
        "offset": 0,
        "slot": "9",
        "type": "t_uint256"
      },
      {
        "astId": 10589,
        "contract": "contracts/samples/ZbyteStaking.sol:ZbyteStaking",
        "label": "userRewardPerTokenPaid",
        "offset": 0,
        "slot": "10",
        "type": "t_mapping(t_address,t_uint256)"
      },
      {
        "astId": 10593,
        "contract": "contracts/samples/ZbyteStaking.sol:ZbyteStaking",
        "label": "rewards",
        "offset": 0,
        "slot": "11",
        "type": "t_mapping(t_address,t_uint256)"
      },
      {
        "astId": 10595,
        "contract": "contracts/samples/ZbyteStaking.sol:ZbyteStaking",
        "label": "_totalSupply",
        "offset": 0,
        "slot": "12",
        "type": "t_uint256"
      },
      {
        "astId": 10599,
        "contract": "contracts/samples/ZbyteStaking.sol:ZbyteStaking",
        "label": "_balances",
        "offset": 0,
        "slot": "13",
        "type": "t_mapping(t_address,t_uint256)"
      }
    ],
    "types": {
      "t_address": {
        "encoding": "inplace",
        "label": "address",
        "numberOfBytes": "20"
      },
      "t_contract(IERC20)1030": {
        "encoding": "inplace",
        "label": "contract IERC20",
        "numberOfBytes": "20"
      },
      "t_mapping(t_address,t_uint256)": {
        "encoding": "mapping",
        "key": "t_address",
        "label": "mapping(address => uint256)",
        "numberOfBytes": "32",
        "value": "t_uint256"
      },
      "t_uint256": {
        "encoding": "inplace",
        "label": "uint256",
        "numberOfBytes": "32"
      }
    }
  }
}