{
  "address": "0x399E3d190355655Fd6d577E4ce4F8Cc39cb2E1aD",
  "abi": [
    {
      "anonymous": false,
      "inputs": [
        {
          "indexed": false,
          "internalType": "address",
          "name": "",
          "type": "address"
        }
      ],
      "name": "ForwarderSet",
      "type": "event"
    },
    {
      "inputs": [],
      "name": "getTrustedForwarder",
      "outputs": [
        {
          "internalType": "address",
          "name": "",
          "type": "address"
        }
      ],
      "stateMutability": "view",
      "type": "function"
    },
    {
      "inputs": [
        {
          "internalType": "address",
          "name": "forwarder_",
          "type": "address"
        }
      ],
      "name": "setForwarder",
      "outputs": [],
      "stateMutability": "nonpayable",
      "type": "function"
    }
  ],
  "args": [],
  "numDeployments": 1,
  "solcInputHash": "ac2734a5edde77ce0dd82a8b50ef7b11",
  "bytecode": "0x60808060405234610016576101c0908161001c8239f35b600080fdfe608080604052600436101561001357600080fd5b600090813560e01c908163b9998a2414610081575063ce1b815f1461003757600080fd5b3461007e578060031936011261007e577f580a56aff4c8445faf8644f12c3b0f5d37fcb3a8e0a0f9b1b360da94678271dd546040516001600160a01b039091168152602090f35b80fd5b905034610186576020366003190112610186576004356001600160a01b038181169291839003610182577fc8fcad8db84d3cc18b4c41d551ea0ee66dd599cde068d998e57d5e09332c13205416330361013557507f580a56aff4c8445faf8644f12c3b0f5d37fcb3a8e0a0f9b1b360da94678271dd80546001600160a01b031916821790556040519081527f01e06e871b32b0b127105fbd5dbecd24273b7e1191a8940de24f4ea249e355d690602090a180f35b62461bcd60e51b815260206004820152602260248201527f4c69624469616d6f6e643a204d75737420626520636f6e7472616374206f776e60448201526132b960f11b6064820152608490fd5b8380fd5b5080fdfea264697066735822122013521bd1ff15f44e9d6eaf48555fc8eb90160cc15b83052a2ed67a20c577378564736f6c63430008110033",
  "devdoc": {
    "kind": "dev",
    "methods": {
      "setForwarder(address)": {
        "params": {
          "forwarder_": "Address of the trusted forwarder"
        }
      }
    },
    "version": 1
  },
  "userdoc": {
    "events": {
      "ForwarderSet(address)": {
        "notice": "event (0x94aed472): Forwarder address is changed"
      }
    },
    "kind": "user",
    "methods": {
      "getTrustedForwarder()": {
        "notice": "Get the address of trusted forwarder"
      },
      "setForwarder(address)": {
        "notice": "Set the address of trusted forwarder"
      }
    },
    "version": 1
  },
  "storageLayout": {
    "storage": [],
    "types": null
  }
}