{
  "address": "0x962CebE6B0aE5Fe8e4342Ab546106Bacc92eD46B",
  "abi": [
    {
      "inputs": [
        {
          "internalType": "address",
          "name": "erc20Address_",
          "type": "address"
        },
        {
          "internalType": "uint256",
          "name": "erc20PerToken_",
          "type": "uint256"
        },
        {
          "internalType": "address",
          "name": "distributor_",
          "type": "address"
        },
        {
          "internalType": "string",
          "name": "baseUri_",
          "type": "string"
        }
      ],
      "stateMutability": "nonpayable",
      "type": "constructor"
    },
    {
      "inputs": [],
      "name": "CannotSendEther",
      "type": "error"
    },
    {
      "inputs": [
        {
          "internalType": "uint256",
          "name": "",
          "type": "uint256"
        },
        {
          "internalType": "address",
          "name": "",
          "type": "address"
        }
      ],
      "name": "TokenDoesNotExist",
      "type": "error"
    },
    {
      "inputs": [
        {
          "internalType": "address",
          "name": "",
          "type": "address"
        },
        {
          "internalType": "uint256",
          "name": "",
          "type": "uint256"
        }
      ],
      "name": "UserNumTokenRestriction",
      "type": "error"
    },
    {
      "inputs": [],
      "name": "ZeroAddress",
      "type": "error"
    },
    {
      "inputs": [],
      "name": "ZeroValue",
      "type": "error"
    },
    {
      "anonymous": false,
      "inputs": [
        {
          "indexed": true,
          "internalType": "address",
          "name": "owner",
          "type": "address"
        },
        {
          "indexed": true,
          "internalType": "address",
          "name": "approved",
          "type": "address"
        },
        {
          "indexed": true,
          "internalType": "uint256",
          "name": "tokenId",
          "type": "uint256"
        }
      ],
      "name": "Approval",
      "type": "event"
    },
    {
      "anonymous": false,
      "inputs": [
        {
          "indexed": true,
          "internalType": "address",
          "name": "owner",
          "type": "address"
        },
        {
          "indexed": true,
          "internalType": "address",
          "name": "operator",
          "type": "address"
        },
        {
          "indexed": false,
          "internalType": "bool",
          "name": "approved",
          "type": "bool"
        }
      ],
      "name": "ApprovalForAll",
      "type": "event"
    },
    {
      "anonymous": false,
      "inputs": [
        {
          "indexed": false,
          "internalType": "address",
          "name": "",
          "type": "address"
        },
        {
          "indexed": false,
          "internalType": "address",
          "name": "",
          "type": "address"
        }
      ],
      "name": "ForwarderSet",
      "type": "event"
    },
    {
      "anonymous": false,
      "inputs": [
        {
          "indexed": true,
          "internalType": "address",
          "name": "previousOwner",
          "type": "address"
        },
        {
          "indexed": true,
          "internalType": "address",
          "name": "newOwner",
          "type": "address"
        }
      ],
      "name": "OwnershipTransferred",
      "type": "event"
    },
    {
      "anonymous": false,
      "inputs": [
        {
          "indexed": false,
          "internalType": "address",
          "name": "account",
          "type": "address"
        }
      ],
      "name": "Paused",
      "type": "event"
    },
    {
      "anonymous": false,
      "inputs": [
        {
          "indexed": false,
          "internalType": "address",
          "name": "",
          "type": "address"
        },
        {
          "indexed": false,
          "internalType": "uint256",
          "name": "",
          "type": "uint256"
        }
      ],
      "name": "Redeemed",
      "type": "event"
    },
    {
      "anonymous": false,
      "inputs": [
        {
          "indexed": true,
          "internalType": "address",
          "name": "from",
          "type": "address"
        },
        {
          "indexed": true,
          "internalType": "address",
          "name": "to",
          "type": "address"
        },
        {
          "indexed": true,
          "internalType": "uint256",
          "name": "tokenId",
          "type": "uint256"
        }
      ],
      "name": "Transfer",
      "type": "event"
    },
    {
      "anonymous": false,
      "inputs": [
        {
          "indexed": false,
          "internalType": "address",
          "name": "account",
          "type": "address"
        }
      ],
      "name": "Unpaused",
      "type": "event"
    },
    {
      "anonymous": false,
      "inputs": [
        {
          "indexed": false,
          "internalType": "uint256",
          "name": "",
          "type": "uint256"
        },
        {
          "indexed": false,
          "internalType": "uint256",
          "name": "",
          "type": "uint256"
        }
      ],
      "name": "mintedForAirdrop",
      "type": "event"
    },
    {
      "inputs": [
        {
          "internalType": "address",
          "name": "to",
          "type": "address"
        },
        {
          "internalType": "uint256",
          "name": "tokenId",
          "type": "uint256"
        }
      ],
      "name": "approve",
      "outputs": [],
      "stateMutability": "nonpayable",
      "type": "function"
    },
    {
      "inputs": [
        {
          "internalType": "address",
          "name": "owner",
          "type": "address"
        }
      ],
      "name": "balanceOf",
      "outputs": [
        {
          "internalType": "uint256",
          "name": "",
          "type": "uint256"
        }
      ],
      "stateMutability": "view",
      "type": "function"
    },
    {
      "inputs": [],
      "name": "erc20Address",
      "outputs": [
        {
          "internalType": "address",
          "name": "",
          "type": "address"
        }
      ],
      "stateMutability": "view",
      "type": "function"
    },
    {
      "inputs": [
        {
          "internalType": "uint256",
          "name": "tokenId",
          "type": "uint256"
        }
      ],
      "name": "getApproved",
      "outputs": [
        {
          "internalType": "address",
          "name": "",
          "type": "address"
        }
      ],
      "stateMutability": "view",
      "type": "function"
    },
    {
      "inputs": [
        {
          "internalType": "address",
          "name": "owner",
          "type": "address"
        },
        {
          "internalType": "address",
          "name": "operator",
          "type": "address"
        }
      ],
      "name": "isApprovedForAll",
      "outputs": [
        {
          "internalType": "bool",
          "name": "",
          "type": "bool"
        }
      ],
      "stateMutability": "view",
      "type": "function"
    },
    {
      "inputs": [
        {
          "internalType": "address",
          "name": "forwarder_",
          "type": "address"
        }
      ],
      "name": "isTrustedForwarder",
      "outputs": [
        {
          "internalType": "bool",
          "name": "",
          "type": "bool"
        }
      ],
      "stateMutability": "view",
      "type": "function"
    },
    {
      "inputs": [
        {
          "internalType": "uint256",
          "name": "numTokens",
          "type": "uint256"
        },
        {
          "internalType": "string",
          "name": "airdropUri",
          "type": "string"
        }
      ],
      "name": "mintForAirdrop",
      "outputs": [],
      "stateMutability": "nonpayable",
      "type": "function"
    },
    {
      "inputs": [],
      "name": "name",
      "outputs": [
        {
          "internalType": "string",
          "name": "",
          "type": "string"
        }
      ],
      "stateMutability": "view",
      "type": "function"
    },
    {
      "inputs": [],
      "name": "owner",
      "outputs": [
        {
          "internalType": "address",
          "name": "",
          "type": "address"
        }
      ],
      "stateMutability": "view",
      "type": "function"
    },
    {
      "inputs": [
        {
          "internalType": "uint256",
          "name": "tokenId",
          "type": "uint256"
        }
      ],
      "name": "ownerOf",
      "outputs": [
        {
          "internalType": "address",
          "name": "",
          "type": "address"
        }
      ],
      "stateMutability": "view",
      "type": "function"
    },
    {
      "inputs": [],
      "name": "pause",
      "outputs": [],
      "stateMutability": "nonpayable",
      "type": "function"
    },
    {
      "inputs": [],
      "name": "paused",
      "outputs": [
        {
          "internalType": "bool",
          "name": "",
          "type": "bool"
        }
      ],
      "stateMutability": "view",
      "type": "function"
    },
    {
      "inputs": [
        {
          "internalType": "address",
          "name": "receiver",
          "type": "address"
        }
      ],
      "name": "redeem",
      "outputs": [],
      "stateMutability": "nonpayable",
      "type": "function"
    },
    {
      "inputs": [],
      "name": "renounceOwnership",
      "outputs": [],
      "stateMutability": "nonpayable",
      "type": "function"
    },
    {
      "inputs": [
        {
          "internalType": "address",
          "name": "from",
          "type": "address"
        },
        {
          "internalType": "address",
          "name": "to",
          "type": "address"
        },
        {
          "internalType": "uint256",
          "name": "tokenId",
          "type": "uint256"
        }
      ],
      "name": "safeTransferFrom",
      "outputs": [],
      "stateMutability": "nonpayable",
      "type": "function"
    },
    {
      "inputs": [
        {
          "internalType": "address",
          "name": "from",
          "type": "address"
        },
        {
          "internalType": "address",
          "name": "to",
          "type": "address"
        },
        {
          "internalType": "uint256",
          "name": "tokenId",
          "type": "uint256"
        },
        {
          "internalType": "bytes",
          "name": "_data",
          "type": "bytes"
        }
      ],
      "name": "safeTransferFrom",
      "outputs": [],
      "stateMutability": "nonpayable",
      "type": "function"
    },
    {
      "inputs": [
        {
          "internalType": "address",
          "name": "operator",
          "type": "address"
        },
        {
          "internalType": "bool",
          "name": "approved",
          "type": "bool"
        }
      ],
      "name": "setApprovalForAll",
      "outputs": [],
      "stateMutability": "nonpayable",
      "type": "function"
    },
    {
      "inputs": [
        {
          "internalType": "address",
          "name": "forwarder_",
          "type": "address"
        }
      ],
      "name": "setTrustedForwarder",
      "outputs": [],
      "stateMutability": "nonpayable",
      "type": "function"
    },
    {
      "inputs": [
        {
          "internalType": "bytes4",
          "name": "interfaceId",
          "type": "bytes4"
        }
      ],
      "name": "supportsInterface",
      "outputs": [
        {
          "internalType": "bool",
          "name": "",
          "type": "bool"
        }
      ],
      "stateMutability": "view",
      "type": "function"
    },
    {
      "inputs": [],
      "name": "symbol",
      "outputs": [
        {
          "internalType": "string",
          "name": "",
          "type": "string"
        }
      ],
      "stateMutability": "view",
      "type": "function"
    },
    {
      "inputs": [
        {
          "internalType": "uint256",
          "name": "index",
          "type": "uint256"
        }
      ],
      "name": "tokenByIndex",
      "outputs": [
        {
          "internalType": "uint256",
          "name": "",
          "type": "uint256"
        }
      ],
      "stateMutability": "view",
      "type": "function"
    },
    {
      "inputs": [
        {
          "internalType": "address",
          "name": "owner",
          "type": "address"
        },
        {
          "internalType": "uint256",
          "name": "index",
          "type": "uint256"
        }
      ],
      "name": "tokenOfOwnerByIndex",
      "outputs": [
        {
          "internalType": "uint256",
          "name": "",
          "type": "uint256"
        }
      ],
      "stateMutability": "view",
      "type": "function"
    },
    {
      "inputs": [
        {
          "internalType": "uint256",
          "name": "tokenId",
          "type": "uint256"
        }
      ],
      "name": "tokenURI",
      "outputs": [
        {
          "internalType": "string",
          "name": "",
          "type": "string"
        }
      ],
      "stateMutability": "view",
      "type": "function"
    },
    {
      "inputs": [],
      "name": "totalSupply",
      "outputs": [
        {
          "internalType": "uint256",
          "name": "",
          "type": "uint256"
        }
      ],
      "stateMutability": "view",
      "type": "function"
    },
    {
      "inputs": [
        {
          "internalType": "address",
          "name": "from",
          "type": "address"
        },
        {
          "internalType": "address",
          "name": "to",
          "type": "address"
        },
        {
          "internalType": "uint256",
          "name": "tokenId",
          "type": "uint256"
        }
      ],
      "name": "transferFrom",
      "outputs": [],
      "stateMutability": "nonpayable",
      "type": "function"
    },
    {
      "inputs": [
        {
          "internalType": "address",
          "name": "newOwner",
          "type": "address"
        }
      ],
      "name": "transferOwnership",
      "outputs": [],
      "stateMutability": "nonpayable",
      "type": "function"
    },
    {
      "inputs": [
        {
          "internalType": "address",
          "name": "recepient",
          "type": "address"
        }
      ],
      "name": "transferRemainingERC20",
      "outputs": [],
      "stateMutability": "nonpayable",
      "type": "function"
    },
    {
      "inputs": [],
      "name": "unpause",
      "outputs": [],
      "stateMutability": "nonpayable",
      "type": "function"
    }
  ],
  "transactionHash": "0xd517d73dbbe09af3bb7d011d70eb0f29fef43d09cd1e6350695602d4a90f0b25",
  "args": [
    "0x2894D3d60008aEE8258Ca62507F0D0f2b4f83E9F",
    "1000000000000000000",
    "0x016C8FdD5199927597126Ec5eeb27143191177e4",
    "https://zbyte.io/"
  ],
  "numDeployments": 1,
  "solcInputHash": "a90fe759864e4e2d48e3c9106095f3b7",
  "bytecode": "0x6080604052346200061d57620030d7803803806200001d8162000642565b9283398101906080818303126200061d57620000398162000668565b6020820151906200004d6040840162000668565b606084015190936001600160401b0382116200061d570184601f820112156200061d578051906001600160401b038211620003e15762000097601f8301601f191660200162000642565b95828752602083830101116200061d5760005b82811062000607575050602060009186010152620000c762000622565b600d81526c044504c41542041697264726f7609c1b6020820152620000eb62000622565b90600882526722282620aa20a4a960c11b60208301526200010b6200067d565b600080546001600160a01b039283166001600160a01b03198216811783559216907f8be0079c531659141344cd1fd0a4f28419497f9722a3daafe3b4186f6b6457e09080a38051906001600160401b038211620003e15760025490600182811c92168015620005fc575b6020831014620003c05781601f84931162000598575b50602090601f83116001146200051e5760009262000512575b50508160011b916000199060031b1c1916176002555b8051906001600160401b038211620003e15760035490600182811c9216801562000507575b6020831014620003c05781601f84931162000492575b50602090601f83116001146200040357600092620003f7575b50508160011b916000199060031b1c1916176003555b6009805460ff19169055600f80546001600160a01b03199081166001600160a01b039384161790915560109290925560118054909216921691909117905580516001600160401b038111620003e157601254600181811c91168015620003d6575b6020821014620003c057601f811162000356575b50602091601f8211600114620002ec57918192600092620002e0575b50508160011b916000199060031b1c1916176012555b6001600e55604051612a149081620006a38239f35b015190503880620002b5565b601f19821692601260005260206000209160005b8581106200033d5750836001951062000323575b505050811b01601255620002cb565b015160001960f88460031b161c1916905538808062000314565b9192602060018192868501518155019401920162000300565b60126000527fbb8a6a4669ba250d26cd7a459eca9d215f8307e33aebe50379bc5a3617ec3444601f830160051c81019160208410620003b5575b601f0160051c01905b818110620003a8575062000299565b6000815560010162000399565b909150819062000390565b634e487b7160e01b600052602260045260246000fd5b90607f169062000285565b634e487b7160e01b600052604160045260246000fd5b0151905038806200020e565b6003600090815293507fc2575a0e9e593c00f959f8c92f12db2869c3395a3b0502d05e2516446f71f85b91905b601f198416851062000476576001945083601f198116106200045c575b505050811b0160035562000224565b015160001960f88460031b161c191690553880806200044d565b8181015183556020948501946001909301929091019062000430565b60036000529091507fc2575a0e9e593c00f959f8c92f12db2869c3395a3b0502d05e2516446f71f85b601f840160051c81019160208510620004fc575b90601f859493920160051c01905b818110620004ec5750620001f5565b60008155849350600101620004dd565b9091508190620004cf565b91607f1691620001df565b015190503880620001a4565b60026000908152600080516020620030b78339815191529350601f198516905b8181106200057f575090846001959493921062000565575b505050811b01600255620001ba565b015160001960f88460031b161c1916905538808062000556565b929360206001819287860151815501950193016200053e565b6002600052909150600080516020620030b7833981519152601f840160051c81019160208510620005f1575b90601f859493920160051c01905b818110620005e157506200018b565b60008155849350600101620005d2565b9091508190620005c4565b91607f169162000175565b80602080928401015182828a01015201620000aa565b600080fd5b60408051919082016001600160401b03811183821017620003e157604052565b6040519190601f01601f191682016001600160401b03811183821017620003e157604052565b51906001600160a01b03821682036200061d57565b600154336001600160a01b03909116036200069e5736601319013560601c90565b339056fe60806040526004361015610013575b600080fd5b60003560e01c806301ffc9a71461024357806306fdde031461023a578063081812fc14610231578063095ea7b31461022857806318160ddd1461021f57806323b872dd14610216578063276184ae1461020d5780632f745c59146102045780633f4ba83a146101fb57806342842e0e146101f25780634f6ccce7146101e9578063572b6c05146101e05780635c975abb146101d75780636352211e146101ce57806370a08231146101c5578063715018a6146101bc5780638456cb59146101b35780638da5cb5b146101aa57806395a2251f146101a157806395d89b4114610198578063a22cb4651461018f578063b88d4fde14610186578063c87b56dd1461017d578063d4c8dd6214610174578063da7422281461016b578063e985e9c514610162578063f2fde38b146101595763f5487bb61461015157600080fd5b61000e6112e3565b5061000e61124a565b5061000e6111ec565b5061000e611160565b5061000e610f45565b5061000e610f11565b5061000e610eb0565b5061000e610cac565b5061000e610bfa565b5061000e610989565b5061000e61095f565b5061000e6108f0565b5061000e610885565b5061000e610861565b5061000e610842565b5061000e61081e565b5061000e6107e8565b5061000e61073c565b5061000e610713565b5061000e610658565b5061000e610628565b5061000e6105fe565b5061000e6105cd565b5061000e610579565b5061000e610486565b5061000e610429565b5061000e610343565b5061000e61025e565b6001600160e01b031981160361000e57565b503461000e57602036600319011261000e57602060043561027e8161024c565b63ffffffff60e01b1663780e9d6360e01b81149081156102a4575b506040519015158152f35b6380ac58cd60e01b8114915081156102d6575b81156102c5575b5038610299565b6301ffc9a760e01b149050386102be565b635b5e139f60e01b811491506102b7565b60005b8381106102fa5750506000910152565b81810151838201526020016102ea565b90602091610323815180928185528580860191016102e7565b601f01601f1916010190565b90602061034092818152019061030a565b90565b503461000e5760008060031936011261042657604051908060025461036781611512565b808552916001918083169081156103fc57506001146103a1575b61039d8561039181870382610e2c565b6040519182918261032f565b0390f35b9250600283527f405787fa12a823e0f2b7631cc41b3ba8828b3321ca811111fa75cd3aa3bb5ace5b8284106103e45750505081016020016103918261039d610381565b805460208587018101919091529093019281016103c9565b86955061039d9693506020925061039194915060ff191682840152151560051b8201019293610381565b80fd5b503461000e57602036600319011261000e576020610448600435611720565b6040516001600160a01b039091168152f35b600435906001600160a01b038216820361000e57565b602435906001600160a01b038216820361000e57565b503461000e57604036600319011261000e576104a061045a565b6024356104ac8161149a565b6001600160a01b038082169391818316851461052a576104e7946104e2926104d26129ba565b16149081156104e9575b506116ae565b611bc9565b005b61052491506104f66129ba565b6001600160a01b03918216600090815260076020908152604080832093909416825291909152205460ff1690565b386104dc565b60405162461bcd60e51b815260206004820152602160248201527f4552433732313a20617070726f76616c20746f2063757272656e74206f776e656044820152603960f91b6064820152608490fd5b503461000e57600036600319011261000e576020600c54604051908152f35b606090600319011261000e576001600160a01b0390600435828116810361000e5791602435908116810361000e579060443590565b503461000e576104e76105df36610598565b916105f96105f4846105ef6129ba565b6118ef565b6117b7565b611a69565b503461000e57600036600319011261000e57600f546040516001600160a01b039091168152602090f35b503461000e57604036600319011261000e57602061065061064761045a565b60243590611de9565b604051908152f35b503461000e576000806003193601126104265780546001600160a01b039061068c908216826106856129ba565b1614611390565b60095460ff8116156106d75760ff19166009557f5db9ee0a495bf2e6ff9c91a7834c1ba4fdd244a5e8aa4e537bd38aeae4b073aa906020906106cc6129ba565b60405191168152a180f35b60405162461bcd60e51b815260206004820152601460248201527314185d5cd8589b194e881b9bdd081c185d5cd95960621b6044820152606490fd5b503461000e576104e761072536610598565b906040519261073384610de7565b6000845261184f565b503461000e57602036600319011261000e57600435600c5481101561078e57600c6000527fdf6966c971051c3d54ec59162606531493a51404a002842f56009d7e5cf4a8c70154604051908152602090f35b60405162461bcd60e51b815260206004820152602c60248201527f455243373231456e756d657261626c653a20676c6f62616c20696e646578206f60448201526b7574206f6620626f756e647360a01b6064820152608490fd5b503461000e57602036600319011261000e57602061080461045a565b6001546040516001600160a01b0392831691909216148152f35b503461000e57600036600319011261000e57602060ff600954166040519015158152f35b503461000e57602036600319011261000e57602061044860043561149a565b503461000e57602036600319011261000e57602061065061088061045a565b611422565b503461000e5760008060031936011261042657805481906001600160a01b0380821691906108bd906108b56129ba565b168314611390565b6001600160a01b03191682557f8be0079c531659141344cd1fd0a4f28419497f9722a3daafe3b4186f6b6457e08280a380f35b503461000e57600080600319360112610426577f62e78cea01bee320cd4e420270b5ea74000d11b0c9f74754ebdbfc544b05a258602060018060a01b0361093d81855416826106856129ba565b600160095461094f60ff821615611e8e565b60ff1916176009556106cc6129ba565b503461000e57600036600319011261000e576000546040516001600160a01b039091168152602090f35b503461000e5760208060031936011261000e576109a461045a565b6001805491926001600160a01b03926109c09084163314611ecd565b6109c86129ba565b9083851615610be8576109da82611422565b9360005b858110610a63577f4896181ff8f4543cc00db9fe9b6fb7e6f032b7eb772c72ab1ec1b4d2e03b936986610a3e89610a2b610a1f600f5460018060a01b031690565b6001600160a01b031690565b90610a3884601054612784565b91612797565b610a466129ba565b604080516001600160a01b039290921682526020820192909252a1005b610a6d8185611de9565b610a768161149a565b610a84848854163314611ecd565b60ff60095416610b8f579080600083610adb87610b599796169182158414610b8057610aaf85612064565b610ab8856121a4565b610ac185611b75565b6001600160a01b0316600090815260056020526040902090565b610ae58154611a44565b9055610b0e610afe846000526004602052604060002090565b80546001600160a01b0319169055565b7fddf252ad1be2c89b69c2b068fc378daa952ba7f163c4a11628f55a4df523b3ef8280a4610b4e610b49826000526008602052604060002090565b612955565b610b5e575b50612478565b6109de565b610b75610b7a916000526008602052604060002090565b61295f565b38610b53565b610b8a85826120dd565b610aaf565b60405162461bcd60e51b815260048101869052602b60248201527f4552433732315061757361626c653a20746f6b656e207472616e73666572207760448201526a1a1a5b19481c185d5cd95960aa1b6064820152608490fd5b60405163d92e233d60e01b8152600490fd5b503461000e57600080600319360112610426576040519080600354610c1e81611512565b808552916001918083169081156103fc5750600114610c475761039d8561039181870382610e2c565b9250600383527fc2575a0e9e593c00f959f8c92f12db2869c3395a3b0502d05e2516446f71f85b5b828410610c8a5750505081016020016103918261039d610381565b80546020858701810191909152909301928101610c6f565b8015150361000e57565b503461000e57604036600319011261000e57610cc661045a565b602435610cd281610ca2565b6001600160a01b039182610ce46129ba565b16928116928314610d8b5781610d33610d4492610d1c610d026129ba565b6001600160a01b0316600090815260076020526040902090565b9060018060a01b0316600052602052604060002090565b9060ff801983541691151516179055565b7f17307eab39ab6107e8899845ad3d59bd9653f200f220920489ca2b5937696c31610d86610d73610a1f6129ba565b6040519315158452929081906020820190565b0390a3005b60405162461bcd60e51b815260206004820152601960248201527f4552433732313a20617070726f766520746f2063616c6c6572000000000000006044820152606490fd5b50634e487b7160e01b600052604160045260246000fd5b6020810190811067ffffffffffffffff821117610e0357604052565b610e0b610dd0565b604052565b6040810190811067ffffffffffffffff821117610e0357604052565b90601f8019910116810190811067ffffffffffffffff821117610e0357604052565b60209067ffffffffffffffff8111610e6c575b601f01601f19160190565b610e74610dd0565b610e61565b929192610e8582610e4e565b91610e936040519384610e2c565b82948184528183011161000e578281602093846000960137010152565b503461000e57608036600319011261000e57610eca61045a565b610ed2610470565b6064359167ffffffffffffffff831161000e573660238401121561000e57610f076104e7933690602481600401359101610e79565b916044359161184f565b503461000e57602036600319011261000e5761039d610f316004356122d1565b60405191829160208352602083019061030a565b503461000e5760408060031936011261000e576004908135602491823567ffffffffffffffff811161000e573660238201121561000e57610f8e90369085818801359101610e79565b6000805490956001600160a01b0391610fac908316836106856129ba565b610fbb82600154163314611ecd565b610fca60ff6009541615611e8e565b600e90815496885b878110611010578651888152602081018a90528a907fd13a353b9d166a645f8affd8671f339c88147d8be1b260bce97f74186da51c2f90604090a180f35b846011541684549061102182612478565b865588519061102f82610de7565b8c8252801561111e578261110f61110a8f948385818f976111149961107c6110776110736111199f9e600052600460205260018060a01b0360406000205416151590565b1590565b612578565b6110868383611f19565b6001600160a01b03821660009081526005602052604090206110a88154611a5b565b90556110e1826110c2856000526004602052604060002090565b80546001600160a01b0319166001600160a01b03909216919091179055565b7fddf252ad1be2c89b69c2b068fc378daa952ba7f163c4a11628f55a4df523b3ef8180a4611cdb565b6118cb565b612620565b612478565b610fd2565b895162461bcd60e51b81526020818801819052818701527f4552433732313a206d696e7420746f20746865207a65726f20616464726573736044820152606490fd5b503461000e57602036600319011261000e5761117a61045a565b6000546001600160a01b03918291611197908316836106856129ba565b168015610be8577f94aed472e01353526c04ec91cee149d41e78d848ec851c72be532bf7b120bd309160409160015491816bffffffffffffffffffffffff60a01b8416176001558351921682526020820152a1005b503461000e57604036600319011261000e57602060ff61123e61120d61045a565b611215610470565b6001600160a01b0391821660009081526007865260408082209290931681526020919091522090565b54166040519015158152f35b503461000e57602036600319011261000e5761126461045a565b6000546001600160a01b039061127f908216826106856129ba565b81161561128f576104e7906113db565b60405162461bcd60e51b815260206004820152602660248201527f4f776e61626c653a206e6577206f776e657220697320746865207a65726f206160448201526564647265737360d01b6064820152608490fd5b503461000e57602036600319011261000e576104e761130061045a565b6000546001600160a01b039061131b908216826106856129ba565b600f546040516370a0823160e01b8152306004820152929116602083602481845afa928315611383575b600093611353575b50612797565b61137591935060203d811161137c575b61136d8183610e2c565b8101906129ab565b913861134d565b503d611363565b61138b611c9e565b611345565b1561139757565b606460405162461bcd60e51b815260206004820152602060248201527f4f776e61626c653a2063616c6c6572206973206e6f7420746865206f776e65726044820152fd5b600080546001600160a01b039283166001600160a01b03198216811783559216907f8be0079c531659141344cd1fd0a4f28419497f9722a3daafe3b4186f6b6457e09080a3565b6001600160a01b0316801561144257600052600560205260406000205490565b60405162461bcd60e51b815260206004820152602a60248201527f4552433732313a2062616c616e636520717565727920666f7220746865207a65604482015269726f206164647265737360b01b6064820152608490fd5b6000908152600460205260409020546001600160a01b031680156114bb5790565b60405162461bcd60e51b815260206004820152602960248201527f4552433732313a206f776e657220717565727920666f72206e6f6e657869737460448201526832b73a103a37b5b2b760b91b6064820152608490fd5b90600182811c92168015611542575b602083101461152c57565b634e487b7160e01b600052602260045260246000fd5b91607f1691611521565b604051906000826012549161156083611512565b808352926001908181169081156115e85750600114611589575b5061158792500383610e2c565b565b6012600090815291507fbb8a6a4669ba250d26cd7a459eca9d215f8307e33aebe50379bc5a3617ec34445b8483106115cd575061158793505081016020013861157a565b81935090816020925483858a010152019101909185926115b4565b90506020925061158794915060ff191682840152151560051b8201013861157a565b906040519182600082549261161e84611512565b90818452600194858116908160001461168b5750600114611648575b505061158792500383610e2c565b9093915060005260209081600020936000915b8183106116735750506115879350820101388061163a565b8554888401850152948501948794509183019161165b565b91505061158794506020925060ff191682840152151560051b820101388061163a565b156116b557565b60405162461bcd60e51b815260206004820152603860248201527f4552433732313a20617070726f76652063616c6c6572206973206e6f74206f7760448201527f6e6572206e6f7220617070726f76656420666f7220616c6c00000000000000006064820152608490fd5b6000818152600460205260409020546001600160a01b031615611758576000908152600660205260409020546001600160a01b031690565b60405162461bcd60e51b815260206004820152602c60248201527f4552433732313a20617070726f76656420717565727920666f72206e6f6e657860448201526b34b9ba32b73a103a37b5b2b760a11b6064820152608490fd5b541690565b156117be57565b60405162461bcd60e51b815260206004820152603160248201527f4552433732313a207472616e736665722063616c6c6572206973206e6f74206f6044820152701ddb995c881b9bdc88185c1c1c9bdd9959607a1b6064820152608490fd5b604051906020820182811067ffffffffffffffff821117611842575b60405260008252565b61184a610dd0565b611839565b91611587939161110a936118686105f4846105ef6129ba565b611873838383611a69565b611da4565b60809060208152603260208201527f4552433732313a207472616e7366657220746f206e6f6e20455243373231526560408201527131b2b4bb32b91034b6b83632b6b2b73a32b960711b60608201520190565b156118d257565b60405162461bcd60e51b8152806118eb60048201611878565b0390fd5b6000828152600460205260409020546001600160a01b03161561197b576119158261149a565b6001600160a01b038281168282168114949091908515611963575b505050821561193e57505090565b6001600160a01b0316600090815260076020526040902060ff92506117b29190610d1c565b6119709192939550611720565b161491388080611930565b60405162461bcd60e51b815260206004820152602c60248201527f4552433732313a206f70657261746f7220717565727920666f72206e6f6e657860448201526b34b9ba32b73a103a37b5b2b760a11b6064820152608490fd5b156119dc57565b60405162461bcd60e51b8152602060048201526024808201527f4552433732313a207472616e7366657220746f20746865207a65726f206164646044820152637265737360e01b6064820152608490fd5b50634e487b7160e01b600052601160045260246000fd5b600019810191908211611a5357565b611587611a2d565b9060018201809211611a5357565b90611a738361149a565b6001600160a01b038381169290918216839003611b1e57611ab3611af792821694611a9f8615156119d5565b611aaa878483611fb5565b610ac187611b75565b611abd8154611a44565b90556001600160a01b0381166000908152600560205260409020611ae18154611a5b565b90556110c2856000526004602052604060002090565b7fddf252ad1be2c89b69c2b068fc378daa952ba7f163c4a11628f55a4df523b3ef600080a4565b60405162461bcd60e51b815260206004820152602960248201527f4552433732313a207472616e73666572206f6620746f6b656e2074686174206960448201526839903737ba1037bbb760b91b6064820152608490fd5b600081815260066020526040812080546001600160a01b03191690556001600160a01b03611ba28361149a565b167f8c5be1e5ebec7d5bd14f71427d1e84f3dd0314c0f7b2291e5b200ac8c7c3b9258280a4565b600082815260066020526040902080546001600160a01b0319166001600160a01b0383161790556001600160a01b0380611c028461149a565b169116907f8c5be1e5ebec7d5bd14f71427d1e84f3dd0314c0f7b2291e5b200ac8c7c3b925600080a4565b9081602091031261000e57516103408161024c565b610340939260809260018060a01b03168252600060208301526040820152816060820152019061030a565b6001600160a01b0391821681529116602082015260408101919091526080606082018190526103409291019061030a565b506040513d6000823e3d90fd5b3d15611cd6573d90611cbc82610e4e565b91611cca6040519384610e2c565b82523d6000602084013e565b606090565b909190803b15611d9c57611d1591602091611cf46129ba565b946000604051809681958294630a85bd0160e11b9a8b855260048501611c42565b03926001600160a01b03165af160009181611d6c575b50611d5e57611d38611cab565b80519081611d595760405162461bcd60e51b8152806118eb60048201611878565b602001fd5b6001600160e01b0319161490565b611d8e91925060203d8111611d95575b611d868183610e2c565b810190611c2d565b9038611d2b565b503d611d7c565b505050600190565b92909190823b15611de057611d15926020926000611dc06129ba565b9660405196879586948593630a85bd0160e11b9b8c865260048601611c6d565b50505050600190565b611df281611422565b821015611e1e5760018060a01b0316600052600a60205260406000209060005260205260406000205490565b60405162461bcd60e51b815260206004820152602b60248201527f455243373231456e756d657261626c653a206f776e657220696e646578206f7560448201526a74206f6620626f756e647360a81b6064820152608490fd5b50634e487b7160e01b600052603260045260246000fd5b15611e9557565b60405162461bcd60e51b815260206004820152601060248201526f14185d5cd8589b194e881c185d5cd95960821b6044820152606490fd5b15611ed457565b60405162461bcd60e51b815260206004820152601760248201527f43616c6c206e6f742066726f6d20466f727761726465720000000000000000006044820152606490fd5b9060018060a01b03611f3081600154163314611ecd565b60ff60095416611f5c57611f4382612064565b8216611f535761158791506121a4565b6115879161202c565b60405162461bcd60e51b815260206004820152602b60248201527f4552433732315061757361626c653a20746f6b656e207472616e73666572207760448201526a1a1a5b19481c185d5cd95960aa1b6064820152608490fd5b6001549192916001600160a01b0390611fd19082163314611ecd565b60ff60095416611f5c57818116918261200a5750611fee83612064565b83168061200157505061158791506121a4565b03611f53575050565b83828616840361201c575b5050611fee565b612025916120dd565b3883612015565b60409061203881611422565b9260009160018060a01b03168252600a60205282822084835260205280838320558152600b6020522055565b600c5481600052600d60205280604060002055680100000000000000008110156120d0575b6001810180600c558110156120c3575b600c6000527fdf6966c971051c3d54ec59162606531493a51404a002842f56009d7e5cf4a8c70155565b6120cb611e77565b612099565b6120d8610dd0565b612089565b90612142612127926120ee81611422565b600019810193908411612197575b6000948186928352600b602052604083205486810361214f575b50600052600b602052604060002090565b556001600160a01b03166000908152600a6020526040902090565b9082526020526040812055565b6001600160a01b038516808552600a602081815260408088208b895282528088205460009485529282528084208589528252808820839055918352600b905290205538612116565b61219f611a2d565b6120fc565b600c805460001992908381018181116122ad575b6122546000938492818452600d6020528460408520549110156122a0575b8684526122437fdf6966c971051c3d54ec59162606531493a51404a002842f56009d7e5cf4a8c6958681015490831015612293575b88865280837fdf6966c971051c3d54ec59162606531493a51404a002842f56009d7e5cf4a8c70155600052600d602052604060002090565b55600052600d602052604060002090565b55825493841561227f5784019380851015612272575b838352015555565b61227a611e77565b61226a565b634e487b7160e01b83526031600452602483fd5b61229b611e77565b61220b565b6122a8611e77565b6121d6565b6122b5611a2d565b6121b8565b906122cd602092828151948592016102e7565b0190565b6000818152600460205260409020546001600160a01b0316156123605761230a612305826000526008602052604060002090565b61160a565b9061231361154c565b80511561235b57825161232b575061034091506123bf565b610340915061234d6123479360405194859360208501906122ba565b906122ba565b03601f198101835282610e2c565b505090565b60405162461bcd60e51b815260206004820152603160248201527f45524337323155524953746f726167653a2055524920717565727920666f72206044820152703737b732bc34b9ba32b73a103a37b5b2b760791b6064820152608490fd5b6000818152600460205260409020546001600160a01b03161561241b576123e461154c565b805190919015612411576123479161234d612401610340936124af565b60405194859360208501906122ba565b505061034061181d565b60405162461bcd60e51b815260206004820152602f60248201527f4552433732314d657461646174613a2055524920717565727920666f72206e6f60448201526e3732bc34b9ba32b73a103a37b5b2b760891b6064820152608490fd5b6001906000198114612488570190565b6122cd611a2d565b9060209180518210156124a257010190565b6124aa611e77565b010190565b801561255a57806000908282935b61254657506124cb83610e4e565b926124d96040519485610e2c565b80845281601f196124e983610e4e565b013660208701375b6124fb5750505090565b61250490611a44565b90600a9060308282068101809111612539575b60f81b6001600160f81b031916841a6125308487612490565b530490816124f1565b612541611a2d565b612517565b92612552600a91612478565b9304806124bd565b5060405161256781610e10565b60018152600360fc1b602082015290565b1561257f57565b60405162461bcd60e51b815260206004820152601c60248201527f4552433732313a20746f6b656e20616c7265616479206d696e746564000000006044820152606490fd5b8181106125cf575050565b600081556001016125c4565b9190601f81116125ea57505050565b611587926000526020600020906020601f840160051c83019310612616575b601f0160051c01906125c4565b9091508190612609565b6000818152600460205260409020549192916001600160a01b0316156127285760005260206008815260406000209083519067ffffffffffffffff821161271b575b612676826126708554611512565b856125db565b80601f83116001146126b05750819293946000926126a5575b50508160011b916000199060031b1c1916179055565b01519050388061268f565b90601f198316956126c685600052602060002090565b926000905b888210612703575050836001959697106126ea575b505050811b019055565b015160001960f88460031b161c191690553880806126e0565b806001859682949686015181550195019301906126cb565b612723610dd0565b612662565b60405162461bcd60e51b815260206004820152602e60248201527f45524337323155524953746f726167653a2055524920736574206f66206e6f6e60448201526d32bc34b9ba32b73a103a37b5b2b760911b6064820152608490fd5b81810292918115918404141715611a5357565b60405163a9059cbb60e01b60208083019182526001600160a01b039490941660248301526044808301959095529381529192906127d5606484610e2c565b60018060a01b031690604051926127eb84610e10565b8484527f5361666545524332303a206c6f772d6c6576656c2063616c6c206661696c656485850152823b1561285c57612837939260009283809351925af1612831611cab565b90612915565b8051908161284457505050565b82611587936128579383010191016128a1565b6128b6565b60405162461bcd60e51b815260048101869052601d60248201527f416464726573733a2063616c6c20746f206e6f6e2d636f6e74726163740000006044820152606490fd5b9081602091031261000e575161034081610ca2565b156128bd57565b60405162461bcd60e51b815260206004820152602a60248201527f5361666545524332303a204552433230206f7065726174696f6e20646964206e6044820152691bdd081cdd58d8d9595960b21b6064820152608490fd5b90919015612921575090565b8151156129315750805190602001fd5b60405162461bcd60e51b8152602060048201529081906118eb90602483019061030a565b6103409054611512565b6129698154611512565b9081612973575050565b81601f60009311600114612985575055565b818352602083206129a191601f0160051c8101906001016125c4565b8160208120915555565b9081602091031261000e575190565b600154336001600160a01b03909116036129da5736601319013560601c90565b339056fea26469706673582212206958453bc07f431e88e5c85daebaa7da42499630d622812816628cbfe0eec02264736f6c63430008110033405787fa12a823e0f2b7631cc41b3ba8828b3321ca811111fa75cd3aa3bb5ace",
  "devdoc": {
    "kind": "dev",
    "methods": {
      "approve(address,uint256)": {
        "details": "See {IERC721-approve}."
      },
      "balanceOf(address)": {
        "details": "See {IERC721-balanceOf}."
      },
      "getApproved(uint256)": {
        "details": "See {IERC721-getApproved}."
      },
      "isApprovedForAll(address,address)": {
        "details": "See {IERC721-isApprovedForAll}."
      },
      "isTrustedForwarder(address)": {
        "params": {
          "forwarder_": "Address to check"
        },
        "returns": {
          "_0": "true if forwarder_ is trusted forwarder"
        }
      },
      "name()": {
        "details": "See {IERC721Metadata-name}."
      },
      "owner()": {
        "details": "Returns the address of the current owner."
      },
      "ownerOf(uint256)": {
        "details": "See {IERC721-ownerOf}."
      },
      "paused()": {
        "details": "Returns true if the contract is paused, and false otherwise."
      },
      "renounceOwnership()": {
        "details": "Leaves the contract without owner. It will not be possible to call `onlyOwner` functions anymore. Can only be called by the current owner. NOTE: Renouncing ownership will leave the contract without an owner, thereby removing any functionality that is only available to the owner."
      },
      "safeTransferFrom(address,address,uint256)": {
        "details": "See {IERC721-safeTransferFrom}."
      },
      "safeTransferFrom(address,address,uint256,bytes)": {
        "details": "See {IERC721-safeTransferFrom}."
      },
      "setApprovalForAll(address,bool)": {
        "details": "See {IERC721-setApprovalForAll}."
      },
      "setTrustedForwarder(address)": {
        "details": "onlyOwner can call",
        "params": {
          "forwarder_": "Frwarder conract address"
        }
      },
      "symbol()": {
        "details": "See {IERC721Metadata-symbol}."
      },
      "tokenByIndex(uint256)": {
        "details": "See {IERC721Enumerable-tokenByIndex}."
      },
      "tokenOfOwnerByIndex(address,uint256)": {
        "details": "See {IERC721Enumerable-tokenOfOwnerByIndex}."
      },
      "totalSupply()": {
        "details": "See {IERC721Enumerable-totalSupply}."
      },
      "transferFrom(address,address,uint256)": {
        "details": "See {IERC721-transferFrom}."
      },
      "transferOwnership(address)": {
        "details": "Transfers ownership of the contract to a new account (`newOwner`). Can only be called by the current owner."
      }
    },
    "title": "Zbyte's Airdrop NFT contract for DPLAT",
    "version": 1
  },
  "userdoc": {
    "errors": {
      "CannotSendEther()": [
        {
          "notice": "error (0xbf064619): Contract cannot receive ether"
        }
      ],
      "ZeroAddress()": [
        {
          "notice": "error (0xd92e233d): Address is address(0)"
        }
      ],
      "ZeroValue()": [
        {
          "notice": "error(): Value sent is 0"
        }
      ]
    },
    "events": {
      "ForwarderSet(address,address)": {
        "notice": "event (0x94aed472): Forwarder address is changed"
      }
    },
    "kind": "user",
    "methods": {
      "isTrustedForwarder(address)": {
        "notice": "Check if the given address is the trusted forwarder"
      },
      "setTrustedForwarder(address)": {
        "notice": "Set the forwarder contract address"
      }
    },
    "version": 1
  },
  "storageLayout": {
    "storage": [
      {
        "astId": 7,
        "contract": "contracts/samples/ZbyteAirdropNFT.sol:ZbyteAirdropNFT",
        "label": "_owner",
        "offset": 0,
        "slot": "0",
        "type": "t_address"
      },
      {
        "astId": 10751,
        "contract": "contracts/samples/ZbyteAirdropNFT.sol:ZbyteAirdropNFT",
        "label": "trustedForwarder",
        "offset": 0,
        "slot": "1",
        "type": "t_address"
      },
      {
        "astId": 1305,
        "contract": "contracts/samples/ZbyteAirdropNFT.sol:ZbyteAirdropNFT",
        "label": "_name",
        "offset": 0,
        "slot": "2",
        "type": "t_string_storage"
      },
      {
        "astId": 1307,
        "contract": "contracts/samples/ZbyteAirdropNFT.sol:ZbyteAirdropNFT",
        "label": "_symbol",
        "offset": 0,
        "slot": "3",
        "type": "t_string_storage"
      },
      {
        "astId": 1311,
        "contract": "contracts/samples/ZbyteAirdropNFT.sol:ZbyteAirdropNFT",
        "label": "_owners",
        "offset": 0,
        "slot": "4",
        "type": "t_mapping(t_uint256,t_address)"
      },
      {
        "astId": 1315,
        "contract": "contracts/samples/ZbyteAirdropNFT.sol:ZbyteAirdropNFT",
        "label": "_balances",
        "offset": 0,
        "slot": "5",
        "type": "t_mapping(t_address,t_uint256)"
      },
      {
        "astId": 1319,
        "contract": "contracts/samples/ZbyteAirdropNFT.sol:ZbyteAirdropNFT",
        "label": "_tokenApprovals",
        "offset": 0,
        "slot": "6",
        "type": "t_mapping(t_uint256,t_address)"
      },
      {
        "astId": 1325,
        "contract": "contracts/samples/ZbyteAirdropNFT.sol:ZbyteAirdropNFT",
        "label": "_operatorApprovals",
        "offset": 0,
        "slot": "7",
        "type": "t_mapping(t_address,t_mapping(t_address,t_bool))"
      },
      {
        "astId": 2617,
        "contract": "contracts/samples/ZbyteAirdropNFT.sol:ZbyteAirdropNFT",
        "label": "_tokenURIs",
        "offset": 0,
        "slot": "8",
        "type": "t_mapping(t_uint256,t_string_storage)"
      },
      {
        "astId": 292,
        "contract": "contracts/samples/ZbyteAirdropNFT.sol:ZbyteAirdropNFT",
        "label": "_paused",
        "offset": 0,
        "slot": "9",
        "type": "t_bool"
      },
      {
        "astId": 2244,
        "contract": "contracts/samples/ZbyteAirdropNFT.sol:ZbyteAirdropNFT",
        "label": "_ownedTokens",
        "offset": 0,
        "slot": "10",
        "type": "t_mapping(t_address,t_mapping(t_uint256,t_uint256))"
      },
      {
        "astId": 2248,
        "contract": "contracts/samples/ZbyteAirdropNFT.sol:ZbyteAirdropNFT",
        "label": "_ownedTokensIndex",
        "offset": 0,
        "slot": "11",
        "type": "t_mapping(t_uint256,t_uint256)"
      },
      {
        "astId": 2251,
        "contract": "contracts/samples/ZbyteAirdropNFT.sol:ZbyteAirdropNFT",
        "label": "_allTokens",
        "offset": 0,
        "slot": "12",
        "type": "t_array(t_uint256)dyn_storage"
      },
      {
        "astId": 2255,
        "contract": "contracts/samples/ZbyteAirdropNFT.sol:ZbyteAirdropNFT",
        "label": "_allTokensIndex",
        "offset": 0,
        "slot": "13",
        "type": "t_mapping(t_uint256,t_uint256)"
      },
      {
        "astId": 9828,
        "contract": "contracts/samples/ZbyteAirdropNFT.sol:ZbyteAirdropNFT",
        "label": "_nextTokenId",
        "offset": 0,
        "slot": "14",
        "type": "t_uint256"
      },
      {
        "astId": 9830,
        "contract": "contracts/samples/ZbyteAirdropNFT.sol:ZbyteAirdropNFT",
        "label": "erc20Address",
        "offset": 0,
        "slot": "15",
        "type": "t_address"
      },
      {
        "astId": 9832,
        "contract": "contracts/samples/ZbyteAirdropNFT.sol:ZbyteAirdropNFT",
        "label": "erc20PerToken",
        "offset": 0,
        "slot": "16",
        "type": "t_uint256"
      },
      {
        "astId": 9834,
        "contract": "contracts/samples/ZbyteAirdropNFT.sol:ZbyteAirdropNFT",
        "label": "distributor",
        "offset": 0,
        "slot": "17",
        "type": "t_address"
      },
      {
        "astId": 9836,
        "contract": "contracts/samples/ZbyteAirdropNFT.sol:ZbyteAirdropNFT",
        "label": "uriBase",
        "offset": 0,
        "slot": "18",
        "type": "t_string_storage"
      }
    ],
    "types": {
      "t_address": {
        "encoding": "inplace",
        "label": "address",
        "numberOfBytes": "20"
      },
      "t_array(t_uint256)dyn_storage": {
        "base": "t_uint256",
        "encoding": "dynamic_array",
        "label": "uint256[]",
        "numberOfBytes": "32"
      },
      "t_bool": {
        "encoding": "inplace",
        "label": "bool",
        "numberOfBytes": "1"
      },
      "t_mapping(t_address,t_bool)": {
        "encoding": "mapping",
        "key": "t_address",
        "label": "mapping(address => bool)",
        "numberOfBytes": "32",
        "value": "t_bool"
      },
      "t_mapping(t_address,t_mapping(t_address,t_bool))": {
        "encoding": "mapping",
        "key": "t_address",
        "label": "mapping(address => mapping(address => bool))",
        "numberOfBytes": "32",
        "value": "t_mapping(t_address,t_bool)"
      },
      "t_mapping(t_address,t_mapping(t_uint256,t_uint256))": {
        "encoding": "mapping",
        "key": "t_address",
        "label": "mapping(address => mapping(uint256 => uint256))",
        "numberOfBytes": "32",
        "value": "t_mapping(t_uint256,t_uint256)"
      },
      "t_mapping(t_address,t_uint256)": {
        "encoding": "mapping",
        "key": "t_address",
        "label": "mapping(address => uint256)",
        "numberOfBytes": "32",
        "value": "t_uint256"
      },
      "t_mapping(t_uint256,t_address)": {
        "encoding": "mapping",
        "key": "t_uint256",
        "label": "mapping(uint256 => address)",
        "numberOfBytes": "32",
        "value": "t_address"
      },
      "t_mapping(t_uint256,t_string_storage)": {
        "encoding": "mapping",
        "key": "t_uint256",
        "label": "mapping(uint256 => string)",
        "numberOfBytes": "32",
        "value": "t_string_storage"
      },
      "t_mapping(t_uint256,t_uint256)": {
        "encoding": "mapping",
        "key": "t_uint256",
        "label": "mapping(uint256 => uint256)",
        "numberOfBytes": "32",
        "value": "t_uint256"
      },
      "t_string_storage": {
        "encoding": "bytes",
        "label": "string",
        "numberOfBytes": "32"
      },
      "t_uint256": {
        "encoding": "inplace",
        "label": "uint256",
        "numberOfBytes": "32"
      }
    }
  }
}