{
  "address": "0x962CebE6B0aE5Fe8e4342Ab546106Bacc92eD46B",
  "abi": [
    {
      "inputs": [
        {
          "internalType": "address",
          "name": "forwarder_",
          "type": "address"
        },
        {
          "internalType": "address",
          "name": "erc20Address_",
          "type": "address"
        },
        {
          "internalType": "uint256",
          "name": "erc20PerToken_",
          "type": "uint256"
        },
        {
          "internalType": "address",
          "name": "distributor_",
          "type": "address"
        },
        {
          "internalType": "string",
          "name": "baseUri_",
          "type": "string"
        }
      ],
      "stateMutability": "nonpayable",
      "type": "constructor"
    },
    {
      "inputs": [],
      "name": "CannotSendEther",
      "type": "error"
    },
    {
      "inputs": [
        {
          "internalType": "uint256",
          "name": "",
          "type": "uint256"
        },
        {
          "internalType": "address",
          "name": "",
          "type": "address"
        }
      ],
      "name": "TokenDoesNotExist",
      "type": "error"
    },
    {
      "inputs": [
        {
          "internalType": "address",
          "name": "",
          "type": "address"
        },
        {
          "internalType": "uint256",
          "name": "",
          "type": "uint256"
        }
      ],
      "name": "UserNumTokenRestriction",
      "type": "error"
    },
    {
      "inputs": [],
      "name": "ZeroAddress",
      "type": "error"
    },
    {
      "inputs": [],
      "name": "ZeroValue",
      "type": "error"
    },
    {
      "anonymous": false,
      "inputs": [
        {
          "indexed": true,
          "internalType": "address",
          "name": "owner",
          "type": "address"
        },
        {
          "indexed": true,
          "internalType": "address",
          "name": "approved",
          "type": "address"
        },
        {
          "indexed": true,
          "internalType": "uint256",
          "name": "tokenId",
          "type": "uint256"
        }
      ],
      "name": "Approval",
      "type": "event"
    },
    {
      "anonymous": false,
      "inputs": [
        {
          "indexed": true,
          "internalType": "address",
          "name": "owner",
          "type": "address"
        },
        {
          "indexed": true,
          "internalType": "address",
          "name": "operator",
          "type": "address"
        },
        {
          "indexed": false,
          "internalType": "bool",
          "name": "approved",
          "type": "bool"
        }
      ],
      "name": "ApprovalForAll",
      "type": "event"
    },
    {
      "anonymous": false,
      "inputs": [
        {
          "indexed": false,
          "internalType": "address",
          "name": "",
          "type": "address"
        },
        {
          "indexed": false,
          "internalType": "address",
          "name": "",
          "type": "address"
        }
      ],
      "name": "ForwarderSet",
      "type": "event"
    },
    {
      "anonymous": false,
      "inputs": [
        {
          "indexed": true,
          "internalType": "address",
          "name": "previousOwner",
          "type": "address"
        },
        {
          "indexed": true,
          "internalType": "address",
          "name": "newOwner",
          "type": "address"
        }
      ],
      "name": "OwnershipTransferred",
      "type": "event"
    },
    {
      "anonymous": false,
      "inputs": [
        {
          "indexed": false,
          "internalType": "address",
          "name": "account",
          "type": "address"
        }
      ],
      "name": "Paused",
      "type": "event"
    },
    {
      "anonymous": false,
      "inputs": [
        {
          "indexed": false,
          "internalType": "address",
          "name": "",
          "type": "address"
        },
        {
          "indexed": false,
          "internalType": "uint256",
          "name": "",
          "type": "uint256"
        }
      ],
      "name": "Redeemed",
      "type": "event"
    },
    {
      "anonymous": false,
      "inputs": [
        {
          "indexed": true,
          "internalType": "address",
          "name": "from",
          "type": "address"
        },
        {
          "indexed": true,
          "internalType": "address",
          "name": "to",
          "type": "address"
        },
        {
          "indexed": true,
          "internalType": "uint256",
          "name": "tokenId",
          "type": "uint256"
        }
      ],
      "name": "Transfer",
      "type": "event"
    },
    {
      "anonymous": false,
      "inputs": [
        {
          "indexed": false,
          "internalType": "address",
          "name": "account",
          "type": "address"
        }
      ],
      "name": "Unpaused",
      "type": "event"
    },
    {
      "anonymous": false,
      "inputs": [
        {
          "indexed": false,
          "internalType": "uint256",
          "name": "",
          "type": "uint256"
        },
        {
          "indexed": false,
          "internalType": "uint256",
          "name": "",
          "type": "uint256"
        }
      ],
      "name": "mintedForAirdrop",
      "type": "event"
    },
    {
      "inputs": [
        {
          "internalType": "address",
          "name": "to",
          "type": "address"
        },
        {
          "internalType": "uint256",
          "name": "tokenId",
          "type": "uint256"
        }
      ],
      "name": "approve",
      "outputs": [],
      "stateMutability": "nonpayable",
      "type": "function"
    },
    {
      "inputs": [
        {
          "internalType": "address",
          "name": "owner",
          "type": "address"
        }
      ],
      "name": "balanceOf",
      "outputs": [
        {
          "internalType": "uint256",
          "name": "",
          "type": "uint256"
        }
      ],
      "stateMutability": "view",
      "type": "function"
    },
    {
      "inputs": [],
      "name": "erc20Address",
      "outputs": [
        {
          "internalType": "address",
          "name": "",
          "type": "address"
        }
      ],
      "stateMutability": "view",
      "type": "function"
    },
    {
      "inputs": [
        {
          "internalType": "uint256",
          "name": "tokenId",
          "type": "uint256"
        }
      ],
      "name": "getApproved",
      "outputs": [
        {
          "internalType": "address",
          "name": "",
          "type": "address"
        }
      ],
      "stateMutability": "view",
      "type": "function"
    },
    {
      "inputs": [
        {
          "internalType": "address",
          "name": "owner",
          "type": "address"
        },
        {
          "internalType": "address",
          "name": "operator",
          "type": "address"
        }
      ],
      "name": "isApprovedForAll",
      "outputs": [
        {
          "internalType": "bool",
          "name": "",
          "type": "bool"
        }
      ],
      "stateMutability": "view",
      "type": "function"
    },
    {
      "inputs": [
        {
          "internalType": "address",
          "name": "forwarder_",
          "type": "address"
        }
      ],
      "name": "isTrustedForwarder",
      "outputs": [
        {
          "internalType": "bool",
          "name": "",
          "type": "bool"
        }
      ],
      "stateMutability": "view",
      "type": "function"
    },
    {
      "inputs": [
        {
          "internalType": "uint256",
          "name": "numTokens",
          "type": "uint256"
        },
        {
          "internalType": "string",
          "name": "airdropUri",
          "type": "string"
        }
      ],
      "name": "mintForAirdrop",
      "outputs": [],
      "stateMutability": "nonpayable",
      "type": "function"
    },
    {
      "inputs": [],
      "name": "name",
      "outputs": [
        {
          "internalType": "string",
          "name": "",
          "type": "string"
        }
      ],
      "stateMutability": "view",
      "type": "function"
    },
    {
      "inputs": [],
      "name": "owner",
      "outputs": [
        {
          "internalType": "address",
          "name": "",
          "type": "address"
        }
      ],
      "stateMutability": "view",
      "type": "function"
    },
    {
      "inputs": [
        {
          "internalType": "uint256",
          "name": "tokenId",
          "type": "uint256"
        }
      ],
      "name": "ownerOf",
      "outputs": [
        {
          "internalType": "address",
          "name": "",
          "type": "address"
        }
      ],
      "stateMutability": "view",
      "type": "function"
    },
    {
      "inputs": [],
      "name": "pause",
      "outputs": [],
      "stateMutability": "nonpayable",
      "type": "function"
    },
    {
      "inputs": [],
      "name": "paused",
      "outputs": [
        {
          "internalType": "bool",
          "name": "",
          "type": "bool"
        }
      ],
      "stateMutability": "view",
      "type": "function"
    },
    {
      "inputs": [
        {
          "internalType": "address",
          "name": "receiver",
          "type": "address"
        }
      ],
      "name": "redeem",
      "outputs": [],
      "stateMutability": "nonpayable",
      "type": "function"
    },
    {
      "inputs": [],
      "name": "renounceOwnership",
      "outputs": [],
      "stateMutability": "nonpayable",
      "type": "function"
    },
    {
      "inputs": [
        {
          "internalType": "address",
          "name": "from",
          "type": "address"
        },
        {
          "internalType": "address",
          "name": "to",
          "type": "address"
        },
        {
          "internalType": "uint256",
          "name": "tokenId",
          "type": "uint256"
        }
      ],
      "name": "safeTransferFrom",
      "outputs": [],
      "stateMutability": "nonpayable",
      "type": "function"
    },
    {
      "inputs": [
        {
          "internalType": "address",
          "name": "from",
          "type": "address"
        },
        {
          "internalType": "address",
          "name": "to",
          "type": "address"
        },
        {
          "internalType": "uint256",
          "name": "tokenId",
          "type": "uint256"
        },
        {
          "internalType": "bytes",
          "name": "_data",
          "type": "bytes"
        }
      ],
      "name": "safeTransferFrom",
      "outputs": [],
      "stateMutability": "nonpayable",
      "type": "function"
    },
    {
      "inputs": [
        {
          "internalType": "address",
          "name": "operator",
          "type": "address"
        },
        {
          "internalType": "bool",
          "name": "approved",
          "type": "bool"
        }
      ],
      "name": "setApprovalForAll",
      "outputs": [],
      "stateMutability": "nonpayable",
      "type": "function"
    },
    {
      "inputs": [
        {
          "internalType": "address",
          "name": "forwarder_",
          "type": "address"
        }
      ],
      "name": "setTrustedForwarder",
      "outputs": [],
      "stateMutability": "nonpayable",
      "type": "function"
    },
    {
      "inputs": [
        {
          "internalType": "bytes4",
          "name": "interfaceId",
          "type": "bytes4"
        }
      ],
      "name": "supportsInterface",
      "outputs": [
        {
          "internalType": "bool",
          "name": "",
          "type": "bool"
        }
      ],
      "stateMutability": "view",
      "type": "function"
    },
    {
      "inputs": [],
      "name": "symbol",
      "outputs": [
        {
          "internalType": "string",
          "name": "",
          "type": "string"
        }
      ],
      "stateMutability": "view",
      "type": "function"
    },
    {
      "inputs": [
        {
          "internalType": "uint256",
          "name": "index",
          "type": "uint256"
        }
      ],
      "name": "tokenByIndex",
      "outputs": [
        {
          "internalType": "uint256",
          "name": "",
          "type": "uint256"
        }
      ],
      "stateMutability": "view",
      "type": "function"
    },
    {
      "inputs": [
        {
          "internalType": "address",
          "name": "owner",
          "type": "address"
        },
        {
          "internalType": "uint256",
          "name": "index",
          "type": "uint256"
        }
      ],
      "name": "tokenOfOwnerByIndex",
      "outputs": [
        {
          "internalType": "uint256",
          "name": "",
          "type": "uint256"
        }
      ],
      "stateMutability": "view",
      "type": "function"
    },
    {
      "inputs": [
        {
          "internalType": "uint256",
          "name": "tokenId",
          "type": "uint256"
        }
      ],
      "name": "tokenURI",
      "outputs": [
        {
          "internalType": "string",
          "name": "",
          "type": "string"
        }
      ],
      "stateMutability": "view",
      "type": "function"
    },
    {
      "inputs": [],
      "name": "totalSupply",
      "outputs": [
        {
          "internalType": "uint256",
          "name": "",
          "type": "uint256"
        }
      ],
      "stateMutability": "view",
      "type": "function"
    },
    {
      "inputs": [
        {
          "internalType": "address",
          "name": "from",
          "type": "address"
        },
        {
          "internalType": "address",
          "name": "to",
          "type": "address"
        },
        {
          "internalType": "uint256",
          "name": "tokenId",
          "type": "uint256"
        }
      ],
      "name": "transferFrom",
      "outputs": [],
      "stateMutability": "nonpayable",
      "type": "function"
    },
    {
      "inputs": [
        {
          "internalType": "address",
          "name": "newOwner",
          "type": "address"
        }
      ],
      "name": "transferOwnership",
      "outputs": [],
      "stateMutability": "nonpayable",
      "type": "function"
    },
    {
      "inputs": [
        {
          "internalType": "address",
          "name": "recepient",
          "type": "address"
        }
      ],
      "name": "transferRemainingERC20",
      "outputs": [],
      "stateMutability": "nonpayable",
      "type": "function"
    },
    {
      "inputs": [],
      "name": "unpause",
      "outputs": [],
      "stateMutability": "nonpayable",
      "type": "function"
    }
  ],
  "transactionHash": "0x89fc26676e804663dcc2ad08b760fee306d3c04b32ea31c2efa0bc864bc7a374",
  "args": [
    "0x48227183f23f8714219547039367d23ce7D8A4a3",
    "0x2894D3d60008aEE8258Ca62507F0D0f2b4f83E9F",
    "1000000000000000000",
    "0x016C8FdD5199927597126Ec5eeb27143191177e4",
    "https://zbyte.io/"
  ],
  "numDeployments": 1,
  "solcInputHash": "ac2734a5edde77ce0dd82a8b50ef7b11",
  "bytecode": "0x604060808152346200069d57620030bd90813803806200001f81620006c2565b93843982019160a0818403126200069d576200003b81620006e8565b6200004960208301620006e8565b83830151916200005c60608501620006e8565b608085015190946001600160401b0382116200069d570186601f820112156200069d578051906001600160401b0382116200045057620000a6601f8301601f1916602001620006c2565b97828952602083830101116200069d5760005b82811062000687575050602060009188010152620000d6620006a2565b600d81526c044504c41542041697264726f7609c1b6020820152620000fa620006a2565b90600882526722282620aa20a4a960c11b60208301526200011a620006fd565b600080546001600160a01b039283166001600160a01b03198216811783559216907f8be0079c531659141344cd1fd0a4f28419497f9722a3daafe3b4186f6b6457e09080a38051906001600160401b038211620004505760025490600182811c921680156200067c575b60208310146200042f5781601f84931162000618575b50602090601f83116001146200059e5760009262000592575b50508160011b916000199060031b1c1916176002555b8051906001600160401b038211620004505760035490600182811c9216801562000587575b60208310146200042f5781601f84931162000512575b50602090601f8311600114620004835760009262000477575b50508160011b916000199060031b1c1916176003555b6009805460ff191690556001600160a01b031680156200046657600180546001600160a01b03198116831790915585516001600160a01b03909116815260208101919091527f94aed472e01353526c04ec91cee149d41e78d848ec851c72be532bf7b120bd30908590a1600f80546001600160a01b03199081166001600160a01b039384161790915560109290925560118054909216921691909117905581516001600160401b0381116200045057601254600181811c9116801562000445575b60208210146200042f57601f8111620003c5575b50602092601f82116001146200035a57928192936000926200034e575b50508160011b916000199060031b1c1916176012555b6001600e555161297a9081620007238239f35b01519050388062000325565b601f19821693601260005260206000209160005b868110620003ac575083600195961062000392575b505050811b016012556200033b565b015160001960f88460031b161c1916905538808062000383565b919260206001819286850151815501940192016200036e565b60126000527fbb8a6a4669ba250d26cd7a459eca9d215f8307e33aebe50379bc5a3617ec3444601f830160051c8101916020841062000424575b601f0160051c01905b81811062000417575062000308565b6000815560010162000408565b9091508190620003ff565b634e487b7160e01b600052602260045260246000fd5b90607f1690620002f4565b634e487b7160e01b600052604160045260246000fd5b845163d92e233d60e01b8152600490fd5b0151905038806200021d565b6003600090815293507fc2575a0e9e593c00f959f8c92f12db2869c3395a3b0502d05e2516446f71f85b91905b601f1984168510620004f6576001945083601f19811610620004dc575b505050811b0160035562000233565b015160001960f88460031b161c19169055388080620004cd565b81810151835560209485019460019093019290910190620004b0565b60036000529091507fc2575a0e9e593c00f959f8c92f12db2869c3395a3b0502d05e2516446f71f85b601f840160051c810191602085106200057c575b90601f859493920160051c01905b8181106200056c575062000204565b600081558493506001016200055d565b90915081906200054f565b91607f1691620001ee565b015190503880620001b3565b600260009081526000805160206200309d8339815191529350601f198516905b818110620005ff5750908460019594939210620005e5575b505050811b01600255620001c9565b015160001960f88460031b161c19169055388080620005d6565b92936020600181928786015181550195019301620005be565b60026000529091506000805160206200309d833981519152601f840160051c8101916020851062000671575b90601f859493920160051c01905b8181106200066157506200019a565b6000815584935060010162000652565b909150819062000644565b91607f169162000184565b80602080928401015182828c01015201620000b9565b600080fd5b60408051919082016001600160401b038111838210176200045057604052565b6040519190601f01601f191682016001600160401b038111838210176200045057604052565b51906001600160a01b03821682036200069d57565b600154336001600160a01b03909116036200071e5736601319013560601c90565b339056fe60806040526004361015610013575b600080fd5b60003560e01c806301ffc9a71461024357806306fdde031461023a578063081812fc14610231578063095ea7b31461022857806318160ddd1461021f57806323b872dd14610216578063276184ae1461020d5780632f745c59146102045780633f4ba83a146101fb57806342842e0e146101f25780634f6ccce7146101e9578063572b6c05146101e05780635c975abb146101d75780636352211e146101ce57806370a08231146101c5578063715018a6146101bc5780638456cb59146101b35780638da5cb5b146101aa57806395a2251f146101a157806395d89b4114610198578063a22cb4651461018f578063b88d4fde14610186578063c87b56dd1461017d578063d4c8dd6214610174578063da7422281461016b578063e985e9c514610162578063f2fde38b146101595763f5487bb61461015157600080fd5b61000e6112b4565b5061000e61121b565b5061000e6111bd565b5061000e611131565b5061000e610f25565b5061000e610ef1565b5061000e610e90565b5061000e610c8c565b5061000e610bda565b5061000e610989565b5061000e61095f565b5061000e6108f0565b5061000e610885565b5061000e610861565b5061000e610842565b5061000e61081e565b5061000e6107e8565b5061000e61073c565b5061000e610713565b5061000e610658565b5061000e610628565b5061000e6105fe565b5061000e6105cd565b5061000e610579565b5061000e610486565b5061000e610429565b5061000e610343565b5061000e61025e565b6001600160e01b031981160361000e57565b503461000e57602036600319011261000e57602060043561027e8161024c565b63ffffffff60e01b1663780e9d6360e01b81149081156102a4575b506040519015158152f35b6380ac58cd60e01b8114915081156102d6575b81156102c5575b5038610299565b6301ffc9a760e01b149050386102be565b635b5e139f60e01b811491506102b7565b60005b8381106102fa5750506000910152565b81810151838201526020016102ea565b90602091610323815180928185528580860191016102e7565b601f01601f1916010190565b90602061034092818152019061030a565b90565b503461000e57600080600319360112610426576040519080600254610367816114e3565b808552916001918083169081156103fc57506001146103a1575b61039d8561039181870382610e0c565b6040519182918261032f565b0390f35b9250600283527f405787fa12a823e0f2b7631cc41b3ba8828b3321ca811111fa75cd3aa3bb5ace5b8284106103e45750505081016020016103918261039d610381565b805460208587018101919091529093019281016103c9565b86955061039d9693506020925061039194915060ff191682840152151560051b8201019293610381565b80fd5b503461000e57602036600319011261000e5760206104486004356116f1565b6040516001600160a01b039091168152f35b600435906001600160a01b038216820361000e57565b602435906001600160a01b038216820361000e57565b503461000e57604036600319011261000e576104a061045a565b6024356104ac8161146b565b6001600160a01b038082169391818316851461052a576104e7946104e2926104d2612920565b16149081156104e9575b5061167f565b611b9a565b005b61052491506104f6612920565b6001600160a01b03918216600090815260076020908152604080832093909416825291909152205460ff1690565b386104dc565b60405162461bcd60e51b815260206004820152602160248201527f4552433732313a20617070726f76616c20746f2063757272656e74206f776e656044820152603960f91b6064820152608490fd5b503461000e57600036600319011261000e576020600c54604051908152f35b606090600319011261000e576001600160a01b0390600435828116810361000e5791602435908116810361000e579060443590565b503461000e576104e76105df36610598565b916105f96105f4846105ef612920565b6118c0565b611788565b611a3a565b503461000e57600036600319011261000e57600f546040516001600160a01b039091168152602090f35b503461000e57604036600319011261000e57602061065061064761045a565b60243590611dba565b604051908152f35b503461000e576000806003193601126104265780546001600160a01b039061068c90821682610685612920565b1614611361565b60095460ff8116156106d75760ff19166009557f5db9ee0a495bf2e6ff9c91a7834c1ba4fdd244a5e8aa4e537bd38aeae4b073aa906020906106cc612920565b60405191168152a180f35b60405162461bcd60e51b815260206004820152601460248201527314185d5cd8589b194e881b9bdd081c185d5cd95960621b6044820152606490fd5b503461000e576104e761072536610598565b906040519261073384610dc7565b60008452611820565b503461000e57602036600319011261000e57600435600c5481101561078e57600c6000527fdf6966c971051c3d54ec59162606531493a51404a002842f56009d7e5cf4a8c70154604051908152602090f35b60405162461bcd60e51b815260206004820152602c60248201527f455243373231456e756d657261626c653a20676c6f62616c20696e646578206f60448201526b7574206f6620626f756e647360a01b6064820152608490fd5b503461000e57602036600319011261000e57602061080461045a565b6001546040516001600160a01b0392831691909216148152f35b503461000e57600036600319011261000e57602060ff600954166040519015158152f35b503461000e57602036600319011261000e57602061044860043561146b565b503461000e57602036600319011261000e57602061065061088061045a565b6113f3565b503461000e5760008060031936011261042657805481906001600160a01b0380821691906108bd906108b5612920565b168314611361565b6001600160a01b03191682557f8be0079c531659141344cd1fd0a4f28419497f9722a3daafe3b4186f6b6457e08280a380f35b503461000e57600080600319360112610426577f62e78cea01bee320cd4e420270b5ea74000d11b0c9f74754ebdbfc544b05a258602060018060a01b0361093d8185541682610685612920565b600160095461094f60ff821615611e5f565b60ff1916176009556106cc612920565b503461000e57600036600319011261000e576000546040516001600160a01b039091168152602090f35b503461000e5760208060031936011261000e576109a461045a565b906109ad612920565b6001600160a01b03919083831615610bc8576109c8816113f3565b9260005b848110610a51577f4896181ff8f4543cc00db9fe9b6fb7e6f032b7eb772c72ab1ec1b4d2e03b936985610a2c88610a19610a0d600f5460018060a01b031690565b6001600160a01b031690565b90610a26846010546126ea565b916126fd565b610a34612920565b604080516001600160a01b039290921682526020820192909252a1005b610a5b8184611dba565b610a648161146b565b60ff60095416610b6f579080600083610abb87610b399796169182158414610b6057610a8f85611fca565b610a988561210a565b610aa185611b46565b6001600160a01b0316600090815260056020526040902090565b610ac58154611a15565b9055610aee610ade846000526004602052604060002090565b80546001600160a01b0319169055565b7fddf252ad1be2c89b69c2b068fc378daa952ba7f163c4a11628f55a4df523b3ef8280a4610b2e610b29826000526008602052604060002090565b6128bb565b610b3e575b506123de565b6109cc565b610b55610b5a916000526008602052604060002090565b6128c5565b38610b33565b610b6a8582612043565b610a8f565b60405162461bcd60e51b815260048101879052602b60248201527f4552433732315061757361626c653a20746f6b656e207472616e73666572207760448201526a1a1a5b19481c185d5cd95960aa1b6064820152608490fd5b60405163d92e233d60e01b8152600490fd5b503461000e57600080600319360112610426576040519080600354610bfe816114e3565b808552916001918083169081156103fc5750600114610c275761039d8561039181870382610e0c565b9250600383527fc2575a0e9e593c00f959f8c92f12db2869c3395a3b0502d05e2516446f71f85b5b828410610c6a5750505081016020016103918261039d610381565b80546020858701810191909152909301928101610c4f565b8015150361000e57565b503461000e57604036600319011261000e57610ca661045a565b602435610cb281610c82565b6001600160a01b039182610cc4612920565b16928116928314610d6b5781610d13610d2492610cfc610ce2612920565b6001600160a01b0316600090815260076020526040902090565b9060018060a01b0316600052602052604060002090565b9060ff801983541691151516179055565b7f17307eab39ab6107e8899845ad3d59bd9653f200f220920489ca2b5937696c31610d66610d53610a0d612920565b6040519315158452929081906020820190565b0390a3005b60405162461bcd60e51b815260206004820152601960248201527f4552433732313a20617070726f766520746f2063616c6c6572000000000000006044820152606490fd5b50634e487b7160e01b600052604160045260246000fd5b6020810190811067ffffffffffffffff821117610de357604052565b610deb610db0565b604052565b6040810190811067ffffffffffffffff821117610de357604052565b90601f8019910116810190811067ffffffffffffffff821117610de357604052565b60209067ffffffffffffffff8111610e4c575b601f01601f19160190565b610e54610db0565b610e41565b929192610e6582610e2e565b91610e736040519384610e0c565b82948184528183011161000e578281602093846000960137010152565b503461000e57608036600319011261000e57610eaa61045a565b610eb2610470565b6064359167ffffffffffffffff831161000e573660238401121561000e57610ee76104e7933690602481600401359101610e59565b9160443591611820565b503461000e57602036600319011261000e5761039d610f11600435612237565b60405191829160208352602083019061030a565b503461000e5760408060031936011261000e576004908135602491823567ffffffffffffffff811161000e573660238201121561000e57610f6e90369085818801359101610e59565b6000805490956001600160a01b0391610f8c90831683610685612920565b610f9b60ff6009541615611e5f565b600e90815496885b878110610fe1578651888152602081018a90528a907fd13a353b9d166a645f8affd8671f339c88147d8be1b260bce97f74186da51c2f90604090a180f35b8460115416845490610ff2826123de565b865588519061100082610dc7565b8c825280156110ef57826110e06110db8f948385818f976110e59961104d6110486110446110ea9f9e600052600460205260018060a01b0360406000205416151590565b1590565b6124de565b6110578383611e9e565b6001600160a01b03821660009081526005602052604090206110798154611a2c565b90556110b282611093856000526004602052604060002090565b80546001600160a01b0319166001600160a01b03909216919091179055565b7fddf252ad1be2c89b69c2b068fc378daa952ba7f163c4a11628f55a4df523b3ef8180a4611cac565b61189c565b612586565b6123de565b610fa3565b895162461bcd60e51b81526020818801819052818701527f4552433732313a206d696e7420746f20746865207a65726f20616464726573736044820152606490fd5b503461000e57602036600319011261000e5761114b61045a565b6000546001600160a01b0391829161116890831683610685612920565b168015610bc8577f94aed472e01353526c04ec91cee149d41e78d848ec851c72be532bf7b120bd309160409160015491816bffffffffffffffffffffffff60a01b8416176001558351921682526020820152a1005b503461000e57604036600319011261000e57602060ff61120f6111de61045a565b6111e6610470565b6001600160a01b0391821660009081526007865260408082209290931681526020919091522090565b54166040519015158152f35b503461000e57602036600319011261000e5761123561045a565b6000546001600160a01b039061125090821682610685612920565b811615611260576104e7906113ac565b60405162461bcd60e51b815260206004820152602660248201527f4f776e61626c653a206e6577206f776e657220697320746865207a65726f206160448201526564647265737360d01b6064820152608490fd5b503461000e57602036600319011261000e576104e76112d161045a565b6000546001600160a01b03906112ec90821682610685612920565b600f546040516370a0823160e01b8152306004820152929116602083602481845afa928315611354575b600093611324575b506126fd565b61134691935060203d811161134d575b61133e8183610e0c565b810190612911565b913861131e565b503d611334565b61135c611c6f565b611316565b1561136857565b606460405162461bcd60e51b815260206004820152602060248201527f4f776e61626c653a2063616c6c6572206973206e6f7420746865206f776e65726044820152fd5b600080546001600160a01b039283166001600160a01b03198216811783559216907f8be0079c531659141344cd1fd0a4f28419497f9722a3daafe3b4186f6b6457e09080a3565b6001600160a01b0316801561141357600052600560205260406000205490565b60405162461bcd60e51b815260206004820152602a60248201527f4552433732313a2062616c616e636520717565727920666f7220746865207a65604482015269726f206164647265737360b01b6064820152608490fd5b6000908152600460205260409020546001600160a01b0316801561148c5790565b60405162461bcd60e51b815260206004820152602960248201527f4552433732313a206f776e657220717565727920666f72206e6f6e657869737460448201526832b73a103a37b5b2b760b91b6064820152608490fd5b90600182811c92168015611513575b60208310146114fd57565b634e487b7160e01b600052602260045260246000fd5b91607f16916114f2565b6040519060008260125491611531836114e3565b808352926001908181169081156115b9575060011461155a575b5061155892500383610e0c565b565b6012600090815291507fbb8a6a4669ba250d26cd7a459eca9d215f8307e33aebe50379bc5a3617ec34445b84831061159e575061155893505081016020013861154b565b81935090816020925483858a01015201910190918592611585565b90506020925061155894915060ff191682840152151560051b8201013861154b565b90604051918260008254926115ef846114e3565b90818452600194858116908160001461165c5750600114611619575b505061155892500383610e0c565b9093915060005260209081600020936000915b8183106116445750506115589350820101388061160b565b8554888401850152948501948794509183019161162c565b91505061155894506020925060ff191682840152151560051b820101388061160b565b1561168657565b60405162461bcd60e51b815260206004820152603860248201527f4552433732313a20617070726f76652063616c6c6572206973206e6f74206f7760448201527f6e6572206e6f7220617070726f76656420666f7220616c6c00000000000000006064820152608490fd5b6000818152600460205260409020546001600160a01b031615611729576000908152600660205260409020546001600160a01b031690565b60405162461bcd60e51b815260206004820152602c60248201527f4552433732313a20617070726f76656420717565727920666f72206e6f6e657860448201526b34b9ba32b73a103a37b5b2b760a11b6064820152608490fd5b541690565b1561178f57565b60405162461bcd60e51b815260206004820152603160248201527f4552433732313a207472616e736665722063616c6c6572206973206e6f74206f6044820152701ddb995c881b9bdc88185c1c1c9bdd9959607a1b6064820152608490fd5b604051906020820182811067ffffffffffffffff821117611813575b60405260008252565b61181b610db0565b61180a565b9161155893916110db936118396105f4846105ef612920565b611844838383611a3a565b611d75565b60809060208152603260208201527f4552433732313a207472616e7366657220746f206e6f6e20455243373231526560408201527131b2b4bb32b91034b6b83632b6b2b73a32b960711b60608201520190565b156118a357565b60405162461bcd60e51b8152806118bc60048201611849565b0390fd5b6000828152600460205260409020546001600160a01b03161561194c576118e68261146b565b6001600160a01b038281168282168114949091908515611934575b505050821561190f57505090565b6001600160a01b0316600090815260076020526040902060ff92506117839190610cfc565b61194191929395506116f1565b161491388080611901565b60405162461bcd60e51b815260206004820152602c60248201527f4552433732313a206f70657261746f7220717565727920666f72206e6f6e657860448201526b34b9ba32b73a103a37b5b2b760a11b6064820152608490fd5b156119ad57565b60405162461bcd60e51b8152602060048201526024808201527f4552433732313a207472616e7366657220746f20746865207a65726f206164646044820152637265737360e01b6064820152608490fd5b50634e487b7160e01b600052601160045260246000fd5b600019810191908211611a2457565b6115586119fe565b9060018201809211611a2457565b90611a448361146b565b6001600160a01b038381169290918216839003611aef57611a84611ac892821694611a708615156119a6565b611a7b878483611f2c565b610aa187611b46565b611a8e8154611a15565b90556001600160a01b0381166000908152600560205260409020611ab28154611a2c565b9055611093856000526004602052604060002090565b7fddf252ad1be2c89b69c2b068fc378daa952ba7f163c4a11628f55a4df523b3ef600080a4565b60405162461bcd60e51b815260206004820152602960248201527f4552433732313a207472616e73666572206f6620746f6b656e2074686174206960448201526839903737ba1037bbb760b91b6064820152608490fd5b600081815260066020526040812080546001600160a01b03191690556001600160a01b03611b738361146b565b167f8c5be1e5ebec7d5bd14f71427d1e84f3dd0314c0f7b2291e5b200ac8c7c3b9258280a4565b600082815260066020526040902080546001600160a01b0319166001600160a01b0383161790556001600160a01b0380611bd38461146b565b169116907f8c5be1e5ebec7d5bd14f71427d1e84f3dd0314c0f7b2291e5b200ac8c7c3b925600080a4565b9081602091031261000e57516103408161024c565b610340939260809260018060a01b03168252600060208301526040820152816060820152019061030a565b6001600160a01b0391821681529116602082015260408101919091526080606082018190526103409291019061030a565b506040513d6000823e3d90fd5b3d15611ca7573d90611c8d82610e2e565b91611c9b6040519384610e0c565b82523d6000602084013e565b606090565b909190803b15611d6d57611ce691602091611cc5612920565b946000604051809681958294630a85bd0160e11b9a8b855260048501611c13565b03926001600160a01b03165af160009181611d3d575b50611d2f57611d09611c7c565b80519081611d2a5760405162461bcd60e51b8152806118bc60048201611849565b602001fd5b6001600160e01b0319161490565b611d5f91925060203d8111611d66575b611d578183610e0c565b810190611bfe565b9038611cfc565b503d611d4d565b505050600190565b92909190823b15611db157611ce6926020926000611d91612920565b9660405196879586948593630a85bd0160e11b9b8c865260048601611c3e565b50505050600190565b611dc3816113f3565b821015611def5760018060a01b0316600052600a60205260406000209060005260205260406000205490565b60405162461bcd60e51b815260206004820152602b60248201527f455243373231456e756d657261626c653a206f776e657220696e646578206f7560448201526a74206f6620626f756e647360a81b6064820152608490fd5b50634e487b7160e01b600052603260045260246000fd5b15611e6657565b60405162461bcd60e51b815260206004820152601060248201526f14185d5cd8589b194e881c185d5cd95960821b6044820152606490fd5b9060ff60095416611ed357611eb281611fca565b6001600160a01b038216611eca57611558915061210a565b61155891611f92565b60405162461bcd60e51b815260206004820152602b60248201527f4552433732315061757361626c653a20746f6b656e207472616e73666572207760448201526a1a1a5b19481c185d5cd95960aa1b6064820152608490fd5b91909160ff60095416611ed3576001600160a01b038181169182611f705750611f5483611fca565b831680611f67575050611558915061210a565b03611eca575050565b838286168403611f82575b5050611f54565b611f8b91612043565b3883611f7b565b604090611f9e816113f3565b9260009160018060a01b03168252600a60205282822084835260205280838320558152600b6020522055565b600c5481600052600d6020528060406000205568010000000000000000811015612036575b6001810180600c55811015612029575b600c6000527fdf6966c971051c3d54ec59162606531493a51404a002842f56009d7e5cf4a8c70155565b612031611e48565b611fff565b61203e610db0565b611fef565b906120a861208d92612054816113f3565b6000198101939084116120fd575b6000948186928352600b60205260408320548681036120b5575b50600052600b602052604060002090565b556001600160a01b03166000908152600a6020526040902090565b9082526020526040812055565b6001600160a01b038516808552600a602081815260408088208b895282528088205460009485529282528084208589528252808820839055918352600b90529020553861207c565b6121056119fe565b612062565b600c80546000199290838101818111612213575b6121ba6000938492818452600d602052846040852054911015612206575b8684526121a97fdf6966c971051c3d54ec59162606531493a51404a002842f56009d7e5cf4a8c69586810154908310156121f9575b88865280837fdf6966c971051c3d54ec59162606531493a51404a002842f56009d7e5cf4a8c70155600052600d602052604060002090565b55600052600d602052604060002090565b5582549384156121e557840193808510156121d8575b838352015555565b6121e0611e48565b6121d0565b634e487b7160e01b83526031600452602483fd5b612201611e48565b612171565b61220e611e48565b61213c565b61221b6119fe565b61211e565b90612233602092828151948592016102e7565b0190565b6000818152600460205260409020546001600160a01b0316156122c65761227061226b826000526008602052604060002090565b6115db565b9061227961151d565b8051156122c157825161229157506103409150612325565b61034091506122b36122ad936040519485936020850190612220565b90612220565b03601f198101835282610e0c565b505090565b60405162461bcd60e51b815260206004820152603160248201527f45524337323155524953746f726167653a2055524920717565727920666f72206044820152703737b732bc34b9ba32b73a103a37b5b2b760791b6064820152608490fd5b6000818152600460205260409020546001600160a01b0316156123815761234a61151d565b805190919015612377576122ad916122b361236761034093612415565b6040519485936020850190612220565b50506103406117ee565b60405162461bcd60e51b815260206004820152602f60248201527f4552433732314d657461646174613a2055524920717565727920666f72206e6f60448201526e3732bc34b9ba32b73a103a37b5b2b760891b6064820152608490fd5b60019060001981146123ee570190565b6122336119fe565b90602091805182101561240857010190565b612410611e48565b010190565b80156124c057806000908282935b6124ac575061243183610e2e565b9261243f6040519485610e0c565b80845281601f1961244f83610e2e565b013660208701375b6124615750505090565b61246a90611a15565b90600a906030828206810180911161249f575b60f81b6001600160f81b031916841a61249684876123f6565b53049081612457565b6124a76119fe565b61247d565b926124b8600a916123de565b930480612423565b506040516124cd81610df0565b60018152600360fc1b602082015290565b156124e557565b60405162461bcd60e51b815260206004820152601c60248201527f4552433732313a20746f6b656e20616c7265616479206d696e746564000000006044820152606490fd5b818110612535575050565b6000815560010161252a565b9190601f811161255057505050565b611558926000526020600020906020601f840160051c8301931061257c575b601f0160051c019061252a565b909150819061256f565b6000818152600460205260409020549192916001600160a01b03161561268e5760005260206008815260406000209083519067ffffffffffffffff8211612681575b6125dc826125d685546114e3565b85612541565b80601f831160011461261657508192939460009261260b575b50508160011b916000199060031b1c1916179055565b0151905038806125f5565b90601f1983169561262c85600052602060002090565b926000905b88821061266957505083600195969710612650575b505050811b019055565b015160001960f88460031b161c19169055388080612646565b80600185968294968601518155019501930190612631565b612689610db0565b6125c8565b60405162461bcd60e51b815260206004820152602e60248201527f45524337323155524953746f726167653a2055524920736574206f66206e6f6e60448201526d32bc34b9ba32b73a103a37b5b2b760911b6064820152608490fd5b81810292918115918404141715611a2457565b60405163a9059cbb60e01b60208083019182526001600160a01b0394909416602483015260448083019590955293815291929061273b606484610e0c565b60018060a01b0316906040519261275184610df0565b8484527f5361666545524332303a206c6f772d6c6576656c2063616c6c206661696c656485850152823b156127c25761279d939260009283809351925af1612797611c7c565b9061287b565b805190816127aa57505050565b82611558936127bd938301019101612807565b61281c565b60405162461bcd60e51b815260048101869052601d60248201527f416464726573733a2063616c6c20746f206e6f6e2d636f6e74726163740000006044820152606490fd5b9081602091031261000e575161034081610c82565b1561282357565b60405162461bcd60e51b815260206004820152602a60248201527f5361666545524332303a204552433230206f7065726174696f6e20646964206e6044820152691bdd081cdd58d8d9595960b21b6064820152608490fd5b90919015612887575090565b8151156128975750805190602001fd5b60405162461bcd60e51b8152602060048201529081906118bc90602483019061030a565b61034090546114e3565b6128cf81546114e3565b90816128d9575050565b81601f600093116001146128eb575055565b8183526020832061290791601f0160051c81019060010161252a565b8160208120915555565b9081602091031261000e575190565b600154336001600160a01b03909116036129405736601319013560601c90565b339056fea264697066735822122098285e7989552798e72538150c010287eeac06433abcd8c50360cf876101f99764736f6c63430008110033405787fa12a823e0f2b7631cc41b3ba8828b3321ca811111fa75cd3aa3bb5ace",
  "devdoc": {
    "kind": "dev",
    "methods": {
      "approve(address,uint256)": {
        "details": "See {IERC721-approve}."
      },
      "balanceOf(address)": {
        "details": "See {IERC721-balanceOf}."
      },
      "getApproved(uint256)": {
        "details": "See {IERC721-getApproved}."
      },
      "isApprovedForAll(address,address)": {
        "details": "See {IERC721-isApprovedForAll}."
      },
      "isTrustedForwarder(address)": {
        "params": {
          "forwarder_": "Address to check"
        },
        "returns": {
          "_0": "true if forwarder_ is trusted forwarder"
        }
      },
      "name()": {
        "details": "See {IERC721Metadata-name}."
      },
      "owner()": {
        "details": "Returns the address of the current owner."
      },
      "ownerOf(uint256)": {
        "details": "See {IERC721-ownerOf}."
      },
      "paused()": {
        "details": "Returns true if the contract is paused, and false otherwise."
      },
      "renounceOwnership()": {
        "details": "Leaves the contract without owner. It will not be possible to call `onlyOwner` functions anymore. Can only be called by the current owner. NOTE: Renouncing ownership will leave the contract without an owner, thereby removing any functionality that is only available to the owner."
      },
      "safeTransferFrom(address,address,uint256)": {
        "details": "See {IERC721-safeTransferFrom}."
      },
      "safeTransferFrom(address,address,uint256,bytes)": {
        "details": "See {IERC721-safeTransferFrom}."
      },
      "setApprovalForAll(address,bool)": {
        "details": "See {IERC721-setApprovalForAll}."
      },
      "setTrustedForwarder(address)": {
        "details": "onlyOwner can call",
        "params": {
          "forwarder_": "Frwarder conract address"
        }
      },
      "symbol()": {
        "details": "See {IERC721Metadata-symbol}."
      },
      "tokenByIndex(uint256)": {
        "details": "See {IERC721Enumerable-tokenByIndex}."
      },
      "tokenOfOwnerByIndex(address,uint256)": {
        "details": "See {IERC721Enumerable-tokenOfOwnerByIndex}."
      },
      "totalSupply()": {
        "details": "See {IERC721Enumerable-totalSupply}."
      },
      "transferFrom(address,address,uint256)": {
        "details": "See {IERC721-transferFrom}."
      },
      "transferOwnership(address)": {
        "details": "Transfers ownership of the contract to a new account (`newOwner`). Can only be called by the current owner."
      }
    },
    "title": "Zbyte's Airdrop NFT contract for DPLAT",
    "version": 1
  },
  "userdoc": {
    "errors": {
      "CannotSendEther()": [
        {
          "notice": "error (0xbf064619): Contract cannot receive ether"
        }
      ],
      "ZeroAddress()": [
        {
          "notice": "error (0xd92e233d): Address is address(0)"
        }
      ],
      "ZeroValue()": [
        {
          "notice": "error(): Value sent is 0"
        }
      ]
    },
    "events": {
      "ForwarderSet(address,address)": {
        "notice": "event (0x94aed472): Forwarder address is changed"
      }
    },
    "kind": "user",
    "methods": {
      "isTrustedForwarder(address)": {
        "notice": "Check if the given address is the trusted forwarder"
      },
      "setTrustedForwarder(address)": {
        "notice": "Set the forwarder contract address"
      }
    },
    "version": 1
  },
  "storageLayout": {
    "storage": [
      {
        "astId": 7,
        "contract": "contracts/samples/ZbyteAirdropNFT.sol:ZbyteAirdropNFT",
        "label": "_owner",
        "offset": 0,
        "slot": "0",
        "type": "t_address"
      },
      {
        "astId": 10749,
        "contract": "contracts/samples/ZbyteAirdropNFT.sol:ZbyteAirdropNFT",
        "label": "trustedForwarder",
        "offset": 0,
        "slot": "1",
        "type": "t_address"
      },
      {
        "astId": 1305,
        "contract": "contracts/samples/ZbyteAirdropNFT.sol:ZbyteAirdropNFT",
        "label": "_name",
        "offset": 0,
        "slot": "2",
        "type": "t_string_storage"
      },
      {
        "astId": 1307,
        "contract": "contracts/samples/ZbyteAirdropNFT.sol:ZbyteAirdropNFT",
        "label": "_symbol",
        "offset": 0,
        "slot": "3",
        "type": "t_string_storage"
      },
      {
        "astId": 1311,
        "contract": "contracts/samples/ZbyteAirdropNFT.sol:ZbyteAirdropNFT",
        "label": "_owners",
        "offset": 0,
        "slot": "4",
        "type": "t_mapping(t_uint256,t_address)"
      },
      {
        "astId": 1315,
        "contract": "contracts/samples/ZbyteAirdropNFT.sol:ZbyteAirdropNFT",
        "label": "_balances",
        "offset": 0,
        "slot": "5",
        "type": "t_mapping(t_address,t_uint256)"
      },
      {
        "astId": 1319,
        "contract": "contracts/samples/ZbyteAirdropNFT.sol:ZbyteAirdropNFT",
        "label": "_tokenApprovals",
        "offset": 0,
        "slot": "6",
        "type": "t_mapping(t_uint256,t_address)"
      },
      {
        "astId": 1325,
        "contract": "contracts/samples/ZbyteAirdropNFT.sol:ZbyteAirdropNFT",
        "label": "_operatorApprovals",
        "offset": 0,
        "slot": "7",
        "type": "t_mapping(t_address,t_mapping(t_address,t_bool))"
      },
      {
        "astId": 2617,
        "contract": "contracts/samples/ZbyteAirdropNFT.sol:ZbyteAirdropNFT",
        "label": "_tokenURIs",
        "offset": 0,
        "slot": "8",
        "type": "t_mapping(t_uint256,t_string_storage)"
      },
      {
        "astId": 292,
        "contract": "contracts/samples/ZbyteAirdropNFT.sol:ZbyteAirdropNFT",
        "label": "_paused",
        "offset": 0,
        "slot": "9",
        "type": "t_bool"
      },
      {
        "astId": 2244,
        "contract": "contracts/samples/ZbyteAirdropNFT.sol:ZbyteAirdropNFT",
        "label": "_ownedTokens",
        "offset": 0,
        "slot": "10",
        "type": "t_mapping(t_address,t_mapping(t_uint256,t_uint256))"
      },
      {
        "astId": 2248,
        "contract": "contracts/samples/ZbyteAirdropNFT.sol:ZbyteAirdropNFT",
        "label": "_ownedTokensIndex",
        "offset": 0,
        "slot": "11",
        "type": "t_mapping(t_uint256,t_uint256)"
      },
      {
        "astId": 2251,
        "contract": "contracts/samples/ZbyteAirdropNFT.sol:ZbyteAirdropNFT",
        "label": "_allTokens",
        "offset": 0,
        "slot": "12",
        "type": "t_array(t_uint256)dyn_storage"
      },
      {
        "astId": 2255,
        "contract": "contracts/samples/ZbyteAirdropNFT.sol:ZbyteAirdropNFT",
        "label": "_allTokensIndex",
        "offset": 0,
        "slot": "13",
        "type": "t_mapping(t_uint256,t_uint256)"
      },
      {
        "astId": 9828,
        "contract": "contracts/samples/ZbyteAirdropNFT.sol:ZbyteAirdropNFT",
        "label": "_nextTokenId",
        "offset": 0,
        "slot": "14",
        "type": "t_uint256"
      },
      {
        "astId": 9830,
        "contract": "contracts/samples/ZbyteAirdropNFT.sol:ZbyteAirdropNFT",
        "label": "erc20Address",
        "offset": 0,
        "slot": "15",
        "type": "t_address"
      },
      {
        "astId": 9832,
        "contract": "contracts/samples/ZbyteAirdropNFT.sol:ZbyteAirdropNFT",
        "label": "erc20PerToken",
        "offset": 0,
        "slot": "16",
        "type": "t_uint256"
      },
      {
        "astId": 9834,
        "contract": "contracts/samples/ZbyteAirdropNFT.sol:ZbyteAirdropNFT",
        "label": "distributor",
        "offset": 0,
        "slot": "17",
        "type": "t_address"
      },
      {
        "astId": 9836,
        "contract": "contracts/samples/ZbyteAirdropNFT.sol:ZbyteAirdropNFT",
        "label": "uriBase",
        "offset": 0,
        "slot": "18",
        "type": "t_string_storage"
      }
    ],
    "types": {
      "t_address": {
        "encoding": "inplace",
        "label": "address",
        "numberOfBytes": "20"
      },
      "t_array(t_uint256)dyn_storage": {
        "base": "t_uint256",
        "encoding": "dynamic_array",
        "label": "uint256[]",
        "numberOfBytes": "32"
      },
      "t_bool": {
        "encoding": "inplace",
        "label": "bool",
        "numberOfBytes": "1"
      },
      "t_mapping(t_address,t_bool)": {
        "encoding": "mapping",
        "key": "t_address",
        "label": "mapping(address => bool)",
        "numberOfBytes": "32",
        "value": "t_bool"
      },
      "t_mapping(t_address,t_mapping(t_address,t_bool))": {
        "encoding": "mapping",
        "key": "t_address",
        "label": "mapping(address => mapping(address => bool))",
        "numberOfBytes": "32",
        "value": "t_mapping(t_address,t_bool)"
      },
      "t_mapping(t_address,t_mapping(t_uint256,t_uint256))": {
        "encoding": "mapping",
        "key": "t_address",
        "label": "mapping(address => mapping(uint256 => uint256))",
        "numberOfBytes": "32",
        "value": "t_mapping(t_uint256,t_uint256)"
      },
      "t_mapping(t_address,t_uint256)": {
        "encoding": "mapping",
        "key": "t_address",
        "label": "mapping(address => uint256)",
        "numberOfBytes": "32",
        "value": "t_uint256"
      },
      "t_mapping(t_uint256,t_address)": {
        "encoding": "mapping",
        "key": "t_uint256",
        "label": "mapping(uint256 => address)",
        "numberOfBytes": "32",
        "value": "t_address"
      },
      "t_mapping(t_uint256,t_string_storage)": {
        "encoding": "mapping",
        "key": "t_uint256",
        "label": "mapping(uint256 => string)",
        "numberOfBytes": "32",
        "value": "t_string_storage"
      },
      "t_mapping(t_uint256,t_uint256)": {
        "encoding": "mapping",
        "key": "t_uint256",
        "label": "mapping(uint256 => uint256)",
        "numberOfBytes": "32",
        "value": "t_uint256"
      },
      "t_string_storage": {
        "encoding": "bytes",
        "label": "string",
        "numberOfBytes": "32"
      },
      "t_uint256": {
        "encoding": "inplace",
        "label": "uint256",
        "numberOfBytes": "32"
      }
    }
  }
}