{
  "address": "0x9456D2f784F838519a79Ee7922cE4c35159fA09D",
  "abi": [
    {
      "inputs": [
        {
          "internalType": "address",
          "name": "forwarder_",
          "type": "address"
        },
        {
          "internalType": "address",
          "name": "zbyte_",
          "type": "address"
        }
      ],
      "stateMutability": "nonpayable",
      "type": "constructor"
    },
    {
      "inputs": [],
      "name": "CannotSendEther",
      "type": "error"
    },
    {
      "inputs": [
        {
          "internalType": "uint256",
          "name": "",
          "type": "uint256"
        },
        {
          "internalType": "uint256",
          "name": "",
          "type": "uint256"
        }
      ],
      "name": "InsufficientERC20ForDepositGas",
      "type": "error"
    },
    {
      "inputs": [
        {
          "internalType": "uint256",
          "name": "",
          "type": "uint256"
        },
        {
          "internalType": "bytes32",
          "name": "",
          "type": "bytes32"
        },
        {
          "internalType": "bool",
          "name": "",
          "type": "bool"
        },
        {
          "internalType": "uint256",
          "name": "",
          "type": "uint256"
        }
      ],
      "name": "InvalidCallbackAck",
      "type": "error"
    },
    {
      "inputs": [
        {
          "internalType": "uint256",
          "name": "",
          "type": "uint256"
        },
        {
          "internalType": "uint256",
          "name": "",
          "type": "uint256"
        },
        {
          "internalType": "uint256",
          "name": "",
          "type": "uint256"
        },
        {
          "internalType": "uint256",
          "name": "",
          "type": "uint256"
        }
      ],
      "name": "InvalidCallbackMessage",
      "type": "error"
    },
    {
      "inputs": [
        {
          "internalType": "address",
          "name": "",
          "type": "address"
        }
      ],
      "name": "InvalidRelay",
      "type": "error"
    },
    {
      "inputs": [
        {
          "internalType": "address",
          "name": "",
          "type": "address"
        }
      ],
      "name": "UnAuthorized",
      "type": "error"
    },
    {
      "inputs": [],
      "name": "ZeroAddress",
      "type": "error"
    },
    {
      "inputs": [],
      "name": "ZeroValue",
      "type": "error"
    },
    {
      "anonymous": false,
      "inputs": [
        {
          "indexed": false,
          "internalType": "bytes32",
          "name": "",
          "type": "bytes32"
        },
        {
          "indexed": false,
          "internalType": "bool",
          "name": "",
          "type": "bool"
        },
        {
          "indexed": false,
          "internalType": "uint256",
          "name": "",
          "type": "uint256"
        }
      ],
      "name": "ERC20DepositConfirmed",
      "type": "event"
    },
    {
      "anonymous": false,
      "inputs": [
        {
          "indexed": false,
          "internalType": "bytes32",
          "name": "",
          "type": "bytes32"
        },
        {
          "indexed": false,
          "internalType": "bool",
          "name": "",
          "type": "bool"
        },
        {
          "indexed": false,
          "internalType": "uint256",
          "name": "",
          "type": "uint256"
        }
      ],
      "name": "ERC20DepositFailedAndRefunded",
      "type": "event"
    },
    {
      "anonymous": false,
      "inputs": [
        {
          "indexed": false,
          "internalType": "address",
          "name": "",
          "type": "address"
        },
        {
          "indexed": false,
          "internalType": "address",
          "name": "",
          "type": "address"
        },
        {
          "indexed": false,
          "internalType": "uint256",
          "name": "",
          "type": "uint256"
        },
        {
          "indexed": false,
          "internalType": "uint256",
          "name": "",
          "type": "uint256"
        },
        {
          "indexed": false,
          "internalType": "bytes32",
          "name": "",
          "type": "bytes32"
        }
      ],
      "name": "ERC20Deposited",
      "type": "event"
    },
    {
      "anonymous": false,
      "inputs": [
        {
          "indexed": false,
          "internalType": "bytes32",
          "name": "",
          "type": "bytes32"
        },
        {
          "indexed": false,
          "internalType": "bool",
          "name": "",
          "type": "bool"
        },
        {
          "indexed": false,
          "internalType": "uint256",
          "name": "",
          "type": "uint256"
        }
      ],
      "name": "ERC20WithdrawConfirmed",
      "type": "event"
    },
    {
      "anonymous": false,
      "inputs": [
        {
          "indexed": false,
          "internalType": "bytes32",
          "name": "",
          "type": "bytes32"
        },
        {
          "indexed": false,
          "internalType": "bool",
          "name": "",
          "type": "bool"
        },
        {
          "indexed": false,
          "internalType": "uint256",
          "name": "",
          "type": "uint256"
        }
      ],
      "name": "ERC20WithdrawFailed",
      "type": "event"
    },
    {
      "anonymous": false,
      "inputs": [
        {
          "indexed": false,
          "internalType": "address",
          "name": "",
          "type": "address"
        },
        {
          "indexed": false,
          "internalType": "address",
          "name": "",
          "type": "address"
        },
        {
          "indexed": false,
          "internalType": "address",
          "name": "",
          "type": "address"
        },
        {
          "indexed": false,
          "internalType": "uint256",
          "name": "",
          "type": "uint256"
        },
        {
          "indexed": false,
          "internalType": "bytes32",
          "name": "",
          "type": "bytes32"
        }
      ],
      "name": "ERC20Withdrawn",
      "type": "event"
    },
    {
      "anonymous": false,
      "inputs": [
        {
          "indexed": false,
          "internalType": "address",
          "name": "",
          "type": "address"
        },
        {
          "indexed": false,
          "internalType": "address",
          "name": "",
          "type": "address"
        }
      ],
      "name": "ForwarderSet",
      "type": "event"
    },
    {
      "anonymous": false,
      "inputs": [
        {
          "indexed": true,
          "internalType": "address",
          "name": "previousOwner",
          "type": "address"
        },
        {
          "indexed": true,
          "internalType": "address",
          "name": "newOwner",
          "type": "address"
        }
      ],
      "name": "OwnershipTransferred",
      "type": "event"
    },
    {
      "anonymous": false,
      "inputs": [
        {
          "indexed": false,
          "internalType": "address",
          "name": "account",
          "type": "address"
        }
      ],
      "name": "Paused",
      "type": "event"
    },
    {
      "anonymous": false,
      "inputs": [
        {
          "indexed": false,
          "internalType": "address",
          "name": "",
          "type": "address"
        }
      ],
      "name": "RelayWrapperAddressSet",
      "type": "event"
    },
    {
      "anonymous": false,
      "inputs": [
        {
          "indexed": false,
          "internalType": "address",
          "name": "",
          "type": "address"
        },
        {
          "indexed": false,
          "internalType": "address",
          "name": "",
          "type": "address"
        }
      ],
      "name": "TreasuryAddressSet",
      "type": "event"
    },
    {
      "anonymous": false,
      "inputs": [
        {
          "indexed": false,
          "internalType": "address",
          "name": "account",
          "type": "address"
        }
      ],
      "name": "Unpaused",
      "type": "event"
    },
    {
      "anonymous": false,
      "inputs": [
        {
          "indexed": false,
          "internalType": "address",
          "name": "",
          "type": "address"
        },
        {
          "indexed": false,
          "internalType": "bool",
          "name": "",
          "type": "bool"
        }
      ],
      "name": "WorkerRegistered",
      "type": "event"
    },
    {
      "anonymous": false,
      "inputs": [
        {
          "indexed": false,
          "internalType": "address",
          "name": "",
          "type": "address"
        },
        {
          "indexed": false,
          "internalType": "uint256",
          "name": "",
          "type": "uint256"
        }
      ],
      "name": "vERC20AddressSet",
      "type": "event"
    },
    {
      "inputs": [],
      "name": "asset",
      "outputs": [
        {
          "internalType": "address",
          "name": "",
          "type": "address"
        }
      ],
      "stateMutability": "view",
      "type": "function"
    },
    {
      "inputs": [
        {
          "internalType": "uint256",
          "name": "chain_",
          "type": "uint256"
        },
        {
          "internalType": "bytes32",
          "name": "ack_",
          "type": "bytes32"
        },
        {
          "internalType": "bool",
          "name": "success_",
          "type": "bool"
        },
        {
          "internalType": "uint256",
          "name": "retval_",
          "type": "uint256"
        }
      ],
      "name": "callbackHandler",
      "outputs": [
        {
          "internalType": "uint256",
          "name": "",
          "type": "uint256"
        }
      ],
      "stateMutability": "nonpayable",
      "type": "function"
    },
    {
      "inputs": [
        {
          "internalType": "uint256",
          "name": "relay_",
          "type": "uint256"
        },
        {
          "internalType": "uint256",
          "name": "chain_",
          "type": "uint256"
        },
        {
          "internalType": "address",
          "name": "receiver_",
          "type": "address"
        },
        {
          "internalType": "uint256",
          "name": "cost_",
          "type": "uint256"
        },
        {
          "internalType": "uint256",
          "name": "amount_",
          "type": "uint256"
        }
      ],
      "name": "deposit",
      "outputs": [
        {
          "internalType": "bool",
          "name": "result",
          "type": "bool"
        }
      ],
      "stateMutability": "nonpayable",
      "type": "function"
    },
    {
      "inputs": [],
      "name": "getNonce",
      "outputs": [
        {
          "internalType": "uint256",
          "name": "",
          "type": "uint256"
        }
      ],
      "stateMutability": "view",
      "type": "function"
    },
    {
      "inputs": [
        {
          "internalType": "address",
          "name": "forwarder_",
          "type": "address"
        }
      ],
      "name": "isTrustedForwarder",
      "outputs": [
        {
          "internalType": "bool",
          "name": "",
          "type": "bool"
        }
      ],
      "stateMutability": "view",
      "type": "function"
    },
    {
      "inputs": [],
      "name": "owner",
      "outputs": [
        {
          "internalType": "address",
          "name": "",
          "type": "address"
        }
      ],
      "stateMutability": "view",
      "type": "function"
    },
    {
      "inputs": [],
      "name": "pause",
      "outputs": [],
      "stateMutability": "nonpayable",
      "type": "function"
    },
    {
      "inputs": [],
      "name": "paused",
      "outputs": [
        {
          "internalType": "bool",
          "name": "",
          "type": "bool"
        }
      ],
      "stateMutability": "view",
      "type": "function"
    },
    {
      "inputs": [
        {
          "internalType": "bytes32",
          "name": "",
          "type": "bytes32"
        }
      ],
      "name": "pendingAction",
      "outputs": [
        {
          "internalType": "enum EscrowERC20.Action",
          "name": "action",
          "type": "uint8"
        },
        {
          "internalType": "address",
          "name": "nAddress",
          "type": "address"
        },
        {
          "internalType": "address",
          "name": "rAddress",
          "type": "address"
        },
        {
          "internalType": "uint256",
          "name": "chainId",
          "type": "uint256"
        },
        {
          "internalType": "uint256",
          "name": "amount",
          "type": "uint256"
        }
      ],
      "stateMutability": "view",
      "type": "function"
    },
    {
      "inputs": [
        {
          "internalType": "address",
          "name": "worker_",
          "type": "address"
        },
        {
          "internalType": "bool",
          "name": "register_",
          "type": "bool"
        }
      ],
      "name": "registerWorker",
      "outputs": [],
      "stateMutability": "nonpayable",
      "type": "function"
    },
    {
      "inputs": [],
      "name": "relayWrapper",
      "outputs": [
        {
          "internalType": "contract IRelayWrapper",
          "name": "",
          "type": "address"
        }
      ],
      "stateMutability": "view",
      "type": "function"
    },
    {
      "inputs": [],
      "name": "renounceOwnership",
      "outputs": [],
      "stateMutability": "nonpayable",
      "type": "function"
    },
    {
      "inputs": [
        {
          "internalType": "address",
          "name": "wrapper_",
          "type": "address"
        }
      ],
      "name": "setRelayWrapperAddress",
      "outputs": [],
      "stateMutability": "nonpayable",
      "type": "function"
    },
    {
      "inputs": [
        {
          "internalType": "address",
          "name": "forwarder_",
          "type": "address"
        }
      ],
      "name": "setTrustedForwarder",
      "outputs": [],
      "stateMutability": "nonpayable",
      "type": "function"
    },
    {
      "inputs": [
        {
          "internalType": "address",
          "name": "verc20_",
          "type": "address"
        },
        {
          "internalType": "uint256",
          "name": "chain_",
          "type": "uint256"
        }
      ],
      "name": "setvERC20Address",
      "outputs": [],
      "stateMutability": "nonpayable",
      "type": "function"
    },
    {
      "inputs": [
        {
          "internalType": "uint256",
          "name": "chain_",
          "type": "uint256"
        }
      ],
      "name": "totalSupply",
      "outputs": [
        {
          "internalType": "uint256",
          "name": "",
          "type": "uint256"
        }
      ],
      "stateMutability": "view",
      "type": "function"
    },
    {
      "inputs": [],
      "name": "totalSupplyAllChains",
      "outputs": [
        {
          "internalType": "uint256",
          "name": "",
          "type": "uint256"
        }
      ],
      "stateMutability": "view",
      "type": "function"
    },
    {
      "inputs": [
        {
          "internalType": "address",
          "name": "newOwner",
          "type": "address"
        }
      ],
      "name": "transferOwnership",
      "outputs": [],
      "stateMutability": "nonpayable",
      "type": "function"
    },
    {
      "inputs": [],
      "name": "ulAsset",
      "outputs": [
        {
          "internalType": "contract IERC20",
          "name": "",
          "type": "address"
        }
      ],
      "stateMutability": "view",
      "type": "function"
    },
    {
      "inputs": [],
      "name": "unpause",
      "outputs": [],
      "stateMutability": "nonpayable",
      "type": "function"
    },
    {
      "inputs": [
        {
          "internalType": "uint256",
          "name": "",
          "type": "uint256"
        }
      ],
      "name": "vERC20Addresses",
      "outputs": [
        {
          "internalType": "address",
          "name": "",
          "type": "address"
        }
      ],
      "stateMutability": "view",
      "type": "function"
    },
    {
      "inputs": [
        {
          "internalType": "uint256",
          "name": "relay_",
          "type": "uint256"
        },
        {
          "internalType": "uint256",
          "name": "chain_",
          "type": "uint256"
        },
        {
          "internalType": "address",
          "name": "vERC20Depositor_",
          "type": "address"
        },
        {
          "internalType": "address",
          "name": "receiver_",
          "type": "address"
        }
      ],
      "name": "withdraw",
      "outputs": [
        {
          "internalType": "bool",
          "name": "result",
          "type": "bool"
        }
      ],
      "stateMutability": "nonpayable",
      "type": "function"
    },
    {
      "stateMutability": "payable",
      "type": "receive"
    }
  ],
  "transactionHash": "0x1e9620eb11603d15f788cc200c857d91b37e61d538a199d422a307ee5e088d23",
  "args": [
    "0x33Aebb0631C0f41d93945C4a6d081FFbc674b870",
    "0x4B264551eD876a822430CB99A9A7a2da723a3078"
  ],
  "numDeployments": 1,
  "solcInputHash": "7f853128543a6a05cfb5677c81af0201",
  "bytecode": "0x608034620001455762001ad290601f38839003908101601f19168201906001600160401b038211838310176200014a578083916040958694855283398101031262000145576020620000518262000160565b916001600160a01b0391829162000069910162000160565b16916200007562000175565b826000549116855191818582167f8be0079c531659141344cd1fd0a4f28419497f9722a3daafe3b4186f6b6457e0600080a36001600160a81b0319161760005560016002558315620001365750811680156200012557837f94aed472e01353526c04ec91cee149d41e78d848ec851c72be532bf7b120bd30916001549060018060a01b03199481868416176001558351921682526020820152a160065416176006555161193790816200019b8239f35b835163d92e233d60e01b8152600490fd5b63d92e233d60e01b8152600490fd5b600080fd5b634e487b7160e01b600052604160045260246000fd5b51906001600160a01b03821682036200014557565b600154336001600160a01b0390911603620001965736601319013560601c90565b339056fe60806040526004361015610026575b361561001957600080fd5b610021610ffe565b600080fd5b60003560e01c806301c99f9f146101d557806312c00ccb146101cc57806338d52e0f146101a85780633f4ba83a146101c35780633fcc4a81146101ba578063450a9d77146101b15780634d3273db146101a8578063572b6c051461019f5780635c975abb14610196578063715018a61461018d57806371b3177a146101845780638171e0091461017b5780638456cb59146101725780638da5cb5b14610169578063a1478a3b14610160578063bd85b03914610157578063c6a317851461014e578063c8b5303814610145578063d087d2881461013c578063da74222814610133578063deee40781461012a5763f2fde38b0361000e57610125610ed1565b61000e565b50610125610e9c565b50610125610e15565b50610125610df6565b50610125610d87565b50610125610d48565b50610125610d1b565b50610125610cf1565b50610125610cc7565b50610125610c48565b5061012561097f565b506101256106b0565b50610125610645565b5061012561061e565b506101256105e8565b50610125610354565b50610125610531565b5061012561040e565b5061012561037e565b506101256102c4565b5061012561022a565b600435906001600160a01b038216820361002157565b604435906001600160a01b038216820361002157565b606435906001600160a01b038216820361002157565b8015150361002157565b5034610021576040366003190112610021577f2ddb4d518081e3226ce50314090fbddc7a51e92d125bd71d785914d1b6d3d67960406102676101de565b6024359061027482610220565b6000546001600160a01b039190610297908316836102906118dd565b1614610f6c565b1690816000526007602052826000209015159060ff1981541660ff831617905582519182526020820152a1005b5034610021576020366003190112610021576102de6101de565b6000546001600160a01b0391906102fa908316836102906118dd565b168015610342576020817f8e3584f39ded6e1a9a02b72cddce11efa1a306747c8527671917b231983edbad926001600160601b0360a01b6008541617600855604051908152a1005b60405163d92e233d60e01b8152600490fd5b5034610021576000366003190112610021576006546040516001600160a01b039091168152602090f35b50346100215760008060031936011261040b5780547f5db9ee0a495bf2e6ff9c91a7834c1ba4fdd244a5e8aa4e537bd38aeae4b073aa906020906001600160a01b03906103d7826103cd6118dd565b1683831614610f6c565b6103ef60ff8260a01c166103ea8161189a565b61189a565b60ff60a01b191684556104006118dd565b60405191168152a180f35b80fd5b50346100215760803660031901126100215760443561042c81610220565b60085460009060209061047c906001600160a01b031661044a6118dd565b604051630b43159160e41b81524660048201526001600160a01b03909116602482015293849283919082906044820190565b03925af1908115610524575b6000916104f6575b50156104c0576104ac6104bc9160643590602435600435611573565b6040519081529081906020820190565b0390f35b6104f26104cb6118dd565b604051630adb4ca360e41b81526001600160a01b0390911660048201529081906024820190565b0390fd5b610517915060203d811161051d575b61050f81836110dc565b8101906111fc565b38610490565b503d610505565b61052c6112a6565b610488565b50346100215760403660031901126100215761054b6101de565b600054602435906001600160a01b039061056a908216826102906118dd565b8216156103425780156105d65760008181526005602090815260409182902080546001600160a01b0319166001600160a01b0395909516948517905581519384528301919091527f1a40ce6d89bbc096abbbb07f26f960227344b0199ce4c540844114d7839b793891a1005b604051637c946ed760e01b8152600490fd5b50346100215760203660031901126100215760206106046101de565b6001546040516001600160a01b0392831691909216148152f35b503461002157600036600319011261002157602060ff60005460a01c166040519015158152f35b50346100215760008060031936011261040b57805481906001600160a01b03808216919061067d906106756118dd565b168314610f6c565b6001600160a01b03191682557f8be0079c531659141344cd1fd0a4f28419497f9722a3daafe3b4186f6b6457e08280a380f35b5034610021576080366003190112610021576024356106cd6101f4565b906106d661020a565b6000926106ea60ff855460a01c1615611011565b6001600160a01b0390816106fc6118dd565b1685526020926007845260409260ff84882054161561095e57506002546002141561072690611050565b6002805561073e856000526005602052604060002090565b546001600160a01b031685856009549286518281018161078a87898b898692606894929184526001600160601b0319809260601b16602085015260601b16603483015260488201520190565b0391601f1992838101825261079f90826110dc565b519020946107ac90611115565b6009556107b761112d565b600281526001600160a01b038716818501526001600160a01b038816818a01528460608201528b60808201526107f786600052600a602052604060002090565b9061080191611177565b600854885162f55d9d60e01b858201526001600160a01b038981166024830152604493840182529091169186918d9161083a90826110dc565b8a516380516ec960e01b815296879586948593610861933093904660048035908901611254565b03925af1958615986104bc99610951575b96610908575b50506108eb9085966108ab7f72b69b7283d7f94f82af237df98dac53d1240005b789c3ed88e3834d21ad7e1b9697611527565b6108b36118dd565b87516001600160a01b0391821681529581166020870152909316604085015260608401929092526080830191909152819060a0820190565b0390a16108f86001600255565b5190151581529081906020820190565b7f72b69b7283d7f94f82af237df98dac53d1240005b789c3ed88e3834d21ad7e1b9596506108eb92918161094792903d1061051d5761050f81836110dc565b9594819250610878565b6109596112a6565b610872565b8360249161096a6118dd565b915163b392249560e01b815291166004820152fd5b50346100215760a03660031901126100215760243561099c6101f4565b908060843560005460a01c60ff16156109b490611011565b600254600214156109c490611050565b600280556109dc826000526005602052604060002090565b546001600160a01b03166006549094906001600160a01b03166109fd6118dd565b600154610a1a92606435926001600160a01b0390921691906112ff565b6006546001600160a01b031682610a2f6118dd565b3090610a3a936112ff565b600954916040928351602097818980930181610a7e86888a8d869290916074949284526001600160601b03199060601b166020840152603483015260548201520190565b0391601f19928381018252610a9390826110dc565b51902093610aa090611115565b600955610aab61112d565b60018152610ab76118dd565b6001600160a01b0316818501526001600160a01b03871681890152886060820152856080820152610af285600052600a602052604060002090565b90610afc91611177565b60085487516340c10f1960e01b858201526001600160a01b038881166024830152604482018890526064938401825290911691859190610b3c90826110dc565b88516380516ec960e01b8152998a9485938493610b63933093904660048035908901611254565b03915a90600091f1948515976104bc98610c3b575b600096610bf2575b50506108eb908596610bb37f7421cdc21c72f34d5c833d58c604ea2ce4c54894d72b242df1de39d4a27b36d196976112b3565b610bbb6118dd565b87516001600160a01b03918216815295166020860152604085019390935260608401929092526080830191909152819060a0820190565b7f7421cdc21c72f34d5c833d58c604ea2ce4c54894d72b242df1de39d4a27b36d19596506108eb929181610c3192903d1061051d5761050f81836110dc565b9594819250610b80565b610c436112a6565b610b78565b50346100215760008060031936011261040b5780547f62e78cea01bee320cd4e420270b5ea74000d11b0c9f74754ebdbfc544b05a258906020906001600160a01b0390610c97826103cd6118dd565b610cb060ff8260a01c1615610cab81611011565b611011565b60ff60a01b1916600160a01b1784556104006118dd565b5034610021576000366003190112610021576000546040516001600160a01b039091168152602090f35b5034610021576000366003190112610021576008546040516001600160a01b039091168152602090f35b50346100215760203660031901126100215760043560005260046020526020604060002054604051908152f35b5034610021576000366003190112610021576020600354604051908152f35b60031115610d7157565b634e487b7160e01b600052602160045260246000fd5b503461002157602036600319011261002157600435600052600a6020526040600020805460ff81169160018060a01b0390816001820154166003600283015492015492604051946003871015610d715760a096865260081c166020850152604084015260608301526080820152f35b5034610021576000366003190112610021576020600954604051908152f35b503461002157602036600319011261002157610e2f6101de565b6000546001600160a01b03918291610e4c908316836102906118dd565b168015610342577f94aed472e01353526c04ec91cee149d41e78d848ec851c72be532bf7b120bd309160409160015491816001600160601b0360a01b8416176001558351921682526020820152a1005b5034610021576020366003190112610021576004356000526005602052602060018060a01b0360406000205416604051908152f35b503461002157602036600319011261002157610eeb6101de565b6000546001600160a01b0390610f06908216826102906118dd565b811615610f1857610f1690610fb7565b005b60405162461bcd60e51b815260206004820152602660248201527f4f776e61626c653a206e6577206f776e657220697320746865207a65726f206160448201526564647265737360d01b6064820152608490fd5b15610f7357565b606460405162461bcd60e51b815260206004820152602060248201527f4f776e61626c653a2063616c6c6572206973206e6f7420746865206f776e65726044820152fd5b600080546001600160a01b039283166001600160a01b03198216811783559216907f8be0079c531659141344cd1fd0a4f28419497f9722a3daafe3b4186f6b6457e09080a3565b5060405163bf06461960e01b8152600490fd5b1561101857565b60405162461bcd60e51b815260206004820152601060248201526f14185d5cd8589b194e881c185d5cd95960821b6044820152606490fd5b1561105757565b60405162461bcd60e51b815260206004820152601f60248201527f5265656e7472616e637947756172643a207265656e7472616e742063616c6c006044820152606490fd5b50634e487b7160e01b600052604160045260246000fd5b6040810190811067ffffffffffffffff8211176110cf57604052565b6110d761109c565b604052565b90601f8019910116810190811067ffffffffffffffff8211176110cf57604052565b50634e487b7160e01b600052601160045260246000fd5b906001820180921161112357565b61112b6110fe565b565b6040519060a0820182811067ffffffffffffffff82111761116a575b60405260006080838281528260208201528260408201528260608201520152565b61117261109c565b611149565b9080516003811015610d715782546020830151610100600160a81b0360089190911b1660ff929092166001600160a81b03199091161717825560408101516003916080916111eb906001600160a01b03166001860180546001600160a01b0319166001600160a01b03909216919091179055565b606081015160028501550151910155565b90816020910312610021575161121181610220565b90565b919082519283825260005b848110611240575050826000602080949584010152601f8019910116010190565b60208183018101518483018201520161121f565b94909261128a9260209894875288870152604086015260018060a01b038094166060860152610100806080870152850190611214565b9360a08401521660c082015260e0818303910152600081520190565b506040513d6000823e3d90fd5b156112ba57565b60405162461bcd60e51b815260206004820152601c60248201527f5f6465706f7369743a2063616c6c52656d6f7465206661696c65642e000000006044820152606490fd5b6040516323b872dd60e01b60208201526001600160a01b03928316602482015292909116604483015260648083019390935291815261112b9160a0820182811067ffffffffffffffff821117611358575b6040526113c4565b61136061109c565b611350565b1561136c57565b60405162461bcd60e51b815260206004820152602a60248201527f5361666545524332303a204552433230206f7065726174696f6e20646964206e6044820152691bdd081cdd58d8d9595960b21b6064820152608490fd5b6040516001600160a01b0391909116916113dd826110b3565b6020928383527f5361666545524332303a206c6f772d6c6576656c2063616c6c206661696c656484840152803b15611454576000828192828761142f9796519301915af1611429611499565b906114e7565b8051908161143c57505050565b8261112b9361144f9383010191016111fc565b611365565b60405162461bcd60e51b815260048101859052601d60248201527f416464726573733a2063616c6c20746f206e6f6e2d636f6e74726163740000006044820152606490fd5b3d156114e2573d9067ffffffffffffffff82116114d5575b604051916114c9601f8201601f1916602001846110dc565b82523d6000602084013e565b6114dd61109c565b6114b1565b606090565b909190156114f3575090565b8151156115035750805190602001fd5b60405162461bcd60e51b8152602060048201529081906104f2906024830190611214565b1561152e57565b60405162461bcd60e51b815260206004820152601d60248201527f5f77697468647261773a2063616c6c52656d6f7465206661696c65642e0000006044820152606490fd5b9192909261158b84600052600a602052604060002090565b8054600382015460029092015494600882901c6001600160a01b03169160ff166115b481610d67565b600181036116f557508581148015906116eb575b6116bc57509161165395939161163b95938260001461165857507ff64578a8ea3d511e99da45c5925c1f2ba97616679c9991a491f79d269452f9709361160d91611866565b60408051858152911515602083015281019190915280606081015b0390a1600052600a602052604060002090565b60036000918281558260018201558260028201550155565b600090565b6006547f82b9d61d8c40f24d7817c0a9f6a5a07452b27d8d2a563f58d52847ce9e9849e8955061162894935061169d9291906001600160a01b03166117d8565b6117d8565b6040805185815260006020820152908101919091529081906060820190565b60405163d6facdff60e01b81526004810187905260248101849052604481019190915260648101859052608490fd5b50848314156115c8565b80611701600292610d67565b036117a8578581036116bc57509161165395939161163b959382600014611763579361160d9161175e857ff5a60bd1e87b05bb87d7c368ca3ef2adb38148647f0a7b7cafdba3e8279051059761169860065460018060a01b031690565b611819565b5050604080518581526000602082015290810192909252507f9c33bbcaa410c35cdb52a965527cdedfa77292fd62762711cbf969fa21ab2e7991508060608101611628565b604051630cd9d7bb60e41b8152600481019190915260248101879052831515604482015260648101859052608490fd5b60405163a9059cbb60e01b60208201526001600160a01b0392909216602483015260448083019390935291815261112b916118146064836110dc565b6113c4565b9061183f90600354838103908111611859575b6003556000526004602052604060002090565b805491820391821161184e5755565b6118566110fe565b55565b6118616110fe565b61182c565b9061188b90600354838101809111611859576003556000526004602052604060002090565b805491820180921161184e5755565b156118a157565b60405162461bcd60e51b815260206004820152601460248201527314185d5cd8589b194e881b9bdd081c185d5cd95960621b6044820152606490fd5b600154336001600160a01b03909116036118fd5736601319013560601c90565b339056fea2646970667358221220f66f0a303a3450872e4798b68ac2d090555c2758cfe502eab734839a9a5746c864736f6c63430008110033",
  "devdoc": {
    "kind": "dev",
    "methods": {
      "callbackHandler(uint256,bytes32,bool,uint256)": {
        "params": {
          "ack_": "Unique hash of the submitted deposit/withdraw request",
          "chain_": "Target chain identifier",
          "retval_": "The amount of tokens that were deposited/withdrawn",
          "success_": "true if the deposit/withdraw was successful on remote"
        }
      },
      "deposit(uint256,uint256,address,uint256,uint256)": {
        "params": {
          "amount_": "Amount of ERC20 deposited",
          "chain_": "Target chain identifier",
          "cost_": "Cost of the operation",
          "receiver_": "Recipient address for vERC20",
          "relay_": "Relay identifier that should be used for the crosschain call"
        }
      },
      "getNonce()": {
        "details": "nonce is incremented for every successful deposit or withdraw"
      },
      "isTrustedForwarder(address)": {
        "params": {
          "forwarder_": "Address to check"
        },
        "returns": {
          "_0": "true if forwarder_ is trusted forwarder"
        }
      },
      "owner()": {
        "details": "Returns the address of the current owner."
      },
      "paused()": {
        "details": "Returns true if the contract is paused, and false otherwise."
      },
      "registerWorker(address,bool)": {
        "params": {
          "register_": "A boolean indicating whether to register (true) or unregister (false) the worker.",
          "worker_": "The address of the worker to be registered or unregistered."
        }
      },
      "renounceOwnership()": {
        "details": "Leaves the contract without owner. It will not be possible to call `onlyOwner` functions anymore. Can only be called by the current owner. NOTE: Renouncing ownership will leave the contract without an owner, thereby removing any functionality that is only available to the owner."
      },
      "setRelayWrapperAddress(address)": {
        "params": {
          "wrapper_": "Core relay wrapper contract address"
        }
      },
      "setTrustedForwarder(address)": {
        "details": "onlyOwner can call",
        "params": {
          "forwarder_": "Frwarder conract address"
        }
      },
      "setvERC20Address(address,uint256)": {
        "details": "nonce is incremented for every successful deposit or withdraw",
        "params": {
          "chain_": "chain id of the chain where vERC2o contract resides",
          "verc20_": "vERC20 contract address"
        }
      },
      "totalSupply(uint256)": {
        "params": {
          "chain_": "The id of the chain of interest"
        }
      },
      "transferOwnership(address)": {
        "details": "Transfers ownership of the contract to a new account (`newOwner`). Can only be called by the current owner."
      },
      "withdraw(uint256,uint256,address,address)": {
        "details": "The paymaster_ should be a valid paymaster (e.g., forwarder). All vERC20 held by paymaster is destroyed and equal ERC20 is deposited",
        "params": {
          "chain_": "Target chain identifier",
          "receiver_": "Recipient address for ERC20",
          "relay_": "Relay identifier that should be used for the crosschain call",
          "vERC20Depositor_": "Address to deposit vERC20"
        }
      }
    },
    "title": "The ZBYT ERC20 Escrow contract",
    "version": 1
  },
  "userdoc": {
    "errors": {
      "CannotSendEther()": [
        {
          "notice": "error (0xbf064619): Contract cannot receive ether"
        }
      ],
      "InsufficientERC20ForDepositGas(uint256,uint256)": [
        {
          "notice": "error (0xed3fc6b3): Insufficient ERC20 for Deposit operation."
        }
      ],
      "InvalidCallbackAck(uint256,bytes32,bool,uint256)": [
        {
          "notice": "error (0xcd9d7bb0): The ack in callback received was not found"
        }
      ],
      "InvalidCallbackMessage(uint256,uint256,uint256,uint256)": [
        {
          "notice": "error (0xd6facdff): The callback received was invalid"
        }
      ],
      "InvalidRelay(address)": [
        {
          "notice": "Caller is not a valid relay"
        }
      ],
      "UnAuthorized(address)": [
        {
          "notice": "error (0xb3922495): Unauthorized caller."
        }
      ],
      "ZeroAddress()": [
        {
          "notice": "error (0xd92e233d): Address is address(0)"
        }
      ],
      "ZeroValue()": [
        {
          "notice": "error(): Value sent is 0"
        }
      ]
    },
    "events": {
      "ERC20DepositConfirmed(bytes32,bool,uint256)": {
        "notice": "event (0xf64578a8): ERC20 tokens deposit confirmed"
      },
      "ERC20DepositFailedAndRefunded(bytes32,bool,uint256)": {
        "notice": "event (0x82b9d61d): ERC20 tokens deposit failed and refund issued to depositor"
      },
      "ERC20Deposited(address,address,uint256,uint256,bytes32)": {
        "notice": "event (0xcae09af7): ERC20 tokens deposited"
      },
      "ERC20WithdrawConfirmed(bytes32,bool,uint256)": {
        "notice": "event (0xf5a60bd1): ERC20 tokens withdraw confirmed"
      },
      "ERC20WithdrawFailed(bytes32,bool,uint256)": {
        "notice": "event (0x9c33bbca): ERC20 tokens withdraw failed"
      },
      "ERC20Withdrawn(address,address,address,uint256,bytes32)": {
        "notice": "event (0x8b923c21): ERC20 tokens withdrawn"
      },
      "ForwarderSet(address,address)": {
        "notice": "event (0x94aed472): Forwarder address is changed"
      },
      "RelayWrapperAddressSet(address)": {
        "notice": "event (0x95290bcc): Core relay wrapper contract address is set"
      },
      "TreasuryAddressSet(address,address)": {
        "notice": "event (0x1db696c9): The Treasury address is set"
      },
      "WorkerRegistered(address,bool)": {
        "notice": "event (0x2ddb4d51): Worker is registered(true/false)"
      },
      "vERC20AddressSet(address,uint256)": {
        "notice": "event (0x1a40ce6d): vERC20 contract address is set"
      }
    },
    "kind": "user",
    "methods": {
      "asset()": {
        "notice": "Return the address of underlying ERC20 contract address"
      },
      "callbackHandler(uint256,bytes32,bool,uint256)": {
        "notice": "callback handler to handle acknowledgement for deposit/withdraw"
      },
      "deposit(uint256,uint256,address,uint256,uint256)": {
        "notice": "Deposit ERC20 tokens to obtain vERC20 on target chain"
      },
      "getNonce()": {
        "notice": "Get the latest nonce "
      },
      "isTrustedForwarder(address)": {
        "notice": "Check if the given address is the trusted forwarder"
      },
      "pause()": {
        "notice": "Pauses the contract (mint, transfer and burn operations are paused)"
      },
      "pendingAction(bytes32)": {
        "notice": "mapping of current deposit/withdraw operations for which callback has not yet been received"
      },
      "registerWorker(address,bool)": {
        "notice": "Registers or unregisters a worker, allowing or denying access to specific functionality."
      },
      "relayWrapper()": {
        "notice": "RelayWrapper contract address"
      },
      "setRelayWrapperAddress(address)": {
        "notice": "Set the address of core relay wrapper"
      },
      "setTrustedForwarder(address)": {
        "notice": "Set the forwarder contract address"
      },
      "setvERC20Address(address,uint256)": {
        "notice": "Set the address of vERC20 on a given chain"
      },
      "totalSupply(uint256)": {
        "notice": "Return the amount of vERC20 currently available on a given chain"
      },
      "totalSupplyAllChains()": {
        "notice": "Return the amount of vERC20 currently available on all chains"
      },
      "ulAsset()": {
        "notice": "The underlying ERC20 token contract"
      },
      "unpause()": {
        "notice": "Unpauses the paused contract"
      },
      "vERC20Addresses(uint256)": {
        "notice": "mapping of the vERC20 contract address for the chain"
      },
      "withdraw(uint256,uint256,address,address)": {
        "notice": "Withdraw ERC20 tokens by depositing vERC20 on target chain"
      }
    },
    "version": 1
  },
  "storageLayout": {
    "storage": [
      {
        "astId": 7,
        "contract": "contracts/core/ZbyteEscrow.sol:ZbyteEscrow",
        "label": "_owner",
        "offset": 0,
        "slot": "0",
        "type": "t_address"
      },
      {
        "astId": 292,
        "contract": "contracts/core/ZbyteEscrow.sol:ZbyteEscrow",
        "label": "_paused",
        "offset": 20,
        "slot": "0",
        "type": "t_bool"
      },
      {
        "astId": 11486,
        "contract": "contracts/core/ZbyteEscrow.sol:ZbyteEscrow",
        "label": "trustedForwarder",
        "offset": 0,
        "slot": "1",
        "type": "t_address"
      },
      {
        "astId": 377,
        "contract": "contracts/core/ZbyteEscrow.sol:ZbyteEscrow",
        "label": "_status",
        "offset": 0,
        "slot": "2",
        "type": "t_uint256"
      },
      {
        "astId": 3963,
        "contract": "contracts/core/ZbyteEscrow.sol:ZbyteEscrow",
        "label": "_totalSupply",
        "offset": 0,
        "slot": "3",
        "type": "t_uint256"
      },
      {
        "astId": 3967,
        "contract": "contracts/core/ZbyteEscrow.sol:ZbyteEscrow",
        "label": "_reserve",
        "offset": 0,
        "slot": "4",
        "type": "t_mapping(t_uint256,t_uint256)"
      },
      {
        "astId": 3972,
        "contract": "contracts/core/ZbyteEscrow.sol:ZbyteEscrow",
        "label": "vERC20Addresses",
        "offset": 0,
        "slot": "5",
        "type": "t_mapping(t_uint256,t_address)"
      },
      {
        "astId": 3976,
        "contract": "contracts/core/ZbyteEscrow.sol:ZbyteEscrow",
        "label": "ulAsset",
        "offset": 0,
        "slot": "6",
        "type": "t_contract(IERC20)1030"
      },
      {
        "astId": 3981,
        "contract": "contracts/core/ZbyteEscrow.sol:ZbyteEscrow",
        "label": "authorizedWorkers",
        "offset": 0,
        "slot": "7",
        "type": "t_mapping(t_address,t_bool)"
      },
      {
        "astId": 3985,
        "contract": "contracts/core/ZbyteEscrow.sol:ZbyteEscrow",
        "label": "relayWrapper",
        "offset": 0,
        "slot": "8",
        "type": "t_contract(IRelayWrapper)8951"
      },
      {
        "astId": 3988,
        "contract": "contracts/core/ZbyteEscrow.sol:ZbyteEscrow",
        "label": "nonce",
        "offset": 0,
        "slot": "9",
        "type": "t_uint256"
      },
      {
        "astId": 4010,
        "contract": "contracts/core/ZbyteEscrow.sol:ZbyteEscrow",
        "label": "pendingAction",
        "offset": 0,
        "slot": "10",
        "type": "t_mapping(t_bytes32,t_struct(PendingAction)4004_storage)"
      }
    ],
    "types": {
      "t_address": {
        "encoding": "inplace",
        "label": "address",
        "numberOfBytes": "20"
      },
      "t_bool": {
        "encoding": "inplace",
        "label": "bool",
        "numberOfBytes": "1"
      },
      "t_bytes32": {
        "encoding": "inplace",
        "label": "bytes32",
        "numberOfBytes": "32"
      },
      "t_contract(IERC20)1030": {
        "encoding": "inplace",
        "label": "contract IERC20",
        "numberOfBytes": "20"
      },
      "t_contract(IRelayWrapper)8951": {
        "encoding": "inplace",
        "label": "contract IRelayWrapper",
        "numberOfBytes": "20"
      },
      "t_enum(Action)3992": {
        "encoding": "inplace",
        "label": "enum EscrowERC20.Action",
        "numberOfBytes": "1"
      },
      "t_mapping(t_address,t_bool)": {
        "encoding": "mapping",
        "key": "t_address",
        "label": "mapping(address => bool)",
        "numberOfBytes": "32",
        "value": "t_bool"
      },
      "t_mapping(t_bytes32,t_struct(PendingAction)4004_storage)": {
        "encoding": "mapping",
        "key": "t_bytes32",
        "label": "mapping(bytes32 => struct EscrowERC20.PendingAction)",
        "numberOfBytes": "32",
        "value": "t_struct(PendingAction)4004_storage"
      },
      "t_mapping(t_uint256,t_address)": {
        "encoding": "mapping",
        "key": "t_uint256",
        "label": "mapping(uint256 => address)",
        "numberOfBytes": "32",
        "value": "t_address"
      },
      "t_mapping(t_uint256,t_uint256)": {
        "encoding": "mapping",
        "key": "t_uint256",
        "label": "mapping(uint256 => uint256)",
        "numberOfBytes": "32",
        "value": "t_uint256"
      },
      "t_struct(PendingAction)4004_storage": {
        "encoding": "inplace",
        "label": "struct EscrowERC20.PendingAction",
        "members": [
          {
            "astId": 3995,
            "contract": "contracts/core/ZbyteEscrow.sol:ZbyteEscrow",
            "label": "action",
            "offset": 0,
            "slot": "0",
            "type": "t_enum(Action)3992"
          },
          {
            "astId": 3997,
            "contract": "contracts/core/ZbyteEscrow.sol:ZbyteEscrow",
            "label": "nAddress",
            "offset": 1,
            "slot": "0",
            "type": "t_address"
          },
          {
            "astId": 3999,
            "contract": "contracts/core/ZbyteEscrow.sol:ZbyteEscrow",
            "label": "rAddress",
            "offset": 0,
            "slot": "1",
            "type": "t_address"
          },
          {
            "astId": 4001,
            "contract": "contracts/core/ZbyteEscrow.sol:ZbyteEscrow",
            "label": "chainId",
            "offset": 0,
            "slot": "2",
            "type": "t_uint256"
          },
          {
            "astId": 4003,
            "contract": "contracts/core/ZbyteEscrow.sol:ZbyteEscrow",
            "label": "amount",
            "offset": 0,
            "slot": "3",
            "type": "t_uint256"
          }
        ],
        "numberOfBytes": "128"
      },
      "t_uint256": {
        "encoding": "inplace",
        "label": "uint256",
        "numberOfBytes": "32"
      }
    }
  }
}