{
  "address": "0xadc42E2C63FAbfC28587ef77993dcC72aB7b711D",
  "abi": [
    {
      "inputs": [
        {
          "internalType": "bytes",
          "name": "",
          "type": "bytes"
        }
      ],
      "name": "GetRoyaltyFeeInZbyteFailed",
      "type": "error"
    },
    {
      "inputs": [],
      "name": "NotAForwarder",
      "type": "error"
    },
    {
      "inputs": [
        {
          "internalType": "uint256",
          "name": "",
          "type": "uint256"
        },
        {
          "internalType": "uint256",
          "name": "",
          "type": "uint256"
        }
      ],
      "name": "UnusualGasUsageForEnterprisePolicy",
      "type": "error"
    },
    {
      "anonymous": false,
      "inputs": [
        {
          "indexed": false,
          "internalType": "address",
          "name": "",
          "type": "address"
        },
        {
          "indexed": false,
          "internalType": "uint256",
          "name": "",
          "type": "uint256"
        },
        {
          "indexed": false,
          "internalType": "uint256",
          "name": "",
          "type": "uint256"
        },
        {
          "indexed": false,
          "internalType": "uint256",
          "name": "",
          "type": "uint256"
        }
      ],
      "name": "PostExecFees",
      "type": "event"
    },
    {
      "anonymous": false,
      "inputs": [
        {
          "indexed": false,
          "internalType": "address",
          "name": "",
          "type": "address"
        },
        {
          "indexed": false,
          "internalType": "bytes4",
          "name": "",
          "type": "bytes4"
        },
        {
          "indexed": false,
          "internalType": "uint256",
          "name": "",
          "type": "uint256"
        },
        {
          "indexed": false,
          "internalType": "uint256",
          "name": "",
          "type": "uint256"
        },
        {
          "indexed": false,
          "internalType": "uint256",
          "name": "",
          "type": "uint256"
        }
      ],
      "name": "PreExecFees",
      "type": "event"
    },
    {
      "inputs": [
        {
          "internalType": "address",
          "name": "user_",
          "type": "address"
        },
        {
          "internalType": "address",
          "name": "dapp_",
          "type": "address"
        },
        {
          "internalType": "bytes4",
          "name": "functionSig_",
          "type": "bytes4"
        },
        {
          "internalType": "uint256",
          "name": "amount_",
          "type": "uint256"
        }
      ],
      "name": "getPayer",
      "outputs": [
        {
          "internalType": "bytes4",
          "name": "",
          "type": "bytes4"
        },
        {
          "internalType": "uint256",
          "name": "",
          "type": "uint256"
        },
        {
          "internalType": "address",
          "name": "",
          "type": "address"
        }
      ],
      "stateMutability": "view",
      "type": "function"
    },
    {
      "inputs": [
        {
          "internalType": "address",
          "name": "payer_",
          "type": "address"
        },
        {
          "internalType": "bool",
          "name": "executeResult_",
          "type": "bool"
        },
        {
          "internalType": "uint256",
          "name": "reqValue_",
          "type": "uint256"
        },
        {
          "internalType": "uint256",
          "name": "gasConsumedEth_",
          "type": "uint256"
        },
        {
          "internalType": "uint256",
          "name": "preChargeEth_",
          "type": "uint256"
        }
      ],
      "name": "postExecute",
      "outputs": [],
      "stateMutability": "nonpayable",
      "type": "function"
    },
    {
      "inputs": [
        {
          "internalType": "address",
          "name": "dapp_",
          "type": "address"
        },
        {
          "internalType": "address",
          "name": "user_",
          "type": "address"
        },
        {
          "internalType": "bytes4",
          "name": "functionSig_",
          "type": "bytes4"
        },
        {
          "internalType": "uint256",
          "name": "ethChargeAmount_",
          "type": "uint256"
        }
      ],
      "name": "preExecute",
      "outputs": [
        {
          "internalType": "address",
          "name": "",
          "type": "address"
        }
      ],
      "stateMutability": "nonpayable",
      "type": "function"
    }
  ],
  "args": [],
  "numDeployments": 1,
  "solcInputHash": "e67aaade3ce54eefff91fdef20cb9e9e",
  "bytecode": "0x608080604052346100165761172e908161001c8239f35b600080fdfe60a0604052600436101561001257600080fd5b60003560e01c80630b9c414a146110d95780636fab9c02146108ba5763b8e615281461003d57600080fd5b346106185761004b3661111e565b909192610056611605565b7f580a56aff4c8445faf8644f12c3b0f5d37fcb3a8e0a0f9b1b360da94678271dd546001600160a01b039182169116146108a857600080516020611679833981519152805460007f2d1bb8cbbb4d7783ef4f9001d0b7478185bda33b0093daf501edbebc75bc3083556001600160c01b031990811690915560008051602061169983398151915280546001600160a01b0319169055600080516020611659833981519152805490911690557f2d1bb8cbbb4d7783ef4f9001d0b7478185bda33b0093daf501edbebc75bc308754604051633d9c62d360e21b81526001600160a01b0390911692602082600481875afa91821561059157600092610873575b506020906024604051809681936318f498e760e31b835260048301525afa9283156105915760009361083f575b5060009161019a6101928386611572565b8683896111f1565b969160809891985263c049450360e01b6000527fc8fcad8db84d3cc18b4c41d551ea0ee66dd599cde068d998e57d5e09332c131c60205260406000206040519081604081011067ffffffffffffffff6040840111176108215760408281019052546001600160a01b038116825260a01c60208201526102198588611572565b60405163c049450360e01b60208201526001600160a01b03868116602483015284811660448301526001600160e01b0319861660648301528a16608482015260a4808201929092529081529067ffffffffffffffff60e08301908111908311176108215760e0820160405251815160009283926020909101906001600160a01b03165af4943d15610837573d9567ffffffffffffffff871161082157604051966102cd601f8201601f191660200189611184565b87523d6000602089013e5b156107c557606086805181010312610618576020860151956102fc6040820161157f565b906001600160a01b03906103129060600161157f565b16906001600160a01b0316610327878a611572565b9a60009b8a1591821580936107bc575b80156107b3575b610499575b60208d8f60a08f8f8f8f8f8f8f7f0f1db6a3e2ea42513b622e250f6464ed3d54a8825900c43f3b74e811046477c59860008051602061167983398151915254917f2d1bb8cbbb4d7783ef4f9001d0b7478185bda33b0093daf501edbebc75bc308355640100000000600160c01b03908c1b169060805160e01c9067ffffffffffffffff60c01b16171760008051602061167983398151915255600180881b03166bffffffffffffffffffffffff871b60008051602061169983398151915254161760008051602061169983398151915255600080516020611659833981519152549063ffffffff871b9060401c1691600180881b03169067ffffffffffffffff60c01b1617176000805160206116598339815191525560405192600180861b038716845263ffffffff60e01b6080511688850152604084015260608301526080820152a16040516001600160a01b039091168152f35b6080516001600160e01b0319166106a0575b5050610624575b8661059d575b876104c6575b808080610343565b6000805160206116d983398151915254604051630b64893d60e31b81526001600160a01b039384166004820152918316602483015260448201899052909892979296929592949293916020918a916064918391600091165af19687156105915760209a7f0f1db6a3e2ea42513b622e250f6464ed3d54a8825900c43f3b74e811046477c59960a099610564575b509a509193959781939597506104be565b610583908d3d8f1161058a575b61057b8183611184565b8101906111a6565b5038610553565b503d610571565b6040513d6000823e3d90fd5b6000805160206116d983398151915254604051632770a7eb60e21b81526001600160a01b038c81166004830152602482018a9052909160209183916044918391600091165af18015610591576105f4575b506104b8565b602090813d831161061d575b61060a8183611184565b8101031261061857386105ee565b600080fd5b503d610600565b6000805160206116d9833981519152546040516323b872dd60e01b81526001600160a01b038c81166004830152306024830152604482018c9052909160209183916064918391600091165af1801561059157610681575b506104b2565b6106999060203d60201161058a5761057b8183611184565b503861067b565b909c5093506001600160a01b03838116908c16146107a2575b6080516001600160e01b03191660009081527fbd11ea486bc2027fd35886fb74ddac0d047d847fe642609550f64c01bbda08c660205260409020546001600160a01b03169b8c90875a9280610732575b50506107239061071d61072b935a90611593565b96611593565b6080516115a0565b38806104ab565b82916020918c60008c61075b604051988996879586946328decbe760e11b8652600486016111be565b03925af180156105915761072b936107239361071d92610783575b509350509050878e610709565b61079b9060203d60201161058a5761057b8183611184565b5038610776565b9a886107ad91611572565b9a6106b9565b508a151561033e565b50891515610337565b6040516391acbad960e01b815260206004820152865160248201819052818860005b8381106108095750508160006044809484010152601f80199101168101030190fd5b602082820181015160448784010152859350016107e7565b634e487b7160e01b600052604160045260246000fd5b6060956102d8565b9092506020813d60201161086b575b8161085b60209383611184565b8101031261061857519138610181565b3d915061084e565b9091506020813d6020116108a0575b8161088f60209383611184565b810103126106185751906020610154565b3d9150610882565b604051635ac85bab60e01b8152600490fd5b346106185760a0366003190112610618576004356001600160a01b038116900361061857602435801515810361061857606435906108f6611605565b7f580a56aff4c8445faf8644f12c3b0f5d37fcb3a8e0a0f9b1b360da94678271dd546001600160a01b039182169116146108a85781600060a060405161093b81611168565b82815282602082015282604082015282606082015282608082015201526040519261096584611168565b600080516020611679833981519152546001600160e01b031960e082901b811686526001600160a01b03602092831c8116928701929092527f2d1bb8cbbb4d7783ef4f9001d0b7478185bda33b0093daf501edbebc75bc30835460408088019190915260008051602061169983398151915254831660608801526000805160206116598339815191525492831660808801529190911b1660a08501526000926110c5575b50604083015190813a8102043a1482151715610ba757610a2b913a0290611572565b60843581106110bd57610a4060843582611593565b905b6084358111156110ab57506000905b7f2d1bb8cbbb4d7783ef4f9001d0b7478185bda33b0093daf501edbebc75bc3087546040516318f498e760e31b81526084356004820152916001600160a01b0390911690602083602481855afa92831561059157600093611077575b5060009260009282610f14575b5084610d6d575b505a9063ffffffff60e01b87511680610bbd575b5050610ae391505a90611593565b6040850151600b810290808204600b1490151715610ba757600a8291041080610b93575b80610b7d575b610b5a577f5ccdbb9578cf919a056cd71ebce19c5b3f46948629c3dd36e79f1b0cea65767d60808585856040519260018060a01b03600435168452602084015260408301526060820152a1005b60449060408601519060405191633958879760e11b835260048301526024820152fd5b5060208501516001600160a01b03161515610b0d565b5084516001600160e01b0319161515610b07565b634e487b7160e01b600052601160045260246000fd5b6000526000805160206116b983398151915260205260406000205490610caf575b84610bea575b80610ad5565b610c0990610c038463ffffffff60e01b8a511692611572565b906115a0565b60208601516001600160a01b0316918215610be4576060870151608088015160a08901516001600160a01b03928316956001600160e01b031990911692909116600160ff1b8414610ba7576000602094610c7c604051988996879586946328decbe760e11b8652860392600486016111be565b03925af191821561059157610ae39215610be457610ca89060203d60201161058a5761057b8183611184565b5086610be4565b8651610cc9906001600160e01b031916610c038684611593565b602087015184906001600160a01b031680610ce6575b5050610bde565b606089015160808a015160a08b01516040516328decbe760e11b8152946020948694909385936000938593610d389391926001600160e01b031916916001600160a01b039081169116600486016111be565b03925af1801561059157610d4e575b8490610cdf565b610d669060203d60201161058a5761057b8183611184565b5087610d47565b7f2d1bb8cbbb4d7783ef4f9001d0b7478185bda33b0093daf501edbebc75bc3087546040516318f498e760e31b81526004810187905292965091925090602090839060249082906001600160a01b03165afa91821561059157600092610ee0575b506000805160206116d98339815191525460405163a9059cbb60e01b81526001600160a01b036004803582169083015260248201859052909284929091602091859116816000816044810103925af192831561059157600093610ec1575b506000805160206116d983398151915254602090610e81906001600160a01b0316610e578585611593565b60405163a9059cbb60e01b8152336004820152602481019190915295869283919082906044820190565b03925af192831561059157610e9b93610ea2575b50611593565b9386610ac1565b610eba9060203d60201161058a5761057b8183611184565b5088610e95565b610ed99060203d60201161058a5761057b8183611184565b5088610e2c565b9091506020813d602011610f0c575b81610efc60209383611184565b8101031261061857519086610dce565b3d9150610eef565b602091965060249450604051948580926318f498e760e31b82528560048301525afa92831561059157600093611043575b506000805160206116d98339815191525460405163a9059cbb60e01b8152336004820152602481018790528491602090829060449082906000906001600160a01b03165af1801561059157611024575b506000805160206116d9833981519152546040516323b872dd60e01b81526001600160a01b036004803582169083015233602483015260448201849052909291602091849116816000816064810103925af191821561059157610ffe92611005575b5086611572565b9487610aba565b61101d9060203d60201161058a5761057b8183611184565b5088610ff7565b61103c9060203d60201161058a5761057b8183611184565b5087610f95565b9092506020813d60201161106f575b8161105f60209383611184565b8101031261061857519186610f45565b3d9150611052565b9092506020813d6020116110a3575b8161109360209383611184565b8101031261061857519186610aad565b3d9150611086565b6110b790608435611593565b90610a51565b600090610a42565b6110d3915060443590611572565b83610a09565b346106185760606110f56110ec3661111e565b929190916111f1565b604080516001600160e01b0319909416845260208401929092526001600160a01b031690820152f35b6080906003190112610618576001600160a01b039060043582811681036106185791602435908116810361061857906044356001600160e01b031981168103610618579060643590565b60c0810190811067ffffffffffffffff82111761082157604052565b90601f8019910116810190811067ffffffffffffffff82111761082157604052565b90816020910312610618575180151581036106185790565b6001600160a01b039182168152911660208201526001600160e01b03199091166040820152606081019190915260800190565b92939160018060a01b039160009583821687526020907fbd11ea486bc2027fd35886fb74ddac0d047d847fe642609550f64c01bbda08c782526040918289205460e01b9463ffffffff60e01b948a8688169788611403575b5050878a168b527fbd11ea486bc2027fd35886fb74ddac0d047d847fe642609550f64c01bbda08c88352848b205460e01b9586169687151590816113f8575b5061129b575b5050505050505050829190565b868b527fbd11ea486bc2027fd35886fb74ddac0d047d847fe642609550f64c01bbda08c5835287858c20541696871515806113b7575b6112dc575b5061128e565b8b526000805160206116b98339815191528352848b2054977fbd11ea486bc2027fd35886fb74ddac0d047d847fe642609550f64c01bbda08c68452858c20541690848911156112d65781156113a757908392918b61134f885197889586948594630b4c676760e11b8652600486016111be565b03915afa92831561139e57508892611381575b5050611379575050503880808080808080806112d6565b945090925090565b6113979250803d1061058a5761057b8183611184565b3880611362565b513d8a823e3d90fd5b5050505050509194509250929190565b506001600160a01b03881660009081527f96806dd98d766f67e82444fc94615c2d202c6291c29cb3f12d9f396f091d960a602052604090205460ff166112d1565b905087141538611288565b8882527fbd11ea486bc2027fd35886fb74ddac0d047d847fe642609550f64c01bbda08c585528987832054169081151580611531575b611444575b50611249565b8983526000805160206116b983398151915286528a8880852054947fbd11ea486bc2027fd35886fb74ddac0d047d847fe642609550f64c01bbda08c68952205416878411611496575b508d925061143e565b801561151f57878f918f8991888a926114c48f5196879586948594630b4c676760e11b8652600486016111be565b03915afa91821561151457916114f7575b506114e6575050503880808061148d565b9c50909a5098975050505050505050565b61150e9150873d891161058a5761057b8183611184565b386114d5565b8a51903d90823e3d90fd5b509c50909a5098975050505050505050565b506001600160a01b03821660009081527f96806dd98d766f67e82444fc94615c2d202c6291c29cb3f12d9f396f091d960a602052604090205460ff16611439565b91908201809211610ba757565b51906001600160a01b038216820361061857565b91908203918211610ba757565b7f75ee1f8ec2f9fcf77a5e91bae172d141fd760dac1761cbe90fbeea078ec4ac889160609163ffffffff60e01b1690816000526000805160206116b98339815191526020526040600020548160406000205560405192835260208301526040820152a1565b601436101580611625575b156116215736601319013560601c90565b3390565b507f580a56aff4c8445faf8644f12c3b0f5d37fcb3a8e0a0f9b1b360da94678271dd546001600160a01b0316331461161056fe2d1bb8cbbb4d7783ef4f9001d0b7478185bda33b0093daf501edbebc75bc30852d1bb8cbbb4d7783ef4f9001d0b7478185bda33b0093daf501edbebc75bc30822d1bb8cbbb4d7783ef4f9001d0b7478185bda33b0093daf501edbebc75bc3084bd11ea486bc2027fd35886fb74ddac0d047d847fe642609550f64c01bbda08c92d1bb8cbbb4d7783ef4f9001d0b7478185bda33b0093daf501edbebc75bc3086a264697066735822122075fec134e36946ad84d235026290e91fe00100440e96d439ab1c600bec068f6c64736f6c63430008110033",
  "devdoc": {
    "kind": "dev",
    "methods": {
      "getPayer(address,address,bytes4,uint256)": {
        "params": {
          "amount_": "The transaction amount.",
          "dapp_": "The Dapp's address.",
          "functionSig_": "The function signature (bytes4).",
          "user_": "The user's address."
        },
        "returns": {
          "_0": "The payer's address."
        }
      },
      "postExecute(address,bool,uint256,uint256,uint256)": {
        "details": "Executes a transaction and handles Zbyte-related operations.",
        "params": {
          "executeResult_": "A boolean indicating the success of the execution.",
          "gasConsumedEth_": "The amount of Ether consumed for gas during execution.",
          "payer_": "The address of the payer initiating the execution.",
          "preChargeEth_": "The amount of Ether charged before execution. This function can only be called by the `onlyForwarder` modifier.",
          "reqValue_": "The amount of Ether sent with the execution request."
        }
      },
      "preExecute(address,address,bytes4,uint256)": {
        "params": {
          "dapp_": "The Dapp's address.",
          "ethChargeAmount_": "The Ether amount to charge.",
          "functionSig_": "The function signature (bytes4).",
          "user_": "The user's address."
        }
      }
    },
    "title": "Zbyte DPlat Payment Facet",
    "version": 1
  },
  "userdoc": {
    "errors": {
      "GetRoyaltyFeeInZbyteFailed(bytes)": [
        {
          "notice": "errorError(0x91acbad9) Error details for getRoyaltyFee failure."
        }
      ],
      "NotAForwarder()": [
        {
          "notice": "error (0x5ac85bab): Caller is not a forwarder"
        }
      ],
      "UnusualGasUsageForEnterprisePolicy(uint256,uint256)": [
        {
          "notice": "Error(0x72b10f2e) Error unusal gas usage for enterprise policy updation."
        }
      ]
    },
    "events": {
      "PostExecFees(address,uint256,uint256,uint256)": {
        "notice": "Event(0x5ccdbb95) Address of the payer, Pre Exec charge, Post Exec Charge, Refund if neccessary"
      },
      "PreExecFees(address,bytes4,uint256,uint256,uint256)": {
        "notice": "eventsEvent(0x0f1db6a3) Address of the payer, enterprise hash, DPlat, Infra and Royalty Fee"
      }
    },
    "kind": "user",
    "methods": {
      "getPayer(address,address,bytes4,uint256)": {
        "notice": "Determines the payer for a transaction.In the absence of an enteprise policy, if a dapp or user is registered with ent, ent will pay for the call, as long as it has balance"
      },
      "preExecute(address,address,bytes4,uint256)": {
        "notice": "Pre Execution (Finds the payer and charges in ZbyteVToken)"
      }
    },
    "version": 1
  },
  "storageLayout": {
    "storage": [],
    "types": null
  }
}