{
  "address": "0x41f266810181A3212F6c4A08322FB2825819f28C",
  "abi": [
    {
      "inputs": [
        {
          "internalType": "address",
          "name": "burner_",
          "type": "address"
        }
      ],
      "stateMutability": "nonpayable",
      "type": "constructor"
    },
    {
      "inputs": [],
      "name": "CannotSendEther",
      "type": "error"
    },
    {
      "inputs": [
        {
          "internalType": "address",
          "name": "",
          "type": "address"
        },
        {
          "internalType": "address",
          "name": "",
          "type": "address"
        },
        {
          "internalType": "address",
          "name": "",
          "type": "address"
        }
      ],
      "name": "InvalidDestroyAddress",
      "type": "error"
    },
    {
      "inputs": [
        {
          "internalType": "address",
          "name": "",
          "type": "address"
        },
        {
          "internalType": "uint256",
          "name": "",
          "type": "uint256"
        },
        {
          "internalType": "uint256",
          "name": "",
          "type": "uint256"
        }
      ],
      "name": "LowRoyaltyBalance",
      "type": "error"
    },
    {
      "inputs": [],
      "name": "ZeroAddress",
      "type": "error"
    },
    {
      "anonymous": false,
      "inputs": [
        {
          "indexed": false,
          "internalType": "bool",
          "name": "",
          "type": "bool"
        }
      ],
      "name": "AllowUserSwapSet",
      "type": "event"
    },
    {
      "anonymous": false,
      "inputs": [
        {
          "indexed": true,
          "internalType": "address",
          "name": "owner",
          "type": "address"
        },
        {
          "indexed": true,
          "internalType": "address",
          "name": "spender",
          "type": "address"
        },
        {
          "indexed": false,
          "internalType": "uint256",
          "name": "value",
          "type": "uint256"
        }
      ],
      "name": "Approval",
      "type": "event"
    },
    {
      "anonymous": false,
      "inputs": [
        {
          "indexed": true,
          "internalType": "address",
          "name": "previousOwner",
          "type": "address"
        },
        {
          "indexed": true,
          "internalType": "address",
          "name": "newOwner",
          "type": "address"
        }
      ],
      "name": "OwnershipTransferred",
      "type": "event"
    },
    {
      "anonymous": false,
      "inputs": [
        {
          "indexed": false,
          "internalType": "address",
          "name": "account",
          "type": "address"
        }
      ],
      "name": "Paused",
      "type": "event"
    },
    {
      "anonymous": false,
      "inputs": [
        {
          "indexed": false,
          "internalType": "address",
          "name": "",
          "type": "address"
        }
      ],
      "name": "PaymasterAddressSet",
      "type": "event"
    },
    {
      "anonymous": false,
      "inputs": [
        {
          "indexed": true,
          "internalType": "bytes4",
          "name": "functionSig",
          "type": "bytes4"
        },
        {
          "indexed": false,
          "internalType": "bool",
          "name": "enabled",
          "type": "bool"
        }
      ],
      "name": "PublicCapabilityUpdated",
      "type": "event"
    },
    {
      "anonymous": false,
      "inputs": [
        {
          "indexed": true,
          "internalType": "uint8",
          "name": "role",
          "type": "uint8"
        },
        {
          "indexed": true,
          "internalType": "bytes4",
          "name": "functionSig",
          "type": "bytes4"
        },
        {
          "indexed": false,
          "internalType": "bool",
          "name": "enabled",
          "type": "bool"
        }
      ],
      "name": "RoleCapabilityUpdated",
      "type": "event"
    },
    {
      "anonymous": false,
      "inputs": [
        {
          "indexed": true,
          "internalType": "address",
          "name": "from",
          "type": "address"
        },
        {
          "indexed": true,
          "internalType": "address",
          "name": "to",
          "type": "address"
        },
        {
          "indexed": false,
          "internalType": "uint256",
          "name": "value",
          "type": "uint256"
        }
      ],
      "name": "Transfer",
      "type": "event"
    },
    {
      "anonymous": false,
      "inputs": [
        {
          "indexed": false,
          "internalType": "address",
          "name": "account",
          "type": "address"
        }
      ],
      "name": "Unpaused",
      "type": "event"
    },
    {
      "anonymous": false,
      "inputs": [
        {
          "indexed": true,
          "internalType": "address",
          "name": "user",
          "type": "address"
        },
        {
          "indexed": true,
          "internalType": "uint8",
          "name": "role",
          "type": "uint8"
        },
        {
          "indexed": false,
          "internalType": "bool",
          "name": "enabled",
          "type": "bool"
        }
      ],
      "name": "UserRoleUpdated",
      "type": "event"
    },
    {
      "anonymous": false,
      "inputs": [
        {
          "indexed": false,
          "internalType": "address",
          "name": "",
          "type": "address"
        }
      ],
      "name": "ZbyteDPlatAddressSet",
      "type": "event"
    },
    {
      "inputs": [
        {
          "internalType": "address",
          "name": "owner",
          "type": "address"
        },
        {
          "internalType": "address",
          "name": "spender",
          "type": "address"
        }
      ],
      "name": "allowance",
      "outputs": [
        {
          "internalType": "uint256",
          "name": "",
          "type": "uint256"
        }
      ],
      "stateMutability": "view",
      "type": "function"
    },
    {
      "inputs": [
        {
          "internalType": "address",
          "name": "spender",
          "type": "address"
        },
        {
          "internalType": "uint256",
          "name": "amount",
          "type": "uint256"
        }
      ],
      "name": "approve",
      "outputs": [
        {
          "internalType": "bool",
          "name": "",
          "type": "bool"
        }
      ],
      "stateMutability": "nonpayable",
      "type": "function"
    },
    {
      "inputs": [
        {
          "internalType": "address",
          "name": "account",
          "type": "address"
        }
      ],
      "name": "balanceOf",
      "outputs": [
        {
          "internalType": "uint256",
          "name": "",
          "type": "uint256"
        }
      ],
      "stateMutability": "view",
      "type": "function"
    },
    {
      "inputs": [
        {
          "internalType": "address",
          "name": "from_",
          "type": "address"
        },
        {
          "internalType": "uint256",
          "name": "amount_",
          "type": "uint256"
        }
      ],
      "name": "burn",
      "outputs": [
        {
          "internalType": "uint256",
          "name": "",
          "type": "uint256"
        }
      ],
      "stateMutability": "nonpayable",
      "type": "function"
    },
    {
      "inputs": [
        {
          "internalType": "address",
          "name": "user",
          "type": "address"
        },
        {
          "internalType": "bytes4",
          "name": "functionSig",
          "type": "bytes4"
        }
      ],
      "name": "canCall",
      "outputs": [
        {
          "internalType": "bool",
          "name": "",
          "type": "bool"
        }
      ],
      "stateMutability": "view",
      "type": "function"
    },
    {
      "inputs": [],
      "name": "decimals",
      "outputs": [
        {
          "internalType": "uint8",
          "name": "",
          "type": "uint8"
        }
      ],
      "stateMutability": "view",
      "type": "function"
    },
    {
      "inputs": [
        {
          "internalType": "address",
          "name": "spender",
          "type": "address"
        },
        {
          "internalType": "uint256",
          "name": "subtractedValue",
          "type": "uint256"
        }
      ],
      "name": "decreaseAllowance",
      "outputs": [
        {
          "internalType": "bool",
          "name": "",
          "type": "bool"
        }
      ],
      "stateMutability": "nonpayable",
      "type": "function"
    },
    {
      "inputs": [
        {
          "internalType": "address",
          "name": "from_",
          "type": "address"
        }
      ],
      "name": "destroy",
      "outputs": [
        {
          "internalType": "uint256",
          "name": "",
          "type": "uint256"
        }
      ],
      "stateMutability": "nonpayable",
      "type": "function"
    },
    {
      "inputs": [
        {
          "internalType": "address",
          "name": "from_",
          "type": "address"
        },
        {
          "internalType": "uint256",
          "name": "amount_",
          "type": "uint256"
        }
      ],
      "name": "destroyRoyaltyVERC20",
      "outputs": [
        {
          "internalType": "uint256",
          "name": "",
          "type": "uint256"
        }
      ],
      "stateMutability": "nonpayable",
      "type": "function"
    },
    {
      "inputs": [
        {
          "internalType": "uint8",
          "name": "role",
          "type": "uint8"
        },
        {
          "internalType": "bytes4",
          "name": "functionSig",
          "type": "bytes4"
        }
      ],
      "name": "doesRoleHaveCapability",
      "outputs": [
        {
          "internalType": "bool",
          "name": "",
          "type": "bool"
        }
      ],
      "stateMutability": "view",
      "type": "function"
    },
    {
      "inputs": [
        {
          "internalType": "address",
          "name": "user",
          "type": "address"
        },
        {
          "internalType": "uint8",
          "name": "role",
          "type": "uint8"
        }
      ],
      "name": "doesUserHaveRole",
      "outputs": [
        {
          "internalType": "bool",
          "name": "",
          "type": "bool"
        }
      ],
      "stateMutability": "view",
      "type": "function"
    },
    {
      "inputs": [],
      "name": "getOwner",
      "outputs": [
        {
          "internalType": "address",
          "name": "",
          "type": "address"
        }
      ],
      "stateMutability": "nonpayable",
      "type": "function"
    },
    {
      "inputs": [
        {
          "internalType": "address",
          "name": "spender",
          "type": "address"
        },
        {
          "internalType": "uint256",
          "name": "addedValue",
          "type": "uint256"
        }
      ],
      "name": "increaseAllowance",
      "outputs": [
        {
          "internalType": "bool",
          "name": "",
          "type": "bool"
        }
      ],
      "stateMutability": "nonpayable",
      "type": "function"
    },
    {
      "inputs": [
        {
          "internalType": "address",
          "name": "to_",
          "type": "address"
        },
        {
          "internalType": "uint256",
          "name": "amount_",
          "type": "uint256"
        }
      ],
      "name": "mint",
      "outputs": [
        {
          "internalType": "uint256",
          "name": "",
          "type": "uint256"
        }
      ],
      "stateMutability": "nonpayable",
      "type": "function"
    },
    {
      "inputs": [],
      "name": "name",
      "outputs": [
        {
          "internalType": "string",
          "name": "",
          "type": "string"
        }
      ],
      "stateMutability": "view",
      "type": "function"
    },
    {
      "inputs": [],
      "name": "owner",
      "outputs": [
        {
          "internalType": "address",
          "name": "",
          "type": "address"
        }
      ],
      "stateMutability": "view",
      "type": "function"
    },
    {
      "inputs": [],
      "name": "pause",
      "outputs": [],
      "stateMutability": "nonpayable",
      "type": "function"
    },
    {
      "inputs": [],
      "name": "paused",
      "outputs": [
        {
          "internalType": "bool",
          "name": "",
          "type": "bool"
        }
      ],
      "stateMutability": "view",
      "type": "function"
    },
    {
      "inputs": [],
      "name": "renounceOwnership",
      "outputs": [],
      "stateMutability": "nonpayable",
      "type": "function"
    },
    {
      "inputs": [
        {
          "internalType": "address",
          "name": "",
          "type": "address"
        }
      ],
      "name": "royaltyBalance",
      "outputs": [
        {
          "internalType": "uint256",
          "name": "",
          "type": "uint256"
        }
      ],
      "stateMutability": "view",
      "type": "function"
    },
    {
      "inputs": [
        {
          "internalType": "address",
          "name": "from_",
          "type": "address"
        },
        {
          "internalType": "address",
          "name": "to_",
          "type": "address"
        },
        {
          "internalType": "uint256",
          "name": "value_",
          "type": "uint256"
        }
      ],
      "name": "royaltyTransferFrom",
      "outputs": [
        {
          "internalType": "bool",
          "name": "",
          "type": "bool"
        }
      ],
      "stateMutability": "nonpayable",
      "type": "function"
    },
    {
      "inputs": [
        {
          "internalType": "bool",
          "name": "allowUserSwap_",
          "type": "bool"
        }
      ],
      "name": "setAllowUserSwap",
      "outputs": [],
      "stateMutability": "nonpayable",
      "type": "function"
    },
    {
      "inputs": [
        {
          "internalType": "address",
          "name": "paymaster_",
          "type": "address"
        }
      ],
      "name": "setPaymasterAddress",
      "outputs": [],
      "stateMutability": "nonpayable",
      "type": "function"
    },
    {
      "inputs": [
        {
          "internalType": "bytes4",
          "name": "functionSig",
          "type": "bytes4"
        },
        {
          "internalType": "bool",
          "name": "enabled",
          "type": "bool"
        }
      ],
      "name": "setPublicCapability",
      "outputs": [],
      "stateMutability": "nonpayable",
      "type": "function"
    },
    {
      "inputs": [
        {
          "internalType": "uint8",
          "name": "role",
          "type": "uint8"
        },
        {
          "internalType": "bytes4",
          "name": "functionSig",
          "type": "bytes4"
        },
        {
          "internalType": "bool",
          "name": "enabled",
          "type": "bool"
        }
      ],
      "name": "setRoleCapability",
      "outputs": [],
      "stateMutability": "nonpayable",
      "type": "function"
    },
    {
      "inputs": [
        {
          "internalType": "address",
          "name": "user",
          "type": "address"
        },
        {
          "internalType": "uint8",
          "name": "role",
          "type": "uint8"
        },
        {
          "internalType": "bool",
          "name": "enabled",
          "type": "bool"
        }
      ],
      "name": "setUserRole",
      "outputs": [],
      "stateMutability": "nonpayable",
      "type": "function"
    },
    {
      "inputs": [
        {
          "internalType": "address",
          "name": "dplat_",
          "type": "address"
        }
      ],
      "name": "setZbyteDPlatAddress",
      "outputs": [],
      "stateMutability": "nonpayable",
      "type": "function"
    },
    {
      "inputs": [],
      "name": "symbol",
      "outputs": [
        {
          "internalType": "string",
          "name": "",
          "type": "string"
        }
      ],
      "stateMutability": "view",
      "type": "function"
    },
    {
      "inputs": [],
      "name": "totalSupply",
      "outputs": [
        {
          "internalType": "uint256",
          "name": "",
          "type": "uint256"
        }
      ],
      "stateMutability": "view",
      "type": "function"
    },
    {
      "inputs": [
        {
          "internalType": "address",
          "name": "to_",
          "type": "address"
        },
        {
          "internalType": "uint256",
          "name": "value_",
          "type": "uint256"
        }
      ],
      "name": "transfer",
      "outputs": [
        {
          "internalType": "bool",
          "name": "",
          "type": "bool"
        }
      ],
      "stateMutability": "nonpayable",
      "type": "function"
    },
    {
      "inputs": [
        {
          "internalType": "address",
          "name": "from_",
          "type": "address"
        },
        {
          "internalType": "address",
          "name": "to_",
          "type": "address"
        },
        {
          "internalType": "uint256",
          "name": "value_",
          "type": "uint256"
        }
      ],
      "name": "transferFrom",
      "outputs": [
        {
          "internalType": "bool",
          "name": "",
          "type": "bool"
        }
      ],
      "stateMutability": "nonpayable",
      "type": "function"
    },
    {
      "inputs": [
        {
          "internalType": "address",
          "name": "newOwner",
          "type": "address"
        }
      ],
      "name": "transferOwnership",
      "outputs": [],
      "stateMutability": "nonpayable",
      "type": "function"
    },
    {
      "inputs": [],
      "name": "unpause",
      "outputs": [],
      "stateMutability": "nonpayable",
      "type": "function"
    },
    {
      "stateMutability": "payable",
      "type": "receive"
    }
  ],
  "transactionHash": "0x2429b6bbce01499baea4a0da26b42853026c8a6f9e1146b69e2d50578a458d42",
  "args": [
    "0x482DCfE6d7454A9fD726ED2EcC81A221898dE28E"
  ],
  "numDeployments": 1,
  "solcInputHash": "e67aaade3ce54eefff91fdef20cb9e9e",
  "bytecode": "0x6080346200039a57601f90601f19906001600160401b0362001cea3881900385810185168401838111858210176200039f578492829160405283396020938491810103126200039a57516001600160a01b0380821695909390918690036200039a576200006b620003b5565b936006855265765a6279746560d01b8286015262000088620003b5565b91600596878452641d9690965560da1b82850152600092835490339082167f8be0079c531659141344cd1fd0a4f28419497f9722a3daafe3b4186f6b6457e08680a36001600160a81b0319163360ff60a01b1916178355865186811162000386576004908154986001998a81811c911680156200037b575b86821014620003685790818984931162000315575b508590898311600114620002b4578792620002a8575b5050600019600383901b1c191690891b1781555b845196871162000295578854908882811c921680156200028a575b8483101462000277575085811162000231575b5081948611600114620001cb57505091839491849394620001bf575b50501b916000199060031b1c19161790555b600680546001600160a01b0319169190911790556040516119149081620003d68239f35b01519250388062000189565b8783528183209493928692918316915b88838310620002165750505010620001fc575b505050811b0190556200019b565b015160001960f88460031b161c19169055388080620001ee565b858701518855909601959485019487935090810190620001db565b888452828420868089018b1c820192858a106200026d575b018a1c019088905b828110620002615750506200016d565b85815501889062000251565b9250819262000249565b634e487b7160e01b855260229052602484fd5b91607f16916200015a565b634e487b7160e01b845260419052602483fd5b0151905038806200012b565b90858c94169185895287892092895b89828210620002fe5750508411620002e4575b505050811b0181556200013f565b015160001960f88460031b161c19169055388080620002d6565b8385015186558f97909501949384019301620002c3565b909150838752858720898d818601901c8201928886106200035e575b918e8e928796959401901c01915b8281106200034f57505062000115565b8981558594508d91016200033f565b9250819262000331565b634e487b7160e01b875260228452602487fd5b90607f169062000100565b634e487b7160e01b84526041600452602484fd5b600080fd5b634e487b7160e01b600052604160045260246000fd5b60408051919082016001600160401b038111838210176200039f5760405256fe60406080815260049081361015610029575b361561001c57600080fd5b5163bf06461960e01b8152fd5b600080358060e01c908162f55d9d1461103f57816306fdde0314610f49578163095ea7b314610f1f5781630ea9b75b14610e5257816315511e8c14610da357816318160ddd14610d8457816323b872dd14610d45578163313ce56714610d295781633950935114610cd95781633f4ba83a14610c6357816340c10f1914610b2c5781634b5159da14610a7d57816354a4837c14610a035781635b2449e8146109905781635c975abb1461096b57816367aff4841461088857816370a0823114610850578163715018a6146107f25781637cfc2db4146107755781638456cb59146106f857816386bed3e0146106c1578163893d20e8146106995781638da5cb5b14610699578163952878ad1461060e57816395d89b411461050b5781639dc29fac146104af578163a31bae8214610477578163a457c2d7146103cf578163a9059cbb1461037057508063dd62ed3e1461031c578063e688747b146102c5578063ea7ca2761461026c5763f2fde38b146101a25750610011565b9134610268576020366003190112610268576101bc611164565b83546001600160a01b038082169391926101d7338614611243565b169384156102165750506001600160a01b031916821783557f8be0079c531659141344cd1fd0a4f28419497f9722a3daafe3b4186f6b6457e08380a380f35b906020608492519162461bcd60e51b8352820152602660248201527f4f776e61626c653a206e6577206f776e657220697320746865207a65726f206160448201526564647265737360d01b6064820152fd5b8280fd5b5090346102c157806003193601126102c1579060018260ff60209461028f611164565b946102986111d8565b95858060a01b0316815260008051602061189f83398151915287522054915193161c1615158152f35b5080fd5b5090346102c157806003193601126102c1579060018260ff6020946102e86111c8565b946001600160e01b03196102fa6111e8565b1681526000805160206118bf83398151915287522054915193161c1615158152f35b5090346102c157806003193601126102c157610336611164565b6001600160a01b03602435818116929083900361036c579160209491849316825260028552828220908252845220549051908152f35b8480fd5b839150346102685781600319360112610268576103c8906103be60ff6020956103b36103ae61039d611164565b956001600160e01b031916336117dd565b61146d565b5460a01c16156113eb565b60243590336114a8565b5160018152f35b838584346104745782600319360112610474576103ea611164565b918360243592338152600260205281812060018060a01b0386168252602052205490828210610423576020856103c885850387336112e9565b608490602086519162461bcd60e51b8352820152602560248201527f45524332303a2064656372656173656420616c6c6f77616e63652062656c6f77604482015264207a65726f60d81b6064820152fd5b80fd5b8284346102c15760203660031901126102c15760209181906001600160a01b0361049f611164565b1681526009845220549051908152f35b83915034610268578160031936011261026857906105056103ae926020946104f360ff6104da611164565b926103b360243598899663ffffffff60e01b16336117dd565b6006546001600160a01b0316906114a8565b51908152f35b82858534610268578260031936011261026857805191836005549060019082821c928281168015610604575b60209586861082146105f157508488529081156105cf5750600114610576575b6105728686610568828b038361128e565b519182918261117f565b0390f35b929550600583527f036b6384b5eca791c62761152d0c79bb0604c104a5fb6f4eb0703f3154bb3db05b8284106105bc575050508261057294610568928201019486610557565b805486850188015292860192810161059f565b60ff191687860152505050151560051b83010192506105688261057286610557565b634e487b7160e01b845260229052602483fd5b93607f1693610537565b828585346102685760203660031901126102685761062a611164565b83546001600160a01b0391906106439083163314611243565b1691821561068b5750600880546001600160a01b03191683179055519081527fcdb1d3368616848c1c9d3f5056cc44cb1121bb9d759dc507ebb4dcf89c674c9290602090a180f35b905163d92e233d60e01b8152fd5b8284346102c157816003193601126102c157905490516001600160a01b039091168152602090f35b8284346102c157806003193601126102c1576020906106ef6106e1611164565b6106e96111e8565b906117dd565b90519015158152f35b8284346102c157816003193601126102c15781547f62e78cea01bee320cd4e420270b5ea74000d11b0c9f74754ebdbfc544b05a258916020916107456001600160a01b0382163314611243565b61075e60ff8260a01c1615610759816113eb565b6113eb565b60ff60a01b1916600160a01b17845551338152a180f35b8285853461026857602036600319011261026857610791611164565b83546001600160a01b0391906107aa9083163314611243565b1691821561068b5750600780546001600160a01b03191683179055519081527f24bbce86f9232b036fb3b1b306ccab1cd608eb413bb4fd02f7d8bbe69c527b5b90602090a180f35b8234610474578060031936011261047457805481906001600160a01b0381169061081d338314611243565b6001600160a01b03191682557f8be0079c531659141344cd1fd0a4f28419497f9722a3daafe3b4186f6b6457e08280a380f35b8284346102c15760203660031901126102c15760209181906001600160a01b03610878611164565b1681526001845220549051908152f35b83915034610268576060366003190112610268577f4c9bdd0c8e073eb5eda2250b18d8e5121ff27b62064fbeeeed4869bb99bc5bf2602060ff6108c9611164565b946108d26111d8565b906108f26103ae6108e16111ff565b976001600160e01b03191633611872565b851561093a576001600160a01b038716885260008051602061189f8339815191528452808820805460018486161b1790555b51941515855216936001600160a01b031692a380f35b6001600160a01b038716885260008051602061189f8339815191528452808820805460018486161b19169055610924565b8284346102c157816003193601126102c15760ff6020925460a01c1690519015158152f35b83915034610268576109fa826020946103ae6109df6109c9956109b23661120e565b9881958a9463ffffffff60e09594951b16336117dd565b6109da60ff875460a01c16156113eb565b61161f565b506001600160a01b03168152600986522080549092906112c6565b90555160018152f35b50509134610268576020366003190112610268573590811515809203610268577f5cedee88a2b2484d269eb163953216125d4effb4eadf31ab80946b03789e428d91602091610a5c60018060a01b038654163314611243565b6008805460ff60a01b191660a084901b60ff60a01b1617905551908152a180f35b9050828434610b285781600319360112610b2857359163ffffffff60e01b9182841680940361036c5760243590811515809203610b2457610ae66103ae7f36d28126bef21a4f3765d7fcb7c45cead463ae4c41094ef3b771ede598544103956020951633611872565b8486527f6996f334069c4992c0e877f35c63b0a95f2ee7b8cef053f093cf67dba5d60b9c835280862060ff1981541660ff841617905551908152a280f35b8580fd5b8380fd5b92939050346102c157836003193601126102c157610b48611164565b91610b626103ae6024359563ffffffff60e01b16336117dd565b610b7360ff825460a01c16156113eb565b6008546001600160a01b0390811615610c5357808416928315610c10575091610c0a8587602098969461050596610bac846003546112c6565b60035585825260018b52828220610bc48582546112c6565b905585827fddf252ad1be2c89b69c2b068fc378daa952ba7f163c4a11628f55a4df523b3ef8d8651888152a36008541694815260028a528181208582528a5220546112c6565b916112e9565b606490602088519162461bcd60e51b8352820152601f60248201527f45524332303a206d696e7420746f20746865207a65726f2061646472657373006044820152fd5b855163d92e233d60e01b81528390fd5b8284346102c157816003193601126102c15781547f5db9ee0a495bf2e6ff9c91a7834c1ba4fdd244a5e8aa4e537bd38aeae4b073aa91602091610cb06001600160a01b0382163314611243565b610cc860ff8260a01c16610cc38161142a565b61142a565b60ff60a01b1916845551338152a180f35b8284346102c157806003193601126102c1576103c8602092610d22610cfc611164565b338352600286528483206001600160a01b038216845286529184902054602435906112c6565b90336112e9565b8284346102c157816003193601126102c1576020905160128152f35b83915034610268576103b3610d7c916103ae6109da60ff602097610d683661120e565b979195909663ffffffff60e01b16336117dd565b505160018152f35b8284346102c157816003193601126102c1576020906003549051908152f35b8484849234610b285781600319360112610b2857610dbf611164565b610dd86103ae6024359363ffffffff60e01b16336117dd565b610de960ff865460a01c16156113eb565b6001600160a01b038116808652600960205283862054909190831115610e3457508285826064975260096020522054925193633ed95ea560e01b855284015260248301526044820152fd5b828461050582602094838b20610e4b8382546116be565b90556116cb565b90508234610268576060366003190112610268577fbfe16b2c35ce23dfd1ab0e7b5d086a10060c9b52d1574e1680c881b3b3a2b151602060ff610e936111c8565b94610e9c6111e8565b610ea46111ff565b95610ebc6103ae63ffffffff60e01b80951633611872565b8615610ef55782821689526000805160206118bf83398151915285528089206001858a161b81541790555b51951515865216941692a380f35b82821689526000805160206118bf83398151915285528089206001858a161b198154169055610ee7565b8284346102c157806003193601126102c1576020906103c8610f3f611164565b60243590336112e9565b505090346102c157816003193601126102c157805191809380549160019083821c92828516948515611035575b602095868610811461102257858952908115610ffe5750600114610fa6575b6105728787610568828c038361128e565b81529295507f8a35acfbc15ff81a39ae7d344fd709f28e8600b4aa8c65c6b64bfe7fe36bd19b5b828410610feb57505050826105729461056892820101943880610f95565b8054868501880152928601928101610fcd565b60ff19168887015250505050151560051b8301019250610568826105723880610f95565b634e487b7160e01b845260228352602484fd5b93607f1693610f76565b84939150346102685760209384600319360112610b28576110756103ae611064611164565b936001600160e01b031916336117dd565b61108660ff855460a01c16156113eb565b6007546001600160a01b03838116918116908282148015611157575b8015611148575b1561112157505083516370a0823160e01b8152918201528481602481305afa9384156111165780946110e2575b505082610505916116cb565b909193508482813d831161110f575b6110fb818361128e565b8101031261047457505191610505856110d6565b503d6110f1565b8351903d90823e3d90fd5b60649450918592600654169251936372528e3d60e11b855284015260248301526044820152fd5b5060ff60085460a01c166110a9565b50806006541683146110a2565b600435906001600160a01b038216820361117a57565b600080fd5b6020808252825181830181905290939260005b8281106111b457505060409293506000838284010152601f8019910116010190565b818101860151848201604001528501611192565b6004359060ff8216820361117a57565b6024359060ff8216820361117a57565b602435906001600160e01b03198216820361117a57565b60443590811515820361117a57565b606090600319011261117a576001600160a01b0390600435828116810361117a5791602435908116810361117a579060443590565b1561124a57565b606460405162461bcd60e51b815260206004820152602060248201527f4f776e61626c653a2063616c6c6572206973206e6f7420746865206f776e65726044820152fd5b90601f8019910116810190811067ffffffffffffffff8211176112b057604052565b634e487b7160e01b600052604160045260246000fd5b919082018092116112d357565b634e487b7160e01b600052601160045260246000fd5b6001600160a01b0390811691821561139a571691821561134a5760207f8c5be1e5ebec7d5bd14f71427d1e84f3dd0314c0f7b2291e5b200ac8c7c3b925918360005260028252604060002085600052825280604060002055604051908152a3565b60405162461bcd60e51b815260206004820152602260248201527f45524332303a20617070726f766520746f20746865207a65726f206164647265604482015261737360f01b6064820152608490fd5b60405162461bcd60e51b8152602060048201526024808201527f45524332303a20617070726f76652066726f6d20746865207a65726f206164646044820152637265737360e01b6064820152608490fd5b156113f257565b60405162461bcd60e51b815260206004820152601060248201526f14185d5cd8589b194e881c185d5cd95960821b6044820152606490fd5b1561143157565b60405162461bcd60e51b815260206004820152601460248201527314185d5cd8589b194e881b9bdd081c185d5cd95960621b6044820152606490fd5b1561147457565b60405162461bcd60e51b815260206004820152600c60248201526b15539055551213d49256915160a21b6044820152606490fd5b6001600160a01b039081169182156115cc571691821561157b576000828152600160205260408120549180831061152757604082827fddf252ad1be2c89b69c2b068fc378daa952ba7f163c4a11628f55a4df523b3ef9587602096526001865203828220558681522061151c8282546112c6565b9055604051908152a3565b60405162461bcd60e51b815260206004820152602660248201527f45524332303a207472616e7366657220616d6f756e7420657863656564732062604482015265616c616e636560d01b6064820152608490fd5b60405162461bcd60e51b815260206004820152602360248201527f45524332303a207472616e7366657220746f20746865207a65726f206164647260448201526265737360e81b6064820152608490fd5b60405162461bcd60e51b815260206004820152602560248201527f45524332303a207472616e736665722066726f6d20746865207a65726f206164604482015264647265737360d81b6064820152608490fd5b908261162b91836114a8565b60018060a01b0381166000526002602052604060002033600052602052604060002054918083106116685761166392039033906112e9565b600190565b60405162461bcd60e51b815260206004820152602860248201527f45524332303a207472616e7366657220616d6f756e74206578636565647320616044820152676c6c6f77616e636560c01b6064820152608490fd5b919082039182116112d357565b6001600160a01b0316801561178e578060005260016020526040600020549180831061173e576020817fddf252ad1be2c89b69c2b068fc378daa952ba7f163c4a11628f55a4df523b3ef9260009585875260018452036040862055611732816003546116be565b600355604051908152a3565b60405162461bcd60e51b815260206004820152602260248201527f45524332303a206275726e20616d6f756e7420657863656564732062616c616e604482015261636560f01b6064820152608490fd5b60405162461bcd60e51b815260206004820152602160248201527f45524332303a206275726e2066726f6d20746865207a65726f206164647265736044820152607360f81b6064820152608490fd5b6001600160e01b031990911660008181527f6996f334069c4992c0e877f35c63b0a95f2ee7b8cef053f093cf67dba5d60b9c602052604081205460ff16928315611828575b50505090565b6001600160a01b0316815260008051602061189f83398151915260209081526040808320549383526000805160206118bf8339815191529091529020541615159050388080611822565b9061187d90826117dd565b908115611888575090565b6000546001600160a01b0391821691161491905056fe6996f334069c4992c0e877f35c63b0a95f2ee7b8cef053f093cf67dba5d60b9b6996f334069c4992c0e877f35c63b0a95f2ee7b8cef053f093cf67dba5d60b9da2646970667358221220f781dd02048ee2895f0d0529cc253e6009124f58c2095ce28254c7fbcd06e01b64736f6c63430008110033",
  "devdoc": {
    "details": "The ZBYT vERC20 contract",
    "kind": "dev",
    "methods": {
      "allowance(address,address)": {
        "details": "See {IERC20-allowance}."
      },
      "approve(address,uint256)": {
        "details": "See {IERC20-approve}. Requirements: - `spender` cannot be the zero address."
      },
      "balanceOf(address)": {
        "details": "See {IERC20-balanceOf}."
      },
      "burn(address,uint256)": {
        "details": "requiresAuth ensures that this call can be complely disabled, or only specific accounts can call",
        "params": {
          "amount_": "Amount to burn",
          "from_": "Sender address to burn tokens from"
        }
      },
      "constructor": {
        "params": {
          "burner_": "Burn account address (Tokens are locked here, not destroyed)"
        }
      },
      "decimals()": {
        "details": "Returns the number of decimals used to get its user representation. For example, if `decimals` equals `2`, a balance of `505` tokens should be displayed to a user as `5.05` (`505 / 10 ** 2`). Tokens usually opt for a value of 18, imitating the relationship between Ether and Wei. This is the value {ERC20} uses, unless this function is overridden; NOTE: This information is only used for _display_ purposes: it in no way affects any of the arithmetic of the contract, including {IERC20-balanceOf} and {IERC20-transfer}."
      },
      "decreaseAllowance(address,uint256)": {
        "details": "Atomically decreases the allowance granted to `spender` by the caller. This is an alternative to {approve} that can be used as a mitigation for problems described in {IERC20-approve}. Emits an {Approval} event indicating the updated allowance. Requirements: - `spender` cannot be the zero address. - `spender` must have allowance for the caller of at least `subtractedValue`."
      },
      "destroy(address)": {
        "details": "This is called during withdraw / reconciliation only.  Withdraw is allowed only from the paymaster or burner address",
        "params": {
          "from_": "Paymaster/burner address from which tokens are destroyed"
        }
      },
      "destroyRoyaltyVERC20(address,uint256)": {
        "params": {
          "amount_": "Amount of tokens to be destroyed",
          "from_": "Address from which tokens are destroyed"
        }
      },
      "increaseAllowance(address,uint256)": {
        "details": "Atomically increases the allowance granted to `spender` by the caller. This is an alternative to {approve} that can be used as a mitigation for problems described in {IERC20-approve}. Emits an {Approval} event indicating the updated allowance. Requirements: - `spender` cannot be the zero address."
      },
      "mint(address,uint256)": {
        "details": "The forwarder charges user in this ERC20 token for the contract call.  Approve the tokens to dplat at mint itself.",
        "params": {
          "amount_": "Amount to mint to the address(to_) and approve to dplat",
          "to_": "Receiver address"
        }
      },
      "name()": {
        "details": "Returns the name of the token."
      },
      "owner()": {
        "details": "Returns the address of the current owner."
      },
      "paused()": {
        "details": "Returns true if the contract is paused, and false otherwise."
      },
      "renounceOwnership()": {
        "details": "Leaves the contract without owner. It will not be possible to call `onlyOwner` functions anymore. Can only be called by the current owner. NOTE: Renouncing ownership will leave the contract without an owner, thereby removing any functionality that is only available to the owner."
      },
      "royaltyTransferFrom(address,address,uint256)": {
        "details": "requiresAuth ensures that this call can be complely disabled, or only specific accounts can call  Allowing only specific accounts to perform transferFrom allows controlled transfer of vERC20 in future",
        "params": {
          "from_": "The address to transfer tokens from",
          "to_": "The address to transfer tokens to",
          "value_": "The amount of tokens to transfer"
        }
      },
      "setAllowUserSwap(bool)": {
        "params": {
          "allowUserSwap_": "DPlat contract address"
        }
      },
      "setPaymasterAddress(address)": {
        "params": {
          "paymaster_": "Paymaster contract address"
        }
      },
      "setZbyteDPlatAddress(address)": {
        "params": {
          "dplat_": "DPlat contract address"
        }
      },
      "symbol()": {
        "details": "Returns the symbol of the token, usually a shorter version of the name."
      },
      "totalSupply()": {
        "details": "See {IERC20-totalSupply}."
      },
      "transfer(address,uint256)": {
        "details": "requiresAuth ensures that this call can be complely disabled, or only specific accounts can call",
        "params": {
          "to_": "Receiver account address",
          "value_": "Amount of tokens to be transferred"
        }
      },
      "transferFrom(address,address,uint256)": {
        "details": "requiresAuth ensures that this call can be complely disabled, or only specific accounts can call  Allowing only specific accounts to perform transferFrom allows controlled transfer of vERC20 in future",
        "params": {
          "from_": "The address to transfer tokens from",
          "to_": "The address to transfer tokens to",
          "value_": "The amount of tokens to transfer"
        }
      },
      "transferOwnership(address)": {
        "details": "Transfers ownership of the contract to a new account (`newOwner`). Can only be called by the current owner."
      }
    },
    "title": "The ZBYT vERC20 contract",
    "version": 1
  },
  "userdoc": {
    "errors": {
      "CannotSendEther()": [
        {
          "notice": "error (0xbf064619): Contract cannot receive ether"
        }
      ],
      "InvalidDestroyAddress(address,address,address)": [
        {
          "notice": "error (b034fa06): The address sent for destroy is not valid"
        }
      ],
      "LowRoyaltyBalance(address,uint256,uint256)": [
        {
          "notice": "error (0x3ed95ea5): Address, current balance and amount be transferred"
        }
      ],
      "ZeroAddress()": [
        {
          "notice": "error (0xd92e233d): Address is address(0)"
        }
      ]
    },
    "events": {
      "AllowUserSwapSet(bool)": {
        "notice": "event (0x5cedee88) Allow user swap is set"
      },
      "PaymasterAddressSet(address)": {
        "notice": "event (0xa16990bf) Paymaster address is set"
      },
      "PublicCapabilityUpdated(bytes4,bool)": {
        "notice": "Emitted when a public capability is updated."
      },
      "RoleCapabilityUpdated(uint8,bytes4,bool)": {
        "notice": "Emitted when a role capability is updated."
      },
      "UserRoleUpdated(address,uint8,bool)": {
        "notice": "Emitted when a user role is updated."
      },
      "ZbyteDPlatAddressSet(address)": {
        "notice": "event (0xcdb1d336) ZbyteDPlat address is set"
      }
    },
    "kind": "user",
    "methods": {
      "burn(address,uint256)": {
        "notice": "Transfer vERC20 to 'burner' address"
      },
      "canCall(address,bytes4)": {
        "notice": "Checks if a user can call a specific function."
      },
      "constructor": {
        "notice": "ZBYT ERC20 constructor"
      },
      "destroy(address)": {
        "notice": "Destroy vERC20"
      },
      "destroyRoyaltyVERC20(address,uint256)": {
        "notice": "Destroy vERC20"
      },
      "doesRoleHaveCapability(uint8,bytes4)": {
        "notice": "Checks if a role has access to a specific capability."
      },
      "doesUserHaveRole(address,uint8)": {
        "notice": "Checks if a user has a specific role."
      },
      "getOwner()": {
        "notice": "Internal function to access the diamond storage."
      },
      "mint(address,uint256)": {
        "notice": "mint vZBYT ERC20"
      },
      "pause()": {
        "notice": "Pauses the contract (mint, transfer and burn operations are paused)"
      },
      "royaltyTransferFrom(address,address,uint256)": {
        "notice": "Transfers tokens from a specified address to another address."
      },
      "setAllowUserSwap(bool)": {
        "notice": "Set allow user swap from vZBYT"
      },
      "setPaymasterAddress(address)": {
        "notice": "Set the paymaster (forwarder) address"
      },
      "setPublicCapability(bytes4,bool)": {
        "notice": "Sets the public access status of a capability."
      },
      "setRoleCapability(uint8,bytes4,bool)": {
        "notice": "Sets the access status of a capability for a specific role."
      },
      "setUserRole(address,uint8,bool)": {
        "notice": "Sets the role of a user."
      },
      "setZbyteDPlatAddress(address)": {
        "notice": "Set the DPlat address"
      },
      "transfer(address,uint256)": {
        "notice": "Transfer vERC20 from caller's account to receiver's account"
      },
      "transferFrom(address,address,uint256)": {
        "notice": "Transfers tokens from a specified address to another address."
      },
      "unpause()": {
        "notice": "Unpauses the paused contract"
      }
    },
    "version": 1
  },
  "storageLayout": {
    "storage": [
      {
        "astId": 7,
        "contract": "contracts/dplat/ZbyteVToken.sol:ZbyteVToken",
        "label": "_owner",
        "offset": 0,
        "slot": "0",
        "type": "t_address"
      },
      {
        "astId": 292,
        "contract": "contracts/dplat/ZbyteVToken.sol:ZbyteVToken",
        "label": "_paused",
        "offset": 20,
        "slot": "0",
        "type": "t_bool"
      },
      {
        "astId": 422,
        "contract": "contracts/dplat/ZbyteVToken.sol:ZbyteVToken",
        "label": "_balances",
        "offset": 0,
        "slot": "1",
        "type": "t_mapping(t_address,t_uint256)"
      },
      {
        "astId": 428,
        "contract": "contracts/dplat/ZbyteVToken.sol:ZbyteVToken",
        "label": "_allowances",
        "offset": 0,
        "slot": "2",
        "type": "t_mapping(t_address,t_mapping(t_address,t_uint256))"
      },
      {
        "astId": 430,
        "contract": "contracts/dplat/ZbyteVToken.sol:ZbyteVToken",
        "label": "_totalSupply",
        "offset": 0,
        "slot": "3",
        "type": "t_uint256"
      },
      {
        "astId": 432,
        "contract": "contracts/dplat/ZbyteVToken.sol:ZbyteVToken",
        "label": "_name",
        "offset": 0,
        "slot": "4",
        "type": "t_string_storage"
      },
      {
        "astId": 434,
        "contract": "contracts/dplat/ZbyteVToken.sol:ZbyteVToken",
        "label": "_symbol",
        "offset": 0,
        "slot": "5",
        "type": "t_string_storage"
      },
      {
        "astId": 6888,
        "contract": "contracts/dplat/ZbyteVToken.sol:ZbyteVToken",
        "label": "burner",
        "offset": 0,
        "slot": "6",
        "type": "t_address"
      },
      {
        "astId": 6890,
        "contract": "contracts/dplat/ZbyteVToken.sol:ZbyteVToken",
        "label": "paymaster",
        "offset": 0,
        "slot": "7",
        "type": "t_address"
      },
      {
        "astId": 6892,
        "contract": "contracts/dplat/ZbyteVToken.sol:ZbyteVToken",
        "label": "dplat",
        "offset": 0,
        "slot": "8",
        "type": "t_address"
      },
      {
        "astId": 6894,
        "contract": "contracts/dplat/ZbyteVToken.sol:ZbyteVToken",
        "label": "allowUserSwap",
        "offset": 20,
        "slot": "8",
        "type": "t_bool"
      },
      {
        "astId": 6898,
        "contract": "contracts/dplat/ZbyteVToken.sol:ZbyteVToken",
        "label": "royaltyBalance",
        "offset": 0,
        "slot": "9",
        "type": "t_mapping(t_address,t_uint256)"
      }
    ],
    "types": {
      "t_address": {
        "encoding": "inplace",
        "label": "address",
        "numberOfBytes": "20"
      },
      "t_bool": {
        "encoding": "inplace",
        "label": "bool",
        "numberOfBytes": "1"
      },
      "t_mapping(t_address,t_mapping(t_address,t_uint256))": {
        "encoding": "mapping",
        "key": "t_address",
        "label": "mapping(address => mapping(address => uint256))",
        "numberOfBytes": "32",
        "value": "t_mapping(t_address,t_uint256)"
      },
      "t_mapping(t_address,t_uint256)": {
        "encoding": "mapping",
        "key": "t_address",
        "label": "mapping(address => uint256)",
        "numberOfBytes": "32",
        "value": "t_uint256"
      },
      "t_string_storage": {
        "encoding": "bytes",
        "label": "string",
        "numberOfBytes": "32"
      },
      "t_uint256": {
        "encoding": "inplace",
        "label": "uint256",
        "numberOfBytes": "32"
      }
    }
  }
}