{
  "address": "0xf93fA0E181705E9803583C5d56713Ae1A257dF3b",
  "abi": [
    {
      "inputs": [
        {
          "internalType": "address",
          "name": "forwarder_",
          "type": "address"
        }
      ],
      "stateMutability": "nonpayable",
      "type": "constructor"
    },
    {
      "inputs": [
        {
          "internalType": "address",
          "name": "",
          "type": "address"
        },
        {
          "internalType": "address",
          "name": "",
          "type": "address"
        }
      ],
      "name": "CallerNotEscrow",
      "type": "error"
    },
    {
      "inputs": [],
      "name": "CannotSendEther",
      "type": "error"
    },
    {
      "inputs": [],
      "name": "InvalidCallBackContract",
      "type": "error"
    },
    {
      "inputs": [
        {
          "internalType": "uint256",
          "name": "",
          "type": "uint256"
        },
        {
          "internalType": "address",
          "name": "",
          "type": "address"
        },
        {
          "internalType": "address",
          "name": "",
          "type": "address"
        }
      ],
      "name": "RelayContractNotSet",
      "type": "error"
    },
    {
      "inputs": [],
      "name": "ZeroAddress",
      "type": "error"
    },
    {
      "inputs": [],
      "name": "ZeroValue",
      "type": "error"
    },
    {
      "anonymous": false,
      "inputs": [
        {
          "indexed": false,
          "internalType": "address",
          "name": "",
          "type": "address"
        }
      ],
      "name": "EscrowAddressSet",
      "type": "event"
    },
    {
      "anonymous": false,
      "inputs": [
        {
          "indexed": false,
          "internalType": "address",
          "name": "",
          "type": "address"
        },
        {
          "indexed": false,
          "internalType": "address",
          "name": "",
          "type": "address"
        }
      ],
      "name": "ForwarderSet",
      "type": "event"
    },
    {
      "anonymous": false,
      "inputs": [
        {
          "indexed": true,
          "internalType": "address",
          "name": "previousOwner",
          "type": "address"
        },
        {
          "indexed": true,
          "internalType": "address",
          "name": "newOwner",
          "type": "address"
        }
      ],
      "name": "OwnershipTransferred",
      "type": "event"
    },
    {
      "anonymous": false,
      "inputs": [
        {
          "indexed": false,
          "internalType": "address",
          "name": "account",
          "type": "address"
        }
      ],
      "name": "Paused",
      "type": "event"
    },
    {
      "anonymous": false,
      "inputs": [
        {
          "indexed": false,
          "internalType": "uint256",
          "name": "",
          "type": "uint256"
        },
        {
          "indexed": false,
          "internalType": "uint256",
          "name": "",
          "type": "uint256"
        },
        {
          "indexed": false,
          "internalType": "address",
          "name": "",
          "type": "address"
        }
      ],
      "name": "RelayAddressSet",
      "type": "event"
    },
    {
      "anonymous": false,
      "inputs": [
        {
          "indexed": false,
          "internalType": "address",
          "name": "account",
          "type": "address"
        }
      ],
      "name": "Unpaused",
      "type": "event"
    },
    {
      "inputs": [],
      "name": "escrow",
      "outputs": [
        {
          "internalType": "address",
          "name": "",
          "type": "address"
        }
      ],
      "stateMutability": "view",
      "type": "function"
    },
    {
      "inputs": [
        {
          "internalType": "address",
          "name": "forwarder_",
          "type": "address"
        }
      ],
      "name": "isTrustedForwarder",
      "outputs": [
        {
          "internalType": "bool",
          "name": "",
          "type": "bool"
        }
      ],
      "stateMutability": "view",
      "type": "function"
    },
    {
      "inputs": [
        {
          "internalType": "uint256",
          "name": "chain_",
          "type": "uint256"
        },
        {
          "internalType": "address",
          "name": "relay_",
          "type": "address"
        }
      ],
      "name": "isValidRelay",
      "outputs": [
        {
          "internalType": "bool",
          "name": "",
          "type": "bool"
        }
      ],
      "stateMutability": "view",
      "type": "function"
    },
    {
      "inputs": [],
      "name": "owner",
      "outputs": [
        {
          "internalType": "address",
          "name": "",
          "type": "address"
        }
      ],
      "stateMutability": "view",
      "type": "function"
    },
    {
      "inputs": [],
      "name": "paused",
      "outputs": [
        {
          "internalType": "bool",
          "name": "",
          "type": "bool"
        }
      ],
      "stateMutability": "view",
      "type": "function"
    },
    {
      "inputs": [
        {
          "internalType": "uint256",
          "name": "relayid_",
          "type": "uint256"
        },
        {
          "internalType": "uint256",
          "name": "srcChain_",
          "type": "uint256"
        },
        {
          "internalType": "uint256",
          "name": "destChain_",
          "type": "uint256"
        },
        {
          "internalType": "address",
          "name": "destContract_",
          "type": "address"
        },
        {
          "internalType": "bytes",
          "name": "destCallData_",
          "type": "bytes"
        },
        {
          "internalType": "bytes32",
          "name": "ack_",
          "type": "bytes32"
        },
        {
          "internalType": "address",
          "name": "callbackContract_",
          "type": "address"
        },
        {
          "internalType": "bytes",
          "name": "relayParams_",
          "type": "bytes"
        }
      ],
      "name": "performCrossChainCall",
      "outputs": [
        {
          "internalType": "bool",
          "name": "",
          "type": "bool"
        }
      ],
      "stateMutability": "payable",
      "type": "function"
    },
    {
      "inputs": [
        {
          "internalType": "uint256",
          "name": "",
          "type": "uint256"
        },
        {
          "internalType": "uint256",
          "name": "",
          "type": "uint256"
        }
      ],
      "name": "relayContract",
      "outputs": [
        {
          "internalType": "address",
          "name": "",
          "type": "address"
        }
      ],
      "stateMutability": "view",
      "type": "function"
    },
    {
      "inputs": [],
      "name": "renounceOwnership",
      "outputs": [],
      "stateMutability": "nonpayable",
      "type": "function"
    },
    {
      "inputs": [
        {
          "internalType": "address",
          "name": "escrow_",
          "type": "address"
        }
      ],
      "name": "setEscrowAddress",
      "outputs": [],
      "stateMutability": "nonpayable",
      "type": "function"
    },
    {
      "inputs": [
        {
          "internalType": "uint256",
          "name": "chain_",
          "type": "uint256"
        },
        {
          "internalType": "uint256",
          "name": "relayid_",
          "type": "uint256"
        },
        {
          "internalType": "address",
          "name": "relay_",
          "type": "address"
        }
      ],
      "name": "setRelayAddress",
      "outputs": [],
      "stateMutability": "nonpayable",
      "type": "function"
    },
    {
      "inputs": [
        {
          "internalType": "address",
          "name": "forwarder_",
          "type": "address"
        }
      ],
      "name": "setTrustedForwarder",
      "outputs": [],
      "stateMutability": "nonpayable",
      "type": "function"
    },
    {
      "inputs": [
        {
          "internalType": "address",
          "name": "newOwner",
          "type": "address"
        }
      ],
      "name": "transferOwnership",
      "outputs": [],
      "stateMutability": "nonpayable",
      "type": "function"
    },
    {
      "inputs": [
        {
          "internalType": "uint256",
          "name": "destChain_",
          "type": "uint256"
        },
        {
          "internalType": "address",
          "name": "destContract_",
          "type": "address"
        },
        {
          "internalType": "bytes32",
          "name": "ack_",
          "type": "bytes32"
        },
        {
          "internalType": "address",
          "name": "callbackContract_",
          "type": "address"
        },
        {
          "internalType": "bytes",
          "name": "data_",
          "type": "bytes"
        }
      ],
      "name": "updatePayload",
      "outputs": [
        {
          "internalType": "bytes",
          "name": "",
          "type": "bytes"
        }
      ],
      "stateMutability": "pure",
      "type": "function"
    }
  ],
  "transactionHash": "0x5e63d17e1b1494d40e80f6f9ce882e75fce678ff08e9c293a7edac6379d669a8",
  "args": [
    "0xd9CC83B69b6871c46Fc9F7902987c0cC8146Bb05"
  ],
  "numDeployments": 1,
  "solcInputHash": "8a3f210ebc58bf3454af88b7a958a338",
  "bytecode": "0x60803461010757601f610bea38819003918201601f19168301916001600160401b0383118484101761010c5780849260209460405283398101031261010757516001600160a01b0390818116908190036101075761005b610122565b82600054911660405191818582167f8be0079c531659141344cd1fd0a4f28419497f9722a3daafe3b4186f6b6457e0600080a36001600160a81b0319161760005581156100f857600180546001600160a01b031981168417909155604080519185168252602082018490527f94aed472e01353526c04ec91cee149d41e78d848ec851c72be532bf7b120bd3091a1604051610aa390816101478239f35b63d92e233d60e01b8152600490fd5b600080fd5b634e487b7160e01b600052604160045260246000fd5b600154336001600160a01b03909116036101425736601319013560601c90565b339056fe6040608081526004908136101561001557600080fd5b600091823560e01c806322fd683c146106a2578063572b6c051461066e5780635aa00239146106335780635c975abb1461060e578063715018a6146105a557806380516ec9146103a35780638da5cb5b1461037b578063b43159101461034a578063d50909bf146102d4578063da74222814610239578063ddeb63b5146101a9578063e2fdcc17146101825763f2fde38b146100b057600080fd5b3461017e57602036600319011261017e576100c96107ef565b83546001600160a01b038082169391926100ed826100e5610a49565b1686146108a4565b1693841561012c5750506001600160a01b031916821783557f8be0079c531659141344cd1fd0a4f28419497f9722a3daafe3b4186f6b6457e08380a380f35b906020608492519162461bcd60e51b8352820152602660248201527f4f776e61626c653a206e6577206f776e657220697320746865207a65726f206160448201526564647265737360d01b6064820152fd5b8280fd5b503461017e578260031936011261017e575490516001600160a01b03909116815260209150f35b50903461017e57602036600319011261017e576101c46107ef565b83546001600160a01b0391906101e6908316836101df610a49565b16146108a4565b1691821561022b5780546001600160a01b03191683179055519081527f14229a64f0a7328601813f0f794bb1dbc59363f1ed61c2f957d00517e6140e1890602090a180f35b905163d92e233d60e01b8152fd5b509190346102d05760203660031901126102d0576102556107ef565b9260018060a01b039161026e83855416846101df610a49565b82851691821561022b5750600180546001600160a01b03198116939093179055516001600160a01b03929091168216815292166020830152907f94aed472e01353526c04ec91cee149d41e78d848ec851c72be532bf7b120bd3090604090a180f35b5080fd5b5091346103475760a0366003190112610347576102ef610820565b906102f861080a565b906084359067ffffffffffffffff821161034757509161034394916103236103309436908501610836565b93909260443591356109e7565b9051918291602083526020830190610864565b0390f35b80fd5b5091346103475781600319360112610347575061037260209261036b610820565b903561091d565b90519015158152f35b5050346102d057816003193601126102d057905490516001600160a01b039091168152602090f35b509061010036600319011261017e578135604435936103c061080a565b9467ffffffffffffffff906084358281116105a1576103e29036908801610836565b6001600160a01b03929160c43560a43585821680830361059d5760e435888111610599578c61041391369101610836565b5050868c81610420610a49565b915416918291160361056c57508115159081610563575b5061055357602435885260209b8c96600288528b8a208b8b5288526002818d8c20541698888c52528d8c8b20908c8c52528b8a205416998715801561054b575b610529575061049589979587958f94958a99966104c2958b986109e7565b8b519a8b93840195635919737360e01b875260248501526044840152606060648401526084830190610864565b03976104d6601f19998a81018352826109af565b51925af1943d15610520573d91821161050d57506104fd86855194601f84011601846109af565b8252843d92013e5b519015158152f35b634e487b7160e01b835260419052602482fd5b50505050610505565b8c8b896064938f519363044e151f60e11b855284015260248301526044820152fd5b508a15610477565b8951630776cc3d60e51b81528b90fd5b90501538610437565b8b51635c87504d60e01b815233818f019081526001600160a01b0390921660208301529081906040010390fd5b8980fd5b8880fd5b8380fd5b8334610347578060031936011261034757805481906001600160a01b0380821691906105db906105d3610a49565b1683146108a4565b6001600160a01b03191682557f8be0079c531659141344cd1fd0a4f28419497f9722a3daafe3b4186f6b6457e08280a380f35b5050346102d057816003193601126102d05760ff6020925460a01c1690519015158152f35b503461017e578160031936011261017e573582526002602090815281832060243584528152918190205490516001600160a01b039091168152f35b5050346102d05760203660031901126102d05760209061068c6107ef565b60018060a01b0380600154169116149051908152f35b509190346102d05760603660031901126102d0576001600160a01b039280359160443585811692602435918490036107eb576106e487875416886101df610a49565b848652602096600288528387208388528852838720541615610759575b5083855260028652818520818652865281852080546001600160a01b031916841790558151938452838601528201527fbe32fe92368bc5db6941846934481367f45c01cc80390b96c25180c34809eaab90606090a180f35b9584865260038152828620805490680100000000000000008210156107d8577fbe32fe92368bc5db6941846934481367f45c01cc80390b96c25180c34809eaab979850926107b48260609897969560018496950181556108ef565b819291549060031b600019811b9283911b1691191617905596955090919293610701565b634e487b7160e01b885260418952602488fd5b8580fd5b600435906001600160a01b038216820361080557565b600080fd5b606435906001600160a01b038216820361080557565b602435906001600160a01b038216820361080557565b9181601f840112156108055782359167ffffffffffffffff8311610805576020838186019501011161080557565b919082519283825260005b848110610890575050826000602080949584010152601f8019910116010190565b60208183018101518483018201520161086f565b156108ab57565b606460405162461bcd60e51b815260206004820152602060248201527f4f776e61626c653a2063616c6c6572206973206e6f7420746865206f776e65726044820152fd5b80548210156109075760005260206000200190600090565b634e487b7160e01b600052603260045260246000fd5b919060005b836000526003602081815260409182600020548410156109a45761094984846000206108ef565b90546000898152600285528581209290931b1c825290915220546001600160a01b0383811691161461099c57600019811461098657600101610922565b634e487b7160e01b600052601160045260246000fd5b506001925050565b506000955050505050565b90601f8019910116810190811067ffffffffffffffff8211176109d157604052565b634e487b7160e01b600052604160045260246000fd5b9194610a4694819260e095604051988996602088015260018060a01b038093166040880152606087015216608085015260a0808501528160c0850152848401376000838284010152601f801991011681010360c08101845201826109af565b90565b600154336001600160a01b0390911603610a695736601319013560601c90565b339056fea26469706673582212200924e4cb77661dec320786c6d2acd11b4c988ad520322e82ac64530e1560ed7f64736f6c63430008110033",
  "devdoc": {
    "details": "The Relay wrapper to facilitate ZBYT deposit/mint",
    "kind": "dev",
    "methods": {
      "constructor": {
        "params": {
          "forwarder_": "Forwarder contact address"
        }
      },
      "isTrustedForwarder(address)": {
        "params": {
          "forwarder_": "Address to check"
        },
        "returns": {
          "_0": "true if forwarder_ is trusted forwarder"
        }
      },
      "isValidRelay(uint256,address)": {
        "params": {
          "chain_": "Chain id for which the relay address is set",
          "relay_": "Relay contract Address"
        }
      },
      "owner()": {
        "details": "Returns the address of the current owner."
      },
      "paused()": {
        "details": "Returns true if the contract is paused, and false otherwise."
      },
      "performCrossChainCall(uint256,uint256,uint256,address,bytes,bytes32,address,bytes)": {
        "details": "This function can be called only the the registered escrow contract",
        "params": {
          "ack_": "Unique hash of the cross chain deposit/mint call",
          "callbackContract_": "Address of contract on source chain to handle callback",
          "destCallData_": "Calldata for the call on destination chain",
          "destChain_": "Chain id of destination chain",
          "destContract_": "Address of contract to be called on destination chain",
          "relayParams_": "Additional data that can be sent to the relay",
          "relayid_": "Relay id that should be used for this call",
          "srcChain_": "Chain id of source chain"
        }
      },
      "renounceOwnership()": {
        "details": "Leaves the contract without owner. It will not be possible to call `onlyOwner` functions anymore. Can only be called by the current owner. NOTE: Renouncing ownership will leave the contract without an owner, thereby removing any functionality that is only available to the owner."
      },
      "setEscrowAddress(address)": {
        "params": {
          "escrow_": "Escrow contract address"
        }
      },
      "setRelayAddress(uint256,uint256,address)": {
        "details": "set the relay address to 0 to disable the relay",
        "params": {
          "chain_": "Chain id for which the relay address is set",
          "relay_": "Relay contract Address",
          "relayid_": "Relay id for which relay address is set"
        }
      },
      "setTrustedForwarder(address)": {
        "details": "onlyOwner can call",
        "params": {
          "forwarder_": "Frwarder conract address"
        }
      },
      "transferOwnership(address)": {
        "details": "Transfers ownership of the contract to a new account (`newOwner`). Can only be called by the current owner."
      },
      "updatePayload(uint256,address,bytes32,address,bytes)": {
        "params": {
          "ack_": "Unique hash of the cross chain deposit/mint call",
          "callbackContract_": "Address of contract on source chain to handle callback",
          "data_": "original payload",
          "destChain_": "Chain id of destination chain",
          "destContract_": "Address of contract to be called on destination chain"
        }
      }
    },
    "stateVariables": {
      "relayContract": {
        "details": "relay id is an identifier for relay (e.g., 0 -> zbyte relay, 1 -> axelar, etc)"
      }
    },
    "title": "The Relay wrapper to facilitate ZBYT deposit/mint",
    "version": 1
  },
  "userdoc": {
    "errors": {
      "CallerNotEscrow(address,address)": [
        {
          "notice": "error (0x5c87504d): Caller is not the registered escrow"
        }
      ],
      "CannotSendEther()": [
        {
          "notice": "error (0xbf064619): Contract cannot receive ether"
        }
      ],
      "InvalidCallBackContract()": [
        {
          "notice": "error (0xeed987a0): The callback contract address is 0 but ack is set"
        }
      ],
      "RelayContractNotSet(uint256,address,address)": [
        {
          "notice": "error (0x089c2a3e): The relay contract address is not set for the given relay id"
        }
      ],
      "ZeroAddress()": [
        {
          "notice": "error (0xd92e233d): Address is address(0)"
        }
      ],
      "ZeroValue()": [
        {
          "notice": "error(): Value sent is 0"
        }
      ]
    },
    "events": {
      "EscrowAddressSet(address)": {
        "notice": "error (0x14229a64): Address of escrow contract is set"
      },
      "ForwarderSet(address,address)": {
        "notice": "event (0x94aed472): Forwarder address is changed"
      },
      "RelayAddressSet(uint256,uint256,address)": {
        "notice": "error (0xbe32fe92): Address of Relay is set for given chain id and relay id"
      }
    },
    "kind": "user",
    "methods": {
      "constructor": {
        "notice": "Relay Wrapper constructor"
      },
      "escrow()": {
        "notice": "Registered escrow contract address"
      },
      "isTrustedForwarder(address)": {
        "notice": "Check if the given address is the trusted forwarder"
      },
      "isValidRelay(uint256,address)": {
        "notice": "Verify if given relay is a valid one for the given chain id"
      },
      "performCrossChainCall(uint256,uint256,uint256,address,bytes,bytes32,address,bytes)": {
        "notice": "Initiate the cross chain call for deposit/mint"
      },
      "relayContract(uint256,uint256)": {
        "notice": "mapping of chain id => relay id => relay address"
      },
      "setEscrowAddress(address)": {
        "notice": "Set the address of Escrow contract"
      },
      "setRelayAddress(uint256,uint256,address)": {
        "notice": "Set the address of Relay contract"
      },
      "setTrustedForwarder(address)": {
        "notice": "Set the forwarder contract address"
      },
      "updatePayload(uint256,address,bytes32,address,bytes)": {
        "notice": "Update the payload to include additional information"
      }
    },
    "version": 1
  },
  "storageLayout": {
    "storage": [
      {
        "astId": 7,
        "contract": "contracts/relay/RelayWrapper.sol:RelayWrapper",
        "label": "_owner",
        "offset": 0,
        "slot": "0",
        "type": "t_address"
      },
      {
        "astId": 292,
        "contract": "contracts/relay/RelayWrapper.sol:RelayWrapper",
        "label": "_paused",
        "offset": 20,
        "slot": "0",
        "type": "t_bool"
      },
      {
        "astId": 8359,
        "contract": "contracts/relay/RelayWrapper.sol:RelayWrapper",
        "label": "trustedForwarder",
        "offset": 0,
        "slot": "1",
        "type": "t_address"
      },
      {
        "astId": 6959,
        "contract": "contracts/relay/RelayWrapper.sol:RelayWrapper",
        "label": "relayContract",
        "offset": 0,
        "slot": "2",
        "type": "t_mapping(t_uint256,t_mapping(t_uint256,t_address))"
      },
      {
        "astId": 6965,
        "contract": "contracts/relay/RelayWrapper.sol:RelayWrapper",
        "label": "chainRelays",
        "offset": 0,
        "slot": "3",
        "type": "t_mapping(t_uint256,t_array(t_uint256)dyn_storage)"
      },
      {
        "astId": 6968,
        "contract": "contracts/relay/RelayWrapper.sol:RelayWrapper",
        "label": "escrow",
        "offset": 0,
        "slot": "4",
        "type": "t_address"
      }
    ],
    "types": {
      "t_address": {
        "encoding": "inplace",
        "label": "address",
        "numberOfBytes": "20"
      },
      "t_array(t_uint256)dyn_storage": {
        "base": "t_uint256",
        "encoding": "dynamic_array",
        "label": "uint256[]",
        "numberOfBytes": "32"
      },
      "t_bool": {
        "encoding": "inplace",
        "label": "bool",
        "numberOfBytes": "1"
      },
      "t_mapping(t_uint256,t_address)": {
        "encoding": "mapping",
        "key": "t_uint256",
        "label": "mapping(uint256 => address)",
        "numberOfBytes": "32",
        "value": "t_address"
      },
      "t_mapping(t_uint256,t_array(t_uint256)dyn_storage)": {
        "encoding": "mapping",
        "key": "t_uint256",
        "label": "mapping(uint256 => uint256[])",
        "numberOfBytes": "32",
        "value": "t_array(t_uint256)dyn_storage"
      },
      "t_mapping(t_uint256,t_mapping(t_uint256,t_address))": {
        "encoding": "mapping",
        "key": "t_uint256",
        "label": "mapping(uint256 => mapping(uint256 => address))",
        "numberOfBytes": "32",
        "value": "t_mapping(t_uint256,t_address)"
      },
      "t_uint256": {
        "encoding": "inplace",
        "label": "uint256",
        "numberOfBytes": "32"
      }
    }
  }
}