{
  "address": "0x2620Bb1a64282a5bE7ef6Df8Ecd19e89574B6714",
  "abi": [
    {
      "inputs": [],
      "name": "ZeroAddress",
      "type": "error"
    },
    {
      "anonymous": false,
      "inputs": [
        {
          "indexed": false,
          "internalType": "address",
          "name": "",
          "type": "address"
        }
      ],
      "name": "EscrowAddressSet",
      "type": "event"
    },
    {
      "anonymous": false,
      "inputs": [
        {
          "indexed": true,
          "internalType": "address",
          "name": "previousOwner",
          "type": "address"
        },
        {
          "indexed": true,
          "internalType": "address",
          "name": "newOwner",
          "type": "address"
        }
      ],
      "name": "OwnershipTransferred",
      "type": "event"
    },
    {
      "anonymous": false,
      "inputs": [
        {
          "indexed": false,
          "internalType": "address",
          "name": "",
          "type": "address"
        }
      ],
      "name": "ZbyteAddressSet",
      "type": "event"
    },
    {
      "anonymous": false,
      "inputs": [
        {
          "indexed": false,
          "internalType": "address",
          "name": "",
          "type": "address"
        }
      ],
      "name": "ZbyteTokenForwarderAddressSet",
      "type": "event"
    },
    {
      "inputs": [
        {
          "components": [
            {
              "internalType": "address",
              "name": "from",
              "type": "address"
            },
            {
              "internalType": "address",
              "name": "to",
              "type": "address"
            },
            {
              "internalType": "uint256",
              "name": "value",
              "type": "uint256"
            },
            {
              "internalType": "uint256",
              "name": "gas",
              "type": "uint256"
            },
            {
              "internalType": "uint256",
              "name": "nonce",
              "type": "uint256"
            },
            {
              "internalType": "bytes",
              "name": "data",
              "type": "bytes"
            }
          ],
          "internalType": "struct MinimalForwarder.ForwardRequest",
          "name": "reqApprove_",
          "type": "tuple"
        },
        {
          "internalType": "bytes",
          "name": "signatureApprove_",
          "type": "bytes"
        },
        {
          "components": [
            {
              "internalType": "address",
              "name": "from",
              "type": "address"
            },
            {
              "internalType": "address",
              "name": "to",
              "type": "address"
            },
            {
              "internalType": "uint256",
              "name": "value",
              "type": "uint256"
            },
            {
              "internalType": "uint256",
              "name": "gas",
              "type": "uint256"
            },
            {
              "internalType": "uint256",
              "name": "nonce",
              "type": "uint256"
            },
            {
              "internalType": "bytes",
              "name": "data",
              "type": "bytes"
            }
          ],
          "internalType": "struct MinimalForwarder.ForwardRequest",
          "name": "reqDeposit_",
          "type": "tuple"
        },
        {
          "internalType": "bytes",
          "name": "signatureDeposit_",
          "type": "bytes"
        }
      ],
      "name": "approveAndDeposit",
      "outputs": [
        {
          "internalType": "bool",
          "name": "success",
          "type": "bool"
        }
      ],
      "stateMutability": "payable",
      "type": "function"
    },
    {
      "inputs": [],
      "name": "escrowAddress",
      "outputs": [
        {
          "internalType": "address",
          "name": "",
          "type": "address"
        }
      ],
      "stateMutability": "view",
      "type": "function"
    },
    {
      "inputs": [
        {
          "components": [
            {
              "internalType": "address",
              "name": "from",
              "type": "address"
            },
            {
              "internalType": "address",
              "name": "to",
              "type": "address"
            },
            {
              "internalType": "uint256",
              "name": "value",
              "type": "uint256"
            },
            {
              "internalType": "uint256",
              "name": "gas",
              "type": "uint256"
            },
            {
              "internalType": "uint256",
              "name": "nonce",
              "type": "uint256"
            },
            {
              "internalType": "bytes",
              "name": "data",
              "type": "bytes"
            }
          ],
          "internalType": "struct MinimalForwarder.ForwardRequest",
          "name": "req",
          "type": "tuple"
        },
        {
          "internalType": "bytes",
          "name": "signature",
          "type": "bytes"
        }
      ],
      "name": "execute",
      "outputs": [
        {
          "internalType": "bool",
          "name": "",
          "type": "bool"
        },
        {
          "internalType": "bytes",
          "name": "",
          "type": "bytes"
        }
      ],
      "stateMutability": "payable",
      "type": "function"
    },
    {
      "inputs": [
        {
          "internalType": "address",
          "name": "from",
          "type": "address"
        }
      ],
      "name": "getNonce",
      "outputs": [
        {
          "internalType": "uint256",
          "name": "",
          "type": "uint256"
        }
      ],
      "stateMutability": "view",
      "type": "function"
    },
    {
      "inputs": [],
      "name": "owner",
      "outputs": [
        {
          "internalType": "address",
          "name": "",
          "type": "address"
        }
      ],
      "stateMutability": "view",
      "type": "function"
    },
    {
      "inputs": [],
      "name": "renounceOwnership",
      "outputs": [],
      "stateMutability": "nonpayable",
      "type": "function"
    },
    {
      "inputs": [
        {
          "internalType": "address",
          "name": "escrow_",
          "type": "address"
        }
      ],
      "name": "setEscrowAddress",
      "outputs": [],
      "stateMutability": "nonpayable",
      "type": "function"
    },
    {
      "inputs": [
        {
          "internalType": "address",
          "name": "zbyte_",
          "type": "address"
        }
      ],
      "name": "setZbyteAddress",
      "outputs": [],
      "stateMutability": "nonpayable",
      "type": "function"
    },
    {
      "inputs": [
        {
          "internalType": "address",
          "name": "forwarder_",
          "type": "address"
        }
      ],
      "name": "setZbyteTokenForwarderAddress",
      "outputs": [],
      "stateMutability": "nonpayable",
      "type": "function"
    },
    {
      "inputs": [
        {
          "internalType": "address",
          "name": "newOwner",
          "type": "address"
        }
      ],
      "name": "transferOwnership",
      "outputs": [],
      "stateMutability": "nonpayable",
      "type": "function"
    },
    {
      "inputs": [
        {
          "components": [
            {
              "internalType": "address",
              "name": "from",
              "type": "address"
            },
            {
              "internalType": "address",
              "name": "to",
              "type": "address"
            },
            {
              "internalType": "uint256",
              "name": "value",
              "type": "uint256"
            },
            {
              "internalType": "uint256",
              "name": "gas",
              "type": "uint256"
            },
            {
              "internalType": "uint256",
              "name": "nonce",
              "type": "uint256"
            },
            {
              "internalType": "bytes",
              "name": "data",
              "type": "bytes"
            }
          ],
          "internalType": "struct MinimalForwarder.ForwardRequest",
          "name": "req",
          "type": "tuple"
        },
        {
          "internalType": "bytes",
          "name": "signature",
          "type": "bytes"
        }
      ],
      "name": "verify",
      "outputs": [
        {
          "internalType": "bool",
          "name": "",
          "type": "bool"
        }
      ],
      "stateMutability": "view",
      "type": "function"
    },
    {
      "inputs": [],
      "name": "zByteAddress",
      "outputs": [
        {
          "internalType": "address",
          "name": "",
          "type": "address"
        }
      ],
      "stateMutability": "view",
      "type": "function"
    }
  ],
  "transactionHash": "0xa10eeaf179f27c86c36ebe158661ee467d661edf36f02cb2d2db968620ac9e09",
  "args": [],
  "numDeployments": 1,
  "solcInputHash": "dec431fb01a1869239759cd65d3e7b12",
  "bytecode": "0x610120806040523461018d5761001481610192565b60108152602081016f26b4b734b6b0b62337b93bb0b93232b960811b8152602060405161004081610192565b600580825264302e302e3160d81b9290910191825260008054336001600160a01b03198216811783556040519496929592916001600160a01b03167f8be0079c531659141344cd1fd0a4f28419497f9722a3daafe3b4186f6b6457e08780a35190209320908360c0528160e0524660a05260208101917f8b73c3c69bb8fe3d512ecc4cf759cc79239f7b179b0ffacaa9a75d522b39400f94858452604083015260608201524660808201523060a082015260a0815260c081019281841060018060401b0385111761017957506040839052519020608052610100918252600160025560058054600160a01b600160e01b031916678171e009095ea7b360a01b17905561144391826101c4833960805182610db3015260a05182610d8d015260c05182610e02015260e05182610e2801525181610ddf0152f35b634e487b7160e01b81526041600452602490fd5b600080fd5b604081019081106001600160401b038211176101ad57604052565b634e487b7160e01b600052604160045260246000fdfe60806040526004361015610013575b600080fd5b60003560e01c80630d5defa4146101035780632d0335ab146100fa5780633c7cc47f146100f157806347153f82146100e85780634cbd545b146100df578063715018a6146100d657806388507dd9146100cd5780638da5cb5b146100c4578063bf5d3bdb146100bb578063d91b05ea146100b2578063ddeb63b5146100a95763f2fde38b146100a157600080fd5b61000e61057c565b5061000e6104fc565b5061000e61045f565b5061000e61043b565b5061000e610411565b5061000e6103e7565b5061000e610384565b5061000e610304565b5061000e6102b5565b5061000e61017c565b5061000e61013e565b503461000e57600036600319011261000e576005546040516001600160a01b039091168152602090f35b6001600160a01b0381160361000e57565b503461000e57602036600319011261000e5760043561015c8161012d565b60018060a01b031660005260016020526020604060002054604051908152f35b503461000e57602036600319011261000e5760043561019a8161012d565b6000546001600160a01b0391906101b49083163314610619565b1680156101fc576020817f0a78786348545c2d10229077222badfe195072a03160ed74499017f4b5d81a95926001600160601b0360a01b6004541617600455604051908152a1005b60405163d92e233d60e01b8152600490fd5b908160c091031261000e5790565b9181601f8401121561000e5782359167ffffffffffffffff831161000e576020838186019501011161000e57565b90604060031983011261000e5767ffffffffffffffff60043581811161000e57836102779160040161020e565b9260243591821161000e5761028e9160040161021c565b9091565b60005b8381106102a55750506000910152565b8181015183820152602001610295565b5060606102ca6102c43661024a565b91610964565b919060405192839115158252604060208301526102f68151809281604086015260208686019101610292565b601f01601f19168101030190f35b503461000e57602036600319011261000e576004356103228161012d565b6000546001600160a01b03919061033c9083163314610619565b1680156101fc576020817fa6cc9cbb302218c8a69564f6147ebefe781999970cc7221c7080024ec2a24c86926001600160601b0360a01b6003541617600355604051908152a1005b503461000e576000806003193601126103e457805481906001600160a01b038116906103b1338314610619565b6001600160a01b03191682557f8be0079c531659141344cd1fd0a4f28419497f9722a3daafe3b4186f6b6457e08280a380f35b80fd5b503461000e57600036600319011261000e576003546040516001600160a01b039091168152602090f35b503461000e57600036600319011261000e576000546040516001600160a01b039091168152602090f35b503461000e57602061045561044f3661024a565b91610793565b6040519015158152f35b50608036600319011261000e5767ffffffffffffffff60043581811161000e5761048d90369060040161020e565b9060243581811161000e576104a690369060040161021c565b9260443583811161000e576104bf90369060040161020e565b60643593841161000e576104f8946104de6104e695369060040161021c565b949093610e7c565b60405190151581529081906020820190565b0390f35b503461000e57602036600319011261000e5760043561051a8161012d565b6000546001600160a01b0391906105349083163314610619565b1680156101fc576020817f14229a64f0a7328601813f0f794bb1dbc59363f1ed61c2f957d00517e6140e18926001600160601b0360a01b6005541617600555604051908152a1005b503461000e57602036600319011261000e5760043561059a8161012d565b6000546001600160a01b03906105b39082163314610619565b8116156105c5576105c390610664565b005b60405162461bcd60e51b815260206004820152602660248201527f4f776e61626c653a206e6577206f776e657220697320746865207a65726f206160448201526564647265737360d01b6064820152608490fd5b1561062057565b606460405162461bcd60e51b815260206004820152602060248201527f4f776e61626c653a2063616c6c6572206973206e6f7420746865206f776e65726044820152fd5b600080546001600160a01b039283166001600160a01b03198216811783559216907f8be0079c531659141344cd1fd0a4f28419497f9722a3daafe3b4186f6b6457e09080a3565b356106b58161012d565b90565b903590601e198136030182121561000e570180359067ffffffffffffffff821161000e5760200191813603831361000e57565b50634e487b7160e01b600052604160045260246000fd5b90601f8019910116810190811067ffffffffffffffff82111761072457604052565b61072c6106eb565b604052565b60209067ffffffffffffffff811161074f575b601f01601f19160190565b6107576106eb565b610744565b92919261076882610731565b916107766040519384610702565b82948184528183011161000e578281602093846000960137010152565b91610877906108718435936107a78561012d565b6108696107b6602088016106ab565b876108616080820135986108536107da6107d360a08601866106b8565b369161075c565b602081519101208b604051958694602086019860406060840135930135918a9260c09491979695929760e08501987fdd8f4b70b0f4393e889bd39128a30628a78b61816a9eb8199759e7a349657e48865260018060a01b0380921660208701521660408501526060840152608083015260a08201520152565b03601f198101835282610702565b519020610d34565b92369161075c565b90610a59565b9061089e610884846106ab565b6001600160a01b0316600090815260016020526040902090565b541491826108ab57505090565b6108c69192506108ba906106ab565b6001600160a01b031690565b6001600160a01b039091161490565b90600182018092116108e357565b634e487b7160e01b600052601160045260246000fd5b826014949392823701906001600160601b03199060601b1681520190565b3d15610942573d9061092882610731565b916109366040519384610702565b82523d6000602084013e565b606090565b1561094e57565b634e487b7160e01b600052600160045260246000fd5b92916109709184610793565b156109f95761098260808301356108d5565b61098e610884846106ab565b5560008061099e602085016106ab565b9360406060820135956109b460a08401846106b8565b6109d76109c3869593956106ab565b9161085384519384926020840198896108f9565b519301359087f16109f56109e9610917565b93603f5a910410610947565b9190565b60405162461bcd60e51b815260206004820152603260248201527f4d696e696d616c466f727761726465723a207369676e617475726520646f6573604482015271081b9bdd081b585d18da081c995c5d595cdd60721b6064820152608490fd5b6106b591610a6691610c0f565b919091610a8e565b60051115610a7857565b634e487b7160e01b600052602160045260246000fd5b610a9781610a6e565b80610a9f5750565b610aa881610a6e565b60018103610af55760405162461bcd60e51b815260206004820152601860248201527f45434453413a20696e76616c6964207369676e617475726500000000000000006044820152606490fd5b610afe81610a6e565b60028103610b4b5760405162461bcd60e51b815260206004820152601f60248201527f45434453413a20696e76616c6964207369676e6174757265206c656e677468006044820152606490fd5b610b5481610a6e565b60038103610bac5760405162461bcd60e51b815260206004820152602260248201527f45434453413a20696e76616c6964207369676e6174757265202773272076616c604482015261756560f01b6064820152608490fd5b80610bb8600492610a6e565b14610bbf57565b60405162461bcd60e51b815260206004820152602260248201527f45434453413a20696e76616c6964207369676e6174757265202776272076616c604482015261756560f01b6064820152608490fd5b815160418103610c3857509061028e916020820151906060604084015193015160001a90610c7e565b604003610c6757602082015160409092015161028e926001600160ff1b03821692909160ff1c601b0190610c7e565b5050600090600290565b506040513d6000823e3d90fd5b9291907f7fffffffffffffffffffffffffffffff5d576e7357a4501ddfe92f46681b20a08311610d285760ff16601b81141580610d1d575b610d11579160809493916020936040519384528484015260408301526060820152600093849182805260015afa15610d04575b81516001600160a01b03811615610cfe579190565b50600190565b610d0c610c71565b610ce9565b50505050600090600490565b50601c811415610cb6565b50505050600090600390565b610d3c610d8a565b9060405190602082019261190160f01b845260228301526042820152604281526080810181811067ffffffffffffffff821117610d7d575b60405251902090565b610d856106eb565b610d74565b467f000000000000000000000000000000000000000000000000000000000000000003610dd5577f000000000000000000000000000000000000000000000000000000000000000090565b60405160208101907f000000000000000000000000000000000000000000000000000000000000000082527f000000000000000000000000000000000000000000000000000000000000000060408201527f000000000000000000000000000000000000000000000000000000000000000060608201524660808201523060a082015260a0815260c0810181811067ffffffffffffffff821117610d7d5760405251902090565b949392919094600280541461107f576000610f7692610f5c92610f7b9860028055610f27610ea9836106ab565b610ec9610eb86108ba8b6106ab565b6001600160a01b03928316146110c4565b610ed5602085016106ab565b6003548290610eec906001600160a01b03166108ba565b91161480611049575b80610ffc575b610f049061119e565b610f1060208a016106ab565b600554918083169116149081610fc1575b506111fa565b6004548490610f3e906001600160a01b03166108ba565b926040519687958694859363238a9fc160e11b8552600485016112e7565b03925af1908115610fb4575b600091610f92575b50611397565b610964565b50610f85816113d2565b90610f906001600255565b565b610fad913d8091833e610fa58183610702565b810190611256565b5038610f70565b610fbc610c71565b610f68565b9050610fe2610fdc610fd660a08c018c6106b8565b90611122565b90611141565b6001600160e01b031990811660209290921b161438610f21565b50610f0461102861102261101c61101660a08901896106b8565b90611130565b9061116d565b60601c90565b600554839061103f906001600160a01b03166108ba565b9116149050610efb565b5061105d610fdc610fd660a08701876106b8565b60055460401b6001600160e01b0319166001600160e01b031990911614610ef5565b60405162461bcd60e51b815260206004820152601f60248201527f5265656e7472616e637947756172643a207265656e7472616e742063616c6c006044820152606490fd5b156110cb57565b60405162461bcd60e51b815260206004820152602960248201527f617070726f7665416e644465706f7369743a20496e76616c69642066726f6d2060448201526861646472657373657360b81b6064820152608490fd5b9060041161000e5790600490565b9060241161000e5760100190601490565b6001600160e01b0319903581811693926004811061115e57505050565b60040360031b82901b16169150565b6bffffffffffffffffffffffff19903581811693926014811061118f57505050565b60140360031b82901b16169150565b156111a557565b60405162461bcd60e51b815260206004820152602760248201527f617070726f7665416e644465706f7369743a20496e76616c696420617070726f6044820152667665206461746160c81b6064820152608490fd5b1561120157565b60405162461bcd60e51b815260206004820152602760248201527f617070726f7665416e644465706f7369743a20496e76616c6964206465706f736044820152666974206461746160c81b6064820152608490fd5b919060408382031261000e578251801515810361000e579260208101519067ffffffffffffffff821161000e570181601f8201121561000e57805161129a81610731565b926112a86040519485610702565b8184526020828401011161000e576106b59160208085019101610292565b908060209392818452848401376000828201840152601f01601f1916010190565b9192906040835280356112f98161012d565b6001600160a01b03908116604085015260208201356113178161012d565b16606084015260408101356080840152606081013560a0840152608081013560c084015260a0810135601e198236030181121561000e5701926020843594019367ffffffffffffffff811161000e57803603851361000e576106b5946113899160c060e08701526101008601916112c6565b9260208185039101526112c6565b1561139e57565b60405162461bcd60e51b815260206004820152600c60248201526b105c1c1c9bdd994819985a5b60a21b6044820152606490fd5b156113d957565b60405162461bcd60e51b815260206004820152600c60248201526b11195c1bdcda5d0819985a5b60a21b6044820152606490fdfea2646970667358221220a59bd007dbb10b50de2fb99d68502ee7b4ec598a48c5d40f80f7ed03a65498a264736f6c63430008110033",
  "devdoc": {
    "details": "The Zbyte core forwarder contract.",
    "kind": "dev",
    "methods": {
      "approveAndDeposit((address,address,uint256,uint256,uint256,bytes),bytes,(address,address,uint256,uint256,uint256,bytes),bytes)": {
        "details": "Allows gasless approve+deposit of DPLAT token to be used at https://dplat.zbyte.io",
        "params": {
          "reqApprove_": "ForwardRequest for the approve call",
          "reqDeposit_": "ForwardRequest for the deposit call",
          "signatureApprove_": "Signature of the approve call params",
          "signatureDeposit_": "Signature of the deposit call params"
        },
        "returns": {
          "success": "returns true of approve and deposit are successful"
        }
      },
      "owner()": {
        "details": "Returns the address of the current owner."
      },
      "renounceOwnership()": {
        "details": "Leaves the contract without owner. It will not be possible to call `onlyOwner` functions anymore. Can only be called by the current owner. NOTE: Renouncing ownership will leave the contract without an owner, thereby removing any functionality that is only available to the owner."
      },
      "setEscrowAddress(address)": {
        "params": {
          "escrow_": "Zbyte Escrow contract address"
        }
      },
      "setZbyteAddress(address)": {
        "params": {
          "zbyte_": "DPLAT ERC20 contact address"
        }
      },
      "setZbyteTokenForwarderAddress(address)": {
        "params": {
          "forwarder_": "DPLAT ERC20 forwarder contact address"
        }
      },
      "transferOwnership(address)": {
        "details": "Transfers ownership of the contract to a new account (`newOwner`). Can only be called by the current owner."
      }
    },
    "title": "The Zbyte core forwarder contract",
    "version": 1
  },
  "userdoc": {
    "errors": {
      "ZeroAddress()": [
        {
          "notice": "error (0xd92e233d): Address is address(0)"
        }
      ]
    },
    "events": {
      "EscrowAddressSet(address)": {
        "notice": "event (0x14229a64) Escrow address is set"
      },
      "ZbyteAddressSet(address)": {
        "notice": "event (0xa6cc9cbb): DPLAT address is set"
      },
      "ZbyteTokenForwarderAddressSet(address)": {
        "notice": "event (0x0a787863): Token forwarder address is set"
      }
    },
    "kind": "user",
    "methods": {
      "approveAndDeposit((address,address,uint256,uint256,uint256,bytes),bytes,(address,address,uint256,uint256,uint256,bytes),bytes)": {
        "notice": "Perform approve and depost of Zbyte in single call"
      },
      "escrowAddress()": {
        "notice": "Escrow contract address"
      },
      "setEscrowAddress(address)": {
        "notice": "Set Zbyte Escrow address"
      },
      "setZbyteAddress(address)": {
        "notice": "Set DPLAT ERC20 address"
      },
      "setZbyteTokenForwarderAddress(address)": {
        "notice": "Set DPLAT ERC20 Forwarder address"
      },
      "zByteAddress()": {
        "notice": "DPLAT ERC20 contract address"
      }
    },
    "version": 1
  },
  "storageLayout": {
    "storage": [
      {
        "astId": 7,
        "contract": "contracts/core/ZbyteForwarderCore.sol:ZbyteForwarderCore",
        "label": "_owner",
        "offset": 0,
        "slot": "0",
        "type": "t_address"
      },
      {
        "astId": 135,
        "contract": "contracts/core/ZbyteForwarderCore.sol:ZbyteForwarderCore",
        "label": "_nonces",
        "offset": 0,
        "slot": "1",
        "type": "t_mapping(t_address,t_uint256)"
      },
      {
        "astId": 377,
        "contract": "contracts/core/ZbyteForwarderCore.sol:ZbyteForwarderCore",
        "label": "_status",
        "offset": 0,
        "slot": "2",
        "type": "t_uint256"
      },
      {
        "astId": 3182,
        "contract": "contracts/core/ZbyteForwarderCore.sol:ZbyteForwarderCore",
        "label": "zByteAddress",
        "offset": 0,
        "slot": "3",
        "type": "t_address"
      },
      {
        "astId": 3186,
        "contract": "contracts/core/ZbyteForwarderCore.sol:ZbyteForwarderCore",
        "label": "zbyteTokenForwarder",
        "offset": 0,
        "slot": "4",
        "type": "t_contract(MinimalForwarder)274"
      },
      {
        "astId": 3189,
        "contract": "contracts/core/ZbyteForwarderCore.sol:ZbyteForwarderCore",
        "label": "escrowAddress",
        "offset": 0,
        "slot": "5",
        "type": "t_address"
      },
      {
        "astId": 3197,
        "contract": "contracts/core/ZbyteForwarderCore.sol:ZbyteForwarderCore",
        "label": "approvesig",
        "offset": 20,
        "slot": "5",
        "type": "t_bytes4"
      },
      {
        "astId": 3205,
        "contract": "contracts/core/ZbyteForwarderCore.sol:ZbyteForwarderCore",
        "label": "depositsig",
        "offset": 24,
        "slot": "5",
        "type": "t_bytes4"
      }
    ],
    "types": {
      "t_address": {
        "encoding": "inplace",
        "label": "address",
        "numberOfBytes": "20"
      },
      "t_bytes4": {
        "encoding": "inplace",
        "label": "bytes4",
        "numberOfBytes": "4"
      },
      "t_contract(MinimalForwarder)274": {
        "encoding": "inplace",
        "label": "contract MinimalForwarder",
        "numberOfBytes": "20"
      },
      "t_mapping(t_address,t_uint256)": {
        "encoding": "mapping",
        "key": "t_address",
        "label": "mapping(address => uint256)",
        "numberOfBytes": "32",
        "value": "t_uint256"
      },
      "t_uint256": {
        "encoding": "inplace",
        "label": "uint256",
        "numberOfBytes": "32"
      }
    }
  }
}