{
  "address": "0x508426a8c68A3BaE89E4cc4b4a9c23B02D94924B",
  "abi": [
    {
      "inputs": [
        {
          "internalType": "address",
          "name": "forwarder_",
          "type": "address"
        }
      ],
      "stateMutability": "nonpayable",
      "type": "constructor"
    },
    {
      "inputs": [],
      "name": "CannotSendEther",
      "type": "error"
    },
    {
      "inputs": [
        {
          "internalType": "address",
          "name": "",
          "type": "address"
        }
      ],
      "name": "UnAuthorized",
      "type": "error"
    },
    {
      "inputs": [],
      "name": "ZeroAddress",
      "type": "error"
    },
    {
      "inputs": [],
      "name": "ZeroValue",
      "type": "error"
    },
    {
      "anonymous": false,
      "inputs": [
        {
          "indexed": false,
          "internalType": "uint256",
          "name": "",
          "type": "uint256"
        }
      ],
      "name": "BurnRateInMillSet",
      "type": "event"
    },
    {
      "anonymous": false,
      "inputs": [
        {
          "indexed": false,
          "internalType": "address",
          "name": "",
          "type": "address"
        },
        {
          "indexed": false,
          "internalType": "address",
          "name": "",
          "type": "address"
        }
      ],
      "name": "ForwarderSet",
      "type": "event"
    },
    {
      "anonymous": false,
      "inputs": [
        {
          "indexed": false,
          "internalType": "uint256",
          "name": "nativeEthEquivalentZbyteInGwei",
          "type": "uint256"
        }
      ],
      "name": "NativeEthEquivalentZbyteSet",
      "type": "event"
    },
    {
      "anonymous": false,
      "inputs": [
        {
          "indexed": true,
          "internalType": "address",
          "name": "previousOwner",
          "type": "address"
        },
        {
          "indexed": true,
          "internalType": "address",
          "name": "newOwner",
          "type": "address"
        }
      ],
      "name": "OwnershipTransferred",
      "type": "event"
    },
    {
      "anonymous": false,
      "inputs": [
        {
          "indexed": false,
          "internalType": "address",
          "name": "",
          "type": "address"
        },
        {
          "indexed": false,
          "internalType": "bool",
          "name": "",
          "type": "bool"
        }
      ],
      "name": "WorkerRegistered",
      "type": "event"
    },
    {
      "anonymous": false,
      "inputs": [
        {
          "indexed": false,
          "internalType": "uint256",
          "name": "zbytePriceInGwei",
          "type": "uint256"
        }
      ],
      "name": "ZbytePriceInGweiSet",
      "type": "event"
    },
    {
      "inputs": [
        {
          "internalType": "address",
          "name": "",
          "type": "address"
        }
      ],
      "name": "authorizedWorkers",
      "outputs": [
        {
          "internalType": "bool",
          "name": "",
          "type": "bool"
        }
      ],
      "stateMutability": "view",
      "type": "function"
    },
    {
      "inputs": [],
      "name": "burnRateInMill",
      "outputs": [
        {
          "internalType": "uint256",
          "name": "",
          "type": "uint256"
        }
      ],
      "stateMutability": "view",
      "type": "function"
    },
    {
      "inputs": [
        {
          "internalType": "uint256",
          "name": "ethAmount_",
          "type": "uint256"
        }
      ],
      "name": "convertEthToEquivalentZbyte",
      "outputs": [
        {
          "internalType": "uint256",
          "name": "",
          "type": "uint256"
        }
      ],
      "stateMutability": "view",
      "type": "function"
    },
    {
      "inputs": [
        {
          "internalType": "uint256",
          "name": "priceInMill_",
          "type": "uint256"
        }
      ],
      "name": "convertMillToZbyte",
      "outputs": [
        {
          "internalType": "uint256",
          "name": "",
          "type": "uint256"
        }
      ],
      "stateMutability": "view",
      "type": "function"
    },
    {
      "inputs": [],
      "name": "getDPlatFeeInZbyte",
      "outputs": [
        {
          "internalType": "uint256",
          "name": "",
          "type": "uint256"
        }
      ],
      "stateMutability": "view",
      "type": "function"
    },
    {
      "inputs": [
        {
          "internalType": "address",
          "name": "forwarder_",
          "type": "address"
        }
      ],
      "name": "isTrustedForwarder",
      "outputs": [
        {
          "internalType": "bool",
          "name": "",
          "type": "bool"
        }
      ],
      "stateMutability": "view",
      "type": "function"
    },
    {
      "inputs": [],
      "name": "nativeEthEquivalentZbyteInGwei",
      "outputs": [
        {
          "internalType": "uint256",
          "name": "",
          "type": "uint256"
        }
      ],
      "stateMutability": "view",
      "type": "function"
    },
    {
      "inputs": [],
      "name": "owner",
      "outputs": [
        {
          "internalType": "address",
          "name": "",
          "type": "address"
        }
      ],
      "stateMutability": "view",
      "type": "function"
    },
    {
      "inputs": [
        {
          "internalType": "address",
          "name": "worker_",
          "type": "address"
        },
        {
          "internalType": "bool",
          "name": "register_",
          "type": "bool"
        }
      ],
      "name": "registerWorker",
      "outputs": [],
      "stateMutability": "nonpayable",
      "type": "function"
    },
    {
      "inputs": [],
      "name": "renounceOwnership",
      "outputs": [],
      "stateMutability": "nonpayable",
      "type": "function"
    },
    {
      "inputs": [
        {
          "internalType": "uint256",
          "name": "burnRate_",
          "type": "uint256"
        }
      ],
      "name": "setBurnRateInMill",
      "outputs": [],
      "stateMutability": "nonpayable",
      "type": "function"
    },
    {
      "inputs": [
        {
          "internalType": "uint256",
          "name": "nativeEthEquivalentZbyteInGwei_",
          "type": "uint256"
        }
      ],
      "name": "setNativeEthEquivalentZbyteInGwei",
      "outputs": [],
      "stateMutability": "nonpayable",
      "type": "function"
    },
    {
      "inputs": [
        {
          "internalType": "uint256",
          "name": "nativeEthEquivalentZbyteInGwei_",
          "type": "uint256"
        },
        {
          "internalType": "uint256",
          "name": "zbytePriceInGwei_",
          "type": "uint256"
        }
      ],
      "name": "setPrices",
      "outputs": [],
      "stateMutability": "nonpayable",
      "type": "function"
    },
    {
      "inputs": [
        {
          "internalType": "address",
          "name": "forwarder_",
          "type": "address"
        }
      ],
      "name": "setTrustedForwarder",
      "outputs": [],
      "stateMutability": "nonpayable",
      "type": "function"
    },
    {
      "inputs": [
        {
          "internalType": "uint256",
          "name": "zbytePriceInGwei_",
          "type": "uint256"
        }
      ],
      "name": "setZbytePriceInGwei",
      "outputs": [],
      "stateMutability": "nonpayable",
      "type": "function"
    },
    {
      "inputs": [
        {
          "internalType": "address",
          "name": "newOwner",
          "type": "address"
        }
      ],
      "name": "transferOwnership",
      "outputs": [],
      "stateMutability": "nonpayable",
      "type": "function"
    },
    {
      "inputs": [],
      "name": "zbytePriceEquivalentInGwei",
      "outputs": [
        {
          "internalType": "uint256",
          "name": "",
          "type": "uint256"
        }
      ],
      "stateMutability": "view",
      "type": "function"
    }
  ],
  "transactionHash": "0x6df5473a4ae0758f8c460874577b073e996d943b908f9f06f40c3acfd8a5d48f",
  "args": [
    "0x39F254Ad93eEB3Af9A8317B190d32e89E4CA65a5"
  ],
  "numDeployments": 1,
  "solcInputHash": "dec431fb01a1869239759cd65d3e7b12",
  "bytecode": "0x60803461010057601f61090638819003918201601f19168301916001600160401b038311848410176101055780849260209460405283398101031261010057516001600160a01b0390818116908190036101005761005b61011b565b918060005493169260018060a01b03199380858316176000558260405192167f8be0079c531659141344cd1fd0a4f28419497f9722a3daafe3b4186f6b6457e0600080a382156100f1577f94aed472e01353526c04ec91cee149d41e78d848ec851c72be532bf7b120bd30604085858581600154938416176001558351921682526020820152a16040516107c690816101408239f35b63d92e233d60e01b8152600490fd5b600080fd5b634e487b7160e01b600052604160045260246000fd5b600154336001600160a01b039091160361013b5736601319013560601c90565b339056fe6040608081526004908136101561001557600080fd5b6000803560e01c806301c99f9f1461062357806305fefda71461058457806325e79beb146105655780633936f5fa14610547578063572b6c05146105135780635b8823df146104a5578063715018a61461043c578063803667f11461041d5780638da5cb5b146103f5578063919f4ca3146103b7578063c2ef96ff14610398578063c7a4c73814610368578063da742228146102c8578063dd969b6f14610264578063e2a8ad5b146101d6578063f2fde38b146101025763f6718b4c146100db57600080fd5b346100ff57806003193601126100ff57506100f860209254610742565b9051908152f35b80fd5b5091346101d25760203660031901126101d25761011d6106b3565b83546001600160a01b038082169391926101418261013961076c565b1686146106ce565b169384156101805750506001600160a01b031916821783557f8be0079c531659141344cd1fd0a4f28419497f9722a3daafe3b4186f6b6457e08380a380f35b906020608492519162461bcd60e51b8352820152602660248201527f4f776e61626c653a206e6577206f776e657220697320746865207a65726f206160448201526564647265737360d01b6064820152fd5b8280fd5b509190346101d25760203660031901126101d2578135916001600160a01b03806101fe61076c565b168552600560205260ff83862054161561024457847fd12b5bd74f3cbc37a15f5eb80b256a93fe26d81fe80649e423d37d3bd6c57517602086868160035551908152a180f35b6024935061025061076c565b925163b392249560e01b8152921690820152fd5b509190346101d25760203660031901126101d257816020917fabd3562e495ac1ee140c5899785f42d94e889c6c4f9af14237cd5718f428f11e933580926102bf60018060a01b0380895416906102b861076c565b16146106ce565b5551908152a180f35b509034610364576020366003190112610364576102e36106b3565b82546001600160a01b039182916102ff908316836102b861076c565b168015610354577f94aed472e01353526c04ec91cee149d41e78d848ec851c72be532bf7b120bd3093945060015491816bffffffffffffffffffffffff60a01b8416176001558351921682526020820152a180f35b825163d92e233d60e01b81528590fd5b5080fd5b50346100ff5760203660031901126100ff5750633b9aca006103906020936002549035610719565b049051908152f35b5090346103645781600319360112610364576020906003549051908152f35b5090346103645760203660031901126103645760209160ff9082906001600160a01b036103e26106b3565b1681526005855220541690519015158152f35b509034610364578160031936011261036457905490516001600160a01b039091168152602090f35b5090346103645781600319360112610364576020906002549051908152f35b50346100ff57806003193601126100ff57805481906001600160a01b0380821691906104729061046a61076c565b1683146106ce565b6001600160a01b03191682557f8be0079c531659141344cd1fd0a4f28419497f9722a3daafe3b4186f6b6457e08280a380f35b509190346101d25760203660031901126101d2578135916001600160a01b03806104cd61076c565b168552600560205260ff83862054161561024457847fec97c1458e15c7dc478afe0c76d62c57a8ec861d40784d4caf302e82633d4042602086868160025551908152a180f35b509034610364576020366003190112610364576020906105316106b3565b60018060a01b0380600154169116149051908152f35b5091346101d257826003193601126101d25760209250549051908152f35b50346100ff5760203660031901126100ff57506100f860209235610742565b509190346101d257806003193601126101d257602435916001600160a01b038135816105ae61076c565b168652600560205260ff84872054161561061657816105cb61076c565b168652600560205260ff848720541615610616576020817fec97c1458e15c7dc478afe0c76d62c57a8ec861d40784d4caf302e82633d4042926002558551908152a1806101fe61076c565b506024935061025061076c565b50903461036457806003193601126103645761063d6106b3565b906024358015158091036106af5783547f2ddb4d518081e3226ce50314090fbddc7a51e92d125bd71d785914d1b6d3d679936001600160a01b0391610687908316836102b861076c565b1690818552600560205282852060ff1981541660ff831617905582519182526020820152a180f35b8380fd5b600435906001600160a01b03821682036106c957565b600080fd5b156106d557565b606460405162461bcd60e51b815260206004820152602060248201527f4f776e61626c653a2063616c6c6572206973206e6f7420746865206f776e65726044820152fd5b8181029291811591840414171561072c57565b634e487b7160e01b600052601160045260246000fd5b60035461074e91610719565b633b9aca009081810291818304149015171561072c576103e8900490565b600154336001600160a01b039091160361078c5736601319013560601c90565b339056fea26469706673582212200d73e665ef87a781693dfab755ac7f6cebe21dee20b3e0505f0cb2d176c3e0d764736f6c63430008110033",
  "devdoc": {
    "kind": "dev",
    "methods": {
      "convertEthToEquivalentZbyte(uint256)": {
        "details": "Example:\\ Say, Native Eth Price = 1$\\ Zbyte Price = 2\\ nativeEthEquivalentZbyteInGwei = 50,000,000,000 Gwei (i.e. 1 Native Eth = 50 Zbyte)\\ ethAmount_  = 1,000,000,000,000,000,000 Wei (1 Native Eth)\\ zbyteAmount = (1,000,000,000,000,000,000 * 50,000,000,000) / 1,000,000,000\\             = 50,000,000,000,000,000,000 Wei (50 ZBYT)\\",
        "params": {
          "ethAmount_": "Amount of eth."
        },
        "returns": {
          "_0": "Equivalent Amount of zbyte."
        }
      },
      "convertMillToZbyte(uint256)": {
        "details": "Example:\\ Say, Unit Price = 1$\\ Zbyte Price = 2\\ So, zbytePriceEquivalentInGwei = 50,000,000,000 Gwei (i.e. 1 Unit = 50 Zbyte)\\ priceInMill_ = 20 Mill (i.e. (2 / 1000) Unit)\\ zbyteAmount = (20 * 50,000,000,000 * 1,000,000,000) / 1000\\             = 1,000,000,000,000,000,000 Wei (1 ZBYT)\\",
        "params": {
          "priceInMill_": "Price in millionths."
        },
        "returns": {
          "_0": "Equivalent Zbyte amount."
        }
      },
      "getDPlatFeeInZbyte()": {
        "returns": {
          "_0": "DPlat fee"
        }
      },
      "isTrustedForwarder(address)": {
        "params": {
          "forwarder_": "Address to check"
        },
        "returns": {
          "_0": "true if forwarder_ is trusted forwarder"
        }
      },
      "owner()": {
        "details": "Returns the address of the current owner."
      },
      "registerWorker(address,bool)": {
        "params": {
          "register_": "A boolean indicating whether to register (true) or unregister (false) the worker.",
          "worker_": "The address of the worker to be registered or unregistered."
        }
      },
      "renounceOwnership()": {
        "details": "Leaves the contract without owner. It will not be possible to call `onlyOwner` functions anymore. Can only be called by the current owner. NOTE: Renouncing ownership will leave the contract without an owner, thereby removing any functionality that is only available to the owner."
      },
      "setBurnRateInMill(uint256)": {
        "params": {
          "burnRate_": "burn rate in mill"
        }
      },
      "setNativeEthEquivalentZbyteInGwei(uint256)": {
        "details": "Example:\\ Say, Native Eth Price = 1$\\ Zbyte Price = 2\\ Ratio(Native Eth Price / Zbyte Price) = 100 / 2\\ nativeEthEquivalentZbyteInGwei = Ratio * 10 ^ decimals() / Gwei\\                                = 50 * 10 ^ 18 / 10 ^ 9 = 50,000,000,000\\",
        "params": {
          "nativeEthEquivalentZbyteInGwei_": "The equivalent Zbyte price in Gwei for native ETH."
        }
      },
      "setTrustedForwarder(address)": {
        "details": "onlyOwner can call",
        "params": {
          "forwarder_": "Frwarder conract address"
        }
      },
      "setZbytePriceInGwei(uint256)": {
        "details": "Example:\\ Say, Unit Price = 1$\\ Zbyte Price = 2\\ Ratio(Unit Price / Zbyte Price) = 100 / 2\\ zbytePriceInGwei_ = Ratio * 10 ^ decimals() / Gwei\\                                = 50 * 10 ^ 18 / 10 ^ 9 = 50,000,000,000\\",
        "params": {
          "zbytePriceInGwei_": "The Zbyte price in Gwei."
        }
      },
      "transferOwnership(address)": {
        "details": "Transfers ownership of the contract to a new account (`newOwner`). Can only be called by the current owner."
      }
    },
    "title": "ZbytePriceFeeder",
    "version": 1
  },
  "userdoc": {
    "errors": {
      "CannotSendEther()": [
        {
          "notice": "error (0xbf064619): Contract cannot receive ether"
        }
      ],
      "UnAuthorized(address)": [
        {
          "notice": "error (0xb3922495): Unauthorized caller."
        }
      ],
      "ZeroAddress()": [
        {
          "notice": "error (0xd92e233d): Address is address(0)"
        }
      ],
      "ZeroValue()": [
        {
          "notice": "error(): Value sent is 0"
        }
      ]
    },
    "events": {
      "BurnRateInMillSet(uint256)": {
        "notice": "Event(0xabd3562e) the burn rate is set."
      },
      "ForwarderSet(address,address)": {
        "notice": "event (0x94aed472): Forwarder address is changed"
      },
      "NativeEthEquivalentZbyteSet(uint256)": {
        "notice": "Event(0xec97c145) the equivalent Zbyte price for native ETH is set."
      },
      "WorkerRegistered(address,bool)": {
        "notice": "event (0x2ddb4d51): Worker is registered(true/false)"
      },
      "ZbytePriceInGweiSet(uint256)": {
        "notice": "Event(0xd12b5bd7) the Zbyte price in Gwei is set."
      }
    },
    "kind": "user",
    "methods": {
      "authorizedWorkers(address)": {
        "notice": "Authorized workers"
      },
      "convertEthToEquivalentZbyte(uint256)": {
        "notice": "Converts eth to equivalent Zbyte amount."
      },
      "convertMillToZbyte(uint256)": {
        "notice": "Converts price in millionths to Zbyte amount."
      },
      "getDPlatFeeInZbyte()": {
        "notice": "DPlat fee in terms of Zbyte 1 Unit = 1000 Mill"
      },
      "isTrustedForwarder(address)": {
        "notice": "Check if the given address is the trusted forwarder"
      },
      "registerWorker(address,bool)": {
        "notice": "Registers or unregisters a worker, allowing or denying access to specific functionality."
      },
      "setBurnRateInMill(uint256)": {
        "notice": "Sets burn rate for invoke calls in mill 1 Unit = 1000 Mill"
      },
      "setNativeEthEquivalentZbyteInGwei(uint256)": {
        "notice": "Sets the equivalent Zbyte price in Gwei for native ETH."
      },
      "setTrustedForwarder(address)": {
        "notice": "Set the forwarder contract address"
      },
      "setZbytePriceInGwei(uint256)": {
        "notice": "Sets the Zbyte price in Gwei."
      }
    },
    "notice": "Implements the IZbytePriceFeeder interface and provides functionality to manage gas costs and price conversions.",
    "version": 1
  },
  "storageLayout": {
    "storage": [
      {
        "astId": 7,
        "contract": "contracts/dplat/ZbytePriceFeeder.sol:ZbytePriceFeeder",
        "label": "_owner",
        "offset": 0,
        "slot": "0",
        "type": "t_address"
      },
      {
        "astId": 8814,
        "contract": "contracts/dplat/ZbytePriceFeeder.sol:ZbytePriceFeeder",
        "label": "trustedForwarder",
        "offset": 0,
        "slot": "1",
        "type": "t_address"
      },
      {
        "astId": 6478,
        "contract": "contracts/dplat/ZbytePriceFeeder.sol:ZbytePriceFeeder",
        "label": "nativeEthEquivalentZbyteInGwei",
        "offset": 0,
        "slot": "2",
        "type": "t_uint256"
      },
      {
        "astId": 6480,
        "contract": "contracts/dplat/ZbytePriceFeeder.sol:ZbytePriceFeeder",
        "label": "zbytePriceEquivalentInGwei",
        "offset": 0,
        "slot": "3",
        "type": "t_uint256"
      },
      {
        "astId": 6482,
        "contract": "contracts/dplat/ZbytePriceFeeder.sol:ZbytePriceFeeder",
        "label": "burnRateInMill",
        "offset": 0,
        "slot": "4",
        "type": "t_uint256"
      },
      {
        "astId": 6487,
        "contract": "contracts/dplat/ZbytePriceFeeder.sol:ZbytePriceFeeder",
        "label": "authorizedWorkers",
        "offset": 0,
        "slot": "5",
        "type": "t_mapping(t_address,t_bool)"
      }
    ],
    "types": {
      "t_address": {
        "encoding": "inplace",
        "label": "address",
        "numberOfBytes": "20"
      },
      "t_bool": {
        "encoding": "inplace",
        "label": "bool",
        "numberOfBytes": "1"
      },
      "t_mapping(t_address,t_bool)": {
        "encoding": "mapping",
        "key": "t_address",
        "label": "mapping(address => bool)",
        "numberOfBytes": "32",
        "value": "t_bool"
      },
      "t_uint256": {
        "encoding": "inplace",
        "label": "uint256",
        "numberOfBytes": "32"
      }
    }
  }
}