{
  "address": "0x13B669F583A5C46c3eB22595680Fc3eDe0CCb692",
  "abi": [
    {
      "inputs": [
        {
          "internalType": "address",
          "name": "forwarder_",
          "type": "address"
        }
      ],
      "stateMutability": "nonpayable",
      "type": "constructor"
    },
    {
      "inputs": [],
      "name": "CannotSendEther",
      "type": "error"
    },
    {
      "inputs": [
        {
          "internalType": "uint256",
          "name": "",
          "type": "uint256"
        },
        {
          "internalType": "uint256",
          "name": "",
          "type": "uint256"
        }
      ],
      "name": "InvalidChain",
      "type": "error"
    },
    {
      "inputs": [
        {
          "internalType": "address",
          "name": "",
          "type": "address"
        },
        {
          "internalType": "address",
          "name": "",
          "type": "address"
        }
      ],
      "name": "InvalidDestinationRelay",
      "type": "error"
    },
    {
      "inputs": [
        {
          "internalType": "address",
          "name": "",
          "type": "address"
        }
      ],
      "name": "NotApproved",
      "type": "error"
    },
    {
      "inputs": [
        {
          "internalType": "address",
          "name": "",
          "type": "address"
        },
        {
          "internalType": "address",
          "name": "",
          "type": "address"
        }
      ],
      "name": "NotRelayWrapperOrSelf",
      "type": "error"
    },
    {
      "inputs": [],
      "name": "ZeroAddress",
      "type": "error"
    },
    {
      "inputs": [],
      "name": "ZeroValue",
      "type": "error"
    },
    {
      "anonymous": false,
      "inputs": [
        {
          "indexed": false,
          "internalType": "address",
          "name": "",
          "type": "address"
        },
        {
          "indexed": false,
          "internalType": "address",
          "name": "",
          "type": "address"
        }
      ],
      "name": "ForwarderSet",
      "type": "event"
    },
    {
      "anonymous": false,
      "inputs": [
        {
          "indexed": true,
          "internalType": "address",
          "name": "previousOwner",
          "type": "address"
        },
        {
          "indexed": true,
          "internalType": "address",
          "name": "newOwner",
          "type": "address"
        }
      ],
      "name": "OwnershipTransferred",
      "type": "event"
    },
    {
      "anonymous": false,
      "inputs": [
        {
          "indexed": false,
          "internalType": "address",
          "name": "",
          "type": "address"
        }
      ],
      "name": "RelayApproveeAdded",
      "type": "event"
    },
    {
      "anonymous": false,
      "inputs": [
        {
          "indexed": false,
          "internalType": "uint256",
          "name": "",
          "type": "uint256"
        },
        {
          "indexed": false,
          "internalType": "address",
          "name": "",
          "type": "address"
        },
        {
          "indexed": false,
          "internalType": "uint256",
          "name": "",
          "type": "uint256"
        },
        {
          "indexed": false,
          "internalType": "address",
          "name": "",
          "type": "address"
        },
        {
          "indexed": false,
          "internalType": "bytes",
          "name": "",
          "type": "bytes"
        }
      ],
      "name": "RelayCallRemoteReceived",
      "type": "event"
    },
    {
      "anonymous": false,
      "inputs": [
        {
          "indexed": false,
          "internalType": "bytes",
          "name": "",
          "type": "bytes"
        },
        {
          "indexed": false,
          "internalType": "bool",
          "name": "",
          "type": "bool"
        },
        {
          "indexed": false,
          "internalType": "uint256",
          "name": "",
          "type": "uint256"
        }
      ],
      "name": "RelayReceiveCallExecuted",
      "type": "event"
    },
    {
      "anonymous": false,
      "inputs": [
        {
          "indexed": false,
          "internalType": "address",
          "name": "",
          "type": "address"
        }
      ],
      "name": "RelayWrapperSet",
      "type": "event"
    },
    {
      "inputs": [
        {
          "internalType": "address",
          "name": "approvee_",
          "type": "address"
        }
      ],
      "name": "addRelayApprovee",
      "outputs": [],
      "stateMutability": "nonpayable",
      "type": "function"
    },
    {
      "inputs": [
        {
          "internalType": "uint256",
          "name": "destChain_",
          "type": "uint256"
        },
        {
          "internalType": "address",
          "name": "destRelay_",
          "type": "address"
        },
        {
          "internalType": "bytes",
          "name": "payload_",
          "type": "bytes"
        }
      ],
      "name": "callRemote",
      "outputs": [
        {
          "internalType": "bool",
          "name": "",
          "type": "bool"
        }
      ],
      "stateMutability": "payable",
      "type": "function"
    },
    {
      "inputs": [
        {
          "internalType": "address",
          "name": "forwarder_",
          "type": "address"
        }
      ],
      "name": "isTrustedForwarder",
      "outputs": [
        {
          "internalType": "bool",
          "name": "",
          "type": "bool"
        }
      ],
      "stateMutability": "view",
      "type": "function"
    },
    {
      "inputs": [],
      "name": "owner",
      "outputs": [
        {
          "internalType": "address",
          "name": "",
          "type": "address"
        }
      ],
      "stateMutability": "view",
      "type": "function"
    },
    {
      "inputs": [
        {
          "internalType": "uint256",
          "name": "srcChain_",
          "type": "uint256"
        },
        {
          "internalType": "address",
          "name": "srcRelay_",
          "type": "address"
        },
        {
          "internalType": "bytes",
          "name": "payload_",
          "type": "bytes"
        }
      ],
      "name": "receiveCall",
      "outputs": [
        {
          "internalType": "bool",
          "name": "",
          "type": "bool"
        }
      ],
      "stateMutability": "nonpayable",
      "type": "function"
    },
    {
      "inputs": [],
      "name": "relayWrapper",
      "outputs": [
        {
          "internalType": "contract IRelayWrapper",
          "name": "",
          "type": "address"
        }
      ],
      "stateMutability": "view",
      "type": "function"
    },
    {
      "inputs": [],
      "name": "renounceOwnership",
      "outputs": [],
      "stateMutability": "nonpayable",
      "type": "function"
    },
    {
      "inputs": [
        {
          "internalType": "address",
          "name": "wrapper_",
          "type": "address"
        }
      ],
      "name": "setRelayWrapper",
      "outputs": [],
      "stateMutability": "nonpayable",
      "type": "function"
    },
    {
      "inputs": [
        {
          "internalType": "address",
          "name": "forwarder_",
          "type": "address"
        }
      ],
      "name": "setTrustedForwarder",
      "outputs": [],
      "stateMutability": "nonpayable",
      "type": "function"
    },
    {
      "inputs": [
        {
          "internalType": "address",
          "name": "newOwner",
          "type": "address"
        }
      ],
      "name": "transferOwnership",
      "outputs": [],
      "stateMutability": "nonpayable",
      "type": "function"
    },
    {
      "inputs": [
        {
          "internalType": "uint256",
          "name": "destChain_",
          "type": "uint256"
        },
        {
          "internalType": "address",
          "name": "destContract_",
          "type": "address"
        },
        {
          "internalType": "bytes32",
          "name": "ack_",
          "type": "bytes32"
        },
        {
          "internalType": "address",
          "name": "callbackContract_",
          "type": "address"
        },
        {
          "internalType": "bytes",
          "name": "data_",
          "type": "bytes"
        }
      ],
      "name": "updatePayload",
      "outputs": [
        {
          "internalType": "bytes",
          "name": "",
          "type": "bytes"
        }
      ],
      "stateMutability": "pure",
      "type": "function"
    }
  ],
  "transactionHash": "0xc05bc48512f112bb8d42dcecbd76e7590a6616b9c4d0f776c3e8d7b612135eb8",
  "args": [
    "0x9a1bAf8E490e77696663016fF56Da080B50f4523"
  ],
  "numDeployments": 1,
  "solcInputHash": "dec431fb01a1869239759cd65d3e7b12",
  "bytecode": "0x60803461010057601f610de238819003918201601f19168301916001600160401b038311848410176101055780849260209460405283398101031261010057516001600160a01b0390818116908190036101005761005b61011b565b918060005493169260018060a01b03199380858316176000558260405192167f8be0079c531659141344cd1fd0a4f28419497f9722a3daafe3b4186f6b6457e0600080a382156100f1577f94aed472e01353526c04ec91cee149d41e78d848ec851c72be532bf7b120bd30604085858581600154938416176001558351921682526020820152a1604051610ca290816101408239f35b63d92e233d60e01b8152600490fd5b600080fd5b634e487b7160e01b600052604160045260246000fd5b600154336001600160a01b039091160361013b5736601319013560601c90565b339056fe6040608081526004908136101561001557600080fd5b600091823560e01c80633710aee414610957578063572b6c051461092357806359197373146107185780635e82c8961461040f578063715018a6146103a65780638c9267d8146103255780638da5cb5b146102fd578063a1478a3b146102d4578063d50909bf1461021c578063da7422281461016c5763f2fde38b1461009a57600080fd5b34610168576020366003190112610168576100b36109d5565b83546001600160a01b038082169391926100d7826100cf610c48565b168614610b19565b169384156101165750506001600160a01b031916821783557f8be0079c531659141344cd1fd0a4f28419497f9722a3daafe3b4186f6b6457e08380a380f35b906020608492519162461bcd60e51b8352820152602660248201527f4f776e61626c653a206e6577206f776e657220697320746865207a65726f206160448201526564647265737360d01b6064820152fd5b8280fd5b50919034610218576020366003190112610218576101886109d5565b9260018060a01b03916101a883855416846101a1610c48565b1614610b19565b82851691821561020a5750600180546001600160a01b03198116939093179055516001600160a01b03929091168216815292166020830152907f94aed472e01353526c04ec91cee149d41e78d848ec851c72be532bf7b120bd3090604090a180f35b905163d92e233d60e01b8152fd5b5080fd5b509190346102185760a0366003190112610218576001600160a01b0360243581811693908490036102d1576064359182168092036102d1576084359067ffffffffffffffff82116102d15750936102ad6102bb926102806102cd9736908501610a44565b908551968794356020860152868501526044356060850152608084015260a08084015260c0830190610af4565b03601f1981018452836109f0565b51918291602083526020830190610af4565b0390f35b80fd5b50503461021857816003193601126102185760035490516001600160a01b039091168152602090f35b505034610218578160031936011261021857905490516001600160a01b039091168152602090f35b509034610168576020366003190112610168576103406109d5565b83546001600160a01b03919061035b908316836101a1610c48565b1691821561020a5750816020917fe89d9bcd6e6564e32cb0a8cc5f4d2e790a492f9bb77fb92abf2f2962f31e301d93855260028352808520600160ff1982541617905551908152a180f35b83346102d157806003193601126102d157805481906001600160a01b0380821691906103dc906103d4610c48565b168314610b19565b6001600160a01b03191682557f8be0079c531659141344cd1fd0a4f28419497f9722a3daafe3b4186f6b6457e08280a380f35b50346101685761041e36610a8b565b6001600160a01b039591939192919086610436610c48565b16845260209660028852600160ff88872054161515141580610705575b6106e457815182019187818403126106e057610470898201610b64565b908881015167ffffffffffffffff948582116106dc5784928c8493816104999401920101610b78565b9216916104ad8b82518301018c8301610bba565b9397919516954688036106be5730810361068e5750918a9291838f9381948451940192165af13d15610687578b8b3d6104f16104e882610a28565b925192836109f0565b81528a81923d92013e5b8c81805181010312610683576105498d938d9593857fceeaa702a518f36d50869123114b6e3359e30ff4646dd53d7560d2620fe8ce5994015187819851948594606086526060860190610af4565b92151580988501528301520390a18015158061067a575b61056e575b8b8b5160018152f35b8a5194633fcc4a8160e01b8d87015260248601526044850152606484015260848301526084825260c08201928284109084111761066757916105f661060e928a969594838b528660e0830152610100820152876101208201528761014082015260a06101608201526105e4610180820182610af4565b0360df198101835260bf1901826109f0565b8751635919737360e01b815296879485948501610c20565b038184305af190811561065c575061062f575b808080808080808080610565565b61064e90833d8511610655575b61064681836109f0565b810190610c08565b5038610621565b503d61063c565b8351903d90823e3d90fd5b634e487b7160e01b865260418452602486fd5b50831515610560565b8980fd5b60606104fb565b8d5163128074ab60e21b81526001600160a01b03909116818b0190815230602082015281906040010390fd5b0390fd5b508c516333a22e9160e11b8152808a01889052466024820152604490fd5b8880fd5b8580fd5b86836024926106f1610c48565b92516301952d1b60e31b8152921690820152fd5b5061070e610c48565b8116301415610453565b5061072236610a8b565b92909461072d610c48565b6003546001600160a01b03939190841690841681141580610910575b6108d65750602096846107638988518901018a8901610bba565b5050505003610893579061079e88926107908951968792169889868401528a808401526060830190610af4565b03601f1981018652856109f0565b468514610800575b50857fd1ced4627f645185c0fdc8e6799eb1463ee2b9ed7dfd932c34f065a62107e64186866107f6878551938493468552308986015287850152606084015260a0608084015260a0830190610af4565b0390a15160018152f35b8651632f41644b60e11b815292919083908190610824908790309046908501610c20565b038184305af19081156108885750916107f6917fd1ced4627f645185c0fdc8e6799eb1463ee2b9ed7dfd932c34f065a62107e64195949361086b575b8791939495506107a6565b61088190883d8a116106555761064681836109f0565b5038610860565b8651903d90823e3d90fd5b865162461bcd60e51b8152808301899052601960248201527f496e76616c69642064657374696e6174696f6e20636861696e000000000000006044820152606490fd5b906106ba87926108e4610c48565b93516304df66ef60e31b81526001600160a01b0394851693810193845293166020830152829160400190565b50610919610c48565b8416301415610749565b505034610218576020366003190112610218576020906109416109d5565b60018060a01b0380600154169116149051908152f35b509034610168576020366003190112610168576109726109d5565b83546001600160a01b03919061098d908316836101a1610c48565b1691821561020a5750600380546001600160a01b03191683179055519081527f2658b60088ed475dba9a64a406a5a95e0f97c0dbca5fc49683d6e3408f7ff78d90602090a180f35b600435906001600160a01b03821682036109eb57565b600080fd5b90601f8019910116810190811067ffffffffffffffff821117610a1257604052565b634e487b7160e01b600052604160045260246000fd5b67ffffffffffffffff8111610a1257601f01601f191660200190565b81601f820112156109eb57803590610a5b82610a28565b92610a6960405194856109f0565b828452602083830101116109eb57816000926020809301838601378301015290565b60606003198201126109eb57600435916024356001600160a01b03811681036109eb57916044359067ffffffffffffffff82116109eb57610ace91600401610a44565b90565b60005b838110610ae45750506000910152565b8181015183820152602001610ad4565b90602091610b0d81518092818552858086019101610ad1565b601f01601f1916010190565b15610b2057565b606460405162461bcd60e51b815260206004820152602060248201527f4f776e61626c653a2063616c6c6572206973206e6f7420746865206f776e65726044820152fd5b51906001600160a01b03821682036109eb57565b81601f820112156109eb578051610b8e81610a28565b92610b9c60405194856109f0565b818452602082840101116109eb57610ace9160208085019101610ad1565b91909160a0818403126109eb57805192610bd660208301610b64565b92604083015192610be960608201610b64565b92608082015167ffffffffffffffff81116109eb57610ace9201610b78565b908160209103126109eb575180151581036109eb5790565b9081526001600160a01b039091166020820152606060408201819052610ace92910190610af4565b600154336001600160a01b0390911603610c685736601319013560601c90565b339056fea26469706673582212202201c1da6defbc22b1501d6214eaf58462c482c34c9d9bdcf9c58a34a82bdb8064736f6c63430008110033",
  "devdoc": {
    "details": "The Zbyte Relay contract",
    "kind": "dev",
    "methods": {
      "addRelayApprovee(address)": {
        "params": {
          "approvee_": "Address of the approvee"
        }
      },
      "callRemote(uint256,address,bytes)": {
        "params": {
          "destChain_": "Chain id of destination chain",
          "destRelay_": "Address of the trusted relay on destination chain",
          "payload_": "Payload to be used for the destination call"
        }
      },
      "constructor": {
        "params": {
          "forwarder_": "Forwarder contact address"
        }
      },
      "isTrustedForwarder(address)": {
        "params": {
          "forwarder_": "Address to check"
        },
        "returns": {
          "_0": "true if forwarder_ is trusted forwarder"
        }
      },
      "owner()": {
        "details": "Returns the address of the current owner."
      },
      "receiveCall(uint256,address,bytes)": {
        "details": "Call can be made only by approved accounts or self",
        "params": {
          "payload_": "Payload to be used for the call on this chain",
          "srcChain_": "Chain id of source chain",
          "srcRelay_": "Address of the trusted relay on source chain"
        }
      },
      "renounceOwnership()": {
        "details": "Leaves the contract without owner. It will not be possible to call `onlyOwner` functions anymore. Can only be called by the current owner. NOTE: Renouncing ownership will leave the contract without an owner, thereby removing any functionality that is only available to the owner."
      },
      "setRelayWrapper(address)": {
        "params": {
          "wrapper_": "RelayWrapper contact address"
        }
      },
      "setTrustedForwarder(address)": {
        "details": "onlyOwner can call",
        "params": {
          "forwarder_": "Frwarder conract address"
        }
      },
      "transferOwnership(address)": {
        "details": "Transfers ownership of the contract to a new account (`newOwner`). Can only be called by the current owner."
      },
      "updatePayload(uint256,address,bytes32,address,bytes)": {
        "params": {
          "ack_": "Unique hash of the cross chain deposit/mint call",
          "callbackContract_": "Address of contract on source chain to handle callback",
          "data_": "original payload",
          "destChain_": "Chain id of destination chain",
          "destContract_": "Address of contract to be called on destination chain"
        }
      }
    },
    "title": "The Zbyte Relay contract",
    "version": 1
  },
  "userdoc": {
    "errors": {
      "CannotSendEther()": [
        {
          "notice": "error (0xbf064619): Contract cannot receive ether"
        }
      ],
      "InvalidChain(uint256,uint256)": [
        {
          "notice": "error (0xc16b00ce): Current chain id does not match with the one sent in payload"
        }
      ],
      "InvalidDestinationRelay(address,address)": [
        {
          "notice": "error (0x4a01d2ac): Invalid destination relay"
        }
      ],
      "NotApproved(address)": [
        {
          "notice": "error (0x0ca968d8): Caller is not an approved caller"
        }
      ],
      "NotRelayWrapperOrSelf(address,address)": [
        {
          "notice": "error (0x26fb3778): Caller is not the RelayWrapper or this contract"
        }
      ],
      "ZeroAddress()": [
        {
          "notice": "error (0xd92e233d): Address is address(0)"
        }
      ],
      "ZeroValue()": [
        {
          "notice": "error(): Value sent is 0"
        }
      ]
    },
    "events": {
      "ForwarderSet(address,address)": {
        "notice": "event (0x94aed472): Forwarder address is changed"
      },
      "RelayApproveeAdded(address)": {
        "notice": "event (0xe89d9bcd): Approvee address is set"
      },
      "RelayCallRemoteReceived(uint256,address,uint256,address,bytes)": {
        "notice": "event (0x9a3d7ba1): Received the request to perform a remote call"
      },
      "RelayReceiveCallExecuted(bytes,bool,uint256)": {
        "notice": "event (0xceeaa702): Executed the call request from a source chain"
      },
      "RelayWrapperSet(address)": {
        "notice": "event (0x2658b600): Relay Wrapper address is set"
      }
    },
    "kind": "user",
    "methods": {
      "addRelayApprovee(address)": {
        "notice": "Set the approvee address"
      },
      "callRemote(uint256,address,bytes)": {
        "notice": "Initiate the remote chain call"
      },
      "constructor": {
        "notice": "Zbyte Relay constructor"
      },
      "isTrustedForwarder(address)": {
        "notice": "Check if the given address is the trusted forwarder"
      },
      "receiveCall(uint256,address,bytes)": {
        "notice": "Handle the call received from source chain"
      },
      "relayWrapper()": {
        "notice": "Address of the RelayWrapper (on core)"
      },
      "setRelayWrapper(address)": {
        "notice": "Set the RelayWrapper contract address"
      },
      "setTrustedForwarder(address)": {
        "notice": "Set the forwarder contract address"
      },
      "updatePayload(uint256,address,bytes32,address,bytes)": {
        "notice": "Update the payload to include additional information"
      }
    },
    "version": 1
  },
  "storageLayout": {
    "storage": [
      {
        "astId": 7,
        "contract": "contracts/relay/ZbyteRelay.sol:ZbyteRelay",
        "label": "_owner",
        "offset": 0,
        "slot": "0",
        "type": "t_address"
      },
      {
        "astId": 8814,
        "contract": "contracts/relay/ZbyteRelay.sol:ZbyteRelay",
        "label": "trustedForwarder",
        "offset": 0,
        "slot": "1",
        "type": "t_address"
      },
      {
        "astId": 7822,
        "contract": "contracts/relay/ZbyteRelay.sol:ZbyteRelay",
        "label": "approved",
        "offset": 0,
        "slot": "2",
        "type": "t_mapping(t_address,t_bool)"
      },
      {
        "astId": 7826,
        "contract": "contracts/relay/ZbyteRelay.sol:ZbyteRelay",
        "label": "relayWrapper",
        "offset": 0,
        "slot": "3",
        "type": "t_contract(IRelayWrapper)7359"
      }
    ],
    "types": {
      "t_address": {
        "encoding": "inplace",
        "label": "address",
        "numberOfBytes": "20"
      },
      "t_bool": {
        "encoding": "inplace",
        "label": "bool",
        "numberOfBytes": "1"
      },
      "t_contract(IRelayWrapper)7359": {
        "encoding": "inplace",
        "label": "contract IRelayWrapper",
        "numberOfBytes": "20"
      },
      "t_mapping(t_address,t_bool)": {
        "encoding": "mapping",
        "key": "t_address",
        "label": "mapping(address => bool)",
        "numberOfBytes": "32",
        "value": "t_bool"
      }
    }
  }
}