{
  "address": "0x31d17b79164BEf1a488946cB607cc110762BB8F7",
  "abi": [
    {
      "inputs": [],
      "name": "NotAForwarder",
      "type": "error"
    },
    {
      "inputs": [
        {
          "internalType": "address",
          "name": "dapp_",
          "type": "address"
        },
        {
          "internalType": "address",
          "name": "user_",
          "type": "address"
        },
        {
          "internalType": "bytes4",
          "name": "functionSig_",
          "type": "bytes4"
        },
        {
          "internalType": "address",
          "name": "payer_",
          "type": "address"
        },
        {
          "internalType": "uint256",
          "name": "zbyteCharge_",
          "type": "uint256"
        }
      ],
      "name": "getRoyaltFeeInZbyte",
      "outputs": [
        {
          "internalType": "uint256",
          "name": "",
          "type": "uint256"
        },
        {
          "internalType": "address",
          "name": "",
          "type": "address"
        },
        {
          "internalType": "address",
          "name": "",
          "type": "address"
        }
      ],
      "stateMutability": "view",
      "type": "function"
    }
  ],
  "transactionHash": "0x68bd8c602510b9eff1b8db311538f1bb0917086868ed106ca75c71ff3de56c7a",
  "args": [],
  "numDeployments": 1,
  "solcInputHash": "8a3f210ebc58bf3454af88b7a958a338",
  "bytecode": "0x608080604052346100155760ee908161001b8239f35b600080fdfe6080806040526004361015601257600080fd5b600090813560e01c63bfb0f54d14602857600080fd5b3460b45760a036600319011260b4576001600160a01b036004358181169081900360b0576024358281160360b0576044356001600160e01b031981160360b05760643591821680920360b05760408482606096527f9b22c748ed7e71855d951267a482b9d11d1a04d56fbac4d16466fb6fe4ab26a96020522054835260208301526040820152f35b8380fd5b5080fdfea264697066735822122085de409968aa6c5f295ca13a8d74f56847074cce8278a3098229830f944df1de64736f6c63430008110033",
  "devdoc": {
    "details": "This contract extends ZbyteContextDiamond and provides functionality related to royalty fees in Zbyte.",
    "kind": "dev",
    "methods": {
      "getRoyaltFeeInZbyte(address,address,bytes4,address,uint256)": {
        "details": "Retrieves the royalty fee in Zbyte for a specific DApp function.",
        "params": {
          "dapp_": "The address of the DApp.",
          "functionSig_": "The function signature of the DApp function.",
          "payer_": "The address of the entity paying the royalty fee.",
          "user_": "The address of the user involved in the DApp function.",
          "zbyteCharge_": "The Zbyte charge associated with the DApp function."
        },
        "returns": {
          "_0": "uint256 The royalty fee in Zbyte.",
          "_1": "address The address of the payer."
        }
      }
    },
    "title": "ZbyteDPlatRoyaltyFacet",
    "version": 1
  },
  "userdoc": {
    "errors": {
      "NotAForwarder()": [
        {
          "notice": "error (0x5ac85bab): Caller is not a forwarder"
        }
      ]
    },
    "kind": "user",
    "methods": {},
    "version": 1
  },
  "storageLayout": {
    "storage": [],
    "types": null
  }
}