{
  "address": "0x4390E5492Cf0899d75a18b62F2F82dD10d9f2F43",
  "abi": [
    {
      "inputs": [
        {
          "internalType": "address",
          "name": "forwarder_",
          "type": "address"
        }
      ],
      "stateMutability": "nonpayable",
      "type": "constructor"
    },
    {
      "inputs": [],
      "name": "CannotSendEther",
      "type": "error"
    },
    {
      "inputs": [],
      "name": "ZeroAddress",
      "type": "error"
    },
    {
      "inputs": [],
      "name": "ZeroValue",
      "type": "error"
    },
    {
      "anonymous": false,
      "inputs": [
        {
          "indexed": false,
          "internalType": "address",
          "name": "",
          "type": "address"
        },
        {
          "indexed": false,
          "internalType": "uint256",
          "name": "",
          "type": "uint256"
        }
      ],
      "name": "DStoreSet",
      "type": "event"
    },
    {
      "anonymous": false,
      "inputs": [
        {
          "indexed": false,
          "internalType": "address",
          "name": "",
          "type": "address"
        },
        {
          "indexed": false,
          "internalType": "address",
          "name": "",
          "type": "address"
        }
      ],
      "name": "ForwarderSet",
      "type": "event"
    },
    {
      "anonymous": false,
      "inputs": [
        {
          "indexed": true,
          "internalType": "address",
          "name": "previousOwner",
          "type": "address"
        },
        {
          "indexed": true,
          "internalType": "address",
          "name": "newOwner",
          "type": "address"
        }
      ],
      "name": "OwnershipTransferred",
      "type": "event"
    },
    {
      "inputs": [
        {
          "internalType": "address",
          "name": "forwarder_",
          "type": "address"
        }
      ],
      "name": "isTrustedForwarder",
      "outputs": [
        {
          "internalType": "bool",
          "name": "",
          "type": "bool"
        }
      ],
      "stateMutability": "view",
      "type": "function"
    },
    {
      "inputs": [],
      "name": "owner",
      "outputs": [
        {
          "internalType": "address",
          "name": "",
          "type": "address"
        }
      ],
      "stateMutability": "view",
      "type": "function"
    },
    {
      "inputs": [],
      "name": "renounceOwnership",
      "outputs": [],
      "stateMutability": "nonpayable",
      "type": "function"
    },
    {
      "inputs": [
        {
          "internalType": "address",
          "name": "forwarder_",
          "type": "address"
        }
      ],
      "name": "setTrustedForwarder",
      "outputs": [],
      "stateMutability": "nonpayable",
      "type": "function"
    },
    {
      "inputs": [
        {
          "internalType": "uint8",
          "name": "_value",
          "type": "uint8"
        }
      ],
      "name": "storeValue",
      "outputs": [],
      "stateMutability": "nonpayable",
      "type": "function"
    },
    {
      "inputs": [],
      "name": "storedBy",
      "outputs": [
        {
          "internalType": "address",
          "name": "",
          "type": "address"
        }
      ],
      "stateMutability": "view",
      "type": "function"
    },
    {
      "inputs": [],
      "name": "storedValue",
      "outputs": [
        {
          "internalType": "uint8",
          "name": "",
          "type": "uint8"
        }
      ],
      "stateMutability": "view",
      "type": "function"
    },
    {
      "inputs": [
        {
          "internalType": "address",
          "name": "newOwner",
          "type": "address"
        }
      ],
      "name": "transferOwnership",
      "outputs": [],
      "stateMutability": "nonpayable",
      "type": "function"
    }
  ],
  "transactionHash": "0x5eed24c43835f48787c59edfe42ad76e3c45deadc19b0a79b53eb3d41b3e4cf8",
  "args": [
    "0xC29a2024A5cDf9cF94C747997503E50021683231"
  ],
  "numDeployments": 1,
  "solcInputHash": "e67aaade3ce54eefff91fdef20cb9e9e",
  "bytecode": "0x60803461010057601f61059838819003918201601f19168301916001600160401b038311848410176101055780849260209460405283398101031261010057516001600160a01b0390818116908190036101005761005b61011b565b918060005493169260018060a01b03199380858316176000558260405192167f8be0079c531659141344cd1fd0a4f28419497f9722a3daafe3b4186f6b6457e0600080a382156100f1577f94aed472e01353526c04ec91cee149d41e78d848ec851c72be532bf7b120bd30604085858581600154938416176001558351921682526020820152a160405161045890816101408239f35b63d92e233d60e01b8152600490fd5b600080fd5b634e487b7160e01b600052604160045260246000fd5b600154336001600160a01b039091160361013b5736601319013560601c90565b339056fe6080604081815260048036101561001557600080fd5b600092833560e01c9081632c4e73b91461031957508063572b6c05146102e35780636d619daa146102be578063715018a6146102525780638da5cb5b1461022a5780638ebbfd4a14610201578063da742228146101555763f2fde38b1461007b57600080fd5b34610151576020366003190112610151576001600160a01b0381358181169391929084900361014d578454916100be848416946100b66103fe565b1685146103b3565b84156100fb5750506001600160a01b031916821783557f8be0079c531659141344cd1fd0a4f28419497f9722a3daafe3b4186f6b6457e08380a380f35b906020608492519162461bcd60e51b8352820152602660248201527f4f776e61626c653a206e6577206f776e657220697320746865207a65726f206160448201526564647265737360d01b6064820152fd5b8480fd5b8280fd5b509190346101fd5760203660031901126101fd576001600160a01b038335818116908190036101f957610195828554168361018e6103fe565b16146103b3565b80156101e9577f94aed472e01353526c04ec91cee149d41e78d848ec851c72be532bf7b120bd3093945060015491816bffffffffffffffffffffffff60a01b8416176001558351921682526020820152a180f35b825163d92e233d60e01b81528590fd5b8380fd5b5080fd5b5050346101fd57816003193601126101fd5760025490516001600160a01b039091168152602090f35b5050346101fd57816003193601126101fd57905490516001600160a01b039091168152602090f35b83346102bb57806003193601126102bb57805481906001600160a01b038082169190610288906102806103fe565b1683146103b3565b6001600160a01b03191682557f8be0079c531659141344cd1fd0a4f28419497f9722a3daafe3b4186f6b6457e08280a380f35b80fd5b5050346101fd57816003193601126101fd5760209060ff60015460a01c169051908152f35b503461015157602036600319011261015157356001600160a01b03818116918290036101f9576020935060015416149051908152f35b92919050346101f95760203660031901126101f957359160ff831683036101f9577f944237481aa2c49d0dec17756e34e3103f41d24236ed8458fd6f954742e27ec09260ff906001600160a01b0361036f6103fe565b1690816bffffffffffffffffffffffff60a01b6002541617600255600154908360a01b9060a01b16908360a01b1916179081600155835260a01c166020820152a180f35b156103ba57565b606460405162461bcd60e51b815260206004820152602060248201527f4f776e61626c653a2063616c6c6572206973206e6f7420746865206f776e65726044820152fd5b600154336001600160a01b039091160361041e5736601319013560601c90565b339056fea2646970667358221220abacc9fc539560f57477da7edf38b13b90550859f25eea05ca2c4566cb10fef264736f6c63430008110033",
  "devdoc": {
    "events": {
      "DStoreSet(address,uint256)": {
        "details": "Emitted when a value is stored."
      }
    },
    "kind": "dev",
    "methods": {
      "constructor": {
        "params": {
          "forwarder_": "The address of the trusted forwarder"
        }
      },
      "isTrustedForwarder(address)": {
        "params": {
          "forwarder_": "Address to check"
        },
        "returns": {
          "_0": "true if forwarder_ is trusted forwarder"
        }
      },
      "owner()": {
        "details": "Returns the address of the current owner."
      },
      "renounceOwnership()": {
        "details": "Leaves the contract without owner. It will not be possible to call `onlyOwner` functions anymore. Can only be called by the current owner. NOTE: Renouncing ownership will leave the contract without an owner, thereby removing any functionality that is only available to the owner."
      },
      "setTrustedForwarder(address)": {
        "details": "onlyOwner can call",
        "params": {
          "forwarder_": "Frwarder conract address"
        }
      },
      "storeValue(uint8)": {
        "params": {
          "_value": "The uint8 value to be stored"
        }
      },
      "transferOwnership(address)": {
        "details": "Transfers ownership of the contract to a new account (`newOwner`). Can only be called by the current owner."
      }
    },
    "title": "Sample Data Storage Dapp",
    "version": 1
  },
  "userdoc": {
    "errors": {
      "CannotSendEther()": [
        {
          "notice": "error (0xbf064619): Contract cannot receive ether"
        }
      ],
      "ZeroAddress()": [
        {
          "notice": "error (0xd92e233d): Address is address(0)"
        }
      ],
      "ZeroValue()": [
        {
          "notice": "error(): Value sent is 0"
        }
      ]
    },
    "events": {
      "ForwarderSet(address,address)": {
        "notice": "event (0x94aed472): Forwarder address is changed"
      }
    },
    "kind": "user",
    "methods": {
      "constructor": {
        "notice": "Constructor to set the trusted forwarder"
      },
      "isTrustedForwarder(address)": {
        "notice": "Check if the given address is the trusted forwarder"
      },
      "setTrustedForwarder(address)": {
        "notice": "Set the forwarder contract address"
      },
      "storeValue(uint8)": {
        "notice": "Function to store a uint8 value"
      },
      "storedBy()": {
        "notice": "Address of the entity that stored the value"
      },
      "storedValue()": {
        "notice": "Stored uint8 value"
      }
    },
    "notice": "This contract serves as a sample data storage decentralized application (DApp). It allows users to store a uint8 value along with the address of the entity performing the storage operation. To prepare a contract for DPlat compatibility: 1. Users are required to derive from the abstract contract called ZbyteContext. 2. Replace the usage of msg.sender with _msgSender() and msg.data with _msgData().",
    "version": 1
  },
  "storageLayout": {
    "storage": [
      {
        "astId": 7,
        "contract": "contracts/samples/SampleDstoreDapp.sol:SampleDstoreDapp",
        "label": "_owner",
        "offset": 0,
        "slot": "0",
        "type": "t_address"
      },
      {
        "astId": 9843,
        "contract": "contracts/samples/SampleDstoreDapp.sol:SampleDstoreDapp",
        "label": "trustedForwarder",
        "offset": 0,
        "slot": "1",
        "type": "t_address"
      },
      {
        "astId": 9275,
        "contract": "contracts/samples/SampleDstoreDapp.sol:SampleDstoreDapp",
        "label": "storedValue",
        "offset": 20,
        "slot": "1",
        "type": "t_uint8"
      },
      {
        "astId": 9278,
        "contract": "contracts/samples/SampleDstoreDapp.sol:SampleDstoreDapp",
        "label": "storedBy",
        "offset": 0,
        "slot": "2",
        "type": "t_address"
      }
    ],
    "types": {
      "t_address": {
        "encoding": "inplace",
        "label": "address",
        "numberOfBytes": "20"
      },
      "t_uint8": {
        "encoding": "inplace",
        "label": "uint8",
        "numberOfBytes": "1"
      }
    }
  }
}