{
  "address": "0x20bCeD3B0255BFfDcb86720D935505fbADA8CBAD",
  "abi": [
    {
      "inputs": [],
      "name": "NotAForwarder",
      "type": "error"
    },
    {
      "anonymous": false,
      "inputs": [
        {
          "indexed": false,
          "internalType": "address",
          "name": "",
          "type": "address"
        },
        {
          "indexed": false,
          "internalType": "uint256",
          "name": "",
          "type": "uint256"
        }
      ],
      "name": "RefundEthToPayer",
      "type": "event"
    },
    {
      "inputs": [
        {
          "internalType": "address",
          "name": "user_",
          "type": "address"
        },
        {
          "internalType": "address",
          "name": "dapp_",
          "type": "address"
        },
        {
          "internalType": "bytes4",
          "name": "functionSig_",
          "type": "bytes4"
        },
        {
          "internalType": "uint256",
          "name": "amount_",
          "type": "uint256"
        }
      ],
      "name": "getPayer",
      "outputs": [
        {
          "internalType": "bytes4",
          "name": "",
          "type": "bytes4"
        },
        {
          "internalType": "uint256",
          "name": "",
          "type": "uint256"
        },
        {
          "internalType": "address",
          "name": "",
          "type": "address"
        }
      ],
      "stateMutability": "view",
      "type": "function"
    },
    {
      "inputs": [
        {
          "internalType": "address",
          "name": "payer_",
          "type": "address"
        },
        {
          "internalType": "bool",
          "name": "executeResult_",
          "type": "bool"
        },
        {
          "internalType": "uint256",
          "name": "reqValue_",
          "type": "uint256"
        },
        {
          "internalType": "uint256",
          "name": "gasConsumedEth_",
          "type": "uint256"
        },
        {
          "internalType": "uint256",
          "name": "preChargeEth_",
          "type": "uint256"
        }
      ],
      "name": "postExecute",
      "outputs": [],
      "stateMutability": "nonpayable",
      "type": "function"
    },
    {
      "inputs": [
        {
          "internalType": "address",
          "name": "dapp_",
          "type": "address"
        },
        {
          "internalType": "address",
          "name": "user_",
          "type": "address"
        },
        {
          "internalType": "bytes4",
          "name": "functionSig_",
          "type": "bytes4"
        },
        {
          "internalType": "uint256",
          "name": "ethChargeAmount_",
          "type": "uint256"
        }
      ],
      "name": "preExecute",
      "outputs": [
        {
          "internalType": "address",
          "name": "",
          "type": "address"
        }
      ],
      "stateMutability": "nonpayable",
      "type": "function"
    }
  ],
  "transactionHash": "0x287c466f901e74f47bcac6e564e868fad082bacd31e6473da6cd3ee55d86fe80",
  "args": [],
  "numDeployments": 1,
  "solcInputHash": "9ee104fcfcd04d9b2bb234e9d21b3747",
  "bytecode": "0x6080806040523461001657610c1f908161001c8239f35b600080fdfe60406080815260048036101561001457600080fd5b6000803560e01c80630b9c414a146106935780636fab9c02146103385763b8e615281461004057600080fd5b346103355761004e366106e0565b61005e9693969592949195610b96565b7f580a56aff4c8445faf8644f12c3b0f5d37fcb3a8e0a0f9b1b360da94678271dd546001600160a01b03969187169087161461032557857f2d1bb8cbbb4d7783ef4f9001d0b7478185bda33b0093daf501edbebc75bc308354169785519889936318f498e760e31b85528685015283602460209b8c935afa92831561031b57908993929185936102e3575b506100f6838a838561077f565b9a6001600160e01b031990921693909290846101d0575b505050505080610123575b505050505191168152f35b7f2d1bb8cbbb4d7783ef4f9001d0b7478185bda33b0093daf501edbebc75bc30825485516323b872dd60e01b81526001600160a01b03891695810195865233602087015260408601929092529093849187169082908590829060600103925af19081156101c55750610198575b808581610118565b6101b790853d87116101be575b6101af818361072f565b810190610767565b5038610190565b503d6101a5565b8351903d90823e3d90fd5b8488527fbd11ea486bc2027fd35886fb74ddac0d047d847fe642609550f64c01bbda08c687528a8a8920541690888a8c8461024b575b505050505050508261021791610b73565b9084527fbd11ea486bc2027fd35886fb74ddac0d047d847fe642609550f64c01bbda08c9835285842055388080808061010d565b516308e7530360e31b81526001600160a01b039384169181019182529290941660208501526001600160e01b0319909416604084015260608301879052959694959394928492839190829060800103925af180156102d95793809392610217928c966102bc575b8193888a8c610206565b6102d290873d89116101be576101af818361072f565b50386102b2565b87513d87823e3d90fd5b809293508491943d8311610314575b6102fc818361072f565b8101031261031057908892915191386100e9565b8380fd5b503d6102f2565b86513d86823e3d90fd5b8451635ac85bab60e01b81528490fd5b80fd5b509190346105f25760a03660031901126105f2576001600160a01b0390803590828216820361068f5760243590811515820361066b57606435906084359461037e610b96565b81807f580a56aff4c8445faf8644f12c3b0f5d37fcb3a8e0a0f9b1b360da94678271dd54169116146106805787908396817f2d1bb8cbbb4d7783ef4f9001d0b7478185bda33b0093daf501edbebc75bc3083541690895195630117739d60e21b875260209788888881875afa978815610676578698610643575b50610613575b508087918a11998a60001461060c576104178282610b73565b9a5b156105fd57505083985b60248b51809481936318f498e760e31b8352898301525afa9081156105c25783916105cc575b508581610535575b505083610498575b5086516001600160a01b0386168152602081018790527f187e1a0cf55d4b70d797cc588600ee4a45aa05f13b7eda5c690187c8d209367190604090a180f35b7f2d1bb8cbbb4d7783ef4f9001d0b7478185bda33b0093daf501edbebc75bc3082548851632770a7eb60e21b81526001600160a01b03881694810194855260208501959095528593859390849003604001928492165af1801561052b57610502575b808681610459565b813d8311610524575b610515818361072f565b810103126103105738806104fa565b503d61050b565b85513d88823e3d90fd5b7f2d1bb8cbbb4d7783ef4f9001d0b7478185bda33b0093daf501edbebc75bc3082548a516323b872dd60e01b81526001600160a01b038a16878201908152336020820152604081019490945292839185169082908790829060600103925af180156105c2576105a5575b85610451565b6105bb90863d88116101be576101af818361072f565b503861059f565b89513d85823e3d90fd5b90508581813d83116105f6575b6105e3818361072f565b810103126105f2575138610449565b8280fd5b503d6105d9565b61060691610b73565b98610423565b859a610419565b9192935097506044358101809111610630579689929190866103fe565b634e487b7160e01b8a526011845260248afd5b9097508881813d831161066f575b61065b818361072f565b8101031261066b575196386103f8565b8580fd5b503d610651565b8c513d88823e3d90fd5b508551635ac85bab60e01b8152fd5b8480fd5b5082346106dc576060906106b26106a9366106e0565b9291909161077f565b83516001600160e01b0319909316835260208301919091526001600160a01b031691810191909152f35b5080fd5b608090600319011261072a576001600160a01b0390600435828116810361072a5791602435908116810361072a57906044356001600160e01b03198116810361072a579060643590565b600080fd5b90601f8019910116810190811067ffffffffffffffff82111761075157604052565b634e487b7160e01b600052604160045260246000fd5b9081602091031261072a5751801515810361072a5790565b92939160018060a01b039160009583821687526020907fbd11ea486bc2027fd35886fb74ddac0d047d847fe642609550f64c01bbda08c782526040918289205460e01b9463ffffffff60e01b948a86881697886109c6575b5050878a168b527fbd11ea486bc2027fd35886fb74ddac0d047d847fe642609550f64c01bbda08c88352848b205460e01b9586169687151590816109bb575b50610829575b5050505050505050829190565b868b527fbd11ea486bc2027fd35886fb74ddac0d047d847fe642609550f64c01bbda08c5835287858c205416968715158061097a575b61086a575b5061081c565b8b527fbd11ea486bc2027fd35886fb74ddac0d047d847fe642609550f64c01bbda08c98352848b2054977fbd11ea486bc2027fd35886fb74ddac0d047d847fe642609550f64c01bbda08c68452858c205416908489111561086457811561096a578551630b4c676760e11b81526001600160a01b038c811660048301529190911660248201526001600160e01b03199290921660448301526064820193909352918190839060849082905afa92831561096157508892610944575b505061093c57505050388080808080808080610864565b945090925090565b61095a9250803d106101be576101af818361072f565b3880610925565b513d8a823e3d90fd5b5050505050509194509250929190565b506001600160a01b03881660009081527f96806dd98d766f67e82444fc94615c2d202c6291c29cb3f12d9f396f091d960a602052604090205460ff1661085f565b905087141538610816565b8882527fbd11ea486bc2027fd35886fb74ddac0d047d847fe642609550f64c01bbda08c585528987832054169081151580610b32575b610a07575b506107d7565b8983527fbd11ea486bc2027fd35886fb74ddac0d047d847fe642609550f64c01bbda08c986528a8880852054947fbd11ea486bc2027fd35886fb74ddac0d047d847fe642609550f64c01bbda08c68952205416878411610a6b575b508d9250610a01565b8015610b2057878f918f8991888a92610ac58f5196879586948594630b4c676760e11b8652600486019092606092959493608083019660018060a01b03809216845216602083015263ffffffff60e01b1660408201520152565b03915afa918215610b155791610af8575b50610ae75750505038808080610a62565b9c50909a5098975050505050505050565b610b0f9150873d89116101be576101af818361072f565b38610ad6565b8a51903d90823e3d90fd5b509c50909a5098975050505050505050565b506001600160a01b03821660009081527f96806dd98d766f67e82444fc94615c2d202c6291c29cb3f12d9f396f091d960a602052604090205460ff166109fc565b91908203918211610b8057565b634e487b7160e01b600052601160045260246000fd5b601436101580610bb6575b15610bb25736601319013560601c90565b3390565b507f580a56aff4c8445faf8644f12c3b0f5d37fcb3a8e0a0f9b1b360da94678271dd546001600160a01b03163314610ba156fea2646970667358221220711a4dbc57d3f074ba3766a12ce7462d0e1c32b1e8eaafb261ae0b055bd70efc64736f6c63430008110033",
  "devdoc": {
    "kind": "dev",
    "methods": {
      "getPayer(address,address,bytes4,uint256)": {
        "params": {
          "amount_": "The transaction amount.",
          "dapp_": "The Dapp's address.",
          "functionSig_": "The function signature (bytes4).",
          "user_": "The user's address."
        },
        "returns": {
          "_0": "The payer's address."
        }
      },
      "postExecute(address,bool,uint256,uint256,uint256)": {
        "details": "Executes a transaction and handles Zbyte-related operations.",
        "params": {
          "executeResult_": "A boolean indicating the success of the execution.",
          "gasConsumedEth_": "The amount of Ether consumed for gas during execution.",
          "payer_": "The address of the payer initiating the execution.",
          "preChargeEth_": "The amount of Ether charged before execution. This function can only be called by the `onlyForwarder` modifier.",
          "reqValue_": "The amount of Ether sent with the execution request."
        }
      },
      "preExecute(address,address,bytes4,uint256)": {
        "params": {
          "dapp_": "The Dapp's address.",
          "ethChargeAmount_": "The Ether amount to charge.",
          "functionSig_": "The function signature (bytes4).",
          "user_": "The user's address."
        }
      }
    },
    "title": "Zbyte DPlat Payment Facet",
    "version": 1
  },
  "userdoc": {
    "errors": {
      "NotAForwarder()": [
        {
          "notice": "error (0x5ac85bab): Caller is not a forwarder"
        }
      ]
    },
    "events": {
      "RefundEthToPayer(address,uint256)": {
        "notice": "eventsError(0x187e1a0c) Amount to be refund in terms of Eth to Payer."
      }
    },
    "kind": "user",
    "methods": {
      "getPayer(address,address,bytes4,uint256)": {
        "notice": "Determines the payer for a transaction."
      },
      "preExecute(address,address,bytes4,uint256)": {
        "notice": "Pre Execution (Finds the payer and charges in ZbyteVToken)"
      }
    },
    "version": 1
  },
  "storageLayout": {
    "storage": [],
    "types": null
  }
}