{
  "address": "0xd0789A50146b4a6b6cfa1985b9586E480F9bc6f8",
  "abi": [
    {
      "inputs": [
        {
          "internalType": "address",
          "name": "burner_",
          "type": "address"
        }
      ],
      "stateMutability": "nonpayable",
      "type": "constructor"
    },
    {
      "inputs": [],
      "name": "CannotSendEther",
      "type": "error"
    },
    {
      "inputs": [],
      "name": "ZeroAddress",
      "type": "error"
    },
    {
      "anonymous": false,
      "inputs": [
        {
          "indexed": true,
          "internalType": "address",
          "name": "owner",
          "type": "address"
        },
        {
          "indexed": true,
          "internalType": "address",
          "name": "spender",
          "type": "address"
        },
        {
          "indexed": false,
          "internalType": "uint256",
          "name": "value",
          "type": "uint256"
        }
      ],
      "name": "Approval",
      "type": "event"
    },
    {
      "anonymous": false,
      "inputs": [
        {
          "indexed": true,
          "internalType": "address",
          "name": "previousOwner",
          "type": "address"
        },
        {
          "indexed": true,
          "internalType": "address",
          "name": "newOwner",
          "type": "address"
        }
      ],
      "name": "OwnershipTransferred",
      "type": "event"
    },
    {
      "anonymous": false,
      "inputs": [
        {
          "indexed": false,
          "internalType": "address",
          "name": "account",
          "type": "address"
        }
      ],
      "name": "Paused",
      "type": "event"
    },
    {
      "anonymous": false,
      "inputs": [
        {
          "indexed": true,
          "internalType": "bytes4",
          "name": "functionSig",
          "type": "bytes4"
        },
        {
          "indexed": false,
          "internalType": "bool",
          "name": "enabled",
          "type": "bool"
        }
      ],
      "name": "PublicCapabilityUpdated",
      "type": "event"
    },
    {
      "anonymous": false,
      "inputs": [
        {
          "indexed": true,
          "internalType": "uint8",
          "name": "role",
          "type": "uint8"
        },
        {
          "indexed": true,
          "internalType": "bytes4",
          "name": "functionSig",
          "type": "bytes4"
        },
        {
          "indexed": false,
          "internalType": "bool",
          "name": "enabled",
          "type": "bool"
        }
      ],
      "name": "RoleCapabilityUpdated",
      "type": "event"
    },
    {
      "anonymous": false,
      "inputs": [
        {
          "indexed": true,
          "internalType": "address",
          "name": "from",
          "type": "address"
        },
        {
          "indexed": true,
          "internalType": "address",
          "name": "to",
          "type": "address"
        },
        {
          "indexed": false,
          "internalType": "uint256",
          "name": "value",
          "type": "uint256"
        }
      ],
      "name": "Transfer",
      "type": "event"
    },
    {
      "anonymous": false,
      "inputs": [
        {
          "indexed": false,
          "internalType": "address",
          "name": "account",
          "type": "address"
        }
      ],
      "name": "Unpaused",
      "type": "event"
    },
    {
      "anonymous": false,
      "inputs": [
        {
          "indexed": true,
          "internalType": "address",
          "name": "user",
          "type": "address"
        },
        {
          "indexed": true,
          "internalType": "uint8",
          "name": "role",
          "type": "uint8"
        },
        {
          "indexed": false,
          "internalType": "bool",
          "name": "enabled",
          "type": "bool"
        }
      ],
      "name": "UserRoleUpdated",
      "type": "event"
    },
    {
      "anonymous": false,
      "inputs": [
        {
          "indexed": false,
          "internalType": "address",
          "name": "",
          "type": "address"
        }
      ],
      "name": "ZbyteDPlatAddressSet",
      "type": "event"
    },
    {
      "inputs": [
        {
          "internalType": "address",
          "name": "owner",
          "type": "address"
        },
        {
          "internalType": "address",
          "name": "spender",
          "type": "address"
        }
      ],
      "name": "allowance",
      "outputs": [
        {
          "internalType": "uint256",
          "name": "",
          "type": "uint256"
        }
      ],
      "stateMutability": "view",
      "type": "function"
    },
    {
      "inputs": [
        {
          "internalType": "address",
          "name": "spender",
          "type": "address"
        },
        {
          "internalType": "uint256",
          "name": "amount",
          "type": "uint256"
        }
      ],
      "name": "approve",
      "outputs": [
        {
          "internalType": "bool",
          "name": "",
          "type": "bool"
        }
      ],
      "stateMutability": "nonpayable",
      "type": "function"
    },
    {
      "inputs": [
        {
          "internalType": "address",
          "name": "account",
          "type": "address"
        }
      ],
      "name": "balanceOf",
      "outputs": [
        {
          "internalType": "uint256",
          "name": "",
          "type": "uint256"
        }
      ],
      "stateMutability": "view",
      "type": "function"
    },
    {
      "inputs": [
        {
          "internalType": "address",
          "name": "from_",
          "type": "address"
        },
        {
          "internalType": "uint256",
          "name": "amount_",
          "type": "uint256"
        }
      ],
      "name": "burn",
      "outputs": [
        {
          "internalType": "uint256",
          "name": "",
          "type": "uint256"
        }
      ],
      "stateMutability": "nonpayable",
      "type": "function"
    },
    {
      "inputs": [
        {
          "internalType": "address",
          "name": "user",
          "type": "address"
        },
        {
          "internalType": "bytes4",
          "name": "functionSig",
          "type": "bytes4"
        }
      ],
      "name": "canCall",
      "outputs": [
        {
          "internalType": "bool",
          "name": "",
          "type": "bool"
        }
      ],
      "stateMutability": "view",
      "type": "function"
    },
    {
      "inputs": [],
      "name": "decimals",
      "outputs": [
        {
          "internalType": "uint8",
          "name": "",
          "type": "uint8"
        }
      ],
      "stateMutability": "view",
      "type": "function"
    },
    {
      "inputs": [
        {
          "internalType": "address",
          "name": "spender",
          "type": "address"
        },
        {
          "internalType": "uint256",
          "name": "subtractedValue",
          "type": "uint256"
        }
      ],
      "name": "decreaseAllowance",
      "outputs": [
        {
          "internalType": "bool",
          "name": "",
          "type": "bool"
        }
      ],
      "stateMutability": "nonpayable",
      "type": "function"
    },
    {
      "inputs": [
        {
          "internalType": "address",
          "name": "from_",
          "type": "address"
        }
      ],
      "name": "destroy",
      "outputs": [
        {
          "internalType": "uint256",
          "name": "",
          "type": "uint256"
        }
      ],
      "stateMutability": "nonpayable",
      "type": "function"
    },
    {
      "inputs": [
        {
          "internalType": "uint8",
          "name": "role",
          "type": "uint8"
        },
        {
          "internalType": "bytes4",
          "name": "functionSig",
          "type": "bytes4"
        }
      ],
      "name": "doesRoleHaveCapability",
      "outputs": [
        {
          "internalType": "bool",
          "name": "",
          "type": "bool"
        }
      ],
      "stateMutability": "view",
      "type": "function"
    },
    {
      "inputs": [
        {
          "internalType": "address",
          "name": "user",
          "type": "address"
        },
        {
          "internalType": "uint8",
          "name": "role",
          "type": "uint8"
        }
      ],
      "name": "doesUserHaveRole",
      "outputs": [
        {
          "internalType": "bool",
          "name": "",
          "type": "bool"
        }
      ],
      "stateMutability": "view",
      "type": "function"
    },
    {
      "inputs": [],
      "name": "getOwner",
      "outputs": [
        {
          "internalType": "address",
          "name": "",
          "type": "address"
        }
      ],
      "stateMutability": "nonpayable",
      "type": "function"
    },
    {
      "inputs": [
        {
          "internalType": "address",
          "name": "spender",
          "type": "address"
        },
        {
          "internalType": "uint256",
          "name": "addedValue",
          "type": "uint256"
        }
      ],
      "name": "increaseAllowance",
      "outputs": [
        {
          "internalType": "bool",
          "name": "",
          "type": "bool"
        }
      ],
      "stateMutability": "nonpayable",
      "type": "function"
    },
    {
      "inputs": [
        {
          "internalType": "address",
          "name": "to_",
          "type": "address"
        },
        {
          "internalType": "uint256",
          "name": "amount_",
          "type": "uint256"
        }
      ],
      "name": "mint",
      "outputs": [
        {
          "internalType": "uint256",
          "name": "",
          "type": "uint256"
        }
      ],
      "stateMutability": "nonpayable",
      "type": "function"
    },
    {
      "inputs": [],
      "name": "name",
      "outputs": [
        {
          "internalType": "string",
          "name": "",
          "type": "string"
        }
      ],
      "stateMutability": "view",
      "type": "function"
    },
    {
      "inputs": [],
      "name": "owner",
      "outputs": [
        {
          "internalType": "address",
          "name": "",
          "type": "address"
        }
      ],
      "stateMutability": "view",
      "type": "function"
    },
    {
      "inputs": [],
      "name": "pause",
      "outputs": [],
      "stateMutability": "nonpayable",
      "type": "function"
    },
    {
      "inputs": [],
      "name": "paused",
      "outputs": [
        {
          "internalType": "bool",
          "name": "",
          "type": "bool"
        }
      ],
      "stateMutability": "view",
      "type": "function"
    },
    {
      "inputs": [],
      "name": "renounceOwnership",
      "outputs": [],
      "stateMutability": "nonpayable",
      "type": "function"
    },
    {
      "inputs": [
        {
          "internalType": "bytes4",
          "name": "functionSig",
          "type": "bytes4"
        },
        {
          "internalType": "bool",
          "name": "enabled",
          "type": "bool"
        }
      ],
      "name": "setPublicCapability",
      "outputs": [],
      "stateMutability": "nonpayable",
      "type": "function"
    },
    {
      "inputs": [
        {
          "internalType": "uint8",
          "name": "role",
          "type": "uint8"
        },
        {
          "internalType": "bytes4",
          "name": "functionSig",
          "type": "bytes4"
        },
        {
          "internalType": "bool",
          "name": "enabled",
          "type": "bool"
        }
      ],
      "name": "setRoleCapability",
      "outputs": [],
      "stateMutability": "nonpayable",
      "type": "function"
    },
    {
      "inputs": [
        {
          "internalType": "address",
          "name": "user",
          "type": "address"
        },
        {
          "internalType": "uint8",
          "name": "role",
          "type": "uint8"
        },
        {
          "internalType": "bool",
          "name": "enabled",
          "type": "bool"
        }
      ],
      "name": "setUserRole",
      "outputs": [],
      "stateMutability": "nonpayable",
      "type": "function"
    },
    {
      "inputs": [
        {
          "internalType": "address",
          "name": "dplat_",
          "type": "address"
        }
      ],
      "name": "setZbyteDPlatAddress",
      "outputs": [],
      "stateMutability": "nonpayable",
      "type": "function"
    },
    {
      "inputs": [],
      "name": "symbol",
      "outputs": [
        {
          "internalType": "string",
          "name": "",
          "type": "string"
        }
      ],
      "stateMutability": "view",
      "type": "function"
    },
    {
      "inputs": [],
      "name": "totalSupply",
      "outputs": [
        {
          "internalType": "uint256",
          "name": "",
          "type": "uint256"
        }
      ],
      "stateMutability": "view",
      "type": "function"
    },
    {
      "inputs": [
        {
          "internalType": "address",
          "name": "to_",
          "type": "address"
        },
        {
          "internalType": "uint256",
          "name": "value_",
          "type": "uint256"
        }
      ],
      "name": "transfer",
      "outputs": [
        {
          "internalType": "bool",
          "name": "",
          "type": "bool"
        }
      ],
      "stateMutability": "nonpayable",
      "type": "function"
    },
    {
      "inputs": [
        {
          "internalType": "address",
          "name": "from_",
          "type": "address"
        },
        {
          "internalType": "address",
          "name": "to_",
          "type": "address"
        },
        {
          "internalType": "uint256",
          "name": "value_",
          "type": "uint256"
        }
      ],
      "name": "transferFrom",
      "outputs": [
        {
          "internalType": "bool",
          "name": "",
          "type": "bool"
        }
      ],
      "stateMutability": "nonpayable",
      "type": "function"
    },
    {
      "inputs": [
        {
          "internalType": "address",
          "name": "newOwner",
          "type": "address"
        }
      ],
      "name": "transferOwnership",
      "outputs": [],
      "stateMutability": "nonpayable",
      "type": "function"
    },
    {
      "inputs": [],
      "name": "unpause",
      "outputs": [],
      "stateMutability": "nonpayable",
      "type": "function"
    },
    {
      "stateMutability": "payable",
      "type": "receive"
    }
  ],
  "transactionHash": "0xf8792ad531838c1f7517d3313b2385947456c5bca443c794179056c1f36c8617",
  "args": [
    "0x4354441c4F40dFB3F14ceb68977fA20B62068200"
  ],
  "numDeployments": 2,
  "solcInputHash": "08030be70ba2e8267e0705f7ea1af8b1",
  "bytecode": "0x6080346200039a57601f90601f19906001600160401b03620019b93881900385810185168401838111858210176200039f578492829160405283396020938491810103126200039a57516001600160a01b0380821695909390918690036200039a576200006b620003b5565b936006855265765a6279746560d01b8286015262000088620003b5565b91600596878452641d9690965560da1b82850152600092835490339082167f8be0079c531659141344cd1fd0a4f28419497f9722a3daafe3b4186f6b6457e08680a36001600160a81b0319163360ff60a01b1916178355865186811162000386576004908154986001998a81811c911680156200037b575b86821014620003685790818984931162000315575b508590898311600114620002b4578792620002a8575b5050600019600383901b1c191690891b1781555b845196871162000295578854908882811c921680156200028a575b8483101462000277575085811162000231575b5081948611600114620001cb57505091839491849394620001bf575b50501b916000199060031b1c19161790555b600680546001600160a01b0319169190911790556040516115e39081620003d68239f35b01519250388062000189565b8783528183209493928692918316915b88838310620002165750505010620001fc575b505050811b0190556200019b565b015160001960f88460031b161c19169055388080620001ee565b858701518855909601959485019487935090810190620001db565b888452828420868089018b1c820192858a106200026d575b018a1c019088905b828110620002615750506200016d565b85815501889062000251565b9250819262000249565b634e487b7160e01b855260229052602484fd5b91607f16916200015a565b634e487b7160e01b845260419052602483fd5b0151905038806200012b565b90858c94169185895287892092895b89828210620002fe5750508411620002e4575b505050811b0181556200013f565b015160001960f88460031b161c19169055388080620002d6565b8385015186558f97909501949384019301620002c3565b909150838752858720898d818601901c8201928886106200035e575b918e8e928796959401901c01915b8281106200034f57505062000115565b8981558594508d91016200033f565b9250819262000331565b634e487b7160e01b875260228452602487fd5b90607f169062000100565b634e487b7160e01b84526041600452602484fd5b600080fd5b634e487b7160e01b600052604160045260246000fd5b60408051919082016001600160401b038111838210176200039f5760405256fe60406080815260049081361015610029575b361561001c57600080fd5b5163bf06461960e01b8152fd5b600080358060e01c908162f55d9d14610e5857816306fdde0314610d62578163095ea7b314610d385781630ea9b75b14610c6b57816318160ddd14610c4c57816323b872dd14610b65578163313ce56714610b495781633950935114610af95781633f4ba83a14610a8357816340c10f191461094c5781634b5159da146108995781635c975abb1461087457816367aff4841461079157816370a0823114610759578163715018a6146106fb5781638456cb591461067e57816386bed3e014610647578163893d20e81461061f5781638da5cb5b1461061f578163952878ad1461059457816395d89b41146104915781639dc29fac14610435578163a457c2d71461038d578163a9059cbb1461032e57508063dd62ed3e146102e5578063e688747b1461028e578063ea7ca276146102355763f2fde38b1461016b5750610011565b913461023157602036600319011261023157610185611010565b83546001600160a01b038082169391926101a03386146110d0565b169384156101df5750506001600160a01b031916821783557f8be0079c531659141344cd1fd0a4f28419497f9722a3daafe3b4186f6b6457e08380a380f35b906020608492519162461bcd60e51b8352820152602660248201527f4f776e61626c653a206e6577206f776e657220697320746865207a65726f206160448201526564647265737360d01b6064820152fd5b8280fd5b50903461028a578060031936011261028a579060018260ff602094610258611010565b9461026161109a565b95858060a01b0316815260008051602061156e83398151915287522054915193161c1615158152f35b5080fd5b50903461028a578060031936011261028a579060018260ff6020946102b161108a565b946001600160e01b03196102c36110aa565b16815260008051602061158e83398151915287522054915193161c1615158152f35b50903461028a578060031936011261028a5780602092610303611010565b61030b61102b565b6001600160a01b0391821683526002865283832091168252845220549051908152f35b839150346102315781600319360112610231576103869061037c60ff60209561037161036c61035b611010565b956001600160e01b031916336114ac565b6112fa565b5460a01c1615611278565b6024359033611335565b5160018152f35b838584346104325782600319360112610432576103a8611010565b918360243592338152600260205281812060018060a01b03861682526020522054908282106103e1576020856103868585038733611176565b608490602086519162461bcd60e51b8352820152602560248201527f45524332303a2064656372656173656420616c6c6f77616e63652062656c6f77604482015264207a65726f60d81b6064820152fd5b80fd5b839150346102315781600319360112610231579061048b61036c9260209461047960ff610460611010565b9261037160243598899663ffffffff60e01b16336114ac565b6006546001600160a01b031690611335565b51908152f35b82858534610231578260031936011261023157805191836005549060019082821c92828116801561058a575b6020958686108214610577575084885290811561055557506001146104fc575b6104f886866104ee828b038361111b565b5191829182611041565b0390f35b929550600583527f036b6384b5eca791c62761152d0c79bb0604c104a5fb6f4eb0703f3154bb3db05b82841061054257505050826104f8946104ee9282010194866104dd565b8054868501880152928601928101610525565b60ff191687860152505050151560051b83010192506104ee826104f8866104dd565b634e487b7160e01b845260229052602483fd5b93607f16936104bd565b82858534610231576020366003190112610231576105b0611010565b83546001600160a01b0391906105c990831633146110d0565b169182156106115750600780546001600160a01b03191683179055519081527fcdb1d3368616848c1c9d3f5056cc44cb1121bb9d759dc507ebb4dcf89c674c9290602090a180f35b905163d92e233d60e01b8152fd5b82843461028a578160031936011261028a57905490516001600160a01b039091168152602090f35b82843461028a578060031936011261028a57602090610675610667611010565b61066f6110aa565b906114ac565b90519015158152f35b82843461028a578160031936011261028a5781547f62e78cea01bee320cd4e420270b5ea74000d11b0c9f74754ebdbfc544b05a258916020916106cb6001600160a01b03821633146110d0565b6106e460ff8260a01c16156106df81611278565b611278565b60ff60a01b1916600160a01b17845551338152a180f35b8234610432578060031936011261043257805481906001600160a01b038116906107263383146110d0565b6001600160a01b03191682557f8be0079c531659141344cd1fd0a4f28419497f9722a3daafe3b4186f6b6457e08280a380f35b82843461028a57602036600319011261028a5760209181906001600160a01b03610781611010565b1681526001845220549051908152f35b83915034610231576060366003190112610231577f4c9bdd0c8e073eb5eda2250b18d8e5121ff27b62064fbeeeed4869bb99bc5bf2602060ff6107d2611010565b946107db61109a565b906107fb61036c6107ea6110c1565b976001600160e01b03191633611541565b8515610843576001600160a01b038716885260008051602061156e8339815191528452808820805460018486161b1790555b51941515855216936001600160a01b031692a380f35b6001600160a01b038716885260008051602061156e8339815191528452808820805460018486161b1916905561082d565b82843461028a578160031936011261028a5760ff6020925460a01c1690519015158152f35b9050828434610948578160031936011261094857359163ffffffff60e01b9182841680940361094457602435908115158092036109405761090261036c7f36d28126bef21a4f3765d7fcb7c45cead463ae4c41094ef3b771ede598544103956020951633611541565b8486527f6996f334069c4992c0e877f35c63b0a95f2ee7b8cef053f093cf67dba5d60b9c835280862060ff1981541660ff841617905551908152a280f35b8580fd5b8480fd5b8380fd5b929390503461028a578360031936011261028a57610968611010565b9161098261036c6024359563ffffffff60e01b16336114ac565b61099360ff825460a01c1615611278565b6007546001600160a01b0390811615610a7357808416928315610a30575091610a2a8587602098969461048b966109cc84600354611153565b60035585825260018b528282206109e4858254611153565b905585827fddf252ad1be2c89b69c2b068fc378daa952ba7f163c4a11628f55a4df523b3ef8d8651888152a36007541694815260028a528181208582528a522054611153565b91611176565b606490602088519162461bcd60e51b8352820152601f60248201527f45524332303a206d696e7420746f20746865207a65726f2061646472657373006044820152fd5b855163d92e233d60e01b81528390fd5b82843461028a578160031936011261028a5781547f5db9ee0a495bf2e6ff9c91a7834c1ba4fdd244a5e8aa4e537bd38aeae4b073aa91602091610ad06001600160a01b03821633146110d0565b610ae860ff8260a01c16610ae3816112b7565b6112b7565b60ff60a01b1916845551338152a180f35b82843461028a578060031936011261028a57610386602092610b42610b1c611010565b338352600286528483206001600160a01b03821684528652918490205460243590611153565b9033611176565b82843461028a578160031936011261028a576020905160128152f35b918491503461043257606036600319011261043257908361036c92610bc3610b8b611010565b95610b9461102b565b610bac60443597889363ffffffff60e01b16336114ac565b610bbd60ff855460a01c1615611278565b87611335565b6001600160a01b0385168152600260209081528282203383529052205490828210610bf8576020856103868585033388611176565b608490602086519162461bcd60e51b8352820152602860248201527f45524332303a207472616e7366657220616d6f756e74206578636565647320616044820152676c6c6f77616e636560c01b6064820152fd5b82843461028a578160031936011261028a576020906003549051908152f35b90508234610231576060366003190112610231577fbfe16b2c35ce23dfd1ab0e7b5d086a10060c9b52d1574e1680c881b3b3a2b151602060ff610cac61108a565b94610cb56110aa565b610cbd6110c1565b95610cd561036c63ffffffff60e01b80951633611541565b8615610d0e57828216895260008051602061158e83398151915285528089206001858a161b81541790555b51951515865216941692a380f35b828216895260008051602061158e83398151915285528089206001858a161b198154169055610d00565b82843461028a578060031936011261028a57602090610386610d58611010565b6024359033611176565b5050903461028a578160031936011261028a57805191809380549160019083821c92828516948515610e4e575b6020958686108114610e3b57858952908115610e175750600114610dbf575b6104f887876104ee828c038361111b565b81529295507f8a35acfbc15ff81a39ae7d344fd709f28e8600b4aa8c65c6b64bfe7fe36bd19b5b828410610e0457505050826104f8946104ee92820101943880610dae565b8054868501880152928601928101610de6565b60ff19168887015250505050151560051b83010192506104ee826104f83880610dae565b634e487b7160e01b845260228352602484fd5b93607f1693610d8f565b9291905034610432576020938460031936011261028a57610e7d61036c61035b611010565b610e8e60ff835460a01c1615611278565b82516370a0823160e01b81526001600160a01b03909416818501819052908585602481305afa948515611006578395610fd7575b508115610f8a578183526001865283832054858110610f3c57859083855260018852038484205560035490858203918211610f2957506003557fddf252ad1be2c89b69c2b068fc378daa952ba7f163c4a11628f55a4df523b3ef858451868152a351908152f35b634e487b7160e01b845260119052602483fd5b845162461bcd60e51b8152808301889052602260248201527f45524332303a206275726e20616d6f756e7420657863656564732062616c616e604482015261636560f01b6064820152608490fd5b835162461bcd60e51b8152908101869052602160248201527f45524332303a206275726e2066726f6d20746865207a65726f206164647265736044820152607360f81b6064820152608490fd5b9094508581813d8311610fff575b610fef818361111b565b8101031261023157519338610ec2565b503d610fe5565b84513d85823e3d90fd5b600435906001600160a01b038216820361102657565b600080fd5b602435906001600160a01b038216820361102657565b6020808252825181830181905290939260005b82811061107657505060409293506000838284010152601f8019910116010190565b818101860151848201604001528501611054565b6004359060ff8216820361102657565b6024359060ff8216820361102657565b602435906001600160e01b03198216820361102657565b60443590811515820361102657565b156110d757565b606460405162461bcd60e51b815260206004820152602060248201527f4f776e61626c653a2063616c6c6572206973206e6f7420746865206f776e65726044820152fd5b90601f8019910116810190811067ffffffffffffffff82111761113d57604052565b634e487b7160e01b600052604160045260246000fd5b9190820180921161116057565b634e487b7160e01b600052601160045260246000fd5b6001600160a01b0390811691821561122757169182156111d75760207f8c5be1e5ebec7d5bd14f71427d1e84f3dd0314c0f7b2291e5b200ac8c7c3b925918360005260028252604060002085600052825280604060002055604051908152a3565b60405162461bcd60e51b815260206004820152602260248201527f45524332303a20617070726f766520746f20746865207a65726f206164647265604482015261737360f01b6064820152608490fd5b60405162461bcd60e51b8152602060048201526024808201527f45524332303a20617070726f76652066726f6d20746865207a65726f206164646044820152637265737360e01b6064820152608490fd5b1561127f57565b60405162461bcd60e51b815260206004820152601060248201526f14185d5cd8589b194e881c185d5cd95960821b6044820152606490fd5b156112be57565b60405162461bcd60e51b815260206004820152601460248201527314185d5cd8589b194e881b9bdd081c185d5cd95960621b6044820152606490fd5b1561130157565b60405162461bcd60e51b815260206004820152600c60248201526b15539055551213d49256915160a21b6044820152606490fd5b6001600160a01b03908116918215611459571691821561140857600082815260016020526040812054918083106113b457604082827fddf252ad1be2c89b69c2b068fc378daa952ba7f163c4a11628f55a4df523b3ef958760209652600186520382822055868152206113a9828254611153565b9055604051908152a3565b60405162461bcd60e51b815260206004820152602660248201527f45524332303a207472616e7366657220616d6f756e7420657863656564732062604482015265616c616e636560d01b6064820152608490fd5b60405162461bcd60e51b815260206004820152602360248201527f45524332303a207472616e7366657220746f20746865207a65726f206164647260448201526265737360e81b6064820152608490fd5b60405162461bcd60e51b815260206004820152602560248201527f45524332303a207472616e736665722066726f6d20746865207a65726f206164604482015264647265737360d81b6064820152608490fd5b6001600160e01b031990911660008181527f6996f334069c4992c0e877f35c63b0a95f2ee7b8cef053f093cf67dba5d60b9c602052604081205460ff169283156114f7575b50505090565b6001600160a01b0316815260008051602061156e833981519152602090815260408083205493835260008051602061158e83398151915290915290205416151590503880806114f1565b9061154c90826114ac565b908115611557575090565b6000546001600160a01b0391821691161491905056fe6996f334069c4992c0e877f35c63b0a95f2ee7b8cef053f093cf67dba5d60b9b6996f334069c4992c0e877f35c63b0a95f2ee7b8cef053f093cf67dba5d60b9da2646970667358221220317dd682773605f47d3c85688c82dce1fb51cd8946cf5f44628744f8454054e264736f6c63430008110033",
  "devdoc": {
    "details": "The ZBYT vERC20 contract",
    "kind": "dev",
    "methods": {
      "allowance(address,address)": {
        "details": "See {IERC20-allowance}."
      },
      "approve(address,uint256)": {
        "details": "See {IERC20-approve}. Requirements: - `spender` cannot be the zero address."
      },
      "balanceOf(address)": {
        "details": "See {IERC20-balanceOf}."
      },
      "burn(address,uint256)": {
        "details": "requiresAuth ensures that this call can be complely disabled, or only specific accounts can call",
        "params": {
          "amount_": "Amount to burn",
          "from_": "Sender address to burn tokens from"
        }
      },
      "constructor": {
        "params": {
          "burner_": "Burn account address (Tokens are locked here, not destroyed)"
        }
      },
      "decimals()": {
        "details": "Returns the number of decimals used to get its user representation. For example, if `decimals` equals `2`, a balance of `505` tokens should be displayed to a user as `5.05` (`505 / 10 ** 2`). Tokens usually opt for a value of 18, imitating the relationship between Ether and Wei. This is the value {ERC20} uses, unless this function is overridden; NOTE: This information is only used for _display_ purposes: it in no way affects any of the arithmetic of the contract, including {IERC20-balanceOf} and {IERC20-transfer}."
      },
      "decreaseAllowance(address,uint256)": {
        "details": "Atomically decreases the allowance granted to `spender` by the caller. This is an alternative to {approve} that can be used as a mitigation for problems described in {IERC20-approve}. Emits an {Approval} event indicating the updated allowance. Requirements: - `spender` cannot be the zero address. - `spender` must have allowance for the caller of at least `subtractedValue`."
      },
      "destroy(address)": {
        "details": "This is called during withdraw / reconciliation only.  Withdraw is allowed only from the paymaster or burner address",
        "params": {
          "from_": "Address from which tokens are destroyed"
        }
      },
      "increaseAllowance(address,uint256)": {
        "details": "Atomically increases the allowance granted to `spender` by the caller. This is an alternative to {approve} that can be used as a mitigation for problems described in {IERC20-approve}. Emits an {Approval} event indicating the updated allowance. Requirements: - `spender` cannot be the zero address."
      },
      "mint(address,uint256)": {
        "details": "The forwarder charges user in this ERC20 token for the contract call.  Approve the tokens to dplat at mint itself.",
        "params": {
          "amount_": "Amount to mint to the address(to_) and approve to dplat",
          "to_": "Receiver address"
        }
      },
      "name()": {
        "details": "Returns the name of the token."
      },
      "owner()": {
        "details": "Returns the address of the current owner."
      },
      "paused()": {
        "details": "Returns true if the contract is paused, and false otherwise."
      },
      "renounceOwnership()": {
        "details": "Leaves the contract without owner. It will not be possible to call `onlyOwner` functions anymore. Can only be called by the current owner. NOTE: Renouncing ownership will leave the contract without an owner, thereby removing any functionality that is only available to the owner."
      },
      "setZbyteDPlatAddress(address)": {
        "params": {
          "dplat_": "DPlat contract address"
        }
      },
      "symbol()": {
        "details": "Returns the symbol of the token, usually a shorter version of the name."
      },
      "totalSupply()": {
        "details": "See {IERC20-totalSupply}."
      },
      "transfer(address,uint256)": {
        "details": "requiresAuth ensures that this call can be complely disabled, or only specific accounts can call",
        "params": {
          "to_": "Receiver account address",
          "value_": "Amount of tokens to be transferred"
        }
      },
      "transferFrom(address,address,uint256)": {
        "details": "requiresAuth ensures that this call can be complely disabled, or only specific accounts can call  Allowing only specific accounts to perform transferFrom allows controlled transfer of vERC20 in future",
        "params": {
          "from_": "The address to transfer tokens from",
          "to_": "The address to transfer tokens to",
          "value_": "The amount of tokens to transfer"
        }
      },
      "transferOwnership(address)": {
        "details": "Transfers ownership of the contract to a new account (`newOwner`). Can only be called by the current owner."
      }
    },
    "title": "The ZBYT vERC20 contract",
    "version": 1
  },
  "userdoc": {
    "errors": {
      "CannotSendEther()": [
        {
          "notice": "error (0xbf064619): Contract cannot receive ether"
        }
      ],
      "ZeroAddress()": [
        {
          "notice": "error (0xd92e233d): Address is address(0)"
        }
      ]
    },
    "events": {
      "ZbyteDPlatAddressSet(address)": {
        "notice": "event (0xcdb1d336) ZbyteDPlat address is set"
      }
    },
    "kind": "user",
    "methods": {
      "burn(address,uint256)": {
        "notice": "Transfer vERC20 to 'burner' address"
      },
      "constructor": {
        "notice": "ZBYT ERC20 constructor"
      },
      "destroy(address)": {
        "notice": "Destroy vERC20"
      },
      "mint(address,uint256)": {
        "notice": "mint vZBYT ERC20"
      },
      "pause()": {
        "notice": "Pauses the contract (mint, transfer and burn operations are paused)"
      },
      "setZbyteDPlatAddress(address)": {
        "notice": "Set the DPlat address"
      },
      "transfer(address,uint256)": {
        "notice": "Transfer vERC20 from caller's account to receiver's account"
      },
      "transferFrom(address,address,uint256)": {
        "notice": "Transfers tokens from a specified address to another address."
      },
      "unpause()": {
        "notice": "Unpauses the paused contract"
      }
    },
    "version": 1
  },
  "storageLayout": {
    "storage": [
      {
        "astId": 7,
        "contract": "contracts/dplat/ZbyteVToken.sol:ZbyteVToken",
        "label": "_owner",
        "offset": 0,
        "slot": "0",
        "type": "t_address"
      },
      {
        "astId": 121,
        "contract": "contracts/dplat/ZbyteVToken.sol:ZbyteVToken",
        "label": "_paused",
        "offset": 20,
        "slot": "0",
        "type": "t_bool"
      },
      {
        "astId": 251,
        "contract": "contracts/dplat/ZbyteVToken.sol:ZbyteVToken",
        "label": "_balances",
        "offset": 0,
        "slot": "1",
        "type": "t_mapping(t_address,t_uint256)"
      },
      {
        "astId": 257,
        "contract": "contracts/dplat/ZbyteVToken.sol:ZbyteVToken",
        "label": "_allowances",
        "offset": 0,
        "slot": "2",
        "type": "t_mapping(t_address,t_mapping(t_address,t_uint256))"
      },
      {
        "astId": 259,
        "contract": "contracts/dplat/ZbyteVToken.sol:ZbyteVToken",
        "label": "_totalSupply",
        "offset": 0,
        "slot": "3",
        "type": "t_uint256"
      },
      {
        "astId": 261,
        "contract": "contracts/dplat/ZbyteVToken.sol:ZbyteVToken",
        "label": "_name",
        "offset": 0,
        "slot": "4",
        "type": "t_string_storage"
      },
      {
        "astId": 263,
        "contract": "contracts/dplat/ZbyteVToken.sol:ZbyteVToken",
        "label": "_symbol",
        "offset": 0,
        "slot": "5",
        "type": "t_string_storage"
      },
      {
        "astId": 3450,
        "contract": "contracts/dplat/ZbyteVToken.sol:ZbyteVToken",
        "label": "burner",
        "offset": 0,
        "slot": "6",
        "type": "t_address"
      },
      {
        "astId": 3452,
        "contract": "contracts/dplat/ZbyteVToken.sol:ZbyteVToken",
        "label": "dplat",
        "offset": 0,
        "slot": "7",
        "type": "t_address"
      }
    ],
    "types": {
      "t_address": {
        "encoding": "inplace",
        "label": "address",
        "numberOfBytes": "20"
      },
      "t_bool": {
        "encoding": "inplace",
        "label": "bool",
        "numberOfBytes": "1"
      },
      "t_mapping(t_address,t_mapping(t_address,t_uint256))": {
        "encoding": "mapping",
        "key": "t_address",
        "label": "mapping(address => mapping(address => uint256))",
        "numberOfBytes": "32",
        "value": "t_mapping(t_address,t_uint256)"
      },
      "t_mapping(t_address,t_uint256)": {
        "encoding": "mapping",
        "key": "t_address",
        "label": "mapping(address => uint256)",
        "numberOfBytes": "32",
        "value": "t_uint256"
      },
      "t_string_storage": {
        "encoding": "bytes",
        "label": "string",
        "numberOfBytes": "32"
      },
      "t_uint256": {
        "encoding": "inplace",
        "label": "uint256",
        "numberOfBytes": "32"
      }
    }
  }
}