{
  "address": "0x72EEF2831e58d5A0f4aF93a5379d9CD977Faf044",
  "abi": [
    {
      "inputs": [
        {
          "internalType": "address",
          "name": "forwarder_",
          "type": "address"
        },
        {
          "internalType": "address",
          "name": "zbyte_",
          "type": "address"
        },
        {
          "internalType": "address",
          "name": "treasury_",
          "type": "address"
        }
      ],
      "stateMutability": "nonpayable",
      "type": "constructor"
    },
    {
      "inputs": [],
      "name": "CannotSendEther",
      "type": "error"
    },
    {
      "inputs": [
        {
          "internalType": "uint256",
          "name": "",
          "type": "uint256"
        },
        {
          "internalType": "uint256",
          "name": "",
          "type": "uint256"
        }
      ],
      "name": "InsufficientERC20ForDepositGas",
      "type": "error"
    },
    {
      "inputs": [
        {
          "internalType": "uint256",
          "name": "",
          "type": "uint256"
        },
        {
          "internalType": "bytes32",
          "name": "",
          "type": "bytes32"
        },
        {
          "internalType": "bool",
          "name": "",
          "type": "bool"
        },
        {
          "internalType": "uint256",
          "name": "",
          "type": "uint256"
        }
      ],
      "name": "InvalidCallbackAck",
      "type": "error"
    },
    {
      "inputs": [
        {
          "internalType": "uint256",
          "name": "",
          "type": "uint256"
        },
        {
          "internalType": "uint256",
          "name": "",
          "type": "uint256"
        },
        {
          "internalType": "uint256",
          "name": "",
          "type": "uint256"
        },
        {
          "internalType": "uint256",
          "name": "",
          "type": "uint256"
        }
      ],
      "name": "InvalidCallbackMessage",
      "type": "error"
    },
    {
      "inputs": [
        {
          "internalType": "address",
          "name": "",
          "type": "address"
        }
      ],
      "name": "InvalidRelay",
      "type": "error"
    },
    {
      "inputs": [
        {
          "internalType": "address",
          "name": "",
          "type": "address"
        }
      ],
      "name": "UnAuthorized",
      "type": "error"
    },
    {
      "inputs": [],
      "name": "ZeroAddress",
      "type": "error"
    },
    {
      "inputs": [],
      "name": "ZeroValue",
      "type": "error"
    },
    {
      "anonymous": false,
      "inputs": [
        {
          "indexed": false,
          "internalType": "bytes32",
          "name": "",
          "type": "bytes32"
        },
        {
          "indexed": false,
          "internalType": "bool",
          "name": "",
          "type": "bool"
        },
        {
          "indexed": false,
          "internalType": "uint256",
          "name": "",
          "type": "uint256"
        }
      ],
      "name": "ERC20DepositConfirmed",
      "type": "event"
    },
    {
      "anonymous": false,
      "inputs": [
        {
          "indexed": false,
          "internalType": "address",
          "name": "",
          "type": "address"
        },
        {
          "indexed": false,
          "internalType": "address",
          "name": "",
          "type": "address"
        },
        {
          "indexed": false,
          "internalType": "uint256",
          "name": "",
          "type": "uint256"
        },
        {
          "indexed": false,
          "internalType": "uint256",
          "name": "",
          "type": "uint256"
        },
        {
          "indexed": false,
          "internalType": "bytes32",
          "name": "",
          "type": "bytes32"
        }
      ],
      "name": "ERC20DepositFailed",
      "type": "event"
    },
    {
      "anonymous": false,
      "inputs": [
        {
          "indexed": false,
          "internalType": "bytes32",
          "name": "",
          "type": "bytes32"
        },
        {
          "indexed": false,
          "internalType": "bool",
          "name": "",
          "type": "bool"
        },
        {
          "indexed": false,
          "internalType": "uint256",
          "name": "",
          "type": "uint256"
        }
      ],
      "name": "ERC20DepositFailedAndRefunded",
      "type": "event"
    },
    {
      "anonymous": false,
      "inputs": [
        {
          "indexed": false,
          "internalType": "address",
          "name": "",
          "type": "address"
        },
        {
          "indexed": false,
          "internalType": "address",
          "name": "",
          "type": "address"
        },
        {
          "indexed": false,
          "internalType": "uint256",
          "name": "",
          "type": "uint256"
        },
        {
          "indexed": false,
          "internalType": "uint256",
          "name": "",
          "type": "uint256"
        },
        {
          "indexed": false,
          "internalType": "bytes32",
          "name": "",
          "type": "bytes32"
        }
      ],
      "name": "ERC20Deposited",
      "type": "event"
    },
    {
      "anonymous": false,
      "inputs": [
        {
          "indexed": false,
          "internalType": "bytes32",
          "name": "",
          "type": "bytes32"
        },
        {
          "indexed": false,
          "internalType": "bool",
          "name": "",
          "type": "bool"
        },
        {
          "indexed": false,
          "internalType": "uint256",
          "name": "",
          "type": "uint256"
        }
      ],
      "name": "ERC20WithdrawConfirmed",
      "type": "event"
    },
    {
      "anonymous": false,
      "inputs": [
        {
          "indexed": false,
          "internalType": "address",
          "name": "",
          "type": "address"
        },
        {
          "indexed": false,
          "internalType": "address",
          "name": "",
          "type": "address"
        },
        {
          "indexed": false,
          "internalType": "address",
          "name": "",
          "type": "address"
        },
        {
          "indexed": false,
          "internalType": "uint256",
          "name": "",
          "type": "uint256"
        },
        {
          "indexed": false,
          "internalType": "bytes32",
          "name": "",
          "type": "bytes32"
        }
      ],
      "name": "ERC20WithdrawFailed",
      "type": "event"
    },
    {
      "anonymous": false,
      "inputs": [
        {
          "indexed": false,
          "internalType": "address",
          "name": "",
          "type": "address"
        },
        {
          "indexed": false,
          "internalType": "address",
          "name": "",
          "type": "address"
        },
        {
          "indexed": false,
          "internalType": "address",
          "name": "",
          "type": "address"
        },
        {
          "indexed": false,
          "internalType": "uint256",
          "name": "",
          "type": "uint256"
        },
        {
          "indexed": false,
          "internalType": "bytes32",
          "name": "",
          "type": "bytes32"
        }
      ],
      "name": "ERC20Withdrawn",
      "type": "event"
    },
    {
      "anonymous": false,
      "inputs": [
        {
          "indexed": false,
          "internalType": "address",
          "name": "",
          "type": "address"
        },
        {
          "indexed": false,
          "internalType": "address",
          "name": "",
          "type": "address"
        }
      ],
      "name": "ForwarderSet",
      "type": "event"
    },
    {
      "anonymous": false,
      "inputs": [
        {
          "indexed": true,
          "internalType": "address",
          "name": "previousOwner",
          "type": "address"
        },
        {
          "indexed": true,
          "internalType": "address",
          "name": "newOwner",
          "type": "address"
        }
      ],
      "name": "OwnershipTransferred",
      "type": "event"
    },
    {
      "anonymous": false,
      "inputs": [
        {
          "indexed": false,
          "internalType": "address",
          "name": "account",
          "type": "address"
        }
      ],
      "name": "Paused",
      "type": "event"
    },
    {
      "anonymous": false,
      "inputs": [
        {
          "indexed": false,
          "internalType": "address",
          "name": "",
          "type": "address"
        }
      ],
      "name": "RelayWrapperAddressSet",
      "type": "event"
    },
    {
      "anonymous": false,
      "inputs": [
        {
          "indexed": false,
          "internalType": "address",
          "name": "",
          "type": "address"
        },
        {
          "indexed": false,
          "internalType": "address",
          "name": "",
          "type": "address"
        }
      ],
      "name": "TreasuryAddressSet",
      "type": "event"
    },
    {
      "anonymous": false,
      "inputs": [
        {
          "indexed": false,
          "internalType": "address",
          "name": "account",
          "type": "address"
        }
      ],
      "name": "Unpaused",
      "type": "event"
    },
    {
      "anonymous": false,
      "inputs": [
        {
          "indexed": false,
          "internalType": "address",
          "name": "",
          "type": "address"
        },
        {
          "indexed": false,
          "internalType": "bool",
          "name": "",
          "type": "bool"
        }
      ],
      "name": "WorkerRegistered",
      "type": "event"
    },
    {
      "anonymous": false,
      "inputs": [
        {
          "indexed": false,
          "internalType": "address",
          "name": "",
          "type": "address"
        }
      ],
      "name": "ZbytePriceFeederAddressSet",
      "type": "event"
    },
    {
      "anonymous": false,
      "inputs": [
        {
          "indexed": false,
          "internalType": "address",
          "name": "",
          "type": "address"
        },
        {
          "indexed": false,
          "internalType": "uint256",
          "name": "",
          "type": "uint256"
        }
      ],
      "name": "vERC20AddressSet",
      "type": "event"
    },
    {
      "inputs": [],
      "name": "asset",
      "outputs": [
        {
          "internalType": "address",
          "name": "",
          "type": "address"
        }
      ],
      "stateMutability": "view",
      "type": "function"
    },
    {
      "inputs": [
        {
          "internalType": "uint256",
          "name": "chain_",
          "type": "uint256"
        },
        {
          "internalType": "bytes32",
          "name": "ack_",
          "type": "bytes32"
        },
        {
          "internalType": "bool",
          "name": "success_",
          "type": "bool"
        },
        {
          "internalType": "uint256",
          "name": "retval_",
          "type": "uint256"
        }
      ],
      "name": "callbackHandler",
      "outputs": [
        {
          "internalType": "uint256",
          "name": "",
          "type": "uint256"
        }
      ],
      "stateMutability": "nonpayable",
      "type": "function"
    },
    {
      "inputs": [
        {
          "internalType": "uint256",
          "name": "relay_",
          "type": "uint256"
        },
        {
          "internalType": "uint256",
          "name": "chain_",
          "type": "uint256"
        },
        {
          "internalType": "address",
          "name": "receiver_",
          "type": "address"
        },
        {
          "internalType": "uint256",
          "name": "amount_",
          "type": "uint256"
        }
      ],
      "name": "deposit",
      "outputs": [
        {
          "internalType": "bool",
          "name": "result",
          "type": "bool"
        }
      ],
      "stateMutability": "nonpayable",
      "type": "function"
    },
    {
      "inputs": [],
      "name": "getNonce",
      "outputs": [
        {
          "internalType": "uint256",
          "name": "",
          "type": "uint256"
        }
      ],
      "stateMutability": "view",
      "type": "function"
    },
    {
      "inputs": [
        {
          "internalType": "address",
          "name": "forwarder_",
          "type": "address"
        }
      ],
      "name": "isTrustedForwarder",
      "outputs": [
        {
          "internalType": "bool",
          "name": "",
          "type": "bool"
        }
      ],
      "stateMutability": "view",
      "type": "function"
    },
    {
      "inputs": [],
      "name": "owner",
      "outputs": [
        {
          "internalType": "address",
          "name": "",
          "type": "address"
        }
      ],
      "stateMutability": "view",
      "type": "function"
    },
    {
      "inputs": [],
      "name": "pause",
      "outputs": [],
      "stateMutability": "nonpayable",
      "type": "function"
    },
    {
      "inputs": [],
      "name": "paused",
      "outputs": [
        {
          "internalType": "bool",
          "name": "",
          "type": "bool"
        }
      ],
      "stateMutability": "view",
      "type": "function"
    },
    {
      "inputs": [
        {
          "internalType": "bytes32",
          "name": "",
          "type": "bytes32"
        }
      ],
      "name": "pendingAction",
      "outputs": [
        {
          "internalType": "enum EscrowERC20.Action",
          "name": "action",
          "type": "uint8"
        },
        {
          "internalType": "address",
          "name": "nAddress",
          "type": "address"
        },
        {
          "internalType": "address",
          "name": "rAddress",
          "type": "address"
        },
        {
          "internalType": "uint256",
          "name": "chainId",
          "type": "uint256"
        },
        {
          "internalType": "uint256",
          "name": "amount",
          "type": "uint256"
        }
      ],
      "stateMutability": "view",
      "type": "function"
    },
    {
      "inputs": [
        {
          "internalType": "address",
          "name": "worker_",
          "type": "address"
        },
        {
          "internalType": "bool",
          "name": "register_",
          "type": "bool"
        }
      ],
      "name": "registerWorker",
      "outputs": [],
      "stateMutability": "nonpayable",
      "type": "function"
    },
    {
      "inputs": [],
      "name": "relayWrapper",
      "outputs": [
        {
          "internalType": "contract IRelayWrapper",
          "name": "",
          "type": "address"
        }
      ],
      "stateMutability": "view",
      "type": "function"
    },
    {
      "inputs": [],
      "name": "renounceOwnership",
      "outputs": [],
      "stateMutability": "nonpayable",
      "type": "function"
    },
    {
      "inputs": [
        {
          "internalType": "address",
          "name": "wrapper_",
          "type": "address"
        }
      ],
      "name": "setRelayWrapperAddress",
      "outputs": [],
      "stateMutability": "nonpayable",
      "type": "function"
    },
    {
      "inputs": [
        {
          "internalType": "address",
          "name": "treasury_",
          "type": "address"
        }
      ],
      "name": "setTreasuryAddress",
      "outputs": [],
      "stateMutability": "nonpayable",
      "type": "function"
    },
    {
      "inputs": [
        {
          "internalType": "address",
          "name": "forwarder_",
          "type": "address"
        }
      ],
      "name": "setTrustedForwarder",
      "outputs": [],
      "stateMutability": "nonpayable",
      "type": "function"
    },
    {
      "inputs": [
        {
          "internalType": "address",
          "name": "zbytePriceFeederAddress_",
          "type": "address"
        }
      ],
      "name": "setZbytePriceFeederAddress",
      "outputs": [],
      "stateMutability": "nonpayable",
      "type": "function"
    },
    {
      "inputs": [
        {
          "internalType": "address",
          "name": "verc20_",
          "type": "address"
        },
        {
          "internalType": "uint256",
          "name": "chain_",
          "type": "uint256"
        }
      ],
      "name": "setvERC20Address",
      "outputs": [],
      "stateMutability": "nonpayable",
      "type": "function"
    },
    {
      "inputs": [
        {
          "internalType": "uint256",
          "name": "chain_",
          "type": "uint256"
        }
      ],
      "name": "totalSupply",
      "outputs": [
        {
          "internalType": "uint256",
          "name": "",
          "type": "uint256"
        }
      ],
      "stateMutability": "view",
      "type": "function"
    },
    {
      "inputs": [],
      "name": "totalSupplyAllChains",
      "outputs": [
        {
          "internalType": "uint256",
          "name": "",
          "type": "uint256"
        }
      ],
      "stateMutability": "view",
      "type": "function"
    },
    {
      "inputs": [
        {
          "internalType": "address",
          "name": "newOwner",
          "type": "address"
        }
      ],
      "name": "transferOwnership",
      "outputs": [],
      "stateMutability": "nonpayable",
      "type": "function"
    },
    {
      "inputs": [],
      "name": "treasury",
      "outputs": [
        {
          "internalType": "address",
          "name": "",
          "type": "address"
        }
      ],
      "stateMutability": "view",
      "type": "function"
    },
    {
      "inputs": [],
      "name": "ulAsset",
      "outputs": [
        {
          "internalType": "contract IERC20",
          "name": "",
          "type": "address"
        }
      ],
      "stateMutability": "view",
      "type": "function"
    },
    {
      "inputs": [],
      "name": "unpause",
      "outputs": [],
      "stateMutability": "nonpayable",
      "type": "function"
    },
    {
      "inputs": [
        {
          "internalType": "uint256",
          "name": "",
          "type": "uint256"
        }
      ],
      "name": "vERC20Addresses",
      "outputs": [
        {
          "internalType": "address",
          "name": "",
          "type": "address"
        }
      ],
      "stateMutability": "view",
      "type": "function"
    },
    {
      "inputs": [
        {
          "internalType": "uint256",
          "name": "relay_",
          "type": "uint256"
        },
        {
          "internalType": "uint256",
          "name": "chain_",
          "type": "uint256"
        },
        {
          "internalType": "address",
          "name": "vERC20Depositor_",
          "type": "address"
        },
        {
          "internalType": "address",
          "name": "receiver_",
          "type": "address"
        }
      ],
      "name": "withdraw",
      "outputs": [
        {
          "internalType": "bool",
          "name": "result",
          "type": "bool"
        }
      ],
      "stateMutability": "nonpayable",
      "type": "function"
    },
    {
      "stateMutability": "payable",
      "type": "receive"
    }
  ],
  "transactionHash": "0x6437ac384449f0c28abc7b3cabbcda543dd354135f2aa64b66d2ef1443df1a9f",
  "args": [
    "0x3a04D4D1145FE9E99cC9225110f68930007a5F20",
    "0xf955d5086965d9Cab4df1D67aB497BE202A3D9F3",
    "0x4354441c4F40dFB3F14ceb68977fA20B62068200"
  ],
  "numDeployments": 1,
  "solcInputHash": "62526db6fb7afca11f883e0b4cff6f40",
  "bytecode": "0x6080346200022357601f62001f7638819003918201601f1916830191906001600160401b0383118484101762000228578160609285926040958652833981010312620002235762000050826200023e565b916200006c8262000064602084016200023e565b92016200023e565b6001600160a01b039182166200008162000253565b908360005492169182865191818782167f8be0079c531659141344cd1fd0a4f28419497f9722a3daafe3b4186f6b6457e0600080a36001600160a81b03191617600055600160025581156200021457508386169586156200020357600180546001600160a01b03198082169990991790915586516001600160a01b0391871682168152911660208201527f94aed472e01353526c04ec91cee149d41e78d848ec851c72be532bf7b120bd3090604090a1856007541617600755826200014562000253565b1603620001c0578116928315620001af576003805491821685179055825191166001600160a01b0390811682529092166020830152907f1db696c9becb6c7e5b140934fe902d723d35791ef36d36c9b1586f6a502fd29790604090a151611cfd9081620002798239f35b825163d92e233d60e01b8152600490fd5b6064835162461bcd60e51b815260206004820152602060248201527f4f776e61626c653a2063616c6c6572206973206e6f7420746865206f776e65726044820152fd5b855163d92e233d60e01b8152600490fd5b63d92e233d60e01b8152600490fd5b600080fd5b634e487b7160e01b600052604160045260246000fd5b51906001600160a01b03821682036200022357565b600154336001600160a01b0390911603620002745736601319013560601c90565b339056fe60806040526004361015610026575b361561001957600080fd5b61002161129f565b600080fd5b60003560e01c806301c99f9f1461021157806312c00ccb1461020857806338d52e0f146101e45780633f4ba83a146101ff5780633fcc4a81146101f6578063450a9d77146101ed5780634d3273db146101e4578063572b6c05146101db5780635c975abb146101d257806361d027b3146101c95780636605bfda146101c0578063715018a6146101b757806371b3177a146101ae5780638456cb59146101a55780638da5cb5b1461019c578063a1478a3b14610193578063bd85b0391461018a578063c6a3178514610181578063c8b5303814610178578063d087d2881461016f578063da74222814610166578063deee40781461015d578063e78f094914610154578063e7f7b83d1461014b5763f2fde38b0361000e57610146611172565b61000e565b5061014661110f565b50610146610d69565b50610146610d34565b50610146610c99565b50610146610c7a565b50610146610c0b565b50610146610bcc565b50610146610b9f565b50610146610b75565b50610146610b4b565b50610146610acc565b5061014661081b565b506101466107b0565b50610146610715565b506101466106eb565b506101466106c4565b5061014661068e565b50610146610390565b506101466105c9565b5061014661044a565b506101466103ba565b50610146610300565b50610146610266565b600435906001600160a01b038216820361002157565b604435906001600160a01b038216820361002157565b606435906001600160a01b038216820361002157565b8015150361002157565b5034610021576040366003190112610021577f2ddb4d518081e3226ce50314090fbddc7a51e92d125bd71d785914d1b6d3d67960406102a361021a565b602435906102b08261025c565b6000546001600160a01b0391906102d3908316836102cc611bf7565b161461120d565b1690816000526009602052826000209015159060ff1981541660ff831617905582519182526020820152a1005b50346100215760203660031901126100215761031a61021a565b6000546001600160a01b039190610336908316836102cc611bf7565b16801561037e576020817f8e3584f39ded6e1a9a02b72cddce11efa1a306747c8527671917b231983edbad926001600160601b0360a01b600a541617600a55604051908152a1005b60405163d92e233d60e01b8152600490fd5b5034610021576000366003190112610021576007546040516001600160a01b039091168152602090f35b5034610021576000806003193601126104475780547f5db9ee0a495bf2e6ff9c91a7834c1ba4fdd244a5e8aa4e537bd38aeae4b073aa906020906001600160a01b039061041382610409611bf7565b168383161461120d565b61042b60ff8260a01c1661042681611bb4565b611bb4565b60ff60a01b1916845561043c611bf7565b60405191168152a180f35b80fd5b5034610021576080366003190112610021576044356104688161025c565b60028054146105845760028055600a546000906020906104c5906001600160a01b0316610493611bf7565b604051630b43159160e41b81524660048201526001600160a01b03909116602482015293849283919082906044820190565b03925af1908115610577575b600091610549575b5015610513576104f561050f9160643590602435600435611893565b6104ff6001600255565b6040519081529081906020820190565b0390f35b61054561051e611bf7565b604051630adb4ca360e41b81526001600160a01b0390911660048201529081906024820190565b0390fd5b61056a915060203d8111610570575b6105628183611331565b810190611529565b386104d9565b503d610558565b61057f611362565b6104d1565b60405162461bcd60e51b815260206004820152601f60248201527f5265656e7472616e637947756172643a207265656e7472616e742063616c6c006044820152606490fd5b5034610021576040366003190112610021576105e361021a565b600054602435906001600160a01b0390610602908216826102cc611bf7565b82161561037e57801561067c57600081815260066020526040902080546001600160a01b0319166001600160a01b0384161790557f1a40ce6d89bbc096abbbb07f26f960227344b0199ce4c540844114d7839b793891604080516001600160a01b039092168252602082019290925290819081015b0390a1005b604051637c946ed760e01b8152600490fd5b50346100215760203660031901126100215760206106aa61021a565b6001546040516001600160a01b0392831691909216148152f35b503461002157600036600319011261002157602060ff60005460a01c166040519015158152f35b5034610021576000366003190112610021576003546040516001600160a01b039091168152602090f35b50346100215760203660031901126100215761072f61021a565b6000546001600160a01b0391829161074c908316836102cc611bf7565b1690811561037e57600380546001600160a01b03198116841790915560408051929091166001600160a01b03908116835290921660208201527f1db696c9becb6c7e5b140934fe902d723d35791ef36d36c9b1586f6a502fd2979181908101610677565b50346100215760008060031936011261044757805481906001600160a01b0380821691906107e8906107e0611bf7565b16831461120d565b6001600160a01b03191682557f8be0079c531659141344cd1fd0a4f28419497f9722a3daafe3b4186f6b6457e08280a380f35b503461002157608036600319011261002157602435610838610230565b90610841610246565b60009261085560ff855460a01c16156112b2565b6001600160a01b039081610867611bf7565b1685526020926009845260409260ff848820541615610aab5750610895856000526006602052604060002090565b546001600160a01b03168585600b54928651828101816108e187898b898692606894929184526001600160601b0319809260601b16602085015260601b16603483015260488201520190565b0391601f199283810182526108f69082611331565b519020946109039061144c565b600b5561090e61145a565b600281526001600160a01b038716818501526001600160a01b038816818a01528460608201528b608082015261094e86600052600c602052604060002090565b90610958916114a4565b600a54885162f55d9d60e01b858201526001600160a01b038981166024830152604493840182529091169186918d916109919082611331565b8a516380516ec960e01b8152968795869485936109b8933093904660048035908901611581565b03925af19586159861050f99610a9e575b96610a55575b5050610a42908596610a027f72b69b7283d7f94f82af237df98dac53d1240005b789c3ed88e3834d21ad7e1b9697611847565b610a0a611bf7565b87516001600160a01b0391821681529581166020870152909316604085015260608401929092526080830191909152819060a0820190565b0390a15190151581529081906020820190565b7f72b69b7283d7f94f82af237df98dac53d1240005b789c3ed88e3834d21ad7e1b959650610a42929181610a9492903d10610570576105628183611331565b95948192506109cf565b610aa6611362565b6109c9565b83602491610ab7611bf7565b915163b392249560e01b815291166004820152fd5b5034610021576000806003193601126104475780547f62e78cea01bee320cd4e420270b5ea74000d11b0c9f74754ebdbfc544b05a258906020906001600160a01b0390610b1b82610409611bf7565b610b3460ff8260a01c1615610b2f816112b2565b6112b2565b60ff60a01b1916600160a01b17845561043c611bf7565b5034610021576000366003190112610021576000546040516001600160a01b039091168152602090f35b503461002157600036600319011261002157600a546040516001600160a01b039091168152602090f35b50346100215760203660031901126100215760043560005260056020526020604060002054604051908152f35b5034610021576000366003190112610021576020600454604051908152f35b60031115610bf557565b634e487b7160e01b600052602160045260246000fd5b503461002157602036600319011261002157600435600052600c6020526040600020805460ff81169160018060a01b0390816001820154166003600283015492015492604051946003871015610bf55760a096865260081c166020850152604084015260608301526080820152f35b5034610021576000366003190112610021576020600b54604051908152f35b503461002157602036600319011261002157610cb361021a565b6000546001600160a01b0390610cce908216826102cc611bf7565b808216801561037e57600180546001600160a01b031981169092179055604080516001600160a01b0393909216831682529190921660208301527f94aed472e01353526c04ec91cee149d41e78d848ec851c72be532bf7b120bd30919081908101610677565b5034610021576020366003190112610021576004356000526006602052602060018060a01b0360406000205416604051908152f35b503461002157608036600319011261002157602435600435610d89610230565b9160643592610da060ff60005460a01c16156112b2565b610dc4610db7836000526006602052604060002090565b546001600160a01b031690565b6008546040805163029e92db60e61b815260048101879052602481018690529660209691949391926001600160a01b03908116888a604481845afa998a15611102575b60009a6110cf575b50610e4a90610e258b610e2061136f565b611c1b565b610e3186610e206113a8565b610e3d89610e206113cc565b610e456113f0565b611c79565b8882106110b0576007549798969788978a9392909182906001600160a01b031691610e73611bf7565b906001541690610e829361161f565b610e8b91611435565b6007549093906001600160a01b031684610ea3611bf7565b3090610eae9361161f565b600b548651838101898152606088901b6bffffffffffffffffffffffff19166020820152603481018790526054810183905291929181607482010391601f19928381018252610efd9082611331565b51902094610f0b869461144c565b600b55610f1661145a565b60018152610f22611bf7565b6001600160a01b0316818701526001600160a01b038916818b01528a6060820152876080820152610f5d85600052600c602052604060002090565b90610f67916114a4565b600a5489516340c10f1960e01b878201526001600160a01b038a81166024830152604482018a905260649485018252909116939092610fa69084611331565b89516380516ec960e01b81529a8b9586948594610fcb94309490469060048901611581565b03915a90600091f19485159761050f986110a3575b60009661105a575b5050610a4290859661101b7f7421cdc21c72f34d5c833d58c604ea2ce4c54894d72b242df1de39d4a27b36d196976115d3565b611023611bf7565b87516001600160a01b03918216815295166020860152604085019390935260608401929092526080830191909152819060a0820190565b7f7421cdc21c72f34d5c833d58c604ea2ce4c54894d72b242df1de39d4a27b36d1959650610a4292918161109992903d10610570576105628183611331565b9594819250610fe8565b6110ab611362565b610fe0565b855163ed3fc6b360e01b815260048101839052602481018a9052604490fd5b610e4a919a506110f4908a3d8c116110fb575b6110ec8183611331565b810190611353565b9990610e0f565b503d6110e2565b61110a611362565b610e07565b5034610021576020366003190112610021577f5e7c3cb3d523380949b38d03a0dc0e6bedc8286e8421d75e02234c903433e1a060206001600160a01b0361115461021a565b16806001600160601b0360a01b6008541617600855604051908152a1005b50346100215760203660031901126100215761118c61021a565b6000546001600160a01b03906111a7908216826102cc611bf7565b8116156111b9576111b790611258565b005b60405162461bcd60e51b815260206004820152602660248201527f4f776e61626c653a206e6577206f776e657220697320746865207a65726f206160448201526564647265737360d01b6064820152608490fd5b1561121457565b606460405162461bcd60e51b815260206004820152602060248201527f4f776e61626c653a2063616c6c6572206973206e6f7420746865206f776e65726044820152fd5b600080546001600160a01b039283166001600160a01b03198216811783559216907f8be0079c531659141344cd1fd0a4f28419497f9722a3daafe3b4186f6b6457e09080a3565b5060405163bf06461960e01b8152600490fd5b156112b957565b60405162461bcd60e51b815260206004820152601060248201526f14185d5cd8589b194e881c185d5cd95960821b6044820152606490fd5b50634e487b7160e01b600052604160045260246000fd5b6040810190811067ffffffffffffffff82111761132457604052565b61132c6112f1565b604052565b90601f8019910116810190811067ffffffffffffffff82111761132457604052565b90816020910312610021575190565b506040513d6000823e3d90fd5b6040519061137c82611308565b601e82527f5f676173436f7374466f72417070726f7665416e644465706f7369743a2000006020830152565b604051906113b582611308565b600882526703932b630bcaf9d160c51b6020830152565b604051906113d982611308565b6008825267031b430b4b72f9d160c51b6020830152565b604051906113fd82611308565b601282527103d313cba32a83934b1b2a332b2b232b91d160751b6020830152565b50634e487b7160e01b600052601160045260246000fd5b9190820391821161144257565b61144a61141e565b565b906001820180921161144257565b6040519060a0820182811067ffffffffffffffff821117611497575b60405260006080838281528260208201528260408201528260608201520152565b61149f6112f1565b611476565b9080516003811015610bf55782546020830151610100600160a81b0360089190911b1660ff929092166001600160a81b0319909116171782556040810151600391608091611518906001600160a01b03166001860180546001600160a01b0319166001600160a01b03909216919091179055565b606081015160028501550151910155565b90816020910312610021575161153e8161025c565b90565b919082519283825260005b84811061156d575050826000602080949584010152601f8019910116010190565b60208183018101518483018201520161154c565b9490926115b79260209894875288870152604086015260018060a01b038094166060860152610100806080870152850190611541565b9360a08401521660c082015260e0818303910152600081520190565b156115da57565b60405162461bcd60e51b815260206004820152601c60248201527f5f6465706f7369743a2063616c6c52656d6f7465206661696c65642e000000006044820152606490fd5b6040516323b872dd60e01b60208201526001600160a01b03928316602482015292909116604483015260648083019390935291815261144a9160a0820182811067ffffffffffffffff821117611678575b6040526116e4565b6116806112f1565b611670565b1561168c57565b60405162461bcd60e51b815260206004820152602a60248201527f5361666545524332303a204552433230206f7065726174696f6e20646964206e6044820152691bdd081cdd58d8d9595960b21b6064820152608490fd5b6040516001600160a01b0391909116916116fd82611308565b6020928383527f5361666545524332303a206c6f772d6c6576656c2063616c6c206661696c656484840152803b15611774576000828192828761174f9796519301915af16117496117b9565b90611807565b8051908161175c57505050565b8261144a9361176f938301019101611529565b611685565b60405162461bcd60e51b815260048101859052601d60248201527f416464726573733a2063616c6c20746f206e6f6e2d636f6e74726163740000006044820152606490fd5b3d15611802573d9067ffffffffffffffff82116117f5575b604051916117e9601f8201601f191660200184611331565b82523d6000602084013e565b6117fd6112f1565b6117d1565b606090565b90919015611813575090565b8151156118235750805190602001fd5b60405162461bcd60e51b815260206004820152908190610545906024830190611541565b1561184e57565b60405162461bcd60e51b815260206004820152601d60248201527f5f77697468647261773a2063616c6c52656d6f7465206661696c65642e0000006044820152606490fd5b6118a782600052600c602052604060002090565b8054600382015460029092015492600882901c6001600160a01b03169160ff166118d081610beb565b60018103611a215750838114801590611a17575b6119e85750841561197557509361191f61196d927ff64578a8ea3d511e99da45c5925c1f2ba97616679c9991a491f79d269452f97096611b80565b61194e61193684600052600c602052604060002090565b60036000918281558260018201558260028201550155565b6040519384938460409194939260608201958252151560208201520152565b0390a1600090565b6007547f82b9d61d8c40f24d7817c0a9f6a5a07452b27d8d2a563f58d52847ce9e9849e89695506119b493506001600160a01b0316611af2565b611af2565b6119cb61193682600052600c602052604060002090565b6040805191825260006020830152810191909152606090a1600090565b60405163d6facdff60e01b81526004810185905260248101849052604481019190915260648101879052608490fd5b50868314156118e4565b80611a326002929a9996959a610beb565b1480611aeb575b15611abb57828103611a8c575082917ff5a60bd1e87b05bb87d7c368ca3ef2adb38148647f0a7b7cafdba3e8279051059697611a8761196d9561191f946119af60075460018060a01b031690565b611b33565b60405163d6facdff60e01b81526004810184905260248101899052604481019190915260648101849052608490fd5b604051630cd9d7bb60e41b8152600481019190915260248101859052851515604482015260648101849052608490fd5b5085611a39565b60405163a9059cbb60e01b60208201526001600160a01b0392909216602483015260448083019390935291815261144a91611b2e606483611331565b6116e4565b90611b5990600454838103908111611b73575b6004556000526005602052604060002090565b8054918203918211611b685755565b611b7061141e565b55565b611b7b61141e565b611b46565b90611ba590600454838101809111611b73576004556000526005602052604060002090565b8054918201809211611b685755565b15611bbb57565b60405162461bcd60e51b815260206004820152601460248201527314185d5cd8589b194e881b9bdd081c185d5cd95960621b6044820152606490fd5b600154336001600160a01b0390911603611c175736601319013560601c90565b3390565b611c5e611c4a9161144a93604051938492632d839cb360e21b6020850152604060248501526064840190611541565b90604483015203601f198101835282611331565b600080916020815191016a636f6e736f6c652e6c6f675afa50565b611c5e611ca89161144a9360405193849263319af33360e01b6020850152604060248501526064840190611541565b6001600160a01b0391909116604483015203601f19810183528261133156fea264697066735822122050af6302a2653c870b8ff30d75ce1b089dd93924814e2128edb07d6c69d4ef8a64736f6c63430008110033",
  "devdoc": {
    "kind": "dev",
    "methods": {
      "callbackHandler(uint256,bytes32,bool,uint256)": {
        "params": {
          "ack_": "Unique hash of the submitted deposit/withdraw request",
          "chain_": "Target chain identifier",
          "retval_": "The amount of tokens that were deposited/withdrawn",
          "success_": "true if the deposit/withdraw was successful on remote"
        }
      },
      "deposit(uint256,uint256,address,uint256)": {
        "params": {
          "amount_": "Amount of ERC20 deposited",
          "chain_": "Target chain identifier",
          "receiver_": "Recipient address for vERC20",
          "relay_": "Relay identifier that should be used for the crosschain call"
        }
      },
      "getNonce()": {
        "details": "nonce is incremented for every successful deposit or withdraw"
      },
      "isTrustedForwarder(address)": {
        "params": {
          "forwarder_": "Address to check"
        },
        "returns": {
          "_0": "true if forwarder_ is trusted forwarder"
        }
      },
      "owner()": {
        "details": "Returns the address of the current owner."
      },
      "paused()": {
        "details": "Returns true if the contract is paused, and false otherwise."
      },
      "registerWorker(address,bool)": {
        "params": {
          "register_": "A boolean indicating whether to register (true) or unregister (false) the worker.",
          "worker_": "The address of the worker to be registered or unregistered."
        }
      },
      "renounceOwnership()": {
        "details": "Leaves the contract without owner. It will not be possible to call `onlyOwner` functions anymore. Can only be called by the current owner. NOTE: Renouncing ownership will leave the contract without an owner, thereby removing any functionality that is only available to the owner."
      },
      "setRelayWrapperAddress(address)": {
        "params": {
          "wrapper_": "Core relay wrapper contract address"
        }
      },
      "setTreasuryAddress(address)": {
        "params": {
          "treasury_": "Treasury address"
        }
      },
      "setTrustedForwarder(address)": {
        "details": "onlyOwner can call",
        "params": {
          "forwarder_": "Frwarder conract address"
        }
      },
      "setZbytePriceFeederAddress(address)": {
        "details": "This function allows updating the address of the ZbytePriceFeeder contract.",
        "params": {
          "zbytePriceFeederAddress_": "The address of the ZbytePriceFeeder contract."
        }
      },
      "setvERC20Address(address,uint256)": {
        "details": "nonce is incremented for every successful deposit or withdraw",
        "params": {
          "chain_": "chain id of the chain where vERC2o contract resides",
          "verc20_": "vERC20 contract address"
        }
      },
      "totalSupply(uint256)": {
        "params": {
          "chain_": "The id of the chain of interest"
        }
      },
      "transferOwnership(address)": {
        "details": "Transfers ownership of the contract to a new account (`newOwner`). Can only be called by the current owner."
      },
      "withdraw(uint256,uint256,address,address)": {
        "details": "The paymaster_ should be a valid paymaster (e.g., forwarder). All vERC20 held by paymaster is destroyed and equal ERC20 is deposited",
        "params": {
          "chain_": "Target chain identifier",
          "receiver_": "Recipient address for ERC20",
          "relay_": "Relay identifier that should be used for the crosschain call",
          "vERC20Depositor_": "Address to deposit vERC20"
        }
      }
    },
    "title": "The ZBYT ERC20 Escrow contract",
    "version": 1
  },
  "userdoc": {
    "errors": {
      "CannotSendEther()": [
        {
          "notice": "error (0xbf064619): Contract cannot receive ether"
        }
      ],
      "InsufficientERC20ForDepositGas(uint256,uint256)": [
        {
          "notice": "error (0xed3fc6b3): Insufficient ERC20 for Deposit operation."
        }
      ],
      "InvalidCallbackAck(uint256,bytes32,bool,uint256)": [
        {
          "notice": "error (0xcd9d7bb0): The ack in callback received was not found"
        }
      ],
      "InvalidCallbackMessage(uint256,uint256,uint256,uint256)": [
        {
          "notice": "error (0xd6facdff): The callback received was invalid"
        }
      ],
      "InvalidRelay(address)": [
        {
          "notice": "Caller is not a valid relay"
        }
      ],
      "UnAuthorized(address)": [
        {
          "notice": "error (0xb3922495): Unauthorized caller."
        }
      ],
      "ZeroAddress()": [
        {
          "notice": "error (0xd92e233d): Address is address(0)"
        }
      ],
      "ZeroValue()": [
        {
          "notice": "error(): Value sent is 0"
        }
      ]
    },
    "events": {
      "ERC20DepositConfirmed(bytes32,bool,uint256)": {
        "notice": "event (0xf64578a8): ERC20 tokens deposit confirmed"
      },
      "ERC20DepositFailed(address,address,uint256,uint256,bytes32)": {
        "notice": "event (0x0583eefc): ERC20 tokens deposit failed"
      },
      "ERC20DepositFailedAndRefunded(bytes32,bool,uint256)": {
        "notice": "event (0x82b9d61d): ERC20 tokens deposit failed and refund issued to depositor"
      },
      "ERC20Deposited(address,address,uint256,uint256,bytes32)": {
        "notice": "event (0xcae09af7): ERC20 tokens deposited"
      },
      "ERC20WithdrawConfirmed(bytes32,bool,uint256)": {
        "notice": "event (0xf5a60bd1): ERC20 tokens withdraw confirmed"
      },
      "ERC20WithdrawFailed(address,address,address,uint256,bytes32)": {
        "notice": "event (0x2b4d7cea): ERC20 tokens withdraw failed"
      },
      "ERC20Withdrawn(address,address,address,uint256,bytes32)": {
        "notice": "event (0x8b923c21): ERC20 tokens withdrawn"
      },
      "ForwarderSet(address,address)": {
        "notice": "event (0x94aed472): Forwarder address is changed"
      },
      "RelayWrapperAddressSet(address)": {
        "notice": "event (0x95290bcc): Core relay wrapper contract address is set"
      },
      "TreasuryAddressSet(address,address)": {
        "notice": "event (0x1db696c9): The Treasury address is set"
      },
      "WorkerRegistered(address,bool)": {
        "notice": "event (0x2ddb4d51): Worker is registered(true/false)"
      },
      "ZbytePriceFeederAddressSet(address)": {
        "notice": "event (0x5e7c3cb3): Zbyte Price Feeder address is set"
      },
      "vERC20AddressSet(address,uint256)": {
        "notice": "event (0x1a40ce6d): vERC20 contract address is set"
      }
    },
    "kind": "user",
    "methods": {
      "asset()": {
        "notice": "Return the address of underlying ERC20 contract address"
      },
      "callbackHandler(uint256,bytes32,bool,uint256)": {
        "notice": "callback handler to handle acknowledgement for deposit/withdraw"
      },
      "deposit(uint256,uint256,address,uint256)": {
        "notice": "Deposit ERC20 tokens to obtain vERC20 on target chain"
      },
      "getNonce()": {
        "notice": "Get the latest nonce "
      },
      "isTrustedForwarder(address)": {
        "notice": "Check if the given address is the trusted forwarder"
      },
      "pause()": {
        "notice": "Pauses the contract (mint, transfer and burn operations are paused)"
      },
      "pendingAction(bytes32)": {
        "notice": "mapping of current deposit/withdraw operations for which callback has not yet been received"
      },
      "registerWorker(address,bool)": {
        "notice": "Registers or unregisters a worker, allowing or denying access to specific functionality."
      },
      "relayWrapper()": {
        "notice": "RelayWrapper contract address"
      },
      "setRelayWrapperAddress(address)": {
        "notice": "Set the address of core relay wrapper"
      },
      "setTreasuryAddress(address)": {
        "notice": "Set the treasury address"
      },
      "setTrustedForwarder(address)": {
        "notice": "Set the forwarder contract address"
      },
      "setZbytePriceFeederAddress(address)": {
        "notice": "Sets the address of the ZbytePriceFeeder contract."
      },
      "setvERC20Address(address,uint256)": {
        "notice": "Set the address of vERC20 on a given chain"
      },
      "totalSupply(uint256)": {
        "notice": "Return the amount of vERC20 currently available on a given chain"
      },
      "totalSupplyAllChains()": {
        "notice": "Return the amount of vERC20 currently available on all chains"
      },
      "ulAsset()": {
        "notice": "The underlying ERC20 token contract"
      },
      "unpause()": {
        "notice": "Unpauses the paused contract"
      },
      "vERC20Addresses(uint256)": {
        "notice": "mapping of the vERC20 contract address for the chain"
      },
      "withdraw(uint256,uint256,address,address)": {
        "notice": "Withdraw ERC20 tokens by depositing vERC20 on target chain"
      }
    },
    "version": 1
  },
  "storageLayout": {
    "storage": [
      {
        "astId": 7,
        "contract": "contracts/core/ZbyteEscrow.sol:ZbyteEscrow",
        "label": "_owner",
        "offset": 0,
        "slot": "0",
        "type": "t_address"
      },
      {
        "astId": 292,
        "contract": "contracts/core/ZbyteEscrow.sol:ZbyteEscrow",
        "label": "_paused",
        "offset": 20,
        "slot": "0",
        "type": "t_bool"
      },
      {
        "astId": 7280,
        "contract": "contracts/core/ZbyteEscrow.sol:ZbyteEscrow",
        "label": "trustedForwarder",
        "offset": 0,
        "slot": "1",
        "type": "t_address"
      },
      {
        "astId": 377,
        "contract": "contracts/core/ZbyteEscrow.sol:ZbyteEscrow",
        "label": "_status",
        "offset": 0,
        "slot": "2",
        "type": "t_uint256"
      },
      {
        "astId": 2126,
        "contract": "contracts/core/ZbyteEscrow.sol:ZbyteEscrow",
        "label": "treasury",
        "offset": 0,
        "slot": "3",
        "type": "t_address"
      },
      {
        "astId": 2129,
        "contract": "contracts/core/ZbyteEscrow.sol:ZbyteEscrow",
        "label": "_totalSupply",
        "offset": 0,
        "slot": "4",
        "type": "t_uint256"
      },
      {
        "astId": 2133,
        "contract": "contracts/core/ZbyteEscrow.sol:ZbyteEscrow",
        "label": "_reserve",
        "offset": 0,
        "slot": "5",
        "type": "t_mapping(t_uint256,t_uint256)"
      },
      {
        "astId": 2138,
        "contract": "contracts/core/ZbyteEscrow.sol:ZbyteEscrow",
        "label": "vERC20Addresses",
        "offset": 0,
        "slot": "6",
        "type": "t_mapping(t_uint256,t_address)"
      },
      {
        "astId": 2142,
        "contract": "contracts/core/ZbyteEscrow.sol:ZbyteEscrow",
        "label": "ulAsset",
        "offset": 0,
        "slot": "7",
        "type": "t_contract(IERC20)1030"
      },
      {
        "astId": 2145,
        "contract": "contracts/core/ZbyteEscrow.sol:ZbyteEscrow",
        "label": "zbytePriceFeeder",
        "offset": 0,
        "slot": "8",
        "type": "t_address"
      },
      {
        "astId": 2150,
        "contract": "contracts/core/ZbyteEscrow.sol:ZbyteEscrow",
        "label": "authorizedWorkers",
        "offset": 0,
        "slot": "9",
        "type": "t_mapping(t_address,t_bool)"
      },
      {
        "astId": 2154,
        "contract": "contracts/core/ZbyteEscrow.sol:ZbyteEscrow",
        "label": "relayWrapper",
        "offset": 0,
        "slot": "10",
        "type": "t_contract(IRelayWrapper)6261"
      },
      {
        "astId": 2157,
        "contract": "contracts/core/ZbyteEscrow.sol:ZbyteEscrow",
        "label": "nonce",
        "offset": 0,
        "slot": "11",
        "type": "t_uint256"
      },
      {
        "astId": 2179,
        "contract": "contracts/core/ZbyteEscrow.sol:ZbyteEscrow",
        "label": "pendingAction",
        "offset": 0,
        "slot": "12",
        "type": "t_mapping(t_bytes32,t_struct(PendingAction)2173_storage)"
      }
    ],
    "types": {
      "t_address": {
        "encoding": "inplace",
        "label": "address",
        "numberOfBytes": "20"
      },
      "t_bool": {
        "encoding": "inplace",
        "label": "bool",
        "numberOfBytes": "1"
      },
      "t_bytes32": {
        "encoding": "inplace",
        "label": "bytes32",
        "numberOfBytes": "32"
      },
      "t_contract(IERC20)1030": {
        "encoding": "inplace",
        "label": "contract IERC20",
        "numberOfBytes": "20"
      },
      "t_contract(IRelayWrapper)6261": {
        "encoding": "inplace",
        "label": "contract IRelayWrapper",
        "numberOfBytes": "20"
      },
      "t_enum(Action)2161": {
        "encoding": "inplace",
        "label": "enum EscrowERC20.Action",
        "numberOfBytes": "1"
      },
      "t_mapping(t_address,t_bool)": {
        "encoding": "mapping",
        "key": "t_address",
        "label": "mapping(address => bool)",
        "numberOfBytes": "32",
        "value": "t_bool"
      },
      "t_mapping(t_bytes32,t_struct(PendingAction)2173_storage)": {
        "encoding": "mapping",
        "key": "t_bytes32",
        "label": "mapping(bytes32 => struct EscrowERC20.PendingAction)",
        "numberOfBytes": "32",
        "value": "t_struct(PendingAction)2173_storage"
      },
      "t_mapping(t_uint256,t_address)": {
        "encoding": "mapping",
        "key": "t_uint256",
        "label": "mapping(uint256 => address)",
        "numberOfBytes": "32",
        "value": "t_address"
      },
      "t_mapping(t_uint256,t_uint256)": {
        "encoding": "mapping",
        "key": "t_uint256",
        "label": "mapping(uint256 => uint256)",
        "numberOfBytes": "32",
        "value": "t_uint256"
      },
      "t_struct(PendingAction)2173_storage": {
        "encoding": "inplace",
        "label": "struct EscrowERC20.PendingAction",
        "members": [
          {
            "astId": 2164,
            "contract": "contracts/core/ZbyteEscrow.sol:ZbyteEscrow",
            "label": "action",
            "offset": 0,
            "slot": "0",
            "type": "t_enum(Action)2161"
          },
          {
            "astId": 2166,
            "contract": "contracts/core/ZbyteEscrow.sol:ZbyteEscrow",
            "label": "nAddress",
            "offset": 1,
            "slot": "0",
            "type": "t_address"
          },
          {
            "astId": 2168,
            "contract": "contracts/core/ZbyteEscrow.sol:ZbyteEscrow",
            "label": "rAddress",
            "offset": 0,
            "slot": "1",
            "type": "t_address"
          },
          {
            "astId": 2170,
            "contract": "contracts/core/ZbyteEscrow.sol:ZbyteEscrow",
            "label": "chainId",
            "offset": 0,
            "slot": "2",
            "type": "t_uint256"
          },
          {
            "astId": 2172,
            "contract": "contracts/core/ZbyteEscrow.sol:ZbyteEscrow",
            "label": "amount",
            "offset": 0,
            "slot": "3",
            "type": "t_uint256"
          }
        ],
        "numberOfBytes": "128"
      },
      "t_uint256": {
        "encoding": "inplace",
        "label": "uint256",
        "numberOfBytes": "32"
      }
    }
  }
}