{
  "address": "0xf955d5086965d9Cab4df1D67aB497BE202A3D9F3",
  "abi": [
    {
      "inputs": [
        {
          "internalType": "address",
          "name": "forwarder_",
          "type": "address"
        }
      ],
      "stateMutability": "nonpayable",
      "type": "constructor"
    },
    {
      "inputs": [],
      "name": "CannotSendEther",
      "type": "error"
    },
    {
      "inputs": [],
      "name": "ZeroAddress",
      "type": "error"
    },
    {
      "inputs": [],
      "name": "ZeroValue",
      "type": "error"
    },
    {
      "anonymous": false,
      "inputs": [
        {
          "indexed": true,
          "internalType": "address",
          "name": "owner",
          "type": "address"
        },
        {
          "indexed": true,
          "internalType": "address",
          "name": "spender",
          "type": "address"
        },
        {
          "indexed": false,
          "internalType": "uint256",
          "name": "value",
          "type": "uint256"
        }
      ],
      "name": "Approval",
      "type": "event"
    },
    {
      "anonymous": false,
      "inputs": [
        {
          "indexed": false,
          "internalType": "address",
          "name": "",
          "type": "address"
        },
        {
          "indexed": false,
          "internalType": "address",
          "name": "",
          "type": "address"
        }
      ],
      "name": "ForwarderSet",
      "type": "event"
    },
    {
      "anonymous": false,
      "inputs": [
        {
          "indexed": true,
          "internalType": "address",
          "name": "previousOwner",
          "type": "address"
        },
        {
          "indexed": true,
          "internalType": "address",
          "name": "newOwner",
          "type": "address"
        }
      ],
      "name": "OwnershipTransferred",
      "type": "event"
    },
    {
      "anonymous": false,
      "inputs": [
        {
          "indexed": true,
          "internalType": "address",
          "name": "from",
          "type": "address"
        },
        {
          "indexed": true,
          "internalType": "address",
          "name": "to",
          "type": "address"
        },
        {
          "indexed": false,
          "internalType": "uint256",
          "name": "value",
          "type": "uint256"
        }
      ],
      "name": "Transfer",
      "type": "event"
    },
    {
      "inputs": [
        {
          "internalType": "address",
          "name": "owner",
          "type": "address"
        },
        {
          "internalType": "address",
          "name": "spender",
          "type": "address"
        }
      ],
      "name": "allowance",
      "outputs": [
        {
          "internalType": "uint256",
          "name": "",
          "type": "uint256"
        }
      ],
      "stateMutability": "view",
      "type": "function"
    },
    {
      "inputs": [
        {
          "internalType": "address",
          "name": "spender",
          "type": "address"
        },
        {
          "internalType": "uint256",
          "name": "amount",
          "type": "uint256"
        }
      ],
      "name": "approve",
      "outputs": [
        {
          "internalType": "bool",
          "name": "",
          "type": "bool"
        }
      ],
      "stateMutability": "nonpayable",
      "type": "function"
    },
    {
      "inputs": [
        {
          "internalType": "address",
          "name": "account",
          "type": "address"
        }
      ],
      "name": "balanceOf",
      "outputs": [
        {
          "internalType": "uint256",
          "name": "",
          "type": "uint256"
        }
      ],
      "stateMutability": "view",
      "type": "function"
    },
    {
      "inputs": [],
      "name": "decimals",
      "outputs": [
        {
          "internalType": "uint8",
          "name": "",
          "type": "uint8"
        }
      ],
      "stateMutability": "view",
      "type": "function"
    },
    {
      "inputs": [
        {
          "internalType": "address",
          "name": "spender",
          "type": "address"
        },
        {
          "internalType": "uint256",
          "name": "subtractedValue",
          "type": "uint256"
        }
      ],
      "name": "decreaseAllowance",
      "outputs": [
        {
          "internalType": "bool",
          "name": "",
          "type": "bool"
        }
      ],
      "stateMutability": "nonpayable",
      "type": "function"
    },
    {
      "inputs": [
        {
          "internalType": "address",
          "name": "spender",
          "type": "address"
        },
        {
          "internalType": "uint256",
          "name": "addedValue",
          "type": "uint256"
        }
      ],
      "name": "increaseAllowance",
      "outputs": [
        {
          "internalType": "bool",
          "name": "",
          "type": "bool"
        }
      ],
      "stateMutability": "nonpayable",
      "type": "function"
    },
    {
      "inputs": [
        {
          "internalType": "address",
          "name": "forwarder_",
          "type": "address"
        }
      ],
      "name": "isTrustedForwarder",
      "outputs": [
        {
          "internalType": "bool",
          "name": "",
          "type": "bool"
        }
      ],
      "stateMutability": "view",
      "type": "function"
    },
    {
      "inputs": [],
      "name": "name",
      "outputs": [
        {
          "internalType": "string",
          "name": "",
          "type": "string"
        }
      ],
      "stateMutability": "view",
      "type": "function"
    },
    {
      "inputs": [],
      "name": "owner",
      "outputs": [
        {
          "internalType": "address",
          "name": "",
          "type": "address"
        }
      ],
      "stateMutability": "view",
      "type": "function"
    },
    {
      "inputs": [],
      "name": "renounceOwnership",
      "outputs": [],
      "stateMutability": "nonpayable",
      "type": "function"
    },
    {
      "inputs": [
        {
          "internalType": "address",
          "name": "forwarder_",
          "type": "address"
        }
      ],
      "name": "setTrustedForwarder",
      "outputs": [],
      "stateMutability": "nonpayable",
      "type": "function"
    },
    {
      "inputs": [],
      "name": "symbol",
      "outputs": [
        {
          "internalType": "string",
          "name": "",
          "type": "string"
        }
      ],
      "stateMutability": "view",
      "type": "function"
    },
    {
      "inputs": [],
      "name": "totalSupply",
      "outputs": [
        {
          "internalType": "uint256",
          "name": "",
          "type": "uint256"
        }
      ],
      "stateMutability": "view",
      "type": "function"
    },
    {
      "inputs": [
        {
          "internalType": "address",
          "name": "recipient",
          "type": "address"
        },
        {
          "internalType": "uint256",
          "name": "amount",
          "type": "uint256"
        }
      ],
      "name": "transfer",
      "outputs": [
        {
          "internalType": "bool",
          "name": "",
          "type": "bool"
        }
      ],
      "stateMutability": "nonpayable",
      "type": "function"
    },
    {
      "inputs": [
        {
          "internalType": "address",
          "name": "sender",
          "type": "address"
        },
        {
          "internalType": "address",
          "name": "recipient",
          "type": "address"
        },
        {
          "internalType": "uint256",
          "name": "amount",
          "type": "uint256"
        }
      ],
      "name": "transferFrom",
      "outputs": [
        {
          "internalType": "bool",
          "name": "",
          "type": "bool"
        }
      ],
      "stateMutability": "nonpayable",
      "type": "function"
    },
    {
      "inputs": [
        {
          "internalType": "address",
          "name": "newOwner",
          "type": "address"
        }
      ],
      "name": "transferOwnership",
      "outputs": [],
      "stateMutability": "nonpayable",
      "type": "function"
    },
    {
      "stateMutability": "payable",
      "type": "receive"
    }
  ],
  "transactionHash": "0xfb8c78433c6568a37c6a45a9dfd1ac3651216ef852e05079456a595063b673c6",
  "args": [
    "0x35535d179F3E41718160a42Ec7C5Efd330D5291c"
  ],
  "numDeployments": 1,
  "solcInputHash": "70f403b09ac1e6616945dd9e094cc0f1",
  "bytecode": "0x6080346200049c57601f6200111538819003828101601f19908116850194909290916001600160401b03919082871184881017620004a157808492604098895283396020938491810103126200049c57516001600160a01b0380821694909290918590036200049c5762000072620004b7565b94600b86526a22283630ba102a37b5b2b760a91b8587015262000094620004b7565b600580825264111413105560da1b87830152620000b062000507565b600080546001600160a01b0319808216938a1693841783558d51929b939092918a167f8be0079c531659141344cd1fd0a4f28419497f9722a3daafe3b4186f6b6457e08d80a385156200048d57508b7f94aed472e01353526c04ec91cee149d41e78d848ec851c72be532bf7b120bd30916001968088549283161788558a8351921682528b820152a1805190858211620004795782548581811c911680156200046e575b8a8210146200045a5790818c84931162000409575b5089908c8311600114620003a8578b926200039c575b5050600019600383901b1c191690841b1781555b81519384116200038857600654908382811c921680156200037d575b88831014620003695789821162000322575b50508590888411600114620002be57839450908392918894620002b2575b50501b916000199060031b1c1916176006555b620001fc62000507565b169283156200027057507fddf252ad1be2c89b69c2b068fc378daa952ba7f163c4a11628f55a4df523b3ef9062000235600454620004d7565b600455838352600281528483206200024e8154620004d7565b905584516b1363156bbee3016d700000008152a351610be890816200052d8239f35b6064925084519162461bcd60e51b8352600483015260248201527f45524332303a206d696e7420746f20746865207a65726f2061646472657373006044820152fd5b015192503880620001df565b60068852868820929484908116895b89888383106200030a5750505010620002f0575b505050811b01600655620001f2565b015160001960f88460031b161c19169055388080620002e1565b868601518855909601959485019487935001620002cd565b60068952878920908a808701821c8301938a88106200035f575b01901c019083905b828110620003535750620001c1565b89815501839062000344565b935082936200033c565b634e487b7160e01b89526022600452602489fd5b91607f1691620001af565b634e487b7160e01b88526041600452602488fd5b0151905038806200017f565b908887941691858d528b8d20928d5b8d828210620003f25750508411620003d8575b505050811b01815562000193565b015160001960f88460031b161c19169055388080620003ca565b8385015186558a97909501949384019301620003b7565b909150838b52898b208c808501861c8201928c861062000450575b9188918695949301871c01915b8281106200044157505062000169565b8d815585945088910162000431565b9250819262000424565b634e487b7160e01b8b52602260045260248bfd5b90607f169062000154565b634e487b7160e01b8a52604160045260248afd5b63d92e233d60e01b8152600490fd5b600080fd5b634e487b7160e01b600052604160045260246000fd5b60408051919082016001600160401b03811183821017620004a157604052565b906b1363156bbee3016d700000008201809211620004f157565b634e487b7160e01b600052601160045260246000fd5b600154336001600160a01b0390911603620005285736601319013560601c90565b339056fe608060408181526004918236101561002b575b50361561001e57600080fd5b5163bf06461960e01b8152fd5b600090813560e01c90816306fdde031461075457508063095ea7b31461072357806318160ddd1461070557806323b872dd14610636578063313ce5671461061a57806339509351146105ba578063572b6c051461058657806370a082311461054e578063715018a6146104e55780638da5cb5b146104bd57806395d89b411461039c578063a457c2d7146102df578063a9059cbb146102a7578063da74222814610204578063dd62ed3e146101b75763f2fde38b036100125791346101b35760203660031901126101b3576100fe610876565b83546001600160a01b038082169391926101228261011a610b8e565b1686146108a7565b169384156101615750506001600160a01b031916821783557f8be0079c531659141344cd1fd0a4f28419497f9722a3daafe3b4186f6b6457e08380a380f35b906020608492519162461bcd60e51b8352820152602660248201527f4f776e61626c653a206e6577206f776e657220697320746865207a65726f206160448201526564647265737360d01b6064820152fd5b8280fd5b509034610200578060031936011261020057806020926101d5610876565b6101dd610891565b6001600160a01b0391821683526003865283832091168252845220549051908152f35b5080fd5b5090346102005760203660031901126102005761021f610876565b82546001600160a01b039182916102429083168361023b610b8e565b16146108a7565b168015610297577f94aed472e01353526c04ec91cee149d41e78d848ec851c72be532bf7b120bd3093945060015491816bffffffffffffffffffffffff60a01b8416176001558351921682526020820152a180f35b825163d92e233d60e01b81528590fd5b5090346102005780600319360112610200576020906102d86102c7610876565b602435906102d3610b8e565b610915565b5160018152f35b508290346103995782600319360112610399576102fa610876565b906024359084906001600160a01b0380610312610b8e565b16825260036020528282209085168252602052205492818410610348576020856102d8868686610340610b8e565b920391610a8c565b608490602086519162461bcd60e51b8352820152602560248201527f45524332303a2064656372656173656420616c6c6f77616e63652062656c6f77604482015264207a65726f60d81b6064820152fd5b80fd5b50903461020057816003193601126102005780519082600654600181811c908083169283156104b3575b60209384841081146104a057838852908115610484575060011461042e575b505050829003601f01601f191682019267ffffffffffffffff84118385101761041b575082918261041792528261082d565b0390f35b634e487b7160e01b815260418552602490fd5b600687529192508591837ff652222313e28459528d920b65115c16c04f3efc82aaedc97be59f3f377c0d3f5b83851061047057505050508301013880806103e5565b80548886018301529301928490820161045a565b60ff1916878501525050151560051b84010190503880806103e5565b634e487b7160e01b895260228a52602489fd5b91607f16916103c6565b509034610200578160031936011261020057905490516001600160a01b039091168152602090f35b5034610399578060031936011261039957805481906001600160a01b03808216919061051b90610513610b8e565b1683146108a7565b6001600160a01b03191682557f8be0079c531659141344cd1fd0a4f28419497f9722a3daafe3b4186f6b6457e08280a380f35b5090346102005760203660031901126102005760209181906001600160a01b03610576610876565b1681526002845220549051908152f35b509034610200576020366003190112610200576020906105a4610876565b60018060a01b0380600154169116149051908152f35b5090346102005780600319360112610200576102d86020926105da610876565b6106146105e5610b8e565b926001600160a01b03806105f7610b8e565b1682526003885286822090841682528752856024359120546108f2565b91610a8c565b5090346102005781600319360112610200576020905160128152f35b50823461020057606036600319011261020057610651610876565b918361065b610891565b9161066a604435809487610915565b6001600160a01b038581168252600360205282822090610688610b8e565b1682526020522054918183106106b1576020856102d88686866106a9610b8e565b910391610a8c565b608490602086519162461bcd60e51b8352820152602860248201527f45524332303a207472616e7366657220616d6f756e74206578636565647320616044820152676c6c6f77616e636560c01b6064820152fd5b5091346101b357826003193601126101b35760209250549051908152f35b5090346102005780600319360112610200576020906102d8610743610876565b6024359061074f610b8e565b610a8c565b91929050346101b357826003193601126101b35782600554600181811c90808316928315610823575b60209384841081146104a05783885290811561048457506001146107cd57505050829003601f01601f191682019267ffffffffffffffff84118385101761041b575082918261041792528261082d565b600587529192508591837f036b6384b5eca791c62761152d0c79bb0604c104a5fb6f4eb0703f3154bb3db05b83851061080f57505050508301013880806103e5565b8054888601830152930192849082016107f9565b91607f169161077d565b6020808252825181830181905290939260005b82811061086257505060409293506000838284010152601f8019910116010190565b818101860151848201604001528501610840565b600435906001600160a01b038216820361088c57565b600080fd5b602435906001600160a01b038216820361088c57565b156108ae57565b606460405162461bcd60e51b815260206004820152602060248201527f4f776e61626c653a2063616c6c6572206973206e6f7420746865206f776e65726044820152fd5b919082018092116108ff57565b634e487b7160e01b600052601160045260246000fd5b6001600160a01b03908116918215610a3957169182156109e8576000828152600260205260408120549180831061099457604082827fddf252ad1be2c89b69c2b068fc378daa952ba7f163c4a11628f55a4df523b3ef958760209652600286520382822055868152206109898282546108f2565b9055604051908152a3565b60405162461bcd60e51b815260206004820152602660248201527f45524332303a207472616e7366657220616d6f756e7420657863656564732062604482015265616c616e636560d01b6064820152608490fd5b60405162461bcd60e51b815260206004820152602360248201527f45524332303a207472616e7366657220746f20746865207a65726f206164647260448201526265737360e81b6064820152608490fd5b60405162461bcd60e51b815260206004820152602560248201527f45524332303a207472616e736665722066726f6d20746865207a65726f206164604482015264647265737360d81b6064820152608490fd5b6001600160a01b03908116918215610b3d5716918215610aed5760207f8c5be1e5ebec7d5bd14f71427d1e84f3dd0314c0f7b2291e5b200ac8c7c3b925918360005260038252604060002085600052825280604060002055604051908152a3565b60405162461bcd60e51b815260206004820152602260248201527f45524332303a20617070726f766520746f20746865207a65726f206164647265604482015261737360f01b6064820152608490fd5b60405162461bcd60e51b8152602060048201526024808201527f45524332303a20617070726f76652066726f6d20746865207a65726f206164646044820152637265737360e01b6064820152608490fd5b600154336001600160a01b0390911603610bae5736601319013560601c90565b339056fea2646970667358221220a8f93e5572a68a2b1cc9ae7ff7a7845e100965c25e66cd7d000cf575ca23f1c864736f6c63430008110033",
  "devdoc": {
    "kind": "dev",
    "methods": {
      "allowance(address,address)": {
        "details": "See {IERC20-allowance}."
      },
      "approve(address,uint256)": {
        "details": "See {IERC20-approve}. Requirements: - `spender` cannot be the zero address."
      },
      "balanceOf(address)": {
        "details": "See {IERC20-balanceOf}."
      },
      "constructor": {
        "details": "mints 6 billion DPLAT tokens to msg.sender",
        "params": {
          "forwarder_": "Forwarder contact address"
        }
      },
      "decimals()": {
        "details": "Returns the number of decimals used to get its user representation. For example, if `decimals` equals `2`, a balance of `505` tokens should be displayed to a user as `5.05` (`505 / 10 ** 2`). Tokens usually opt for a value of 18, imitating the relationship between Ether and Wei. This is the value {ERC20} uses, unless this function is overridden; NOTE: This information is only used for _display_ purposes: it in no way affects any of the arithmetic of the contract, including {IERC20-balanceOf} and {IERC20-transfer}."
      },
      "decreaseAllowance(address,uint256)": {
        "details": "Atomically decreases the allowance granted to `spender` by the caller. This is an alternative to {approve} that can be used as a mitigation for problems described in {IERC20-approve}. Emits an {Approval} event indicating the updated allowance. Requirements: - `spender` cannot be the zero address. - `spender` must have allowance for the caller of at least `subtractedValue`."
      },
      "increaseAllowance(address,uint256)": {
        "details": "Atomically increases the allowance granted to `spender` by the caller. This is an alternative to {approve} that can be used as a mitigation for problems described in {IERC20-approve}. Emits an {Approval} event indicating the updated allowance. Requirements: - `spender` cannot be the zero address."
      },
      "isTrustedForwarder(address)": {
        "params": {
          "forwarder_": "Address to check"
        },
        "returns": {
          "_0": "true if forwarder_ is trusted forwarder"
        }
      },
      "name()": {
        "details": "Returns the name of the token."
      },
      "owner()": {
        "details": "Returns the address of the current owner."
      },
      "renounceOwnership()": {
        "details": "Leaves the contract without owner. It will not be possible to call `onlyOwner` functions anymore. Can only be called by the current owner. NOTE: Renouncing ownership will leave the contract without an owner, thereby removing any functionality that is only available to the owner."
      },
      "setTrustedForwarder(address)": {
        "details": "onlyOwner can call",
        "params": {
          "forwarder_": "Frwarder conract address"
        }
      },
      "symbol()": {
        "details": "Returns the symbol of the token, usually a shorter version of the name."
      },
      "totalSupply()": {
        "details": "See {IERC20-totalSupply}."
      },
      "transfer(address,uint256)": {
        "details": "See {IERC20-transfer}. Requirements: - `recipient` cannot be the zero address. - the caller must have a balance of at least `amount`."
      },
      "transferFrom(address,address,uint256)": {
        "details": "See {IERC20-transferFrom}. Emits an {Approval} event indicating the updated allowance. This is not required by the EIP. See the note at the beginning of {ERC20}. Requirements: - `sender` and `recipient` cannot be the zero address. - `sender` must have a balance of at least `amount`. - the caller must have allowance for ``sender``'s tokens of at least `amount`."
      },
      "transferOwnership(address)": {
        "details": "Transfers ownership of the contract to a new account (`newOwner`). Can only be called by the current owner."
      }
    },
    "title": "The DPLAT ERC20 contract",
    "version": 1
  },
  "userdoc": {
    "errors": {
      "CannotSendEther()": [
        {
          "notice": "error (0xbf064619): Contract cannot receive ether"
        }
      ],
      "ZeroAddress()": [
        {
          "notice": "error (0xd92e233d): Address is address(0)"
        }
      ],
      "ZeroValue()": [
        {
          "notice": "error(): Value sent is 0"
        }
      ]
    },
    "events": {
      "ForwarderSet(address,address)": {
        "notice": "event (0x94aed472): Forwarder address is changed"
      }
    },
    "kind": "user",
    "methods": {
      "constructor": {
        "notice": "DPLAT ERC20 constructor"
      },
      "isTrustedForwarder(address)": {
        "notice": "Check if the given address is the trusted forwarder"
      },
      "setTrustedForwarder(address)": {
        "notice": "Set the forwarder contract address"
      }
    },
    "version": 1
  },
  "storageLayout": {
    "storage": [
      {
        "astId": 7,
        "contract": "contracts/DPlatToken.sol:DPlatToken",
        "label": "_owner",
        "offset": 0,
        "slot": "0",
        "type": "t_address"
      },
      {
        "astId": 1477,
        "contract": "contracts/DPlatToken.sol:DPlatToken",
        "label": "trustedForwarder",
        "offset": 0,
        "slot": "1",
        "type": "t_address"
      },
      {
        "astId": 290,
        "contract": "contracts/DPlatToken.sol:DPlatToken",
        "label": "_balances",
        "offset": 0,
        "slot": "2",
        "type": "t_mapping(t_address,t_uint256)"
      },
      {
        "astId": 296,
        "contract": "contracts/DPlatToken.sol:DPlatToken",
        "label": "_allowances",
        "offset": 0,
        "slot": "3",
        "type": "t_mapping(t_address,t_mapping(t_address,t_uint256))"
      },
      {
        "astId": 298,
        "contract": "contracts/DPlatToken.sol:DPlatToken",
        "label": "_totalSupply",
        "offset": 0,
        "slot": "4",
        "type": "t_uint256"
      },
      {
        "astId": 300,
        "contract": "contracts/DPlatToken.sol:DPlatToken",
        "label": "_name",
        "offset": 0,
        "slot": "5",
        "type": "t_string_storage"
      },
      {
        "astId": 302,
        "contract": "contracts/DPlatToken.sol:DPlatToken",
        "label": "_symbol",
        "offset": 0,
        "slot": "6",
        "type": "t_string_storage"
      }
    ],
    "types": {
      "t_address": {
        "encoding": "inplace",
        "label": "address",
        "numberOfBytes": "20"
      },
      "t_mapping(t_address,t_mapping(t_address,t_uint256))": {
        "encoding": "mapping",
        "key": "t_address",
        "label": "mapping(address => mapping(address => uint256))",
        "numberOfBytes": "32",
        "value": "t_mapping(t_address,t_uint256)"
      },
      "t_mapping(t_address,t_uint256)": {
        "encoding": "mapping",
        "key": "t_address",
        "label": "mapping(address => uint256)",
        "numberOfBytes": "32",
        "value": "t_uint256"
      },
      "t_string_storage": {
        "encoding": "bytes",
        "label": "string",
        "numberOfBytes": "32"
      },
      "t_uint256": {
        "encoding": "inplace",
        "label": "uint256",
        "numberOfBytes": "32"
      }
    }
  }
}