{
  "address": "0xC75D934BBbBC87E4b1939dadCDa5CE6C6925b8B3",
  "abi": [
    {
      "inputs": [
        {
          "internalType": "address",
          "name": "forwarder_",
          "type": "address"
        },
        {
          "internalType": "address",
          "name": "zbyte_",
          "type": "address"
        },
        {
          "internalType": "address",
          "name": "treasury_",
          "type": "address"
        }
      ],
      "stateMutability": "nonpayable",
      "type": "constructor"
    },
    {
      "inputs": [],
      "name": "CannotSendEther",
      "type": "error"
    },
    {
      "inputs": [
        {
          "internalType": "uint256",
          "name": "",
          "type": "uint256"
        },
        {
          "internalType": "bytes32",
          "name": "",
          "type": "bytes32"
        },
        {
          "internalType": "bool",
          "name": "",
          "type": "bool"
        },
        {
          "internalType": "uint256",
          "name": "",
          "type": "uint256"
        }
      ],
      "name": "InvalidCallbackAck",
      "type": "error"
    },
    {
      "inputs": [
        {
          "internalType": "uint256",
          "name": "",
          "type": "uint256"
        },
        {
          "internalType": "uint256",
          "name": "",
          "type": "uint256"
        },
        {
          "internalType": "uint256",
          "name": "",
          "type": "uint256"
        },
        {
          "internalType": "uint256",
          "name": "",
          "type": "uint256"
        }
      ],
      "name": "InvalidCallbackMessage",
      "type": "error"
    },
    {
      "inputs": [
        {
          "internalType": "address",
          "name": "",
          "type": "address"
        }
      ],
      "name": "InvalidRelay",
      "type": "error"
    },
    {
      "inputs": [],
      "name": "ZeroAddress",
      "type": "error"
    },
    {
      "inputs": [],
      "name": "ZeroValue",
      "type": "error"
    },
    {
      "anonymous": false,
      "inputs": [
        {
          "indexed": false,
          "internalType": "bytes32",
          "name": "",
          "type": "bytes32"
        },
        {
          "indexed": false,
          "internalType": "bool",
          "name": "",
          "type": "bool"
        },
        {
          "indexed": false,
          "internalType": "uint256",
          "name": "",
          "type": "uint256"
        }
      ],
      "name": "ERC20DepositConfirmed",
      "type": "event"
    },
    {
      "anonymous": false,
      "inputs": [
        {
          "indexed": false,
          "internalType": "address",
          "name": "",
          "type": "address"
        },
        {
          "indexed": false,
          "internalType": "address",
          "name": "",
          "type": "address"
        },
        {
          "indexed": false,
          "internalType": "uint256",
          "name": "",
          "type": "uint256"
        },
        {
          "indexed": false,
          "internalType": "uint256",
          "name": "",
          "type": "uint256"
        },
        {
          "indexed": false,
          "internalType": "bytes32",
          "name": "",
          "type": "bytes32"
        }
      ],
      "name": "ERC20DepositFailed",
      "type": "event"
    },
    {
      "anonymous": false,
      "inputs": [
        {
          "indexed": false,
          "internalType": "address",
          "name": "",
          "type": "address"
        },
        {
          "indexed": false,
          "internalType": "address",
          "name": "",
          "type": "address"
        },
        {
          "indexed": false,
          "internalType": "uint256",
          "name": "",
          "type": "uint256"
        },
        {
          "indexed": false,
          "internalType": "uint256",
          "name": "",
          "type": "uint256"
        },
        {
          "indexed": false,
          "internalType": "bytes32",
          "name": "",
          "type": "bytes32"
        }
      ],
      "name": "ERC20Deposited",
      "type": "event"
    },
    {
      "anonymous": false,
      "inputs": [
        {
          "indexed": false,
          "internalType": "bytes32",
          "name": "",
          "type": "bytes32"
        },
        {
          "indexed": false,
          "internalType": "bool",
          "name": "",
          "type": "bool"
        },
        {
          "indexed": false,
          "internalType": "uint256",
          "name": "",
          "type": "uint256"
        }
      ],
      "name": "ERC20WithdrawConfirmed",
      "type": "event"
    },
    {
      "anonymous": false,
      "inputs": [
        {
          "indexed": false,
          "internalType": "address",
          "name": "",
          "type": "address"
        },
        {
          "indexed": false,
          "internalType": "address",
          "name": "",
          "type": "address"
        },
        {
          "indexed": false,
          "internalType": "address",
          "name": "",
          "type": "address"
        },
        {
          "indexed": false,
          "internalType": "uint256",
          "name": "",
          "type": "uint256"
        },
        {
          "indexed": false,
          "internalType": "bytes32",
          "name": "",
          "type": "bytes32"
        }
      ],
      "name": "ERC20WithdrawFailed",
      "type": "event"
    },
    {
      "anonymous": false,
      "inputs": [
        {
          "indexed": false,
          "internalType": "address",
          "name": "",
          "type": "address"
        },
        {
          "indexed": false,
          "internalType": "address",
          "name": "",
          "type": "address"
        },
        {
          "indexed": false,
          "internalType": "address",
          "name": "",
          "type": "address"
        },
        {
          "indexed": false,
          "internalType": "uint256",
          "name": "",
          "type": "uint256"
        },
        {
          "indexed": false,
          "internalType": "bytes32",
          "name": "",
          "type": "bytes32"
        }
      ],
      "name": "ERC20Withdrawn",
      "type": "event"
    },
    {
      "anonymous": false,
      "inputs": [
        {
          "indexed": false,
          "internalType": "address",
          "name": "",
          "type": "address"
        },
        {
          "indexed": false,
          "internalType": "address",
          "name": "",
          "type": "address"
        }
      ],
      "name": "ForwarderSet",
      "type": "event"
    },
    {
      "anonymous": false,
      "inputs": [
        {
          "indexed": true,
          "internalType": "address",
          "name": "previousOwner",
          "type": "address"
        },
        {
          "indexed": true,
          "internalType": "address",
          "name": "newOwner",
          "type": "address"
        }
      ],
      "name": "OwnershipTransferred",
      "type": "event"
    },
    {
      "anonymous": false,
      "inputs": [
        {
          "indexed": false,
          "internalType": "address",
          "name": "account",
          "type": "address"
        }
      ],
      "name": "Paused",
      "type": "event"
    },
    {
      "anonymous": false,
      "inputs": [
        {
          "indexed": false,
          "internalType": "address",
          "name": "",
          "type": "address"
        }
      ],
      "name": "RelayWrapperAddressSet",
      "type": "event"
    },
    {
      "anonymous": false,
      "inputs": [
        {
          "indexed": false,
          "internalType": "address",
          "name": "",
          "type": "address"
        },
        {
          "indexed": false,
          "internalType": "address",
          "name": "",
          "type": "address"
        }
      ],
      "name": "TreasuryAddressSet",
      "type": "event"
    },
    {
      "anonymous": false,
      "inputs": [
        {
          "indexed": false,
          "internalType": "address",
          "name": "account",
          "type": "address"
        }
      ],
      "name": "Unpaused",
      "type": "event"
    },
    {
      "anonymous": false,
      "inputs": [
        {
          "indexed": false,
          "internalType": "address",
          "name": "",
          "type": "address"
        },
        {
          "indexed": false,
          "internalType": "uint256",
          "name": "",
          "type": "uint256"
        }
      ],
      "name": "vERC20AddressSet",
      "type": "event"
    },
    {
      "inputs": [],
      "name": "asset",
      "outputs": [
        {
          "internalType": "address",
          "name": "",
          "type": "address"
        }
      ],
      "stateMutability": "view",
      "type": "function"
    },
    {
      "inputs": [
        {
          "internalType": "uint256",
          "name": "chain_",
          "type": "uint256"
        },
        {
          "internalType": "bytes32",
          "name": "ack_",
          "type": "bytes32"
        },
        {
          "internalType": "bool",
          "name": "success_",
          "type": "bool"
        },
        {
          "internalType": "uint256",
          "name": "retval_",
          "type": "uint256"
        }
      ],
      "name": "callbackHandler",
      "outputs": [
        {
          "internalType": "uint256",
          "name": "",
          "type": "uint256"
        }
      ],
      "stateMutability": "nonpayable",
      "type": "function"
    },
    {
      "inputs": [
        {
          "internalType": "uint256",
          "name": "relay_",
          "type": "uint256"
        },
        {
          "internalType": "uint256",
          "name": "chain_",
          "type": "uint256"
        },
        {
          "internalType": "address",
          "name": "receiver_",
          "type": "address"
        },
        {
          "internalType": "uint256",
          "name": "amount_",
          "type": "uint256"
        }
      ],
      "name": "deposit",
      "outputs": [
        {
          "internalType": "bool",
          "name": "result",
          "type": "bool"
        }
      ],
      "stateMutability": "nonpayable",
      "type": "function"
    },
    {
      "inputs": [],
      "name": "getNonce",
      "outputs": [
        {
          "internalType": "uint256",
          "name": "",
          "type": "uint256"
        }
      ],
      "stateMutability": "view",
      "type": "function"
    },
    {
      "inputs": [
        {
          "internalType": "address",
          "name": "forwarder_",
          "type": "address"
        }
      ],
      "name": "isTrustedForwarder",
      "outputs": [
        {
          "internalType": "bool",
          "name": "",
          "type": "bool"
        }
      ],
      "stateMutability": "view",
      "type": "function"
    },
    {
      "inputs": [],
      "name": "owner",
      "outputs": [
        {
          "internalType": "address",
          "name": "",
          "type": "address"
        }
      ],
      "stateMutability": "view",
      "type": "function"
    },
    {
      "inputs": [],
      "name": "pause",
      "outputs": [],
      "stateMutability": "nonpayable",
      "type": "function"
    },
    {
      "inputs": [],
      "name": "paused",
      "outputs": [
        {
          "internalType": "bool",
          "name": "",
          "type": "bool"
        }
      ],
      "stateMutability": "view",
      "type": "function"
    },
    {
      "inputs": [
        {
          "internalType": "bytes32",
          "name": "",
          "type": "bytes32"
        }
      ],
      "name": "pendingAction",
      "outputs": [
        {
          "internalType": "enum EscrowERC20.Action",
          "name": "action",
          "type": "uint8"
        },
        {
          "internalType": "address",
          "name": "nAddress",
          "type": "address"
        },
        {
          "internalType": "address",
          "name": "rAddress",
          "type": "address"
        },
        {
          "internalType": "uint256",
          "name": "chainId",
          "type": "uint256"
        },
        {
          "internalType": "uint256",
          "name": "amount",
          "type": "uint256"
        }
      ],
      "stateMutability": "view",
      "type": "function"
    },
    {
      "inputs": [],
      "name": "relayWrapper",
      "outputs": [
        {
          "internalType": "contract IRelayWrapper",
          "name": "",
          "type": "address"
        }
      ],
      "stateMutability": "view",
      "type": "function"
    },
    {
      "inputs": [],
      "name": "renounceOwnership",
      "outputs": [],
      "stateMutability": "nonpayable",
      "type": "function"
    },
    {
      "inputs": [
        {
          "internalType": "address",
          "name": "wrapper_",
          "type": "address"
        }
      ],
      "name": "setRelayWrapperAddress",
      "outputs": [],
      "stateMutability": "nonpayable",
      "type": "function"
    },
    {
      "inputs": [
        {
          "internalType": "address",
          "name": "treasury_",
          "type": "address"
        }
      ],
      "name": "setTreasuryAddress",
      "outputs": [],
      "stateMutability": "nonpayable",
      "type": "function"
    },
    {
      "inputs": [
        {
          "internalType": "address",
          "name": "forwarder_",
          "type": "address"
        }
      ],
      "name": "setTrustedForwarder",
      "outputs": [],
      "stateMutability": "nonpayable",
      "type": "function"
    },
    {
      "inputs": [
        {
          "internalType": "address",
          "name": "verc20_",
          "type": "address"
        },
        {
          "internalType": "uint256",
          "name": "chain_",
          "type": "uint256"
        }
      ],
      "name": "setvERC20Address",
      "outputs": [],
      "stateMutability": "nonpayable",
      "type": "function"
    },
    {
      "inputs": [
        {
          "internalType": "uint256",
          "name": "chain_",
          "type": "uint256"
        }
      ],
      "name": "totalSupply",
      "outputs": [
        {
          "internalType": "uint256",
          "name": "",
          "type": "uint256"
        }
      ],
      "stateMutability": "view",
      "type": "function"
    },
    {
      "inputs": [],
      "name": "totalSupplyAllChains",
      "outputs": [
        {
          "internalType": "uint256",
          "name": "",
          "type": "uint256"
        }
      ],
      "stateMutability": "view",
      "type": "function"
    },
    {
      "inputs": [
        {
          "internalType": "address",
          "name": "newOwner",
          "type": "address"
        }
      ],
      "name": "transferOwnership",
      "outputs": [],
      "stateMutability": "nonpayable",
      "type": "function"
    },
    {
      "inputs": [],
      "name": "treasury",
      "outputs": [
        {
          "internalType": "address",
          "name": "",
          "type": "address"
        }
      ],
      "stateMutability": "view",
      "type": "function"
    },
    {
      "inputs": [],
      "name": "ulAsset",
      "outputs": [
        {
          "internalType": "contract IERC20",
          "name": "",
          "type": "address"
        }
      ],
      "stateMutability": "view",
      "type": "function"
    },
    {
      "inputs": [],
      "name": "unpause",
      "outputs": [],
      "stateMutability": "nonpayable",
      "type": "function"
    },
    {
      "inputs": [
        {
          "internalType": "uint256",
          "name": "",
          "type": "uint256"
        }
      ],
      "name": "vERC20Addresses",
      "outputs": [
        {
          "internalType": "address",
          "name": "",
          "type": "address"
        }
      ],
      "stateMutability": "view",
      "type": "function"
    },
    {
      "inputs": [
        {
          "internalType": "uint256",
          "name": "relay_",
          "type": "uint256"
        },
        {
          "internalType": "uint256",
          "name": "chain_",
          "type": "uint256"
        },
        {
          "internalType": "address",
          "name": "paymaster_",
          "type": "address"
        },
        {
          "internalType": "address",
          "name": "receiver_",
          "type": "address"
        }
      ],
      "name": "withdraw",
      "outputs": [
        {
          "internalType": "bool",
          "name": "result",
          "type": "bool"
        }
      ],
      "stateMutability": "nonpayable",
      "type": "function"
    },
    {
      "stateMutability": "payable",
      "type": "receive"
    }
  ],
  "transactionHash": "0x91035f66f864a9c32d3e4fc0fb8dad192dd50d78e7e36fe5db3c652c6b04328b",
  "args": [
    "0x8c26Aa752e321340Ce77dBdc5ef577B852D9C214",
    "0x2bC129D86a25FbD49FaA7F8AEF5076C29BE6C739",
    "0x4354441c4F40dFB3F14ceb68977fA20B62068200"
  ],
  "numDeployments": 1,
  "solcInputHash": "148873f108a8132414e7e81c341656a2",
  "bytecode": "0x6080346200022357601f62001b1138819003918201601f1916830191906001600160401b0383118484101762000228578160609285926040958652833981010312620002235762000050826200023e565b916200006c8262000064602084016200023e565b92016200023e565b6001600160a01b039182166200008162000253565b908360005492169182865191818782167f8be0079c531659141344cd1fd0a4f28419497f9722a3daafe3b4186f6b6457e0600080a36001600160a81b03191617600055600160025581156200021457508386169586156200020357600180546001600160a01b03198082169990991790915586516001600160a01b0391871682168152911660208201527f94aed472e01353526c04ec91cee149d41e78d848ec851c72be532bf7b120bd3090604090a1856007541617600755826200014562000253565b1603620001c0578116928315620001af576003805491821685179055825191166001600160a01b0390811682529092166020830152907f1db696c9becb6c7e5b140934fe902d723d35791ef36d36c9b1586f6a502fd29790604090a1516118989081620002798239f35b825163d92e233d60e01b8152600490fd5b6064835162461bcd60e51b815260206004820152602060248201527f4f776e61626c653a2063616c6c6572206973206e6f7420746865206f776e65726044820152fd5b855163d92e233d60e01b8152600490fd5b63d92e233d60e01b8152600490fd5b600080fd5b634e487b7160e01b600052604160045260246000fd5b51906001600160a01b03821682036200022357565b600154336001600160a01b0390911603620002745736601319013560601c90565b339056fe60806040526004361015610026575b361561001957600080fd5b610021611037565b600080fd5b60003560e01c806312c00ccb146101e957806338d52e0f146101c55780633f4ba83a146101e05780633fcc4a81146101d7578063450a9d77146101ce5780634d3273db146101c5578063572b6c05146101bc5780635c975abb146101b357806361d027b3146101aa5780636605bfda146101a1578063715018a61461019857806371b3177a1461018f5780638456cb59146101865780638da5cb5b1461017d578063a1478a3b14610174578063bd85b0391461016b578063c6a3178514610162578063c8b5303814610159578063d087d28814610150578063da74222814610147578063deee40781461013e578063e78f0949146101355763f2fde38b0361000e57610130610f0a565b61000e565b50610130610c99565b50610130610c64565b50610130610bc9565b50610130610baa565b50610130610b3b565b50610130610afc565b50610130610acf565b50610130610aa5565b50610130610a7b565b506101306109fc565b50610130610771565b50610130610706565b5061013061066b565b50610130610641565b5061013061061a565b506101306105e4565b506101306102cb565b5061013061051f565b5061013061038f565b506101306102f5565b50610130610234565b600435906001600160a01b038216820361002157565b604435906001600160a01b038216820361002157565b606435906001600160a01b038216820361002157565b50346100215760203660031901126100215761024e6101f2565b6000546001600160a01b0391906102719083168361026a61183e565b1614610fa5565b1680156102b9576020817f8e3584f39ded6e1a9a02b72cddce11efa1a306747c8527671917b231983edbad926001600160601b0360a01b6008541617600855604051908152a1005b60405163d92e233d60e01b8152600490fd5b5034610021576000366003190112610021576007546040516001600160a01b039091168152602090f35b5034610021576000806003193601126103825780547f5db9ee0a495bf2e6ff9c91a7834c1ba4fdd244a5e8aa4e537bd38aeae4b073aa906020906001600160a01b039061034e8261034461183e565b1683831614610fa5565b61036660ff8260a01c16610361816117fb565b6117fb565b60ff60a01b1916845561037761183e565b60405191168152a180f35b80fd5b8015150361002157565b5034610021576080366003190112610021576044356103ad81610385565b60028054146104da576002805560085460009060209061041b906103e1906001600160a01b03165b6001600160a01b031690565b6103e961183e565b604051630b43159160e41b81524660048201526001600160a01b03909116602482015293849283919082906044820190565b03925af19081156104cd575b60009161049f575b50156104695761044b6104659160643590602435600435611521565b6104556001600255565b6040519081529081906020820190565b0390f35b61049b61047461183e565b604051630adb4ca360e41b81526001600160a01b0390911660048201529081906024820190565b0390fd5b6104c0915060203d81116104c6575b6104b8818361108a565b8101906111aa565b3861042f565b503d6104ae565b6104d5611254565b610427565b60405162461bcd60e51b815260206004820152601f60248201527f5265656e7472616e637947756172643a207265656e7472616e742063616c6c006044820152606490fd5b5034610021576040366003190112610021576105396101f2565b600054602435906001600160a01b03906105589082168261026a61183e565b8216156102b95780156105d257600081815260066020526040902080546001600160a01b0319166001600160a01b0384161790557f1a40ce6d89bbc096abbbb07f26f960227344b0199ce4c540844114d7839b793891604080516001600160a01b039092168252602082019290925290819081015b0390a1005b604051637c946ed760e01b8152600490fd5b50346100215760203660031901126100215760206106006101f2565b6001546040516001600160a01b0392831691909216148152f35b503461002157600036600319011261002157602060ff60005460a01c166040519015158152f35b5034610021576000366003190112610021576003546040516001600160a01b039091168152602090f35b5034610021576020366003190112610021576106856101f2565b6000546001600160a01b039182916106a29083168361026a61183e565b169081156102b957600380546001600160a01b03198116841790915560408051929091166001600160a01b03908116835290921660208201527f1db696c9becb6c7e5b140934fe902d723d35791ef36d36c9b1586f6a502fd29791819081016105cd565b50346100215760008060031936011261038257805481906001600160a01b03808216919061073e9061073661183e565b168314610fa5565b6001600160a01b03191682557f8be0079c531659141344cd1fd0a4f28419497f9722a3daafe3b4186f6b6457e08280a380f35b503461002157608036600319011261002157610465602435610791610208565b61079961021e565b6000546107b4906001600160a01b039081169061026a61183e565b6107d86107cb846000526006602052604060002090565b546001600160a01b031690565b9160095491610848856040948551906020978261084d8a80950182610829868b8d8b8692606894929184526001600160601b0319809260601b16602085015260601b16603483015260488201520190565b039261083d601f199485810183528261108a565b5190209687946110c3565b600955565b61089e6108586110db565b600281526001600160a01b038916818701526001600160a01b038a16818c01528660608201526000608082015261089985600052600a602052604060002090565b611125565b6008546000906108b6906001600160a01b03166103d5565b8a5162f55d9d60e01b878201526001600160a01b038b16602482015260449384018152909390926108e7908461108a565b61090c8b51978896879586946380516ec960e01b865230934660043560048901611202565b03925af19586156109ef575b6000966109a6575b50506109939085966109537f72b69b7283d7f94f82af237df98dac53d1240005b789c3ed88e3834d21ad7e1b96976114d5565b61095b61183e565b87516001600160a01b0391821681529581166020870152909316604085015260608401929092526080830191909152819060a0820190565b0390a15190151581529081906020820190565b7f72b69b7283d7f94f82af237df98dac53d1240005b789c3ed88e3834d21ad7e1b9596506109939291816109e592903d106104c6576104b8818361108a565b9594819250610920565b6109f7611254565b610918565b5034610021576000806003193601126103825780547f62e78cea01bee320cd4e420270b5ea74000d11b0c9f74754ebdbfc544b05a258906020906001600160a01b0390610a4b8261034461183e565b610a6460ff8260a01c1615610a5f816117bc565b6117bc565b60ff60a01b1916600160a01b17845561037761183e565b5034610021576000366003190112610021576000546040516001600160a01b039091168152602090f35b5034610021576000366003190112610021576008546040516001600160a01b039091168152602090f35b50346100215760203660031901126100215760043560005260056020526020604060002054604051908152f35b5034610021576000366003190112610021576020600454604051908152f35b60031115610b2557565b634e487b7160e01b600052602160045260246000fd5b503461002157602036600319011261002157600435600052600a6020526040600020805460ff81169160018060a01b0390816001820154166003600283015492015492604051946003871015610b255760a096865260081c166020850152604084015260608301526080820152f35b5034610021576000366003190112610021576020600954604051908152f35b503461002157602036600319011261002157610be36101f2565b6000546001600160a01b0390610bfe9082168261026a61183e565b80821680156102b957600180546001600160a01b031981169092179055604080516001600160a01b0393909216831682529190921660208301527f94aed472e01353526c04ec91cee149d41e78d848ec851c72be532bf7b120bd309190819081016105cd565b5034610021576020366003190112610021576004356000526006602052602060018060a01b0360406000205416604051908152f35b503461002157608036600319011261002157602435610cb6610208565b9080606435610ccf826000526006602052604060002090565b546001600160a01b03166007549094906001600160a01b031682610cf161183e565b3090610cfc936112ad565b600954916040928351602097818980930181610d4086888a8d869290916074949284526001600160601b03199060601b166020840152603483015260548201520190565b0391601f19928381018252610d55908261108a565b51902093610d62906110c3565b600955610d6d6110db565b60018152610d7961183e565b6001600160a01b0316818501526001600160a01b03871681890152886060820152856080820152610db485600052600a602052604060002090565b90610dbe91611125565b60085487516340c10f1960e01b858201526001600160a01b038881166024830152604482018890526064938401825290911691859190610dfe908261108a565b88516380516ec960e01b8152998a9485938493610e25933093904660048035908901611202565b03915a90600091f19485159761046598610efd575b600096610eb4575b5050610993908596610e757f7421cdc21c72f34d5c833d58c604ea2ce4c54894d72b242df1de39d4a27b36d19697611261565b610e7d61183e565b87516001600160a01b03918216815295166020860152604085019390935260608401929092526080830191909152819060a0820190565b7f7421cdc21c72f34d5c833d58c604ea2ce4c54894d72b242df1de39d4a27b36d1959650610993929181610ef392903d106104c6576104b8818361108a565b9594819250610e42565b610f05611254565b610e3a565b503461002157602036600319011261002157610f246101f2565b6000546001600160a01b0390610f3f9082168261026a61183e565b811615610f5157610f4f90610ff0565b005b60405162461bcd60e51b815260206004820152602660248201527f4f776e61626c653a206e6577206f776e657220697320746865207a65726f206160448201526564647265737360d01b6064820152608490fd5b15610fac57565b606460405162461bcd60e51b815260206004820152602060248201527f4f776e61626c653a2063616c6c6572206973206e6f7420746865206f776e65726044820152fd5b600080546001600160a01b039283166001600160a01b03198216811783559216907f8be0079c531659141344cd1fd0a4f28419497f9722a3daafe3b4186f6b6457e09080a3565b5060405163bf06461960e01b8152600490fd5b50634e487b7160e01b600052604160045260246000fd5b6040810190811067ffffffffffffffff82111761107d57604052565b61108561104a565b604052565b90601f8019910116810190811067ffffffffffffffff82111761107d57604052565b50634e487b7160e01b600052601160045260246000fd5b90600182018092116110d157565b6110d96110ac565b565b6040519060a0820182811067ffffffffffffffff821117611118575b60405260006080838281528260208201528260408201528260608201520152565b61112061104a565b6110f7565b9080516003811015610b255782546020830151610100600160a81b0360089190911b1660ff929092166001600160a81b0319909116171782556040810151600391608091611199906001600160a01b03166001860180546001600160a01b0319166001600160a01b03909216919091179055565b606081015160028501550151910155565b9081602091031261002157516111bf81610385565b90565b919082519283825260005b8481106111ee575050826000602080949584010152601f8019910116010190565b6020818301810151848301820152016111cd565b9490926112389260209894875288870152604086015260018060a01b0380941660608601526101008060808701528501906111c2565b9360a08401521660c082015260e0818303910152600081520190565b506040513d6000823e3d90fd5b1561126857565b60405162461bcd60e51b815260206004820152601c60248201527f5f6465706f7369743a2063616c6c52656d6f7465206661696c65642e000000006044820152606490fd5b6040516323b872dd60e01b60208201526001600160a01b0392831660248201529290911660448301526064808301939093529181526110d99160a0820182811067ffffffffffffffff821117611306575b604052611372565b61130e61104a565b6112fe565b1561131a57565b60405162461bcd60e51b815260206004820152602a60248201527f5361666545524332303a204552433230206f7065726174696f6e20646964206e6044820152691bdd081cdd58d8d9595960b21b6064820152608490fd5b6040516001600160a01b03919091169161138b82611061565b6020928383527f5361666545524332303a206c6f772d6c6576656c2063616c6c206661696c656484840152803b1561140257600082819282876113dd9796519301915af16113d7611447565b90611495565b805190816113ea57505050565b826110d9936113fd9383010191016111aa565b611313565b60405162461bcd60e51b815260048101859052601d60248201527f416464726573733a2063616c6c20746f206e6f6e2d636f6e74726163740000006044820152606490fd5b3d15611490573d9067ffffffffffffffff8211611483575b60405191611477601f8201601f19166020018461108a565b82523d6000602084013e565b61148b61104a565b61145f565b606090565b909190156114a1575090565b8151156114b15750805190602001fd5b60405162461bcd60e51b81526020600482015290819061049b9060248301906111c2565b156114dc57565b60405162461bcd60e51b815260206004820152601d60248201527f5f77697468647261773a2063616c6c52656d6f7465206661696c65642e0000006044820152606490fd5b939261153782600052600a602052604060002090565b948554600260038801549701549160ff821661155281610b1b565b6001810361162b57509050818114801590611621575b6115f357509061159d6115eb927ff64578a8ea3d511e99da45c5925c1f2ba97616679c9991a491f79d269452f9709697611788565b6115cc6115b484600052600a602052604060002090565b60036000918281558260018201558260028201550155565b6040519384938460409194939260608201958252151560208201520152565b0390a1600090565b60405163d6facdff60e01b815260048101929092526024820187905260448201526064810191909152608490fd5b5082871415611568565b80611637600292610b1b565b036116ca5782810361169b575082917ff5a60bd1e87b05bb87d7c368ca3ef2adb38148647f0a7b7cafdba3e82790510596976116966115eb9561159d9460018060a01b039060081c1661169160075460018060a01b031690565b6116fa565b61173b565b60405163d6facdff60e01b81526004810184905260248101899052604481019190915260648101849052608490fd5b604051630cd9d7bb60e41b8152600481019190915260248101859052851515604482015260648101849052608490fd5b60405163a9059cbb60e01b60208201526001600160a01b039290921660248301526044808301939093529181526110d99161173660648361108a565b611372565b906117619060045483810390811161177b575b6004556000526005602052604060002090565b80549182039182116117705755565b6117786110ac565b55565b6117836110ac565b61174e565b906117ad9060045483810180911161177b576004556000526005602052604060002090565b80549182018092116117705755565b156117c357565b60405162461bcd60e51b815260206004820152601060248201526f14185d5cd8589b194e881c185d5cd95960821b6044820152606490fd5b1561180257565b60405162461bcd60e51b815260206004820152601460248201527314185d5cd8589b194e881b9bdd081c185d5cd95960621b6044820152606490fd5b600154336001600160a01b039091160361185e5736601319013560601c90565b339056fea2646970667358221220fb50565a19edb51a106ddf8efbd67ebf2fa98b87be2f88e076160b0754337ea364736f6c63430008110033",
  "devdoc": {
    "kind": "dev",
    "methods": {
      "callbackHandler(uint256,bytes32,bool,uint256)": {
        "params": {
          "ack_": "Unique hash of the submitted deposit/withdraw request",
          "chain_": "Target chain identifier",
          "retval_": "The amount of tokens that were deposited/withdrawn",
          "success_": "true if the deposit/withdraw was successful on remote"
        }
      },
      "deposit(uint256,uint256,address,uint256)": {
        "params": {
          "amount_": "Amount of ERC20 deposited",
          "chain_": "Target chain identifier",
          "receiver_": "Recipient address for vERC20",
          "relay_": "Relay identifier that should be used for the crosschain call"
        }
      },
      "getNonce()": {
        "details": "nonce is incremented for every successful deposit or withdraw"
      },
      "isTrustedForwarder(address)": {
        "params": {
          "forwarder_": "Address to check"
        },
        "returns": {
          "_0": "true if forwarder_ is trusted forwarder"
        }
      },
      "owner()": {
        "details": "Returns the address of the current owner."
      },
      "paused()": {
        "details": "Returns true if the contract is paused, and false otherwise."
      },
      "renounceOwnership()": {
        "details": "Leaves the contract without owner. It will not be possible to call `onlyOwner` functions anymore. Can only be called by the current owner. NOTE: Renouncing ownership will leave the contract without an owner, thereby removing any functionality that is only available to the owner."
      },
      "setRelayWrapperAddress(address)": {
        "params": {
          "wrapper_": "Core relay wrapper contract address"
        }
      },
      "setTreasuryAddress(address)": {
        "params": {
          "treasury_": "Treasury address"
        }
      },
      "setTrustedForwarder(address)": {
        "details": "onlyOwner can call",
        "params": {
          "forwarder_": "Frwarder conract address"
        }
      },
      "setvERC20Address(address,uint256)": {
        "details": "nonce is incremented for every successful deposit or withdraw",
        "params": {
          "chain_": "chain id of the chain where vERC2o contract resides",
          "verc20_": "vERC20 contract address"
        }
      },
      "totalSupply(uint256)": {
        "params": {
          "chain_": "The id of the chain of interest"
        }
      },
      "transferOwnership(address)": {
        "details": "Transfers ownership of the contract to a new account (`newOwner`). Can only be called by the current owner."
      },
      "withdraw(uint256,uint256,address,address)": {
        "details": "The paymaster_ should be a valid paymaster (e.g., forwarder). All vERC20 held by paymaster is destroyed and equal ERC20 is deposited",
        "params": {
          "chain_": "Target chain identifier",
          "paymaster_": "Paymaster address to deposit vERC20",
          "receiver_": "Recipient address for ERC20",
          "relay_": "Relay identifier that should be used for the crosschain call"
        }
      }
    },
    "title": "The ZBYT ERC20 Escrow contract",
    "version": 1
  },
  "userdoc": {
    "errors": {
      "CannotSendEther()": [
        {
          "notice": "error (0xbf064619): Contract cannot receive ether"
        }
      ],
      "InvalidCallbackAck(uint256,bytes32,bool,uint256)": [
        {
          "notice": "event (0xcd9d7bb0): The ack in callback received was not found"
        }
      ],
      "InvalidCallbackMessage(uint256,uint256,uint256,uint256)": [
        {
          "notice": "event (0xd6facdff): The callback received was invalid"
        }
      ],
      "InvalidRelay(address)": [
        {
          "notice": "Caller is not a valid relay"
        }
      ],
      "ZeroAddress()": [
        {
          "notice": "error (0xd92e233d): Address is address(0)"
        }
      ],
      "ZeroValue()": [
        {
          "notice": "error(): Value sent is 0"
        }
      ]
    },
    "events": {
      "ERC20DepositConfirmed(bytes32,bool,uint256)": {
        "notice": "event (0xf64578a8): ERC20 tokens deposit confirmed"
      },
      "ERC20DepositFailed(address,address,uint256,uint256,bytes32)": {
        "notice": "event (0x0583eefc): ERC20 tokens deposit failed"
      },
      "ERC20Deposited(address,address,uint256,uint256,bytes32)": {
        "notice": "event (0xcae09af7): ERC20 tokens deposited"
      },
      "ERC20WithdrawConfirmed(bytes32,bool,uint256)": {
        "notice": "event (0xf5a60bd1): ERC20 tokens withdraw confirmed"
      },
      "ERC20WithdrawFailed(address,address,address,uint256,bytes32)": {
        "notice": "event (0x2b4d7cea): ERC20 tokens withdraw failed"
      },
      "ERC20Withdrawn(address,address,address,uint256,bytes32)": {
        "notice": "event (0x8b923c21): ERC20 tokens withdrawn"
      },
      "ForwarderSet(address,address)": {
        "notice": "event (0x94aed472): Forwarder address is changed"
      },
      "RelayWrapperAddressSet(address)": {
        "notice": "event (0x95290bcc): Core relay wrapper contract address is set"
      },
      "TreasuryAddressSet(address,address)": {
        "notice": "event (0x1db696c9): The Treasury address is set"
      },
      "vERC20AddressSet(address,uint256)": {
        "notice": "event (0x1a40ce6d): vERC20 contract address is set"
      }
    },
    "kind": "user",
    "methods": {
      "asset()": {
        "notice": "Return the address of underlying ERC20 contract address"
      },
      "callbackHandler(uint256,bytes32,bool,uint256)": {
        "notice": "callback handler to handle acknowledgement for deposit/withdraw"
      },
      "deposit(uint256,uint256,address,uint256)": {
        "notice": "Deposit ERC20 tokens to obtain vERC20 on target chain"
      },
      "getNonce()": {
        "notice": "Get the latest nonce "
      },
      "isTrustedForwarder(address)": {
        "notice": "Check if the given address is the trusted forwarder"
      },
      "pause()": {
        "notice": "Pauses the contract (mint, transfer and burn operations are paused)"
      },
      "pendingAction(bytes32)": {
        "notice": "mapping of current deposit/withdraw operations for which callback has not yet been received"
      },
      "relayWrapper()": {
        "notice": "RelayWrapper contract address"
      },
      "setRelayWrapperAddress(address)": {
        "notice": "Set the address of core relay wrapper"
      },
      "setTreasuryAddress(address)": {
        "notice": "Set the treasury address"
      },
      "setTrustedForwarder(address)": {
        "notice": "Set the forwarder contract address"
      },
      "setvERC20Address(address,uint256)": {
        "notice": "Set the address of vERC20 on a given chain"
      },
      "totalSupply(uint256)": {
        "notice": "Return the amount of vERC20 currently available on a given chain"
      },
      "totalSupplyAllChains()": {
        "notice": "Return the amount of vERC20 currently available on all chains"
      },
      "ulAsset()": {
        "notice": "The underlying ERC20 token contract"
      },
      "unpause()": {
        "notice": "Unpauses the paused contract"
      },
      "vERC20Addresses(uint256)": {
        "notice": "mapping of the vERC20 contract address for the chain"
      },
      "withdraw(uint256,uint256,address,address)": {
        "notice": "Withdraw ERC20 tokens by depositing vERC20 on target chain"
      }
    },
    "version": 1
  },
  "storageLayout": {
    "storage": [
      {
        "astId": 7,
        "contract": "contracts/core/ZbyteEscrow.sol:ZbyteEscrow",
        "label": "_owner",
        "offset": 0,
        "slot": "0",
        "type": "t_address"
      },
      {
        "astId": 292,
        "contract": "contracts/core/ZbyteEscrow.sol:ZbyteEscrow",
        "label": "_paused",
        "offset": 20,
        "slot": "0",
        "type": "t_bool"
      },
      {
        "astId": 7703,
        "contract": "contracts/core/ZbyteEscrow.sol:ZbyteEscrow",
        "label": "trustedForwarder",
        "offset": 0,
        "slot": "1",
        "type": "t_address"
      },
      {
        "astId": 377,
        "contract": "contracts/core/ZbyteEscrow.sol:ZbyteEscrow",
        "label": "_status",
        "offset": 0,
        "slot": "2",
        "type": "t_uint256"
      },
      {
        "astId": 2124,
        "contract": "contracts/core/ZbyteEscrow.sol:ZbyteEscrow",
        "label": "treasury",
        "offset": 0,
        "slot": "3",
        "type": "t_address"
      },
      {
        "astId": 2127,
        "contract": "contracts/core/ZbyteEscrow.sol:ZbyteEscrow",
        "label": "_totalSupply",
        "offset": 0,
        "slot": "4",
        "type": "t_uint256"
      },
      {
        "astId": 2131,
        "contract": "contracts/core/ZbyteEscrow.sol:ZbyteEscrow",
        "label": "_reserve",
        "offset": 0,
        "slot": "5",
        "type": "t_mapping(t_uint256,t_uint256)"
      },
      {
        "astId": 2136,
        "contract": "contracts/core/ZbyteEscrow.sol:ZbyteEscrow",
        "label": "vERC20Addresses",
        "offset": 0,
        "slot": "6",
        "type": "t_mapping(t_uint256,t_address)"
      },
      {
        "astId": 2140,
        "contract": "contracts/core/ZbyteEscrow.sol:ZbyteEscrow",
        "label": "ulAsset",
        "offset": 0,
        "slot": "7",
        "type": "t_contract(IERC20)1030"
      },
      {
        "astId": 2144,
        "contract": "contracts/core/ZbyteEscrow.sol:ZbyteEscrow",
        "label": "relayWrapper",
        "offset": 0,
        "slot": "8",
        "type": "t_contract(IRelayWrapper)6293"
      },
      {
        "astId": 2147,
        "contract": "contracts/core/ZbyteEscrow.sol:ZbyteEscrow",
        "label": "nonce",
        "offset": 0,
        "slot": "9",
        "type": "t_uint256"
      },
      {
        "astId": 2169,
        "contract": "contracts/core/ZbyteEscrow.sol:ZbyteEscrow",
        "label": "pendingAction",
        "offset": 0,
        "slot": "10",
        "type": "t_mapping(t_bytes32,t_struct(PendingAction)2163_storage)"
      }
    ],
    "types": {
      "t_address": {
        "encoding": "inplace",
        "label": "address",
        "numberOfBytes": "20"
      },
      "t_bool": {
        "encoding": "inplace",
        "label": "bool",
        "numberOfBytes": "1"
      },
      "t_bytes32": {
        "encoding": "inplace",
        "label": "bytes32",
        "numberOfBytes": "32"
      },
      "t_contract(IERC20)1030": {
        "encoding": "inplace",
        "label": "contract IERC20",
        "numberOfBytes": "20"
      },
      "t_contract(IRelayWrapper)6293": {
        "encoding": "inplace",
        "label": "contract IRelayWrapper",
        "numberOfBytes": "20"
      },
      "t_enum(Action)2151": {
        "encoding": "inplace",
        "label": "enum EscrowERC20.Action",
        "numberOfBytes": "1"
      },
      "t_mapping(t_bytes32,t_struct(PendingAction)2163_storage)": {
        "encoding": "mapping",
        "key": "t_bytes32",
        "label": "mapping(bytes32 => struct EscrowERC20.PendingAction)",
        "numberOfBytes": "32",
        "value": "t_struct(PendingAction)2163_storage"
      },
      "t_mapping(t_uint256,t_address)": {
        "encoding": "mapping",
        "key": "t_uint256",
        "label": "mapping(uint256 => address)",
        "numberOfBytes": "32",
        "value": "t_address"
      },
      "t_mapping(t_uint256,t_uint256)": {
        "encoding": "mapping",
        "key": "t_uint256",
        "label": "mapping(uint256 => uint256)",
        "numberOfBytes": "32",
        "value": "t_uint256"
      },
      "t_struct(PendingAction)2163_storage": {
        "encoding": "inplace",
        "label": "struct EscrowERC20.PendingAction",
        "members": [
          {
            "astId": 2154,
            "contract": "contracts/core/ZbyteEscrow.sol:ZbyteEscrow",
            "label": "action",
            "offset": 0,
            "slot": "0",
            "type": "t_enum(Action)2151"
          },
          {
            "astId": 2156,
            "contract": "contracts/core/ZbyteEscrow.sol:ZbyteEscrow",
            "label": "nAddress",
            "offset": 1,
            "slot": "0",
            "type": "t_address"
          },
          {
            "astId": 2158,
            "contract": "contracts/core/ZbyteEscrow.sol:ZbyteEscrow",
            "label": "rAddress",
            "offset": 0,
            "slot": "1",
            "type": "t_address"
          },
          {
            "astId": 2160,
            "contract": "contracts/core/ZbyteEscrow.sol:ZbyteEscrow",
            "label": "chainId",
            "offset": 0,
            "slot": "2",
            "type": "t_uint256"
          },
          {
            "astId": 2162,
            "contract": "contracts/core/ZbyteEscrow.sol:ZbyteEscrow",
            "label": "amount",
            "offset": 0,
            "slot": "3",
            "type": "t_uint256"
          }
        ],
        "numberOfBytes": "128"
      },
      "t_uint256": {
        "encoding": "inplace",
        "label": "uint256",
        "numberOfBytes": "32"
      }
    }
  }
}