{
  "address": "0xC3e29206431fD214feDf211B79064152077Dd26e",
  "abi": [
    {
      "inputs": [
        {
          "internalType": "bytes4",
          "name": "",
          "type": "bytes4"
        }
      ],
      "name": "EnterpriseAlreadyRegistered",
      "type": "error"
    },
    {
      "inputs": [
        {
          "internalType": "address",
          "name": "",
          "type": "address"
        }
      ],
      "name": "EnterpriseDappAlreadyRegistered",
      "type": "error"
    },
    {
      "inputs": [
        {
          "internalType": "address",
          "name": "",
          "type": "address"
        }
      ],
      "name": "EnterpriseDappNotRegistered",
      "type": "error"
    },
    {
      "inputs": [
        {
          "internalType": "bytes4",
          "name": "",
          "type": "bytes4"
        }
      ],
      "name": "EnterpriseNotRegistered",
      "type": "error"
    },
    {
      "inputs": [
        {
          "internalType": "address",
          "name": "",
          "type": "address"
        }
      ],
      "name": "EnterpriseUserAlreadyRegistered",
      "type": "error"
    },
    {
      "inputs": [
        {
          "internalType": "address",
          "name": "",
          "type": "address"
        }
      ],
      "name": "EnterpriseUserNotRegistered",
      "type": "error"
    },
    {
      "inputs": [
        {
          "internalType": "bytes4",
          "name": "",
          "type": "bytes4"
        }
      ],
      "name": "InvalidEnterprise",
      "type": "error"
    },
    {
      "inputs": [
        {
          "internalType": "address",
          "name": "",
          "type": "address"
        }
      ],
      "name": "InvalidProvider",
      "type": "error"
    },
    {
      "inputs": [],
      "name": "NotAForwarder",
      "type": "error"
    },
    {
      "inputs": [
        {
          "internalType": "address",
          "name": "",
          "type": "address"
        }
      ],
      "name": "NotARegisteredProvider",
      "type": "error"
    },
    {
      "inputs": [
        {
          "internalType": "address",
          "name": "",
          "type": "address"
        }
      ],
      "name": "ProviderAgentAlreadyRegistered",
      "type": "error"
    },
    {
      "inputs": [
        {
          "internalType": "address",
          "name": "",
          "type": "address"
        }
      ],
      "name": "ProviderAgentNotRegistered",
      "type": "error"
    },
    {
      "inputs": [
        {
          "internalType": "address",
          "name": "",
          "type": "address"
        }
      ],
      "name": "ProviderAlreadyRegistered",
      "type": "error"
    },
    {
      "inputs": [
        {
          "internalType": "address",
          "name": "",
          "type": "address"
        }
      ],
      "name": "ProviderNotRegistered",
      "type": "error"
    },
    {
      "inputs": [],
      "name": "ZeroAddress",
      "type": "error"
    },
    {
      "anonymous": false,
      "inputs": [
        {
          "indexed": false,
          "internalType": "address",
          "name": "",
          "type": "address"
        },
        {
          "indexed": false,
          "internalType": "bytes4",
          "name": "",
          "type": "bytes4"
        }
      ],
      "name": "ZbyteDPlatDappRegistered",
      "type": "event"
    },
    {
      "anonymous": false,
      "inputs": [
        {
          "indexed": false,
          "internalType": "bytes4",
          "name": "",
          "type": "bytes4"
        },
        {
          "indexed": false,
          "internalType": "uint256",
          "name": "",
          "type": "uint256"
        }
      ],
      "name": "ZbyteDPlatEnterpriseLimitSet",
      "type": "event"
    },
    {
      "anonymous": false,
      "inputs": [
        {
          "indexed": false,
          "internalType": "bytes4",
          "name": "",
          "type": "bytes4"
        },
        {
          "indexed": false,
          "internalType": "address",
          "name": "",
          "type": "address"
        }
      ],
      "name": "ZbyteDPlatEnterpriseRegistered",
      "type": "event"
    },
    {
      "anonymous": false,
      "inputs": [
        {
          "indexed": false,
          "internalType": "address",
          "name": "",
          "type": "address"
        },
        {
          "indexed": false,
          "internalType": "bytes4",
          "name": "",
          "type": "bytes4"
        }
      ],
      "name": "ZbyteDPlatEnterpriseUserRegistered",
      "type": "event"
    },
    {
      "anonymous": false,
      "inputs": [
        {
          "indexed": false,
          "internalType": "address",
          "name": "",
          "type": "address"
        },
        {
          "indexed": false,
          "internalType": "address",
          "name": "",
          "type": "address"
        }
      ],
      "name": "ZbyteDPlatProviderAgentRegistered",
      "type": "event"
    },
    {
      "anonymous": false,
      "inputs": [
        {
          "indexed": false,
          "internalType": "address",
          "name": "",
          "type": "address"
        },
        {
          "indexed": false,
          "internalType": "bool",
          "name": "",
          "type": "bool"
        }
      ],
      "name": "ZbyteDPlatProviderRegistred",
      "type": "event"
    },
    {
      "inputs": [
        {
          "internalType": "address",
          "name": "agent_",
          "type": "address"
        }
      ],
      "name": "deRegisterProviderAgent",
      "outputs": [],
      "stateMutability": "nonpayable",
      "type": "function"
    },
    {
      "inputs": [
        {
          "internalType": "address",
          "name": "dapp_",
          "type": "address"
        }
      ],
      "name": "deregisterDapp",
      "outputs": [],
      "stateMutability": "nonpayable",
      "type": "function"
    },
    {
      "inputs": [
        {
          "internalType": "bytes4",
          "name": "enterprise_",
          "type": "bytes4"
        }
      ],
      "name": "deregisterEnterprise",
      "outputs": [],
      "stateMutability": "nonpayable",
      "type": "function"
    },
    {
      "inputs": [
        {
          "internalType": "address",
          "name": "user_",
          "type": "address"
        }
      ],
      "name": "deregisterEnterpriseUser",
      "outputs": [],
      "stateMutability": "nonpayable",
      "type": "function"
    },
    {
      "inputs": [
        {
          "internalType": "address",
          "name": "provider_",
          "type": "address"
        }
      ],
      "name": "deregisterProvider",
      "outputs": [],
      "stateMutability": "nonpayable",
      "type": "function"
    },
    {
      "inputs": [
        {
          "internalType": "address",
          "name": "dapp_",
          "type": "address"
        }
      ],
      "name": "isEnterpriseDappRegistered",
      "outputs": [
        {
          "internalType": "bytes4",
          "name": "",
          "type": "bytes4"
        }
      ],
      "stateMutability": "view",
      "type": "function"
    },
    {
      "inputs": [
        {
          "internalType": "bytes4",
          "name": "enterprise_",
          "type": "bytes4"
        }
      ],
      "name": "isEnterpriseRegistered",
      "outputs": [
        {
          "internalType": "address",
          "name": "",
          "type": "address"
        }
      ],
      "stateMutability": "view",
      "type": "function"
    },
    {
      "inputs": [
        {
          "internalType": "address",
          "name": "user_",
          "type": "address"
        }
      ],
      "name": "isEnterpriseUserRegistered",
      "outputs": [
        {
          "internalType": "bytes4",
          "name": "",
          "type": "bytes4"
        }
      ],
      "stateMutability": "view",
      "type": "function"
    },
    {
      "inputs": [
        {
          "internalType": "address",
          "name": "agent_",
          "type": "address"
        }
      ],
      "name": "isProviderAgentRegistered",
      "outputs": [
        {
          "internalType": "address",
          "name": "",
          "type": "address"
        }
      ],
      "stateMutability": "view",
      "type": "function"
    },
    {
      "inputs": [
        {
          "internalType": "address",
          "name": "provider_",
          "type": "address"
        }
      ],
      "name": "isProviderRegistered",
      "outputs": [
        {
          "internalType": "bool",
          "name": "",
          "type": "bool"
        }
      ],
      "stateMutability": "view",
      "type": "function"
    },
    {
      "inputs": [
        {
          "internalType": "address",
          "name": "dapp_",
          "type": "address"
        },
        {
          "internalType": "bytes4",
          "name": "enterprise_",
          "type": "bytes4"
        }
      ],
      "name": "registerDapp",
      "outputs": [],
      "stateMutability": "nonpayable",
      "type": "function"
    },
    {
      "inputs": [
        {
          "internalType": "bytes4",
          "name": "enterprise_",
          "type": "bytes4"
        }
      ],
      "name": "registerEnterprise",
      "outputs": [],
      "stateMutability": "nonpayable",
      "type": "function"
    },
    {
      "inputs": [
        {
          "internalType": "address",
          "name": "user_",
          "type": "address"
        },
        {
          "internalType": "bytes4",
          "name": "enterprise_",
          "type": "bytes4"
        }
      ],
      "name": "registerEnterpriseUser",
      "outputs": [],
      "stateMutability": "nonpayable",
      "type": "function"
    },
    {
      "inputs": [
        {
          "internalType": "address",
          "name": "provider_",
          "type": "address"
        }
      ],
      "name": "registerProvider",
      "outputs": [],
      "stateMutability": "nonpayable",
      "type": "function"
    },
    {
      "inputs": [
        {
          "internalType": "address",
          "name": "agent_",
          "type": "address"
        }
      ],
      "name": "registerProviderAgent",
      "outputs": [],
      "stateMutability": "nonpayable",
      "type": "function"
    },
    {
      "inputs": [
        {
          "internalType": "bytes4",
          "name": "enterprise_",
          "type": "bytes4"
        },
        {
          "internalType": "uint256",
          "name": "amount_",
          "type": "uint256"
        }
      ],
      "name": "setEnterpriseLimit",
      "outputs": [],
      "stateMutability": "nonpayable",
      "type": "function"
    }
  ],
  "args": [],
  "numDeployments": 1,
  "solcInputHash": "148873f108a8132414e7e81c341656a2",
  "bytecode": "0x6080806040523461001657611077908161001c8239f35b600080fdfe60406080815260048036101561001457600080fd5b60009060e08235811c8062d2522c14610c645780630e26001614610b8d5780631ead914e14610b5f5780632352face14610b0f578063264fb29c14610ae757806329c11eed14610a065780633118ae9a146109d457806354466892146109995780637d266ae3146108fd5780637f131248146108135780639ae2bf8e1461074f5780639bbdfaa214610621578063b2f04036146104ba578063bac579ac146103be578063c52c73f41461029c5763c9e2ab05146100d057600080fd5b346102985783600319360112610298576100e8610d4f565b906100f1610d81565b926001600160e01b0319808516908115610281576001600160a01b03918261011f61011a610f4b565b610dd1565b54169081156102605760ff61013383610e0a565b541615610249578089526000805160206110228339815191529081602052848b8b2054161561023357895260205280838a8a2054160361021d575061017785610e43565b54841b16610205578316156101f757507f822d049d73911511595a71d104ca3f850ba9414497d561dc7d3b62368370c08193946101f191846101b885610e43565b805463ffffffff19169190921c179055516001600160a01b0390921682526001600160e01b031990921660208201529081906040820190565b0390a180f35b855163d92e233d60e01b8152fd5b8651632f2e2be960e21b815293169083015250602490fd5b836024918a5191639627159960e01b8352820152fd5b856024918c519163bd82596160e01b8352820152fd5b895163ca61871b60e01b8152808601839052602490fd5b60248a868661026d610f4b565b925163680a0d3560e11b8152921690820152fd5b875163128c088b60e01b8152808401839052602490fd5b8280fd5b505091346103ba5760203660031901126103ba576102b8610d6a565b6001600160a01b039390846102ce61011a610f4b565b54169063ffffffff60e01b169182855260008051602061102283398151915295866020528085872054169083156103ad575060ff61030b84610e0a565b5416156103975761038057821561036957508394827fa98ff618fe850b493c45b37cec43b3f7b12c0b0c7db7b16be3b960bbccff7e569552602052828520816001600160601b0360a01b82541617905582519182526020820152a180f35b835163128c088b60e01b8152908101839052602490fd5b83516336ccc67560e11b8152908101839052602490fd5b5060249184519163ca61871b60e01b8352820152fd5b858360249261026d610f4b565b5080fd5b50346102985783600319360112610298576103d7610d4f565b906103e0610d81565b926001600160e01b0319808516908115610281576001600160a01b03918261040961011a610f4b565b54169081156102605760ff61041d83610e0a565b541615610249578089526000805160206110228339815191529081602052848b8b2054161561023357895260205280838a8a2054160361021d575061046185610d98565b54841b166104a2578316156101f757507f83439d262abb77f2a182f4828aa620aa37fcd2aa498a6a175ef00d2bcdd9a7cc93946101f191846101b885610d98565b8651630434690760e41b815293169083015250602490fd5b509291923461061d57602036600319011261061d576104d7610d4f565b906104e182610e43565b546001600160a01b03911b816104f861011a610f4b565b5416906001600160e01b0319168015610605578087526000805160206110228339815191529081602052838789205416156105ef5782156105e25760ff61053e84610e0a565b5416156105cb57875260205280828688205416036105b5575081169182156105a757509061058d7f822d049d73911511595a71d104ca3f850ba9414497d561dc7d3b62368370c0819392610e43565b63ffffffff1981541690558151908152836020820152a180f35b835163d92e233d60e01b8152fd5b83602491865191639627159960e01b8352820152fd5b865163ca61871b60e01b8152808701849052602490fd5b602487878661026d610f4b565b8560249188519163bd82596160e01b8352820152fd5b85516318d92a5160e11b815283851681870152602490fd5b8380fd5b505091346103ba57806003193601126103ba5761063c610d6a565b602435936001600160a01b038061065461011a610f4b565b54169263ffffffff60e01b1692838652600080516020611022833981519152602052818587205416918115610742575060ff61068f82610e0a565b54161561072c5780820361071657501561070157508293817ff9d1da16001891b4a2a5f2d3b941e6dd1c064b98dbd6f81ce6c8144aa34d8f4d94527fbd11ea486bc2027fd35886fb74ddac0d047d847fe642609550f64c01bbda08c9602052808386205582519182526020820152a180f35b915163bd82596160e01b815291820152602490fd5b82602491865191639627159960e01b8352820152fd5b8260249186519163ca61871b60e01b8352820152fd5b858460249261026d610f4b565b505082346102985760203660031901126102985761076b610d4f565b916001600160a01b038061077e85610dd1565b541680156107fb578161078f610f4b565b16036107db5760ff6107a76107a2610f4b565b610e0a565b5416156107bb57846107b885610e7c565b80f35b602493506107c7610f4b565b9251631196593d60e11b8152921690820152fd5b602493506107e7610f4b565b9251639627159960e01b8152921690820152fd5b5060249392519263680a0d3560e11b84521690820152fd5b505091346103ba5760203660031901126103ba5761082f610d6a565b926001600160a01b03908161084561011a610f4b565b54169463ffffffff60e01b16918285526000805160206110228339815191529586602052818587205416918115610742575060ff61088282610e0a565b54161561072c578082036107165750156107015781156108e857508293817fa98ff618fe850b493c45b37cec43b3f7b12c0b0c7db7b16be3b960bbccff7e5694526020528184206001600160601b0360a01b81541690558151908152836020820152a180f35b915163128c088b60e01b815291820152602490fd5b8385843461029857602036600319011261029857610919610d4f565b9160ff6109276107a2610f4b565b541615610971576001600160a01b03908161094185610dd1565b541661095a57846107b885610954610f4b565b90610ee9565b5163e751ad6560e01b815292169082015260249150fd5b60249161097c610f4b565b9151631196593d60e11b81526001600160a01b0390921690820152fd5b8385833461029857602036600319011261029857602092506109c16109bc610d4f565b610d98565b54901b90519063ffffffff60e01b168152f35b8385346103ba5760203660031901126103ba576020906001600160a01b036109fd61011a610d4f565b54169051908152f35b5050823461029857602036600319011261029857610a22610d4f565b91610a2b610f9e565b60ff610a3684610e0a565b541615610ac7576001600160a01b038316908115610ab957506107b89291817f2a3043c965fd883d586cb6563326a8ed21310c87bfcd1a15073ea7f8abb0bfd39286527f96806dd98d766f67e82444fc94615c2d202c6291c29cb3f12d9f396f091d960a60205281862060ff1981541690558151908152856020820152a1610e7c565b825163d92e233d60e01b8152fd5b9051631196593d60e11b81526001600160a01b0390921690820152602490fd5b8385833461029857602036600319011261029857602092506109c1610b0a610d4f565b610e43565b8385346103ba5760203660031901126103ba576020916001600160e01b0319610b36610d6a565b16815260008051602061102283398151915283528190205490516001600160a01b039091168152f35b8385346103ba5760203660031901126103ba5760209060ff610b826107a2610d4f565b541690519015158152f35b5050823461029857602036600319011261029857610ba9610d4f565b91610bb2610f9e565b60ff610bbd84610e0a565b5416610c44576001600160a01b038316908115610ab957506107b89291817f2a3043c965fd883d586cb6563326a8ed21310c87bfcd1a15073ea7f8abb0bfd39286527f96806dd98d766f67e82444fc94615c2d202c6291c29cb3f12d9f396f091d960a602052818620600160ff19825416179055815190815260016020820152a180610ee9565b9051633a7bc11560e11b81526001600160a01b0390921690820152602490fd5b509291923461061d57602036600319011261061d57610c81610d4f565b90610c8b82610d98565b546001600160a01b03911b81610ca261011a610f4b565b5416906001600160e01b0319168015610d37578087526000805160206110228339815191529081602052838789205416156105ef5782156105e25760ff610ce884610e0a565b5416156105cb57875260205280828688205416036105b5575081169182156105a757509061058d7f83439d262abb77f2a182f4828aa620aa37fcd2aa498a6a175ef00d2bcdd9a7cc9392610d98565b855163036f7f9f60e31b815283851681870152602490fd5b600435906001600160a01b0382168203610d6557565b600080fd5b600435906001600160e01b031982168203610d6557565b602435906001600160e01b031982168203610d6557565b6001600160a01b031660009081527fbd11ea486bc2027fd35886fb74ddac0d047d847fe642609550f64c01bbda08c86020526040902090565b6001600160a01b031660009081527f96806dd98d766f67e82444fc94615c2d202c6291c29cb3f12d9f396f091d960b6020526040902090565b6001600160a01b031660009081527f96806dd98d766f67e82444fc94615c2d202c6291c29cb3f12d9f396f091d960a6020526040902090565b6001600160a01b031660009081527fbd11ea486bc2027fd35886fb74ddac0d047d847fe642609550f64c01bbda08c76020526040902090565b6001600160a01b038116908115610ed7577fb0c62993da455bf43a6f32bb6e49959e49609dcc6c80a1a2afef7cdb424b5b4b91610eba604092610dd1565b80546001600160a01b0319169055815190815260006020820152a1565b60405163d92e233d60e01b8152600490fd5b6001600160a01b0391818316908115610ed7577fb0c62993da455bf43a6f32bb6e49959e49609dcc6c80a1a2afef7cdb424b5b4b93610f29604094610dd1565b911690816001600160601b0360a01b82541617905582519182526020820152a1565b601436101580610f6b575b15610f675736601319013560601c90565b3390565b507f580a56aff4c8445faf8644f12c3b0f5d37fcb3a8e0a0f9b1b360da94678271dd546001600160a01b03163314610f56565b7fc8fcad8db84d3cc18b4c41d551ea0ee66dd599cde068d998e57d5e09332c1320546001600160a01b03163303610fd157565b60405162461bcd60e51b815260206004820152602260248201527f4c69624469616d6f6e643a204d75737420626520636f6e7472616374206f776e60448201526132b960f11b6064820152608490fdfebd11ea486bc2027fd35886fb74ddac0d047d847fe642609550f64c01bbda08c5a2646970667358221220ea79092adf2a8bd0c7a879feff410db4ba93122aafeccd484d01ab2c4b6a078764736f6c63430008110033",
  "devdoc": {
    "details": "Zbyte DPlat Registration Facet",
    "kind": "dev",
    "methods": {
      "deRegisterProviderAgent(address)": {
        "params": {
          "agent_": "The address of the provider agent to deregister."
        }
      },
      "deregisterDapp(address)": {
        "params": {
          "dapp_": "The address of the Dapp to deregister."
        }
      },
      "deregisterEnterprise(bytes4)": {
        "params": {
          "enterprise_": "The bytes4 identifier of the enterprise to deregister."
        }
      },
      "deregisterEnterpriseUser(address)": {
        "params": {
          "user_": "The address of the user to deregister."
        }
      },
      "deregisterProvider(address)": {
        "params": {
          "provider_": "The address of the provider to deregister."
        }
      },
      "isEnterpriseDappRegistered(address)": {
        "params": {
          "dapp_": "The address of the Dapp to check."
        },
        "returns": {
          "_0": "The identifier of the associated registered enterprise."
        }
      },
      "isEnterpriseRegistered(bytes4)": {
        "params": {
          "enterprise_": "The identifier of the enterprise to check."
        },
        "returns": {
          "_0": "The address of the associated registered provider."
        }
      },
      "isEnterpriseUserRegistered(address)": {
        "params": {
          "user_": "The address of the user to check."
        },
        "returns": {
          "_0": "The identifier of the associated registered enterprise."
        }
      },
      "isProviderAgentRegistered(address)": {
        "params": {
          "agent_": "The address of the provider agent to check."
        },
        "returns": {
          "_0": "The address of the associated registered provider."
        }
      },
      "isProviderRegistered(address)": {
        "params": {
          "provider_": "The address of the provider to check."
        },
        "returns": {
          "_0": "A boolean indicating whether the provider is registered."
        }
      },
      "registerDapp(address,bytes4)": {
        "params": {
          "dapp_": "The address of the Dapp to register.",
          "enterprise_": "The bytes4 identifier of the enterprise."
        }
      },
      "registerEnterprise(bytes4)": {
        "params": {
          "enterprise_": "The bytes4 identifier of the enterprise to register."
        }
      },
      "registerEnterpriseUser(address,bytes4)": {
        "params": {
          "enterprise_": "The bytes4 identifier of the enterprise.",
          "user_": "The address of the user to register."
        }
      },
      "registerProvider(address)": {
        "details": "Relation between provider, agent, enterprise, users and dapps is as follows: zbyte\\ ____(1) <--------> (n) provider\\ ____________________________(1) <--------> (n) agent\\ ____________________________(1) <--------> (n) enterprise\\ ________________________________________________________(1) <--------> (n) user\\ ________________________________________________________(1) <--------> (n) dapp   For an enterprise usecase, an enterprise can allow users to invoke registered dapps.\\   Users can invoke the contract functions without any need to hold crypto assets.\\   L1 needed for the call is given by the authorized workers and providers compensate them in vERC20.\\ \\   For opensource usecase,\\   Users can invoke the contract functions without any need to hold L1 assets.\\   L1 needed for the call is given by the authorized workers and the users compensate them in vERC20\\ \\   NOTE: When one of the components (provider, enterprise, agent, user or dapp) is deregistered,\\    all the other components registered under it remain registered.\\    So, if the component is registered again, the entire subtree becomes active again",
        "params": {
          "provider_": "The address of the provider to register."
        }
      },
      "registerProviderAgent(address)": {
        "params": {
          "agent_": "The address of the provider agent to register."
        }
      },
      "setEnterpriseLimit(bytes4,uint256)": {
        "params": {
          "amount_": "The new limit amount.",
          "enterprise_": "The bytes4 identifier of the enterprise."
        }
      }
    },
    "version": 1
  },
  "userdoc": {
    "errors": {
      "EnterpriseAlreadyRegistered(bytes4)": [
        {
          "notice": "error (0x6d998cea): Enterprise is already registered."
        }
      ],
      "EnterpriseDappAlreadyRegistered(address)": [
        {
          "notice": "error (0xbcb8afa4): Enterprise dapp is already registered."
        }
      ],
      "EnterpriseDappNotRegistered(address)": [
        {
          "notice": "error (0x31b254a2): Enterprise dapp is not registered."
        }
      ],
      "EnterpriseNotRegistered(bytes4)": [
        {
          "notice": "error (0xbd825961): Enterprise is not registered."
        }
      ],
      "EnterpriseUserAlreadyRegistered(address)": [
        {
          "notice": "error (0x43469070): Enterprise user is already registered."
        }
      ],
      "EnterpriseUserNotRegistered(address)": [
        {
          "notice": "error (0x1b7bfcf8): Enterprise user is not registered."
        }
      ],
      "InvalidEnterprise(bytes4)": [
        {
          "notice": "error (0x128c088b): Invalid enterprise hash."
        }
      ],
      "InvalidProvider(address)": [
        {
          "notice": "error (0x96271599): Invalid provider."
        }
      ],
      "NotAForwarder()": [
        {
          "notice": "error (0x5ac85bab): Caller is not a forwarder"
        }
      ],
      "NotARegisteredProvider(address)": [
        {
          "notice": "error (0xca61871b): Not a registered provider."
        }
      ],
      "ProviderAgentAlreadyRegistered(address)": [
        {
          "notice": "error (0xe751ad65): Provider Agent is already registered."
        }
      ],
      "ProviderAgentNotRegistered(address)": [
        {
          "notice": "error (0xd0141a6a): Not a registered provider agent."
        }
      ],
      "ProviderAlreadyRegistered(address)": [
        {
          "notice": "errorserror (0x74f7822a): Provider already registered."
        }
      ],
      "ProviderNotRegistered(address)": [
        {
          "notice": "error (0x232cb27a): Provider not registered."
        }
      ]
    },
    "events": {
      "ZbyteDPlatDappRegistered(address,bytes4)": {
        "notice": "event (0x822d049d): Zbyte DPlat dapp is registered."
      },
      "ZbyteDPlatEnterpriseLimitSet(bytes4,uint256)": {
        "notice": "event (0xf9d1da16): Zbyte DPlat enterprise limit is set."
      },
      "ZbyteDPlatEnterpriseRegistered(bytes4,address)": {
        "notice": "event (0xa98ff618): Zbyte DPlat enterprise is registered."
      },
      "ZbyteDPlatEnterpriseUserRegistered(address,bytes4)": {
        "notice": "event (0x83439d26): Zbyte DPlat enterprise user is registered."
      },
      "ZbyteDPlatProviderAgentRegistered(address,address)": {
        "notice": "event (0xb0c62993): Zbyte DPlat provider agent is registered."
      },
      "ZbyteDPlatProviderRegistred(address,bool)": {
        "notice": "eventsevent (0x2a3043c9): Zbyte DPlat provider is registered."
      }
    },
    "kind": "user",
    "methods": {
      "deRegisterProviderAgent(address)": {
        "notice": "Deregisters a provider agent."
      },
      "deregisterDapp(address)": {
        "notice": "Deregisters a Dapp for an enterprise."
      },
      "deregisterEnterprise(bytes4)": {
        "notice": "Deregisters an enterprise."
      },
      "deregisterEnterpriseUser(address)": {
        "notice": "Deregisters an enterprise user."
      },
      "deregisterProvider(address)": {
        "notice": "Deregisters a provider."
      },
      "isEnterpriseDappRegistered(address)": {
        "notice": "Checks if an enterprise Dapp is registered and returns the associated enterprise identifier."
      },
      "isEnterpriseRegistered(bytes4)": {
        "notice": "Checks if an enterprise is registered and returns the associated provider's address."
      },
      "isEnterpriseUserRegistered(address)": {
        "notice": "Checks if an enterprise user is registered and returns the associated enterprise identifier."
      },
      "isProviderAgentRegistered(address)": {
        "notice": "Checks if a provider agent is registered and returns the associated provider's address."
      },
      "isProviderRegistered(address)": {
        "notice": "Checks if a provider is registered."
      },
      "registerDapp(address,bytes4)": {
        "notice": "Registers a Dapp for an enterprise."
      },
      "registerEnterprise(bytes4)": {
        "notice": "Registers an enterprise."
      },
      "registerEnterpriseUser(address,bytes4)": {
        "notice": "Registers an enterprise user."
      },
      "registerProvider(address)": {
        "notice": "Registers a provider."
      },
      "registerProviderAgent(address)": {
        "notice": "Registers a provider agent."
      },
      "setEnterpriseLimit(bytes4,uint256)": {
        "notice": "Sets the enterprise limit for a specific enterprise."
      }
    },
    "notice": "Zbyte DPlat Registration Facet",
    "version": 1
  },
  "storageLayout": {
    "storage": [],
    "types": null
  }
}