{
  "address": "0x469e99DB6518022e0F3C9A54fEFA599EADDf93C2",
  "abi": [
    {
      "inputs": [],
      "name": "NotAForwarder",
      "type": "error"
    },
    {
      "anonymous": false,
      "inputs": [
        {
          "indexed": false,
          "internalType": "uint256",
          "name": "",
          "type": "uint256"
        }
      ],
      "name": "ZbyteBurnFactorSet",
      "type": "event"
    },
    {
      "anonymous": false,
      "inputs": [
        {
          "indexed": false,
          "internalType": "address",
          "name": "",
          "type": "address"
        }
      ],
      "name": "ZbyteVTokenAddressSet",
      "type": "event"
    },
    {
      "anonymous": false,
      "inputs": [
        {
          "indexed": false,
          "internalType": "uint256",
          "name": "",
          "type": "uint256"
        }
      ],
      "name": "ZbyteValueInNativeEthGweiSet",
      "type": "event"
    },
    {
      "inputs": [],
      "name": "getZbyteBurnFactor",
      "outputs": [
        {
          "internalType": "uint256",
          "name": "",
          "type": "uint256"
        }
      ],
      "stateMutability": "view",
      "type": "function"
    },
    {
      "inputs": [],
      "name": "getZbyteVToken",
      "outputs": [
        {
          "internalType": "address",
          "name": "",
          "type": "address"
        }
      ],
      "stateMutability": "view",
      "type": "function"
    },
    {
      "inputs": [],
      "name": "getZbyteValueInNativeEthGwei",
      "outputs": [
        {
          "internalType": "uint256",
          "name": "",
          "type": "uint256"
        }
      ],
      "stateMutability": "view",
      "type": "function"
    },
    {
      "inputs": [
        {
          "internalType": "uint256",
          "name": "zbyteBurnFactor_",
          "type": "uint256"
        }
      ],
      "name": "setZbyteBurnFactor",
      "outputs": [],
      "stateMutability": "nonpayable",
      "type": "function"
    },
    {
      "inputs": [
        {
          "internalType": "address",
          "name": "zbyteVToken_",
          "type": "address"
        }
      ],
      "name": "setZbyteVToken",
      "outputs": [],
      "stateMutability": "nonpayable",
      "type": "function"
    },
    {
      "inputs": [
        {
          "internalType": "uint256",
          "name": "zbyteValueInNativeEthGwei_",
          "type": "uint256"
        }
      ],
      "name": "setZbyteValueInNativeEthGwei",
      "outputs": [],
      "stateMutability": "nonpayable",
      "type": "function"
    }
  ],
  "args": [],
  "numDeployments": 1,
  "solcInputHash": "148873f108a8132414e7e81c341656a2",
  "bytecode": "0x608080604052346100165761034a908161001c8239f35b600080fdfe604060808152600436101561001357600080fd5b600090813560e01c80630d6f020e146102245780635652ce0e146101b7578063819ab8701461017a578063a8f7e86f1461013d578063d5755003146100ab5763d7cd686a1461006157600080fd5b346100a757816003193601126100a7577f2d1bb8cbbb4d7783ef4f9001d0b7478185bda33b0093daf501edbebc75bc30825490516001600160a01b039091168152602090f35b5080fd5b50346100a75760203660031901126100a7576004356001600160a01b0381169190829003610139577f10e1dc224df36a1f4b4122ccf0b52dc1d14592537fd5e25436beb33d0f12d5f991602091610100610291565b7f2d1bb8cbbb4d7783ef4f9001d0b7478185bda33b0093daf501edbebc75bc308280546001600160a01b0319168317905551908152a180f35b8280fd5b50346100a757816003193601126100a7576020907f2d1bb8cbbb4d7783ef4f9001d0b7478185bda33b0093daf501edbebc75bc3084549051908152f35b50346100a757816003193601126100a7576020907f2d1bb8cbbb4d7783ef4f9001d0b7478185bda33b0093daf501edbebc75bc3083549051908152f35b50346100a75760203660031901126100a75760207fa0e61546b4c2d3b3fe28108663000d3dea1a9a7c06f9d4f11f311eed0f834f6491600435906101f9610291565b817f2d1bb8cbbb4d7783ef4f9001d0b7478185bda33b0093daf501edbebc75bc30835551908152a180f35b50346100a75760203660031901126100a75760207fd7a7cf8c12afe4c79f60ab5e2a24bab1978af679f071af7602901a77208e45919160043590610266610291565b817f2d1bb8cbbb4d7783ef4f9001d0b7478185bda33b0093daf501edbebc75bc30845551908152a180f35b7fc8fcad8db84d3cc18b4c41d551ea0ee66dd599cde068d998e57d5e09332c1320546001600160a01b031633036102c457565b60405162461bcd60e51b815260206004820152602260248201527f4c69624469616d6f6e643a204d75737420626520636f6e7472616374206f776e60448201526132b960f11b6064820152608490fdfea26469706673582212208e406477fa5573f30b094a06db677aacfef6ddadcf254f51047ec0358cd10a8764736f6c63430008110033",
  "devdoc": {
    "details": "DPlat Base Facet contract",
    "kind": "dev",
    "methods": {
      "getZbyteBurnFactor()": {
        "returns": {
          "_0": "The Zbyte burn factor (0-100)."
        }
      },
      "getZbyteVToken()": {
        "returns": {
          "_0": "The address of the ZbyteVToken."
        }
      },
      "getZbyteValueInNativeEthGwei()": {
        "returns": {
          "_0": "The value of Zbyte in native Ether (in Gwei)."
        }
      },
      "setZbyteBurnFactor(uint256)": {
        "params": {
          "zbyteBurnFactor_": "Zbyte burn factor"
        }
      },
      "setZbyteVToken(address)": {
        "params": {
          "zbyteVToken_": "The address of the ZbyteVToken."
        }
      },
      "setZbyteValueInNativeEthGwei(uint256)": {
        "params": {
          "zbyteValueInNativeEthGwei_": "The value of Zbyte in native Ether (in Gwei)."
        }
      }
    },
    "title": "DPlat Base Facet contract",
    "version": 1
  },
  "userdoc": {
    "errors": {
      "NotAForwarder()": [
        {
          "notice": "error (0x5ac85bab): Caller is not a forwarder"
        }
      ]
    },
    "events": {
      "ZbyteBurnFactorSet(uint256)": {
        "notice": "event (0xd7a7cf8c): Zbyte burn factor is set."
      },
      "ZbyteVTokenAddressSet(address)": {
        "notice": "event (0x10e1dc22): VZbyte token address is set."
      },
      "ZbyteValueInNativeEthGweiSet(uint256)": {
        "notice": "event (0xa0e61546): Zbyte token value in terms of native eth is set."
      }
    },
    "kind": "user",
    "methods": {
      "getZbyteBurnFactor()": {
        "notice": "Gets the Zbyte burn factor."
      },
      "getZbyteVToken()": {
        "notice": "Gets the address of the ZbyteVToken."
      },
      "getZbyteValueInNativeEthGwei()": {
        "notice": "Gets the value of Zbyte in native Ether (in Gwei)."
      },
      "setZbyteBurnFactor(uint256)": {
        "notice": "Sets the Zbyte burn factor."
      },
      "setZbyteVToken(address)": {
        "notice": "Sets the address of the ZbyteVToken."
      },
      "setZbyteValueInNativeEthGwei(uint256)": {
        "notice": "Sets the value of Zbyte in native Ether (in Gwei)."
      }
    },
    "version": 1
  },
  "storageLayout": {
    "storage": [],
    "types": null
  }
}