{
  "address": "0xaD9b3018F186E69401fDB011aF48d84B8747D63B",
  "abi": [
    {
      "inputs": [],
      "name": "NotAForwarder",
      "type": "error"
    },
    {
      "anonymous": false,
      "inputs": [
        {
          "indexed": false,
          "internalType": "uint256",
          "name": "",
          "type": "uint256"
        }
      ],
      "name": "ZbyteBurnFactorSet",
      "type": "event"
    },
    {
      "anonymous": false,
      "inputs": [
        {
          "indexed": false,
          "internalType": "address",
          "name": "",
          "type": "address"
        }
      ],
      "name": "ZbytePriceFeederSet",
      "type": "event"
    },
    {
      "anonymous": false,
      "inputs": [
        {
          "indexed": false,
          "internalType": "address",
          "name": "",
          "type": "address"
        }
      ],
      "name": "ZbyteVTokenAddressSet",
      "type": "event"
    },
    {
      "anonymous": false,
      "inputs": [
        {
          "indexed": false,
          "internalType": "uint256",
          "name": "",
          "type": "uint256"
        }
      ],
      "name": "ZbyteValueInNativeEthGweiSet",
      "type": "event"
    },
    {
      "inputs": [],
      "name": "getZbytePriceFeeder",
      "outputs": [
        {
          "internalType": "address",
          "name": "",
          "type": "address"
        }
      ],
      "stateMutability": "view",
      "type": "function"
    },
    {
      "inputs": [],
      "name": "getZbyteVToken",
      "outputs": [
        {
          "internalType": "address",
          "name": "",
          "type": "address"
        }
      ],
      "stateMutability": "view",
      "type": "function"
    },
    {
      "inputs": [
        {
          "internalType": "address",
          "name": "zbytePriceFeeder_",
          "type": "address"
        }
      ],
      "name": "setZbytePriceFeeder",
      "outputs": [],
      "stateMutability": "nonpayable",
      "type": "function"
    },
    {
      "inputs": [
        {
          "internalType": "address",
          "name": "zbyteVToken_",
          "type": "address"
        }
      ],
      "name": "setZbyteVToken",
      "outputs": [],
      "stateMutability": "nonpayable",
      "type": "function"
    }
  ],
  "transactionHash": "0x34ff72ad8eb57fd43c8cca0c6ce8a4d841687b3ecfbfce440659472a35fa6ea4",
  "args": [],
  "numDeployments": 1,
  "solcInputHash": "964524c94cd1bbee165f5e0d9eb57c95",
  "bytecode": "0x60808060405234610016576102b4908161001c8239f35b600080fdfe608080604052600436101561001357600080fd5b600090813560e01c90816310f9fe5c146101b7575080631e88b02c14610129578063d5755003146100975763d7cd686a1461004d57600080fd5b346100945780600319360112610094577f2d1bb8cbbb4d7783ef4f9001d0b7478185bda33b0093daf501edbebc75bc3082546040516001600160a01b039091168152602090f35b80fd5b5034610094576020366003190112610094576004356001600160a01b038116908190036101255760207f10e1dc224df36a1f4b4122ccf0b52dc1d14592537fd5e25436beb33d0f12d5f9916100ea6101fb565b7f2d1bb8cbbb4d7783ef4f9001d0b7478185bda33b0093daf501edbebc75bc308280546001600160a01b03191682179055604051908152a180f35b5080fd5b5034610094576020366003190112610094576004356001600160a01b038116908190036101255760207fe603ec365112132e3918640147d783c4d69f8f3c8944de042066739880d33f999161017c6101fb565b7f2d1bb8cbbb4d7783ef4f9001d0b7478185bda33b0093daf501edbebc75bc308380546001600160a01b03191682179055604051908152a180f35b9050346101255781600319360112610125577f2d1bb8cbbb4d7783ef4f9001d0b7478185bda33b0093daf501edbebc75bc3083546001600160a01b03168152602090f35b7fc8fcad8db84d3cc18b4c41d551ea0ee66dd599cde068d998e57d5e09332c1320546001600160a01b0316330361022e57565b60405162461bcd60e51b815260206004820152602260248201527f4c69624469616d6f6e643a204d75737420626520636f6e7472616374206f776e60448201526132b960f11b6064820152608490fdfea2646970667358221220b0b0bf26721aa46c62c18961836ec947d069e319b44e11e99a3395c2be68370064736f6c63430008110033",
  "devdoc": {
    "details": "DPlat Base Facet contract",
    "kind": "dev",
    "methods": {
      "getZbyteVToken()": {
        "returns": {
          "_0": "The address of the ZbyteVToken."
        }
      },
      "setZbytePriceFeeder(address)": {
        "params": {
          "zbytePriceFeeder_": "Zbyte Price Feeder address."
        }
      },
      "setZbyteVToken(address)": {
        "params": {
          "zbyteVToken_": "The address of the ZbyteVToken."
        }
      }
    },
    "title": "DPlat Base Facet contract",
    "version": 1
  },
  "userdoc": {
    "errors": {
      "NotAForwarder()": [
        {
          "notice": "error (0x5ac85bab): Caller is not a forwarder"
        }
      ]
    },
    "events": {
      "ZbyteBurnFactorSet(uint256)": {
        "notice": "event (0xd7a7cf8c): Zbyte burn factor is set."
      },
      "ZbytePriceFeederSet(address)": {
        "notice": "event (0xe603ec36): Zbyte price feeder is set."
      },
      "ZbyteVTokenAddressSet(address)": {
        "notice": "event (0x10e1dc22): VZbyte token address is set."
      },
      "ZbyteValueInNativeEthGweiSet(uint256)": {
        "notice": "event (0xa0e61546): Zbyte token value in terms of native eth is set."
      }
    },
    "kind": "user",
    "methods": {
      "getZbyteVToken()": {
        "notice": "Gets the address of the ZbyteVToken."
      },
      "setZbytePriceFeeder(address)": {
        "notice": "Sets the Zbyte Price Feeder address."
      },
      "setZbyteVToken(address)": {
        "notice": "Sets the address of the ZbyteVToken."
      }
    },
    "version": 1
  },
  "storageLayout": {
    "storage": [],
    "types": null
  }
}